{
  "transactions": [
    {
      "hash": "0xecef773fad60bf18e357407d374047f5c44035c2faa5b567e2d4c2bddb6f7059",
      "transactionType": "CREATE",
      "contractName": "MockERC20",
      "contractAddress": "0xe7affafec9a196bf572ea50c3e149c626409de2f",
      "function": null,
      "arguments": [
        "Mock WETH",
        "mWETH",
        "18"
      ],
      "transaction": {
        "from": "0x4b992f2fbf714c0fcbb23bac5130ace48cad00cd",
        "gas": "0xea855",
        "value": "0x0",
        "input": "0x60e060405234801561000f575f5ffd5b50604051610f39380380610f3983398101604081905261002e916101a1565b8282825f61003c84826102a2565b50600161004983826102a2565b5060ff81166080524660a05261005d61006c565b60c052506103cd945050505050565b5f7f8b73c3c69bb8fe3d512ecc4cf759cc79239f7b179b0ffacaa9a75d522b39400f5f60405161009c919061035c565b6040805191829003822060208301939093528101919091527fc89efdaa54c0f20c7adf612882df0950f5a951637e0307cdcb4c672f298b8bc660608201524660808201523060a082015260c00160405160208183030381529060405280519060200120905090565b634e487b7160e01b5f52604160045260245ffd5b5f82601f830112610127575f5ffd5b81516001600160401b0381111561014057610140610104565b604051601f8201601f19908116603f011681016001600160401b038111828210171561016e5761016e610104565b604052818152838201602001851015610185575f5ffd5b8160208501602083015e5f918101602001919091529392505050565b5f5f5f606084860312156101b3575f5ffd5b83516001600160401b038111156101c8575f5ffd5b6101d486828701610118565b602086015190945090506001600160401b038111156101f1575f5ffd5b6101fd86828701610118565b925050604084015160ff81168114610213575f5ffd5b809150509250925092565b600181811c9082168061023257607f821691505b60208210810361025057634e487b7160e01b5f52602260045260245ffd5b50919050565b601f82111561029d57805f5260205f20601f840160051c8101602085101561027b5750805b601f840160051c820191505b8181101561029a575f8155600101610287565b50505b505050565b81516001600160401b038111156102bb576102bb610104565b6102cf816102c9845461021e565b84610256565b6020601f821160018114610301575f83156102ea5750848201515b5f19600385901b1c1916600184901b17845561029a565b5f84815260208120601f198516915b828110156103305787850151825560209485019460019092019101610310565b508482101561034d57868401515f19600387901b60f8161c191681555b50505050600190811b01905550565b5f5f83546103698161021e565b6001821680156103805760018114610395576103c2565b60ff19831686528115158202860193506103c2565b865f5260205f205f5b838110156103ba5781548882015260019091019060200161039e565b505081860193505b509195945050505050565b60805160a05160c051610b426103f75f395f61045c01525f61042701525f6101590152610b425ff3fe608060405234801561000f575f5ffd5b50600436106100e5575f3560e01c806370a08231116100885780639dc29fac116100635780639dc29fac146101f0578063a9059cbb14610203578063d505accf14610216578063dd62ed3e14610229575f5ffd5b806370a08231146101aa5780637ecebe00146101c957806395d89b41146101e8575f5ffd5b806323b872dd116100c357806323b872dd14610141578063313ce567146101545780633644e5151461018d57806340c10f1914610195575f5ffd5b806306fdde03146100e9578063095ea7b31461010757806318160ddd1461012a575b5f5ffd5b6100f1610253565b6040516100fe9190610897565b60405180910390f35b61011a6101153660046108e7565b6102de565b60405190151581526020016100fe565b61013360025481565b6040519081526020016100fe565b61011a61014f36600461090f565b61034a565b61017b7f000000000000000000000000000000000000000000000000000000000000000081565b60405160ff90911681526020016100fe565b610133610424565b6101a86101a33660046108e7565b61047e565b005b6101336101b8366004610949565b60036020525f908152604090205481565b6101336101d7366004610949565b60056020525f908152604090205481565b6100f161048c565b6101a86101fe3660046108e7565b610499565b61011a6102113660046108e7565b6104a3565b6101a8610224366004610969565b610506565b6101336102373660046109d6565b600460209081525f928352604080842090915290825290205481565b5f805461025f90610a07565b80601f016020809104026020016040519081016040528092919081815260200182805461028b90610a07565b80156102d65780601f106102ad576101008083540402835291602001916102d6565b820191905f5260205f20905b8154815290600101906020018083116102b957829003601f168201915b505050505081565b335f8181526004602090815260408083206001600160a01b038716808552925280832085905551919290917f8c5be1e5ebec7d5bd14f71427d1e84f3dd0314c0f7b2291e5b200ac8c7c3b925906103389086815260200190565b60405180910390a35060015b92915050565b6001600160a01b0383165f9081526004602090815260408083203384529091528120545f1981146103a35761037f8382610a53565b6001600160a01b0386165f9081526004602090815260408083203384529091529020555b6001600160a01b0385165f90815260036020526040812080548592906103ca908490610a53565b90915550506001600160a01b038085165f81815260036020526040908190208054870190555190918716905f516020610b165f395f51905f52906104119087815260200190565b60405180910390a3506001949350505050565b5f7f0000000000000000000000000000000000000000000000000000000000000000461461045957610454610749565b905090565b507f000000000000000000000000000000000000000000000000000000000000000090565b61048882826107e1565b5050565b6001805461025f90610a07565b6104888282610838565b335f908152600360205260408120805483919083906104c3908490610a53565b90915550506001600160a01b0383165f81815260036020526040908190208054850190555133905f516020610b165f395f51905f52906103389086815260200190565b4284101561055b5760405162461bcd60e51b815260206004820152601760248201527f5045524d49545f444541444c494e455f4558504952454400000000000000000060448201526064015b60405180910390fd5b5f6001610566610424565b6001600160a01b038a81165f8181526005602090815260409182902080546001810190915582517f6e71edae12b1b97f4d1f60370fef10105fa2faae0126114a169c64845d6126c98184015280840194909452938d166060840152608083018c905260a083019390935260c08083018b90528151808403909101815260e08301909152805192019190912061190160f01b6101008301526101028201929092526101228101919091526101420160408051601f1981840301815282825280516020918201205f84529083018083525260ff871690820152606081018590526080810184905260a0016020604051602081039080840390855afa15801561066e573d5f5f3e3d5ffd5b5050604051601f1901519150506001600160a01b038116158015906106a45750876001600160a01b0316816001600160a01b0316145b6106e15760405162461bcd60e51b815260206004820152600e60248201526d24a72b20a624a22fa9a4a3a722a960911b6044820152606401610552565b6001600160a01b039081165f9081526004602090815260408083208a8516808552908352928190208990555188815291928a16917f8c5be1e5ebec7d5bd14f71427d1e84f3dd0314c0f7b2291e5b200ac8c7c3b925910160405180910390a350505050505050565b5f7f8b73c3c69bb8fe3d512ecc4cf759cc79239f7b179b0ffacaa9a75d522b39400f5f6040516107799190610a66565b6040805191829003822060208301939093528101919091527fc89efdaa54c0f20c7adf612882df0950f5a951637e0307cdcb4c672f298b8bc660608201524660808201523060a082015260c00160405160208183030381529060405280519060200120905090565b8060025f8282546107f29190610b02565b90915550506001600160a01b0382165f818152600360209081526040808320805486019055518481525f516020610b165f395f51905f5291015b60405180910390a35050565b6001600160a01b0382165f908152600360205260408120805483929061085f908490610a53565b90915550506002805482900390556040518181525f906001600160a01b038416905f516020610b165f395f51905f529060200161082c565b602081525f82518060208401528060208501604085015e5f604082850101526040601f19601f83011684010191505092915050565b80356001600160a01b03811681146108e2575f5ffd5b919050565b5f5f604083850312156108f8575f5ffd5b610901836108cc565b946020939093013593505050565b5f5f5f60608486031215610921575f5ffd5b61092a846108cc565b9250610938602085016108cc565b929592945050506040919091013590565b5f60208284031215610959575f5ffd5b610962826108cc565b9392505050565b5f5f5f5f5f5f5f60e0888a03121561097f575f5ffd5b610988886108cc565b9650610996602089016108cc565b95506040880135945060608801359350608088013560ff811681146109b9575f5ffd5b9699959850939692959460a0840135945060c09093013592915050565b5f5f604083850312156109e7575f5ffd5b6109f0836108cc565b91506109fe602084016108cc565b90509250929050565b600181811c90821680610a1b57607f821691505b602082108103610a3957634e487b7160e01b5f52602260045260245ffd5b50919050565b634e487b7160e01b5f52601160045260245ffd5b8181038181111561034457610344610a3f565b5f5f83545f8160011c90506001821680610a8157607f821691505b602082108103610a9f57634e487b7160e01b5f52602260045260245ffd5b808015610ab35760018114610ac857610af6565b60ff1984168752821515830287019450610af6565b5f888152602090205f5b84811015610aee57815489820152600190910190602001610ad2565b505082870194505b50929695505050505050565b8082018082111561034457610344610a3f56feddf252ad1be2c89b69c2b068fc378daa952ba7f163c4a11628f55a4df523b3efa164736f6c634300081e000a000000000000000000000000000000000000000000000000000000000000006000000000000000000000000000000000000000000000000000000000000000a0000000000000000000000000000000000000000000000000000000000000001200000000000000000000000000000000000000000000000000000000000000094d6f636b2057455448000000000000000000000000000000000000000000000000000000000000000000000000000000000000000000000000000000000000056d57455448000000000000000000000000000000000000000000000000000000",
        "nonce": "0x395",
        "chainId": "0x515"
      },
      "additionalContracts": [],
      "isFixedGasLimit": false
    },
    {
      "hash": "0x3d149be64ffdfcddbc7d4534f5dc52bbf6012fdf74f4db6f1cb4ad64c9711746",
      "transactionType": "CREATE",
      "contractName": "MockERC20",
      "contractAddress": "0x26d8addca2fe30895de2b6e5aaee63cfd91bc4e2",
      "function": null,
      "arguments": [
        "Mock USDC",
        "mUSDC",
        "6"
      ],
      "transaction": {
        "from": "0x4b992f2fbf714c0fcbb23bac5130ace48cad00cd",
        "gas": "0xea855",
        "value": "0x0",
        "input": "0x60e060405234801561000f575f5ffd5b50604051610f39380380610f3983398101604081905261002e916101a1565b8282825f61003c84826102a2565b50600161004983826102a2565b5060ff81166080524660a05261005d61006c565b60c052506103cd945050505050565b5f7f8b73c3c69bb8fe3d512ecc4cf759cc79239f7b179b0ffacaa9a75d522b39400f5f60405161009c919061035c565b6040805191829003822060208301939093528101919091527fc89efdaa54c0f20c7adf612882df0950f5a951637e0307cdcb4c672f298b8bc660608201524660808201523060a082015260c00160405160208183030381529060405280519060200120905090565b634e487b7160e01b5f52604160045260245ffd5b5f82601f830112610127575f5ffd5b81516001600160401b0381111561014057610140610104565b604051601f8201601f19908116603f011681016001600160401b038111828210171561016e5761016e610104565b604052818152838201602001851015610185575f5ffd5b8160208501602083015e5f918101602001919091529392505050565b5f5f5f606084860312156101b3575f5ffd5b83516001600160401b038111156101c8575f5ffd5b6101d486828701610118565b602086015190945090506001600160401b038111156101f1575f5ffd5b6101fd86828701610118565b925050604084015160ff81168114610213575f5ffd5b809150509250925092565b600181811c9082168061023257607f821691505b60208210810361025057634e487b7160e01b5f52602260045260245ffd5b50919050565b601f82111561029d57805f5260205f20601f840160051c8101602085101561027b5750805b601f840160051c820191505b8181101561029a575f8155600101610287565b50505b505050565b81516001600160401b038111156102bb576102bb610104565b6102cf816102c9845461021e565b84610256565b6020601f821160018114610301575f83156102ea5750848201515b5f19600385901b1c1916600184901b17845561029a565b5f84815260208120601f198516915b828110156103305787850151825560209485019460019092019101610310565b508482101561034d57868401515f19600387901b60f8161c191681555b50505050600190811b01905550565b5f5f83546103698161021e565b6001821680156103805760018114610395576103c2565b60ff19831686528115158202860193506103c2565b865f5260205f205f5b838110156103ba5781548882015260019091019060200161039e565b505081860193505b509195945050505050565b60805160a05160c051610b426103f75f395f61045c01525f61042701525f6101590152610b425ff3fe608060405234801561000f575f5ffd5b50600436106100e5575f3560e01c806370a08231116100885780639dc29fac116100635780639dc29fac146101f0578063a9059cbb14610203578063d505accf14610216578063dd62ed3e14610229575f5ffd5b806370a08231146101aa5780637ecebe00146101c957806395d89b41146101e8575f5ffd5b806323b872dd116100c357806323b872dd14610141578063313ce567146101545780633644e5151461018d57806340c10f1914610195575f5ffd5b806306fdde03146100e9578063095ea7b31461010757806318160ddd1461012a575b5f5ffd5b6100f1610253565b6040516100fe9190610897565b60405180910390f35b61011a6101153660046108e7565b6102de565b60405190151581526020016100fe565b61013360025481565b6040519081526020016100fe565b61011a61014f36600461090f565b61034a565b61017b7f000000000000000000000000000000000000000000000000000000000000000081565b60405160ff90911681526020016100fe565b610133610424565b6101a86101a33660046108e7565b61047e565b005b6101336101b8366004610949565b60036020525f908152604090205481565b6101336101d7366004610949565b60056020525f908152604090205481565b6100f161048c565b6101a86101fe3660046108e7565b610499565b61011a6102113660046108e7565b6104a3565b6101a8610224366004610969565b610506565b6101336102373660046109d6565b600460209081525f928352604080842090915290825290205481565b5f805461025f90610a07565b80601f016020809104026020016040519081016040528092919081815260200182805461028b90610a07565b80156102d65780601f106102ad576101008083540402835291602001916102d6565b820191905f5260205f20905b8154815290600101906020018083116102b957829003601f168201915b505050505081565b335f8181526004602090815260408083206001600160a01b038716808552925280832085905551919290917f8c5be1e5ebec7d5bd14f71427d1e84f3dd0314c0f7b2291e5b200ac8c7c3b925906103389086815260200190565b60405180910390a35060015b92915050565b6001600160a01b0383165f9081526004602090815260408083203384529091528120545f1981146103a35761037f8382610a53565b6001600160a01b0386165f9081526004602090815260408083203384529091529020555b6001600160a01b0385165f90815260036020526040812080548592906103ca908490610a53565b90915550506001600160a01b038085165f81815260036020526040908190208054870190555190918716905f516020610b165f395f51905f52906104119087815260200190565b60405180910390a3506001949350505050565b5f7f0000000000000000000000000000000000000000000000000000000000000000461461045957610454610749565b905090565b507f000000000000000000000000000000000000000000000000000000000000000090565b61048882826107e1565b5050565b6001805461025f90610a07565b6104888282610838565b335f908152600360205260408120805483919083906104c3908490610a53565b90915550506001600160a01b0383165f81815260036020526040908190208054850190555133905f516020610b165f395f51905f52906103389086815260200190565b4284101561055b5760405162461bcd60e51b815260206004820152601760248201527f5045524d49545f444541444c494e455f4558504952454400000000000000000060448201526064015b60405180910390fd5b5f6001610566610424565b6001600160a01b038a81165f8181526005602090815260409182902080546001810190915582517f6e71edae12b1b97f4d1f60370fef10105fa2faae0126114a169c64845d6126c98184015280840194909452938d166060840152608083018c905260a083019390935260c08083018b90528151808403909101815260e08301909152805192019190912061190160f01b6101008301526101028201929092526101228101919091526101420160408051601f1981840301815282825280516020918201205f84529083018083525260ff871690820152606081018590526080810184905260a0016020604051602081039080840390855afa15801561066e573d5f5f3e3d5ffd5b5050604051601f1901519150506001600160a01b038116158015906106a45750876001600160a01b0316816001600160a01b0316145b6106e15760405162461bcd60e51b815260206004820152600e60248201526d24a72b20a624a22fa9a4a3a722a960911b6044820152606401610552565b6001600160a01b039081165f9081526004602090815260408083208a8516808552908352928190208990555188815291928a16917f8c5be1e5ebec7d5bd14f71427d1e84f3dd0314c0f7b2291e5b200ac8c7c3b925910160405180910390a350505050505050565b5f7f8b73c3c69bb8fe3d512ecc4cf759cc79239f7b179b0ffacaa9a75d522b39400f5f6040516107799190610a66565b6040805191829003822060208301939093528101919091527fc89efdaa54c0f20c7adf612882df0950f5a951637e0307cdcb4c672f298b8bc660608201524660808201523060a082015260c00160405160208183030381529060405280519060200120905090565b8060025f8282546107f29190610b02565b90915550506001600160a01b0382165f818152600360209081526040808320805486019055518481525f516020610b165f395f51905f5291015b60405180910390a35050565b6001600160a01b0382165f908152600360205260408120805483929061085f908490610a53565b90915550506002805482900390556040518181525f906001600160a01b038416905f516020610b165f395f51905f529060200161082c565b602081525f82518060208401528060208501604085015e5f604082850101526040601f19601f83011684010191505092915050565b80356001600160a01b03811681146108e2575f5ffd5b919050565b5f5f604083850312156108f8575f5ffd5b610901836108cc565b946020939093013593505050565b5f5f5f60608486031215610921575f5ffd5b61092a846108cc565b9250610938602085016108cc565b929592945050506040919091013590565b5f60208284031215610959575f5ffd5b610962826108cc565b9392505050565b5f5f5f5f5f5f5f60e0888a03121561097f575f5ffd5b610988886108cc565b9650610996602089016108cc565b95506040880135945060608801359350608088013560ff811681146109b9575f5ffd5b9699959850939692959460a0840135945060c09093013592915050565b5f5f604083850312156109e7575f5ffd5b6109f0836108cc565b91506109fe602084016108cc565b90509250929050565b600181811c90821680610a1b57607f821691505b602082108103610a3957634e487b7160e01b5f52602260045260245ffd5b50919050565b634e487b7160e01b5f52601160045260245ffd5b8181038181111561034457610344610a3f565b5f5f83545f8160011c90506001821680610a8157607f821691505b602082108103610a9f57634e487b7160e01b5f52602260045260245ffd5b808015610ab35760018114610ac857610af6565b60ff1984168752821515830287019450610af6565b5f888152602090205f5b84811015610aee57815489820152600190910190602001610ad2565b505082870194505b50929695505050505050565b8082018082111561034457610344610a3f56feddf252ad1be2c89b69c2b068fc378daa952ba7f163c4a11628f55a4df523b3efa164736f6c634300081e000a000000000000000000000000000000000000000000000000000000000000006000000000000000000000000000000000000000000000000000000000000000a0000000000000000000000000000000000000000000000000000000000000000600000000000000000000000000000000000000000000000000000000000000094d6f636b2055534443000000000000000000000000000000000000000000000000000000000000000000000000000000000000000000000000000000000000056d55534443000000000000000000000000000000000000000000000000000000",
        "nonce": "0x396",
        "chainId": "0x515"
      },
      "additionalContracts": [],
      "isFixedGasLimit": false
    },
    {
      "hash": "0xbe6c27563028776f3eb032f4a9cc16a0f27b05bb65bd026b543b9da2af60ff6d",
      "transactionType": "CALL",
      "contractName": "MockERC20",
      "contractAddress": "0x26d8addca2fe30895de2b6e5aaee63cfd91bc4e2",
      "function": "mint(address,uint256)",
      "arguments": [
        "0x4b992F2Fbf714C0fCBb23baC5130Ace48CaD00cd",
        "10000000000000000000000000000000"
      ],
      "transaction": {
        "from": "0x4b992f2fbf714c0fcbb23bac5130ace48cad00cd",
        "to": "0x26d8addca2fe30895de2b6e5aaee63cfd91bc4e2",
        "gas": "0x18680",
        "value": "0x0",
        "input": "0x40c10f190000000000000000000000004b992f2fbf714c0fcbb23bac5130ace48cad00cd000000000000000000000000000000000000007e37be2022c0914b2680000000",
        "nonce": "0x397",
        "chainId": "0x515"
      },
      "additionalContracts": [],
      "isFixedGasLimit": false
    },
    {
      "hash": "0x0fcdecbff9c6ae7dbfa49d4d6baf5136ca5b4094e390eba3b2819baab9b7b118",
      "transactionType": "CALL",
      "contractName": "MockERC20",
      "contractAddress": "0xe7affafec9a196bf572ea50c3e149c626409de2f",
      "function": "mint(address,uint256)",
      "arguments": [
        "0x4b992F2Fbf714C0fCBb23baC5130Ace48CaD00cd",
        "10000000000000000000000000000000"
      ],
      "transaction": {
        "from": "0x4b992f2fbf714c0fcbb23bac5130ace48cad00cd",
        "to": "0xe7affafec9a196bf572ea50c3e149c626409de2f",
        "gas": "0x18680",
        "value": "0x0",
        "input": "0x40c10f190000000000000000000000004b992f2fbf714c0fcbb23bac5130ace48cad00cd000000000000000000000000000000000000007e37be2022c0914b2680000000",
        "nonce": "0x398",
        "chainId": "0x515"
      },
      "additionalContracts": [],
      "isFixedGasLimit": false
    },
    {
      "hash": "0xa64b5a9dae6b68c8a7248132d30628910df0e0879597b7b77d4bd9c08faecba0",
      "transactionType": "CALL",
      "contractName": "MockERC20",
      "contractAddress": "0x26d8addca2fe30895de2b6e5aaee63cfd91bc4e2",
      "function": "approve(address,uint256)",
      "arguments": [
        "0x000000000022D473030F116dDEE9F6B43aC78BA3",
        "115792089237316195423570985008687907853269984665640564039457584007913129639935"
      ],
      "transaction": {
        "from": "0x4b992f2fbf714c0fcbb23bac5130ace48cad00cd",
        "to": "0x26d8addca2fe30895de2b6e5aaee63cfd91bc4e2",
        "gas": "0x10939",
        "value": "0x0",
        "input": "0x095ea7b3000000000000000000000000000000000022d473030f116ddee9f6b43ac78ba3ffffffffffffffffffffffffffffffffffffffffffffffffffffffffffffffff",
        "nonce": "0x399",
        "chainId": "0x515"
      },
      "additionalContracts": [],
      "isFixedGasLimit": false
    },
    {
      "hash": "0x102d9110cb167ee40ce985eafcc2240492fd423b5c84ea57a96aa48b65711dcb",
      "transactionType": "CALL",
      "contractName": "MockERC20",
      "contractAddress": "0xe7affafec9a196bf572ea50c3e149c626409de2f",
      "function": "approve(address,uint256)",
      "arguments": [
        "0x000000000022D473030F116dDEE9F6B43aC78BA3",
        "115792089237316195423570985008687907853269984665640564039457584007913129639935"
      ],
      "transaction": {
        "from": "0x4b992f2fbf714c0fcbb23bac5130ace48cad00cd",
        "to": "0xe7affafec9a196bf572ea50c3e149c626409de2f",
        "gas": "0x10939",
        "value": "0x0",
        "input": "0x095ea7b3000000000000000000000000000000000022d473030f116ddee9f6b43ac78ba3ffffffffffffffffffffffffffffffffffffffffffffffffffffffffffffffff",
        "nonce": "0x39a",
        "chainId": "0x515"
      },
      "additionalContracts": [],
      "isFixedGasLimit": false
    },
    {
      "hash": "0xcbdea0829ca6ae54387b98f8aff7b33dfda7b92dc80fb05a49db053898bb67ab",
      "transactionType": "CALL",
      "contractName": "MockERC20",
      "contractAddress": "0x26d8addca2fe30895de2b6e5aaee63cfd91bc4e2",
      "function": "approve(address,uint256)",
      "arguments": [
        "0xf969Aee60879C54bAAed9F3eD26147Db216Fd664",
        "115792089237316195423570985008687907853269984665640564039457584007913129639935"
      ],
      "transaction": {
        "from": "0x4b992f2fbf714c0fcbb23bac5130ace48cad00cd",
        "to": "0x26d8addca2fe30895de2b6e5aaee63cfd91bc4e2",
        "gas": "0xfad0",
        "value": "0x0",
        "input": "0x095ea7b3000000000000000000000000f969aee60879c54baaed9f3ed26147db216fd664ffffffffffffffffffffffffffffffffffffffffffffffffffffffffffffffff",
        "nonce": "0x39b",
        "chainId": "0x515"
      },
      "additionalContracts": [],
      "isFixedGasLimit": false
    },
    {
      "hash": "0x418c9a4d2e220e66dadca0f52f99dc20222686620ee602d9cef8fd4ed5e2f82e",
      "transactionType": "CALL",
      "contractName": "MockERC20",
      "contractAddress": "0xe7affafec9a196bf572ea50c3e149c626409de2f",
      "function": "approve(address,uint256)",
      "arguments": [
        "0xf969Aee60879C54bAAed9F3eD26147Db216Fd664",
        "115792089237316195423570985008687907853269984665640564039457584007913129639935"
      ],
      "transaction": {
        "from": "0x4b992f2fbf714c0fcbb23bac5130ace48cad00cd",
        "to": "0xe7affafec9a196bf572ea50c3e149c626409de2f",
        "gas": "0xfad0",
        "value": "0x0",
        "input": "0x095ea7b3000000000000000000000000f969aee60879c54baaed9f3ed26147db216fd664ffffffffffffffffffffffffffffffffffffffffffffffffffffffffffffffff",
        "nonce": "0x39c",
        "chainId": "0x515"
      },
      "additionalContracts": [],
      "isFixedGasLimit": false
    },
    {
      "hash": "0x6dc19e756bfa1cb48423c49a9d84f745180f80dd7a329977d0407bb0cdc03a28",
      "transactionType": "CALL",
      "contractName": null,
      "contractAddress": "0x000000000022d473030f116ddee9f6b43ac78ba3",
      "function": "approve(address,address,uint160,uint48)",
      "arguments": [
        "0x26d8addca2FE30895de2b6E5AAee63cFD91bC4e2",
        "0xf969Aee60879C54bAAed9F3eD26147Db216Fd664",
        "1461501637330902918203684832716283019655932542975",
        "281474976710655"
      ],
      "transaction": {
        "from": "0x4b992f2fbf714c0fcbb23bac5130ace48cad00cd",
        "to": "0x000000000022d473030f116ddee9f6b43ac78ba3",
        "gas": "0x1112d",
        "value": "0x0",
        "input": "0x87517c4500000000000000000000000026d8addca2fe30895de2b6e5aaee63cfd91bc4e2000000000000000000000000f969aee60879c54baaed9f3ed26147db216fd664000000000000000000000000ffffffffffffffffffffffffffffffffffffffff0000000000000000000000000000000000000000000000000000ffffffffffff",
        "nonce": "0x39d",
        "chainId": "0x515"
      },
      "additionalContracts": [],
      "isFixedGasLimit": false
    },
    {
      "hash": "0xd03ff464e7ab9101ee83add0ad0ab270539eb5be75e59fc21281a6546eccc6e9",
      "transactionType": "CALL",
      "contractName": null,
      "contractAddress": "0x000000000022d473030f116ddee9f6b43ac78ba3",
      "function": "approve(address,address,uint160,uint48)",
      "arguments": [
        "0xE7AFFaFeC9a196bF572Ea50C3e149C626409de2f",
        "0xf969Aee60879C54bAAed9F3eD26147Db216Fd664",
        "1461501637330902918203684832716283019655932542975",
        "281474976710655"
      ],
      "transaction": {
        "from": "0x4b992f2fbf714c0fcbb23bac5130ace48cad00cd",
        "to": "0x000000000022d473030f116ddee9f6b43ac78ba3",
        "gas": "0x1112d",
        "value": "0x0",
        "input": "0x87517c45000000000000000000000000e7affafec9a196bf572ea50c3e149c626409de2f000000000000000000000000f969aee60879c54baaed9f3ed26147db216fd664000000000000000000000000ffffffffffffffffffffffffffffffffffffffff0000000000000000000000000000000000000000000000000000ffffffffffff",
        "nonce": "0x39e",
        "chainId": "0x515"
      },
      "additionalContracts": [],
      "isFixedGasLimit": false
    },
    {
      "hash": "0xbd9f5964ab566e9419ee62a5c66708ebde06ac6e4823141f52db1467efc38411",
      "transactionType": "CALL",
      "contractName": null,
      "contractAddress": "0xf969aee60879c54baaed9f3ed26147db216fd664",
      "function": "initializePool((address,address,uint24,int24,address),uint160)",
      "arguments": [
        "(0x26d8addca2FE30895de2b6E5AAee63cFD91bC4e2, 0xE7AFFaFeC9a196bF572Ea50C3e149C626409de2f, 3000, 60, 0x0000000000000000000000000000000000000000)",
        "79228162514264337593543950336"
      ],
      "transaction": {
        "from": "0x4b992f2fbf714c0fcbb23bac5130ace48cad00cd",
        "to": "0xf969aee60879c54baaed9f3ed26147db216fd664",
        "gas": "0x12e9d",
        "value": "0x0",
        "input": "0xf702040500000000000000000000000026d8addca2fe30895de2b6e5aaee63cfd91bc4e2000000000000000000000000e7affafec9a196bf572ea50c3e149c626409de2f0000000000000000000000000000000000000000000000000000000000000bb8000000000000000000000000000000000000000000000000000000000000003c00000000000000000000000000000000000000000000000000000000000000000000000000000000000000000000000000000001000000000000000000000000",
        "nonce": "0x39f",
        "chainId": "0x515"
      },
      "additionalContracts": [],
      "isFixedGasLimit": false
    },
    {
      "hash": "0x47e7e7bd0dc677f009bb664541e10131e6075cc5f23d16f42da2df793f86f423",
      "transactionType": "CALL",
      "contractName": null,
      "contractAddress": "0xf969aee60879c54baaed9f3ed26147db216fd664",
      "function": "modifyLiquidities(bytes,uint256)",
      "arguments": [
        "0x000000000000000000000000000000000000000000000000000000000000004000000000000000000000000000000000000000000000000000000000000000800000000000000000000000000000000000000000000000000000000000000004020d14140000000000000000000000000000000000000000000000000000000000000000000000000000000000000000000000000000000000000000000000040000000000000000000000000000000000000000000000000000000000000080000000000000000000000000000000000000000000000000000000000000024000000000000000000000000000000000000000000000000000000000000002a0000000000000000000000000000000000000000000000000000000000000030000000000000000000000000000000000000000000000000000000000000001a000000000000000000000000026d8addca2fe30895de2b6e5aaee63cfd91bc4e2000000000000000000000000e7affafec9a196bf572ea50c3e149c626409de2f0000000000000000000000000000000000000000000000000000000000000bb8000000000000000000000000000000000000000000000000000000000000003c0000000000000000000000000000000000000000000000000000000000000000fffffffffffffffffffffffffffffffffffffffffffffffffffffffffff2764c00000000000000000000000000000000000000000000000000000000000d89b400000000000000000000000000000000000000000000d3c21bcecceda100000000000000000000000000000000000000000000000000d3c21bcecceda0ff2baf00000000000000000000000000000000000000000000d3c21bcecceda0ff2baf0000000000000000000000004b992f2fbf714c0fcbb23bac5130ace48cad00cd00000000000000000000000000000000000000000000000000000000000001800000000000000000000000000000000000000000000000000000000000000000000000000000000000000000000000000000000000000000000000000000004000000000000000000000000026d8addca2fe30895de2b6e5aaee63cfd91bc4e2000000000000000000000000e7affafec9a196bf572ea50c3e149c626409de2f000000000000000000000000000000000000000000000000000000000000004000000000000000000000000026d8addca2fe30895de2b6e5aaee63cfd91bc4e20000000000000000000000004b992f2fbf714c0fcbb23bac5130ace48cad00cd0000000000000000000000000000000000000000000000000000000000000040000000000000000000000000e7affafec9a196bf572ea50c3e149c626409de2f0000000000000000000000004b992f2fbf714c0fcbb23bac5130ace48cad00cd",
        "1773564482"
      ],
      "transaction": {
        "from": "0x4b992f2fbf714c0fcbb23bac5130ace48cad00cd",
        "to": "0xf969aee60879c54baaed9f3ed26147db216fd664",
        "gas": "0x8b692",
        "value": "0x0",
        "input": "0xdd46508f00000000000000000000000000000000000000000000000000000000000000400000000000000000000000000000000000000000000000000000000069b672420000000000000000000000000000000000000000000000000000000000000400000000000000000000000000000000000000000000000000000000000000004000000000000000000000000000000000000000000000000000000000000000800000000000000000000000000000000000000000000000000000000000000004020d14140000000000000000000000000000000000000000000000000000000000000000000000000000000000000000000000000000000000000000000000040000000000000000000000000000000000000000000000000000000000000080000000000000000000000000000000000000000000000000000000000000024000000000000000000000000000000000000000000000000000000000000002a0000000000000000000000000000000000000000000000000000000000000030000000000000000000000000000000000000000000000000000000000000001a000000000000000000000000026d8addca2fe30895de2b6e5aaee63cfd91bc4e2000000000000000000000000e7affafec9a196bf572ea50c3e149c626409de2f0000000000000000000000000000000000000000000000000000000000000bb8000000000000000000000000000000000000000000000000000000000000003c0000000000000000000000000000000000000000000000000000000000000000fffffffffffffffffffffffffffffffffffffffffffffffffffffffffff2764c00000000000000000000000000000000000000000000000000000000000d89b400000000000000000000000000000000000000000000d3c21bcecceda100000000000000000000000000000000000000000000000000d3c21bcecceda0ff2baf00000000000000000000000000000000000000000000d3c21bcecceda0ff2baf0000000000000000000000004b992f2fbf714c0fcbb23bac5130ace48cad00cd00000000000000000000000000000000000000000000000000000000000001800000000000000000000000000000000000000000000000000000000000000000000000000000000000000000000000000000000000000000000000000000004000000000000000000000000026d8addca2fe30895de2b6e5aaee63cfd91bc4e2000000000000000000000000e7affafec9a196bf572ea50c3e149c626409de2f000000000000000000000000000000000000000000000000000000000000004000000000000000000000000026d8addca2fe30895de2b6e5aaee63cfd91bc4e20000000000000000000000004b992f2fbf714c0fcbb23bac5130ace48cad00cd0000000000000000000000000000000000000000000000000000000000000040000000000000000000000000e7affafec9a196bf572ea50c3e149c626409de2f0000000000000000000000004b992f2fbf714c0fcbb23bac5130ace48cad00cd",
        "nonce": "0x3a0",
        "chainId": "0x515"
      },
      "additionalContracts": [],
      "isFixedGasLimit": false
    },
    {
      "hash": "0xa5f189522a0e7763771b18a4107ffe79a1bc050e0ed5466aab12f8c654816d5f",
      "transactionType": "CALL",
      "contractName": null,
      "contractAddress": "0xf969aee60879c54baaed9f3ed26147db216fd664",
      "function": "initializePool((address,address,uint24,int24,address),uint160)",
      "arguments": [
        "(0x26d8addca2FE30895de2b6E5AAee63cFD91bC4e2, 0xE7AFFaFeC9a196bF572Ea50C3e149C626409de2f, 3000, 60, 0xBF42f398561644Eb55A7269dA0F937D0512c40c0)",
        "79228162514264337593543950336"
      ],
      "transaction": {
        "from": "0x4b992f2fbf714c0fcbb23bac5130ace48cad00cd",
        "to": "0xf969aee60879c54baaed9f3ed26147db216fd664",
        "gas": "0x14192",
        "value": "0x0",
        "input": "0xf702040500000000000000000000000026d8addca2fe30895de2b6e5aaee63cfd91bc4e2000000000000000000000000e7affafec9a196bf572ea50c3e149c626409de2f0000000000000000000000000000000000000000000000000000000000000bb8000000000000000000000000000000000000000000000000000000000000003c000000000000000000000000bf42f398561644eb55a7269da0f937d0512c40c00000000000000000000000000000000000000001000000000000000000000000",
        "nonce": "0x3a1",
        "chainId": "0x515"
      },
      "additionalContracts": [],
      "isFixedGasLimit": false
    },
    {
      "hash": "0x758f2ac8bfac26aca6914762800d77653efddc71b826b24cee0e6d1688b34312",
      "transactionType": "CALL",
      "contractName": null,
      "contractAddress": "0xf969aee60879c54baaed9f3ed26147db216fd664",
      "function": "modifyLiquidities(bytes,uint256)",
      "arguments": [
        "0x000000000000000000000000000000000000000000000000000000000000004000000000000000000000000000000000000000000000000000000000000000800000000000000000000000000000000000000000000000000000000000000004020d14140000000000000000000000000000000000000000000000000000000000000000000000000000000000000000000000000000000000000000000000040000000000000000000000000000000000000000000000000000000000000080000000000000000000000000000000000000000000000000000000000000024000000000000000000000000000000000000000000000000000000000000002a0000000000000000000000000000000000000000000000000000000000000030000000000000000000000000000000000000000000000000000000000000001a000000000000000000000000026d8addca2fe30895de2b6e5aaee63cfd91bc4e2000000000000000000000000e7affafec9a196bf572ea50c3e149c626409de2f0000000000000000000000000000000000000000000000000000000000000bb8000000000000000000000000000000000000000000000000000000000000003c000000000000000000000000bf42f398561644eb55a7269da0f937d0512c40c0fffffffffffffffffffffffffffffffffffffffffffffffffffffffffff2764c00000000000000000000000000000000000000000000000000000000000d89b400000000000000000000000000000000000000000000d3c21bcecceda100000000000000000000000000000000000000000000000000d3c21bcecceda0ff2baf00000000000000000000000000000000000000000000d3c21bcecceda0ff2baf0000000000000000000000004b992f2fbf714c0fcbb23bac5130ace48cad00cd00000000000000000000000000000000000000000000000000000000000001800000000000000000000000000000000000000000000000000000000000000000000000000000000000000000000000000000000000000000000000000000004000000000000000000000000026d8addca2fe30895de2b6e5aaee63cfd91bc4e2000000000000000000000000e7affafec9a196bf572ea50c3e149c626409de2f000000000000000000000000000000000000000000000000000000000000004000000000000000000000000026d8addca2fe30895de2b6e5aaee63cfd91bc4e20000000000000000000000004b992f2fbf714c0fcbb23bac5130ace48cad00cd0000000000000000000000000000000000000000000000000000000000000040000000000000000000000000e7affafec9a196bf572ea50c3e149c626409de2f0000000000000000000000004b992f2fbf714c0fcbb23bac5130ace48cad00cd",
        "1773564482"
      ],
      "transaction": {
        "from": "0x4b992f2fbf714c0fcbb23bac5130ace48cad00cd",
        "to": "0xf969aee60879c54baaed9f3ed26147db216fd664",
        "gas": "0x8e975",
        "value": "0x0",
        "input": "0xdd46508f00000000000000000000000000000000000000000000000000000000000000400000000000000000000000000000000000000000000000000000000069b672420000000000000000000000000000000000000000000000000000000000000400000000000000000000000000000000000000000000000000000000000000004000000000000000000000000000000000000000000000000000000000000000800000000000000000000000000000000000000000000000000000000000000004020d14140000000000000000000000000000000000000000000000000000000000000000000000000000000000000000000000000000000000000000000000040000000000000000000000000000000000000000000000000000000000000080000000000000000000000000000000000000000000000000000000000000024000000000000000000000000000000000000000000000000000000000000002a0000000000000000000000000000000000000000000000000000000000000030000000000000000000000000000000000000000000000000000000000000001a000000000000000000000000026d8addca2fe30895de2b6e5aaee63cfd91bc4e2000000000000000000000000e7affafec9a196bf572ea50c3e149c626409de2f0000000000000000000000000000000000000000000000000000000000000bb8000000000000000000000000000000000000000000000000000000000000003c000000000000000000000000bf42f398561644eb55a7269da0f937d0512c40c0fffffffffffffffffffffffffffffffffffffffffffffffffffffffffff2764c00000000000000000000000000000000000000000000000000000000000d89b400000000000000000000000000000000000000000000d3c21bcecceda100000000000000000000000000000000000000000000000000d3c21bcecceda0ff2baf00000000000000000000000000000000000000000000d3c21bcecceda0ff2baf0000000000000000000000004b992f2fbf714c0fcbb23bac5130ace48cad00cd00000000000000000000000000000000000000000000000000000000000001800000000000000000000000000000000000000000000000000000000000000000000000000000000000000000000000000000000000000000000000000000004000000000000000000000000026d8addca2fe30895de2b6e5aaee63cfd91bc4e2000000000000000000000000e7affafec9a196bf572ea50c3e149c626409de2f000000000000000000000000000000000000000000000000000000000000004000000000000000000000000026d8addca2fe30895de2b6e5aaee63cfd91bc4e20000000000000000000000004b992f2fbf714c0fcbb23bac5130ace48cad00cd0000000000000000000000000000000000000000000000000000000000000040000000000000000000000000e7affafec9a196bf572ea50c3e149c626409de2f0000000000000000000000004b992f2fbf714c0fcbb23bac5130ace48cad00cd",
        "nonce": "0x3a2",
        "chainId": "0x515"
      },
      "additionalContracts": [],
      "isFixedGasLimit": false
    },
    {
      "hash": "0x8d510f171eb6fb6d8545f4d6fdf9670e8787475c646fa4bb8f945e101355518e",
      "transactionType": "CALL",
      "contractName": "MockERC20",
      "contractAddress": "0x26d8addca2fe30895de2b6e5aaee63cfd91bc4e2",
      "function": "approve(address,uint256)",
      "arguments": [
        "0x9cD2b0a732dd5e023a5539921e0FD1c30E198Dba",
        "115792089237316195423570985008687907853269984665640564039457584007913129639935"
      ],
      "transaction": {
        "from": "0x4b992f2fbf714c0fcbb23bac5130ace48cad00cd",
        "to": "0x26d8addca2fe30895de2b6e5aaee63cfd91bc4e2",
        "gas": "0xfad0",
        "value": "0x0",
        "input": "0x095ea7b30000000000000000000000009cd2b0a732dd5e023a5539921e0fd1c30e198dbaffffffffffffffffffffffffffffffffffffffffffffffffffffffffffffffff",
        "nonce": "0x3a3",
        "chainId": "0x515"
      },
      "additionalContracts": [],
      "isFixedGasLimit": false
    },
    {
      "hash": "0x51d67d341649f9ba6a08e2739668c567c3e28e0446b12f76e75dcffddf815e5d",
      "transactionType": "CALL",
      "contractName": "MockERC20",
      "contractAddress": "0x26d8addca2fe30895de2b6e5aaee63cfd91bc4e2",
      "function": "approve(address,uint256)",
      "arguments": [
        "0x493a90b1eA1bCbe2c6AB5af70928C82051B5e726",
        "115792089237316195423570985008687907853269984665640564039457584007913129639935"
      ],
      "transaction": {
        "from": "0x4b992f2fbf714c0fcbb23bac5130ace48cad00cd",
        "to": "0x26d8addca2fe30895de2b6e5aaee63cfd91bc4e2",
        "gas": "0xfad0",
        "value": "0x0",
        "input": "0x095ea7b3000000000000000000000000493a90b1ea1bcbe2c6ab5af70928c82051b5e726ffffffffffffffffffffffffffffffffffffffffffffffffffffffffffffffff",
        "nonce": "0x3a4",
        "chainId": "0x515"
      },
      "additionalContracts": [],
      "isFixedGasLimit": false
    },
    {
      "hash": "0x686265d024fb293bfbf1b0c68e4141dd2a1d09683c0c8753a56849a9a6fe37bc",
      "transactionType": "CALL",
      "contractName": null,
      "contractAddress": "0x9cd2b0a732dd5e023a5539921e0fd1c30e198dba",
      "function": "swapExactTokensForTokens(uint256,uint256,bool,(address,address,uint24,int24,address),bytes,address,uint256)",
      "arguments": [
        "50000000000000000000",
        "1",
        "true",
        "(0x26d8addca2FE30895de2b6E5AAee63cFD91bC4e2, 0xE7AFFaFeC9a196bF572Ea50C3e149C626409de2f, 3000, 60, 0x0000000000000000000000000000000000000000)",
        "0x",
        "0x4b992F2Fbf714C0fCBb23baC5130Ace48CaD00cd",
        "1773564482"
      ],
      "transaction": {
        "from": "0x4b992f2fbf714c0fcbb23bac5130ace48cad00cd",
        "to": "0x9cd2b0a732dd5e023a5539921e0fd1c30e198dba",
        "gas": "0x2ad99",
        "value": "0x0",
        "input": "0xb1a0d571000000000000000000000000000000000000000000000002b5e3af16b18800000000000000000000000000000000000000000000000000000000000000000001000000000000000000000000000000000000000000000000000000000000000100000000000000000000000026d8addca2fe30895de2b6e5aaee63cfd91bc4e2000000000000000000000000e7affafec9a196bf572ea50c3e149c626409de2f0000000000000000000000000000000000000000000000000000000000000bb8000000000000000000000000000000000000000000000000000000000000003c000000000000000000000000000000000000000000000000000000000000000000000000000000000000000000000000000000000000000000000000000001600000000000000000000000004b992f2fbf714c0fcbb23bac5130ace48cad00cd0000000000000000000000000000000000000000000000000000000069b672420000000000000000000000000000000000000000000000000000000000000000",
        "nonce": "0x3a5",
        "chainId": "0x515"
      },
      "additionalContracts": [],
      "isFixedGasLimit": false
    },
    {
      "hash": "0x982eda0a71542a73b24b02c4b36483508dbff4c686b9fcf75d2c8395904e9cc5",
      "transactionType": "CALL",
      "contractName": null,
      "contractAddress": "0x493a90b1ea1bcbe2c6ab5af70928c82051b5e726",
      "function": "createOrder((bytes32,address,address,bool,uint128,uint8,uint40,uint40,uint32,uint32,uint128,uint128,uint24,uint128,address))",
      "arguments": [
        "(0x7e56a28c692397788f8abfbaf8cd30b4428c0200d3d43e49213014839c6922b1, 0x26d8addca2FE30895de2b6E5AAee63cFD91bC4e2, 0xE7AFFaFeC9a196bF572Ea50C3e149C626409de2f, true, 50000000000000000000, 0, 1773563882, 1773571082, 0, 1, 10000000000000000000, 10000000000000000000, 500, 1, 0x0000000000000000000000000000000000000000)"
      ],
      "transaction": {
        "from": "0x4b992f2fbf714c0fcbb23bac5130ace48cad00cd",
        "to": "0x493a90b1ea1bcbe2c6ab5af70928c82051b5e726",
        "gas": "0x686c4",
        "value": "0x0",
        "input": "0xe72aff3f7e56a28c692397788f8abfbaf8cd30b4428c0200d3d43e49213014839c6922b100000000000000000000000026d8addca2fe30895de2b6e5aaee63cfd91bc4e2000000000000000000000000e7affafec9a196bf572ea50c3e149c626409de2f0000000000000000000000000000000000000000000000000000000000000001000000000000000000000000000000000000000000000002b5e3af16b188000000000000000000000000000000000000000000000000000000000000000000000000000000000000000000000000000000000000000000000000000069b66fea0000000000000000000000000000000000000000000000000000000069b68c0a000000000000000000000000000000000000000000000000000000000000000000000000000000000000000000000000000000000000000000000000000000010000000000000000000000000000000000000000000000008ac7230489e800000000000000000000000000000000000000000000000000008ac7230489e8000000000000000000000000000000000000000000000000000000000000000001f400000000000000000000000000000000000000000000000000000000000000010000000000000000000000000000000000000000000000000000000000000000",
        "nonce": "0x3a6",
        "chainId": "0x515"
      },
      "additionalContracts": [],
      "isFixedGasLimit": false
    },
    {
      "hash": "0x5833c51f7a612224294e12d9dacf1a4665998b84e888506d9d8d4fe08494436e",
      "transactionType": "CALL",
      "contractName": null,
      "contractAddress": "0xe56a90ad0deab20ee9fcd780b14ca90fc71d3f5d",
      "function": "executeNextSlice((bytes32,(address,address,uint24,int24,address),uint24,uint160,uint40))",
      "arguments": [
        "(0xbd2db7f6ebea19e620d9f2a7e94e51d1a3c3f59fc6038ac621bf2aae90e739e8, (0x26d8addca2FE30895de2b6E5AAee63cFD91bC4e2, 0xE7AFFaFeC9a196bF572Ea50C3e149C626409de2f, 3000, 60, 0xBF42f398561644Eb55A7269dA0F937D0512c40c0), 50, 4295128740, 1773564482)"
      ],
      "transaction": {
        "from": "0x4b992f2fbf714c0fcbb23bac5130ace48cad00cd",
        "to": "0xe56a90ad0deab20ee9fcd780b14ca90fc71d3f5d",
        "gas": "0x610ea",
        "value": "0x0",
        "input": "0xdee73244bd2db7f6ebea19e620d9f2a7e94e51d1a3c3f59fc6038ac621bf2aae90e739e800000000000000000000000026d8addca2fe30895de2b6e5aaee63cfd91bc4e2000000000000000000000000e7affafec9a196bf572ea50c3e149c626409de2f0000000000000000000000000000000000000000000000000000000000000bb8000000000000000000000000000000000000000000000000000000000000003c000000000000000000000000bf42f398561644eb55a7269da0f937d0512c40c0000000000000000000000000000000000000000000000000000000000000003200000000000000000000000000000000000000000000000000000001000276a40000000000000000000000000000000000000000000000000000000069b67242",
        "nonce": "0x3a7",
        "chainId": "0x515"
      },
      "additionalContracts": [],
      "isFixedGasLimit": false
    },
    {
      "hash": "0x957afffc1eae2ea1573ba299471a8c1ba43e0ee29dd5d80d2714d28efb970946",
      "transactionType": "CALL",
      "contractName": null,
      "contractAddress": "0xe56a90ad0deab20ee9fcd780b14ca90fc71d3f5d",
      "function": "executeNextSlice((bytes32,(address,address,uint24,int24,address),uint24,uint160,uint40))",
      "arguments": [
        "(0xbd2db7f6ebea19e620d9f2a7e94e51d1a3c3f59fc6038ac621bf2aae90e739e8, (0x26d8addca2FE30895de2b6E5AAee63cFD91bC4e2, 0xE7AFFaFeC9a196bF572Ea50C3e149C626409de2f, 3000, 60, 0xBF42f398561644Eb55A7269dA0F937D0512c40c0), 50, 4295128740, 1773564482)"
      ],
      "transaction": {
        "from": "0x4b992f2fbf714c0fcbb23bac5130ace48cad00cd",
        "to": "0xe56a90ad0deab20ee9fcd780b14ca90fc71d3f5d",
        "gas": "0x16d2d",
        "value": "0x0",
        "input": "0xdee73244bd2db7f6ebea19e620d9f2a7e94e51d1a3c3f59fc6038ac621bf2aae90e739e800000000000000000000000026d8addca2fe30895de2b6e5aaee63cfd91bc4e2000000000000000000000000e7affafec9a196bf572ea50c3e149c626409de2f0000000000000000000000000000000000000000000000000000000000000bb8000000000000000000000000000000000000000000000000000000000000003c000000000000000000000000bf42f398561644eb55a7269da0f937d0512c40c0000000000000000000000000000000000000000000000000000000000000003200000000000000000000000000000000000000000000000000000001000276a40000000000000000000000000000000000000000000000000000000069b67242",
        "nonce": "0x3a8",
        "chainId": "0x515"
      },
      "additionalContracts": [],
      "isFixedGasLimit": false
    },
    {
      "hash": "0x3b5cb3b21495070e31d188346d64ab714ad6b425720deb6587b4deb50cf13e1b",
      "transactionType": "CALL",
      "contractName": null,
      "contractAddress": "0xe56a90ad0deab20ee9fcd780b14ca90fc71d3f5d",
      "function": "executeNextSlice((bytes32,(address,address,uint24,int24,address),uint24,uint160,uint40))",
      "arguments": [
        "(0xbd2db7f6ebea19e620d9f2a7e94e51d1a3c3f59fc6038ac621bf2aae90e739e8, (0x26d8addca2FE30895de2b6E5AAee63cFD91bC4e2, 0xE7AFFaFeC9a196bF572Ea50C3e149C626409de2f, 3000, 60, 0xBF42f398561644Eb55A7269dA0F937D0512c40c0), 50, 4295128740, 1773564482)"
      ],
      "transaction": {
        "from": "0x4b992f2fbf714c0fcbb23bac5130ace48cad00cd",
        "to": "0xe56a90ad0deab20ee9fcd780b14ca90fc71d3f5d",
        "gas": "0x16d2d",
        "value": "0x0",
        "input": "0xdee73244bd2db7f6ebea19e620d9f2a7e94e51d1a3c3f59fc6038ac621bf2aae90e739e800000000000000000000000026d8addca2fe30895de2b6e5aaee63cfd91bc4e2000000000000000000000000e7affafec9a196bf572ea50c3e149c626409de2f0000000000000000000000000000000000000000000000000000000000000bb8000000000000000000000000000000000000000000000000000000000000003c000000000000000000000000bf42f398561644eb55a7269da0f937d0512c40c0000000000000000000000000000000000000000000000000000000000000003200000000000000000000000000000000000000000000000000000001000276a40000000000000000000000000000000000000000000000000000000069b67242",
        "nonce": "0x3a9",
        "chainId": "0x515"
      },
      "additionalContracts": [],
      "isFixedGasLimit": false
    },
    {
      "hash": "0xd4c3a97bf8a9084361894e1b33df0349f091e112a70d3c3164f799cf3a6c68c5",
      "transactionType": "CALL",
      "contractName": null,
      "contractAddress": "0xe56a90ad0deab20ee9fcd780b14ca90fc71d3f5d",
      "function": "executeNextSlice((bytes32,(address,address,uint24,int24,address),uint24,uint160,uint40))",
      "arguments": [
        "(0xbd2db7f6ebea19e620d9f2a7e94e51d1a3c3f59fc6038ac621bf2aae90e739e8, (0x26d8addca2FE30895de2b6E5AAee63cFD91bC4e2, 0xE7AFFaFeC9a196bF572Ea50C3e149C626409de2f, 3000, 60, 0xBF42f398561644Eb55A7269dA0F937D0512c40c0), 50, 4295128740, 1773564482)"
      ],
      "transaction": {
        "from": "0x4b992f2fbf714c0fcbb23bac5130ace48cad00cd",
        "to": "0xe56a90ad0deab20ee9fcd780b14ca90fc71d3f5d",
        "gas": "0x16d2d",
        "value": "0x0",
        "input": "0xdee73244bd2db7f6ebea19e620d9f2a7e94e51d1a3c3f59fc6038ac621bf2aae90e739e800000000000000000000000026d8addca2fe30895de2b6e5aaee63cfd91bc4e2000000000000000000000000e7affafec9a196bf572ea50c3e149c626409de2f0000000000000000000000000000000000000000000000000000000000000bb8000000000000000000000000000000000000000000000000000000000000003c000000000000000000000000bf42f398561644eb55a7269da0f937d0512c40c0000000000000000000000000000000000000000000000000000000000000003200000000000000000000000000000000000000000000000000000001000276a40000000000000000000000000000000000000000000000000000000069b67242",
        "nonce": "0x3aa",
        "chainId": "0x515"
      },
      "additionalContracts": [],
      "isFixedGasLimit": false
    },
    {
      "hash": "0x475c0d9210a3641403b57010da69436941005c9b739e622e2099e6e9aaa0545a",
      "transactionType": "CALL",
      "contractName": null,
      "contractAddress": "0xe56a90ad0deab20ee9fcd780b14ca90fc71d3f5d",
      "function": "executeNextSlice((bytes32,(address,address,uint24,int24,address),uint24,uint160,uint40))",
      "arguments": [
        "(0xbd2db7f6ebea19e620d9f2a7e94e51d1a3c3f59fc6038ac621bf2aae90e739e8, (0x26d8addca2FE30895de2b6E5AAee63cFD91bC4e2, 0xE7AFFaFeC9a196bF572Ea50C3e149C626409de2f, 3000, 60, 0xBF42f398561644Eb55A7269dA0F937D0512c40c0), 50, 4295128740, 1773564482)"
      ],
      "transaction": {
        "from": "0x4b992f2fbf714c0fcbb23bac5130ace48cad00cd",
        "to": "0xe56a90ad0deab20ee9fcd780b14ca90fc71d3f5d",
        "gas": "0x16d2d",
        "value": "0x0",
        "input": "0xdee73244bd2db7f6ebea19e620d9f2a7e94e51d1a3c3f59fc6038ac621bf2aae90e739e800000000000000000000000026d8addca2fe30895de2b6e5aaee63cfd91bc4e2000000000000000000000000e7affafec9a196bf572ea50c3e149c626409de2f0000000000000000000000000000000000000000000000000000000000000bb8000000000000000000000000000000000000000000000000000000000000003c000000000000000000000000bf42f398561644eb55a7269da0f937d0512c40c0000000000000000000000000000000000000000000000000000000000000003200000000000000000000000000000000000000000000000000000001000276a40000000000000000000000000000000000000000000000000000000069b67242",
        "nonce": "0x3ab",
        "chainId": "0x515"
      },
      "additionalContracts": [],
      "isFixedGasLimit": false
    },
    {
      "hash": "0x0c058c1158e5ee0e35699ce45bf571c2bc5b6ca9633d00078a7cf0401c8fac07",
      "transactionType": "CALL",
      "contractName": null,
      "contractAddress": "0xe56a90ad0deab20ee9fcd780b14ca90fc71d3f5d",
      "function": "executeNextSlice((bytes32,(address,address,uint24,int24,address),uint24,uint160,uint40))",
      "arguments": [
        "(0xbd2db7f6ebea19e620d9f2a7e94e51d1a3c3f59fc6038ac621bf2aae90e739e8, (0x26d8addca2FE30895de2b6E5AAee63cFD91bC4e2, 0xE7AFFaFeC9a196bF572Ea50C3e149C626409de2f, 3000, 60, 0xBF42f398561644Eb55A7269dA0F937D0512c40c0), 50, 4295128740, 1773564482)"
      ],
      "transaction": {
        "from": "0x4b992f2fbf714c0fcbb23bac5130ace48cad00cd",
        "to": "0xe56a90ad0deab20ee9fcd780b14ca90fc71d3f5d",
        "gas": "0x16d2d",
        "value": "0x0",
        "input": "0xdee73244bd2db7f6ebea19e620d9f2a7e94e51d1a3c3f59fc6038ac621bf2aae90e739e800000000000000000000000026d8addca2fe30895de2b6e5aaee63cfd91bc4e2000000000000000000000000e7affafec9a196bf572ea50c3e149c626409de2f0000000000000000000000000000000000000000000000000000000000000bb8000000000000000000000000000000000000000000000000000000000000003c000000000000000000000000bf42f398561644eb55a7269da0f937d0512c40c0000000000000000000000000000000000000000000000000000000000000003200000000000000000000000000000000000000000000000000000001000276a40000000000000000000000000000000000000000000000000000000069b67242",
        "nonce": "0x3ac",
        "chainId": "0x515"
      },
      "additionalContracts": [],
      "isFixedGasLimit": false
    },
    {
      "hash": "0x381d9e85d0ce8072eebfdd08398ed6684089a608430c496d6d500045fed8156c",
      "transactionType": "CALL",
      "contractName": null,
      "contractAddress": "0xe56a90ad0deab20ee9fcd780b14ca90fc71d3f5d",
      "function": "executeNextSlice((bytes32,(address,address,uint24,int24,address),uint24,uint160,uint40))",
      "arguments": [
        "(0xbd2db7f6ebea19e620d9f2a7e94e51d1a3c3f59fc6038ac621bf2aae90e739e8, (0x26d8addca2FE30895de2b6E5AAee63cFD91bC4e2, 0xE7AFFaFeC9a196bF572Ea50C3e149C626409de2f, 3000, 60, 0xBF42f398561644Eb55A7269dA0F937D0512c40c0), 50, 4295128740, 1773564482)"
      ],
      "transaction": {
        "from": "0x4b992f2fbf714c0fcbb23bac5130ace48cad00cd",
        "to": "0xe56a90ad0deab20ee9fcd780b14ca90fc71d3f5d",
        "gas": "0x16d2d",
        "value": "0x0",
        "input": "0xdee73244bd2db7f6ebea19e620d9f2a7e94e51d1a3c3f59fc6038ac621bf2aae90e739e800000000000000000000000026d8addca2fe30895de2b6e5aaee63cfd91bc4e2000000000000000000000000e7affafec9a196bf572ea50c3e149c626409de2f0000000000000000000000000000000000000000000000000000000000000bb8000000000000000000000000000000000000000000000000000000000000003c000000000000000000000000bf42f398561644eb55a7269da0f937d0512c40c0000000000000000000000000000000000000000000000000000000000000003200000000000000000000000000000000000000000000000000000001000276a40000000000000000000000000000000000000000000000000000000069b67242",
        "nonce": "0x3ad",
        "chainId": "0x515"
      },
      "additionalContracts": [],
      "isFixedGasLimit": false
    },
    {
      "hash": "0x2082e2d0a563f1f82874ab1438bec11d411d3aef7b98eefa3dba9a0e0d686729",
      "transactionType": "CALL",
      "contractName": null,
      "contractAddress": "0xe56a90ad0deab20ee9fcd780b14ca90fc71d3f5d",
      "function": "executeNextSlice((bytes32,(address,address,uint24,int24,address),uint24,uint160,uint40))",
      "arguments": [
        "(0xbd2db7f6ebea19e620d9f2a7e94e51d1a3c3f59fc6038ac621bf2aae90e739e8, (0x26d8addca2FE30895de2b6E5AAee63cFD91bC4e2, 0xE7AFFaFeC9a196bF572Ea50C3e149C626409de2f, 3000, 60, 0xBF42f398561644Eb55A7269dA0F937D0512c40c0), 50, 4295128740, 1773564482)"
      ],
      "transaction": {
        "from": "0x4b992f2fbf714c0fcbb23bac5130ace48cad00cd",
        "to": "0xe56a90ad0deab20ee9fcd780b14ca90fc71d3f5d",
        "gas": "0x16d2d",
        "value": "0x0",
        "input": "0xdee73244bd2db7f6ebea19e620d9f2a7e94e51d1a3c3f59fc6038ac621bf2aae90e739e800000000000000000000000026d8addca2fe30895de2b6e5aaee63cfd91bc4e2000000000000000000000000e7affafec9a196bf572ea50c3e149c626409de2f0000000000000000000000000000000000000000000000000000000000000bb8000000000000000000000000000000000000000000000000000000000000003c000000000000000000000000bf42f398561644eb55a7269da0f937d0512c40c0000000000000000000000000000000000000000000000000000000000000003200000000000000000000000000000000000000000000000000000001000276a40000000000000000000000000000000000000000000000000000000069b67242",
        "nonce": "0x3ae",
        "chainId": "0x515"
      },
      "additionalContracts": [],
      "isFixedGasLimit": false
    },
    {
      "hash": "0xe2548ffd8d2819518e1b2eb781744e878ab0d96c3753ffe57c0cb98bb84cdfc9",
      "transactionType": "CALL",
      "contractName": null,
      "contractAddress": "0xe56a90ad0deab20ee9fcd780b14ca90fc71d3f5d",
      "function": "executeNextSlice((bytes32,(address,address,uint24,int24,address),uint24,uint160,uint40))",
      "arguments": [
        "(0xbd2db7f6ebea19e620d9f2a7e94e51d1a3c3f59fc6038ac621bf2aae90e739e8, (0x26d8addca2FE30895de2b6E5AAee63cFD91bC4e2, 0xE7AFFaFeC9a196bF572Ea50C3e149C626409de2f, 3000, 60, 0xBF42f398561644Eb55A7269dA0F937D0512c40c0), 50, 4295128740, 1773564482)"
      ],
      "transaction": {
        "from": "0x4b992f2fbf714c0fcbb23bac5130ace48cad00cd",
        "to": "0xe56a90ad0deab20ee9fcd780b14ca90fc71d3f5d",
        "gas": "0x16d2d",
        "value": "0x0",
        "input": "0xdee73244bd2db7f6ebea19e620d9f2a7e94e51d1a3c3f59fc6038ac621bf2aae90e739e800000000000000000000000026d8addca2fe30895de2b6e5aaee63cfd91bc4e2000000000000000000000000e7affafec9a196bf572ea50c3e149c626409de2f0000000000000000000000000000000000000000000000000000000000000bb8000000000000000000000000000000000000000000000000000000000000003c000000000000000000000000bf42f398561644eb55a7269da0f937d0512c40c0000000000000000000000000000000000000000000000000000000000000003200000000000000000000000000000000000000000000000000000001000276a40000000000000000000000000000000000000000000000000000000069b67242",
        "nonce": "0x3af",
        "chainId": "0x515"
      },
      "additionalContracts": [],
      "isFixedGasLimit": false
    },
    {
      "hash": "0x4e4c0604a31e9c397b83865d618545fd3e110c05c81504c34d869cc1fb47901d",
      "transactionType": "CALL",
      "contractName": null,
      "contractAddress": "0xe56a90ad0deab20ee9fcd780b14ca90fc71d3f5d",
      "function": "executeNextSlice((bytes32,(address,address,uint24,int24,address),uint24,uint160,uint40))",
      "arguments": [
        "(0xbd2db7f6ebea19e620d9f2a7e94e51d1a3c3f59fc6038ac621bf2aae90e739e8, (0x26d8addca2FE30895de2b6E5AAee63cFD91bC4e2, 0xE7AFFaFeC9a196bF572Ea50C3e149C626409de2f, 3000, 60, 0xBF42f398561644Eb55A7269dA0F937D0512c40c0), 50, 4295128740, 1773564482)"
      ],
      "transaction": {
        "from": "0x4b992f2fbf714c0fcbb23bac5130ace48cad00cd",
        "to": "0xe56a90ad0deab20ee9fcd780b14ca90fc71d3f5d",
        "gas": "0x16d2d",
        "value": "0x0",
        "input": "0xdee73244bd2db7f6ebea19e620d9f2a7e94e51d1a3c3f59fc6038ac621bf2aae90e739e800000000000000000000000026d8addca2fe30895de2b6e5aaee63cfd91bc4e2000000000000000000000000e7affafec9a196bf572ea50c3e149c626409de2f0000000000000000000000000000000000000000000000000000000000000bb8000000000000000000000000000000000000000000000000000000000000003c000000000000000000000000bf42f398561644eb55a7269da0f937d0512c40c0000000000000000000000000000000000000000000000000000000000000003200000000000000000000000000000000000000000000000000000001000276a40000000000000000000000000000000000000000000000000000000069b67242",
        "nonce": "0x3b0",
        "chainId": "0x515"
      },
      "additionalContracts": [],
      "isFixedGasLimit": false
    },
    {
      "hash": "0x1004341b3521ea715d6b6aacbe67012d5c903fc6d5183a1e6b0df812cd95a8b3",
      "transactionType": "CALL",
      "contractName": null,
      "contractAddress": "0xe56a90ad0deab20ee9fcd780b14ca90fc71d3f5d",
      "function": "executeNextSlice((bytes32,(address,address,uint24,int24,address),uint24,uint160,uint40))",
      "arguments": [
        "(0xbd2db7f6ebea19e620d9f2a7e94e51d1a3c3f59fc6038ac621bf2aae90e739e8, (0x26d8addca2FE30895de2b6E5AAee63cFD91bC4e2, 0xE7AFFaFeC9a196bF572Ea50C3e149C626409de2f, 3000, 60, 0xBF42f398561644Eb55A7269dA0F937D0512c40c0), 50, 4295128740, 1773564482)"
      ],
      "transaction": {
        "from": "0x4b992f2fbf714c0fcbb23bac5130ace48cad00cd",
        "to": "0xe56a90ad0deab20ee9fcd780b14ca90fc71d3f5d",
        "gas": "0x16d2d",
        "value": "0x0",
        "input": "0xdee73244bd2db7f6ebea19e620d9f2a7e94e51d1a3c3f59fc6038ac621bf2aae90e739e800000000000000000000000026d8addca2fe30895de2b6e5aaee63cfd91bc4e2000000000000000000000000e7affafec9a196bf572ea50c3e149c626409de2f0000000000000000000000000000000000000000000000000000000000000bb8000000000000000000000000000000000000000000000000000000000000003c000000000000000000000000bf42f398561644eb55a7269da0f937d0512c40c0000000000000000000000000000000000000000000000000000000000000003200000000000000000000000000000000000000000000000000000001000276a40000000000000000000000000000000000000000000000000000000069b67242",
        "nonce": "0x3b1",
        "chainId": "0x515"
      },
      "additionalContracts": [],
      "isFixedGasLimit": false
    },
    {
      "hash": "0xd2a48d92f9af44545d90c4feb88a5e74fa70f4fd090b36370d5db45c1862d427",
      "transactionType": "CALL",
      "contractName": null,
      "contractAddress": "0xe56a90ad0deab20ee9fcd780b14ca90fc71d3f5d",
      "function": "executeNextSlice((bytes32,(address,address,uint24,int24,address),uint24,uint160,uint40))",
      "arguments": [
        "(0xbd2db7f6ebea19e620d9f2a7e94e51d1a3c3f59fc6038ac621bf2aae90e739e8, (0x26d8addca2FE30895de2b6E5AAee63cFD91bC4e2, 0xE7AFFaFeC9a196bF572Ea50C3e149C626409de2f, 3000, 60, 0xBF42f398561644Eb55A7269dA0F937D0512c40c0), 50, 4295128740, 1773564482)"
      ],
      "transaction": {
        "from": "0x4b992f2fbf714c0fcbb23bac5130ace48cad00cd",
        "to": "0xe56a90ad0deab20ee9fcd780b14ca90fc71d3f5d",
        "gas": "0x16d2d",
        "value": "0x0",
        "input": "0xdee73244bd2db7f6ebea19e620d9f2a7e94e51d1a3c3f59fc6038ac621bf2aae90e739e800000000000000000000000026d8addca2fe30895de2b6e5aaee63cfd91bc4e2000000000000000000000000e7affafec9a196bf572ea50c3e149c626409de2f0000000000000000000000000000000000000000000000000000000000000bb8000000000000000000000000000000000000000000000000000000000000003c000000000000000000000000bf42f398561644eb55a7269da0f937d0512c40c0000000000000000000000000000000000000000000000000000000000000003200000000000000000000000000000000000000000000000000000001000276a40000000000000000000000000000000000000000000000000000000069b67242",
        "nonce": "0x3b2",
        "chainId": "0x515"
      },
      "additionalContracts": [],
      "isFixedGasLimit": false
    },
    {
      "hash": "0xa8c8e33247467aacd04c9051e1b471d7e2ca310ab4f79e0448bbd44255c5609b",
      "transactionType": "CALL",
      "contractName": null,
      "contractAddress": "0xe56a90ad0deab20ee9fcd780b14ca90fc71d3f5d",
      "function": "executeNextSlice((bytes32,(address,address,uint24,int24,address),uint24,uint160,uint40))",
      "arguments": [
        "(0xbd2db7f6ebea19e620d9f2a7e94e51d1a3c3f59fc6038ac621bf2aae90e739e8, (0x26d8addca2FE30895de2b6E5AAee63cFD91bC4e2, 0xE7AFFaFeC9a196bF572Ea50C3e149C626409de2f, 3000, 60, 0xBF42f398561644Eb55A7269dA0F937D0512c40c0), 50, 4295128740, 1773564482)"
      ],
      "transaction": {
        "from": "0x4b992f2fbf714c0fcbb23bac5130ace48cad00cd",
        "to": "0xe56a90ad0deab20ee9fcd780b14ca90fc71d3f5d",
        "gas": "0x16d2d",
        "value": "0x0",
        "input": "0xdee73244bd2db7f6ebea19e620d9f2a7e94e51d1a3c3f59fc6038ac621bf2aae90e739e800000000000000000000000026d8addca2fe30895de2b6e5aaee63cfd91bc4e2000000000000000000000000e7affafec9a196bf572ea50c3e149c626409de2f0000000000000000000000000000000000000000000000000000000000000bb8000000000000000000000000000000000000000000000000000000000000003c000000000000000000000000bf42f398561644eb55a7269da0f937d0512c40c0000000000000000000000000000000000000000000000000000000000000003200000000000000000000000000000000000000000000000000000001000276a40000000000000000000000000000000000000000000000000000000069b67242",
        "nonce": "0x3b3",
        "chainId": "0x515"
      },
      "additionalContracts": [],
      "isFixedGasLimit": false
    },
    {
      "hash": "0xdc9f19be56d8bc5e06cf7f231b82ac7a4e2e79525ba7390530dda2a61b493b8d",
      "transactionType": "CALL",
      "contractName": null,
      "contractAddress": "0xe56a90ad0deab20ee9fcd780b14ca90fc71d3f5d",
      "function": "executeNextSlice((bytes32,(address,address,uint24,int24,address),uint24,uint160,uint40))",
      "arguments": [
        "(0xbd2db7f6ebea19e620d9f2a7e94e51d1a3c3f59fc6038ac621bf2aae90e739e8, (0x26d8addca2FE30895de2b6E5AAee63cFD91bC4e2, 0xE7AFFaFeC9a196bF572Ea50C3e149C626409de2f, 3000, 60, 0xBF42f398561644Eb55A7269dA0F937D0512c40c0), 50, 4295128740, 1773564482)"
      ],
      "transaction": {
        "from": "0x4b992f2fbf714c0fcbb23bac5130ace48cad00cd",
        "to": "0xe56a90ad0deab20ee9fcd780b14ca90fc71d3f5d",
        "gas": "0x16d2d",
        "value": "0x0",
        "input": "0xdee73244bd2db7f6ebea19e620d9f2a7e94e51d1a3c3f59fc6038ac621bf2aae90e739e800000000000000000000000026d8addca2fe30895de2b6e5aaee63cfd91bc4e2000000000000000000000000e7affafec9a196bf572ea50c3e149c626409de2f0000000000000000000000000000000000000000000000000000000000000bb8000000000000000000000000000000000000000000000000000000000000003c000000000000000000000000bf42f398561644eb55a7269da0f937d0512c40c0000000000000000000000000000000000000000000000000000000000000003200000000000000000000000000000000000000000000000000000001000276a40000000000000000000000000000000000000000000000000000000069b67242",
        "nonce": "0x3b4",
        "chainId": "0x515"
      },
      "additionalContracts": [],
      "isFixedGasLimit": false
    },
    {
      "hash": "0x79ac473d10d03795c7277439c165b4f7335cba732bbacec0f93889e56add2e28",
      "transactionType": "CALL",
      "contractName": null,
      "contractAddress": "0xe56a90ad0deab20ee9fcd780b14ca90fc71d3f5d",
      "function": "executeNextSlice((bytes32,(address,address,uint24,int24,address),uint24,uint160,uint40))",
      "arguments": [
        "(0xbd2db7f6ebea19e620d9f2a7e94e51d1a3c3f59fc6038ac621bf2aae90e739e8, (0x26d8addca2FE30895de2b6E5AAee63cFD91bC4e2, 0xE7AFFaFeC9a196bF572Ea50C3e149C626409de2f, 3000, 60, 0xBF42f398561644Eb55A7269dA0F937D0512c40c0), 50, 4295128740, 1773564482)"
      ],
      "transaction": {
        "from": "0x4b992f2fbf714c0fcbb23bac5130ace48cad00cd",
        "to": "0xe56a90ad0deab20ee9fcd780b14ca90fc71d3f5d",
        "gas": "0x16d2d",
        "value": "0x0",
        "input": "0xdee73244bd2db7f6ebea19e620d9f2a7e94e51d1a3c3f59fc6038ac621bf2aae90e739e800000000000000000000000026d8addca2fe30895de2b6e5aaee63cfd91bc4e2000000000000000000000000e7affafec9a196bf572ea50c3e149c626409de2f0000000000000000000000000000000000000000000000000000000000000bb8000000000000000000000000000000000000000000000000000000000000003c000000000000000000000000bf42f398561644eb55a7269da0f937d0512c40c0000000000000000000000000000000000000000000000000000000000000003200000000000000000000000000000000000000000000000000000001000276a40000000000000000000000000000000000000000000000000000000069b67242",
        "nonce": "0x3b5",
        "chainId": "0x515"
      },
      "additionalContracts": [],
      "isFixedGasLimit": false
    },
    {
      "hash": "0xf4131f57a2334fa3ad1a35ca04ca780713ddd62541c8e49a5df9357c8d3d23e3",
      "transactionType": "CALL",
      "contractName": null,
      "contractAddress": "0xe56a90ad0deab20ee9fcd780b14ca90fc71d3f5d",
      "function": "executeNextSlice((bytes32,(address,address,uint24,int24,address),uint24,uint160,uint40))",
      "arguments": [
        "(0xbd2db7f6ebea19e620d9f2a7e94e51d1a3c3f59fc6038ac621bf2aae90e739e8, (0x26d8addca2FE30895de2b6E5AAee63cFD91bC4e2, 0xE7AFFaFeC9a196bF572Ea50C3e149C626409de2f, 3000, 60, 0xBF42f398561644Eb55A7269dA0F937D0512c40c0), 50, 4295128740, 1773564482)"
      ],
      "transaction": {
        "from": "0x4b992f2fbf714c0fcbb23bac5130ace48cad00cd",
        "to": "0xe56a90ad0deab20ee9fcd780b14ca90fc71d3f5d",
        "gas": "0x16d2d",
        "value": "0x0",
        "input": "0xdee73244bd2db7f6ebea19e620d9f2a7e94e51d1a3c3f59fc6038ac621bf2aae90e739e800000000000000000000000026d8addca2fe30895de2b6e5aaee63cfd91bc4e2000000000000000000000000e7affafec9a196bf572ea50c3e149c626409de2f0000000000000000000000000000000000000000000000000000000000000bb8000000000000000000000000000000000000000000000000000000000000003c000000000000000000000000bf42f398561644eb55a7269da0f937d0512c40c0000000000000000000000000000000000000000000000000000000000000003200000000000000000000000000000000000000000000000000000001000276a40000000000000000000000000000000000000000000000000000000069b67242",
        "nonce": "0x3b6",
        "chainId": "0x515"
      },
      "additionalContracts": [],
      "isFixedGasLimit": false
    },
    {
      "hash": "0x05d08198c4627e2175d95f9240e0238a645bb980d077b5e525913c044fdd8043",
      "transactionType": "CALL",
      "contractName": null,
      "contractAddress": "0xe56a90ad0deab20ee9fcd780b14ca90fc71d3f5d",
      "function": "executeNextSlice((bytes32,(address,address,uint24,int24,address),uint24,uint160,uint40))",
      "arguments": [
        "(0xbd2db7f6ebea19e620d9f2a7e94e51d1a3c3f59fc6038ac621bf2aae90e739e8, (0x26d8addca2FE30895de2b6E5AAee63cFD91bC4e2, 0xE7AFFaFeC9a196bF572Ea50C3e149C626409de2f, 3000, 60, 0xBF42f398561644Eb55A7269dA0F937D0512c40c0), 50, 4295128740, 1773564482)"
      ],
      "transaction": {
        "from": "0x4b992f2fbf714c0fcbb23bac5130ace48cad00cd",
        "to": "0xe56a90ad0deab20ee9fcd780b14ca90fc71d3f5d",
        "gas": "0x16d2d",
        "value": "0x0",
        "input": "0xdee73244bd2db7f6ebea19e620d9f2a7e94e51d1a3c3f59fc6038ac621bf2aae90e739e800000000000000000000000026d8addca2fe30895de2b6e5aaee63cfd91bc4e2000000000000000000000000e7affafec9a196bf572ea50c3e149c626409de2f0000000000000000000000000000000000000000000000000000000000000bb8000000000000000000000000000000000000000000000000000000000000003c000000000000000000000000bf42f398561644eb55a7269da0f937d0512c40c0000000000000000000000000000000000000000000000000000000000000003200000000000000000000000000000000000000000000000000000001000276a40000000000000000000000000000000000000000000000000000000069b67242",
        "nonce": "0x3b7",
        "chainId": "0x515"
      },
      "additionalContracts": [],
      "isFixedGasLimit": false
    },
    {
      "hash": "0x9925d8d357cd85abf9589d15591b1b6dd4f534d1841063e7a239a603367c84cc",
      "transactionType": "CALL",
      "contractName": null,
      "contractAddress": "0xe56a90ad0deab20ee9fcd780b14ca90fc71d3f5d",
      "function": "executeNextSlice((bytes32,(address,address,uint24,int24,address),uint24,uint160,uint40))",
      "arguments": [
        "(0xbd2db7f6ebea19e620d9f2a7e94e51d1a3c3f59fc6038ac621bf2aae90e739e8, (0x26d8addca2FE30895de2b6E5AAee63cFD91bC4e2, 0xE7AFFaFeC9a196bF572Ea50C3e149C626409de2f, 3000, 60, 0xBF42f398561644Eb55A7269dA0F937D0512c40c0), 50, 4295128740, 1773564482)"
      ],
      "transaction": {
        "from": "0x4b992f2fbf714c0fcbb23bac5130ace48cad00cd",
        "to": "0xe56a90ad0deab20ee9fcd780b14ca90fc71d3f5d",
        "gas": "0x16d2d",
        "value": "0x0",
        "input": "0xdee73244bd2db7f6ebea19e620d9f2a7e94e51d1a3c3f59fc6038ac621bf2aae90e739e800000000000000000000000026d8addca2fe30895de2b6e5aaee63cfd91bc4e2000000000000000000000000e7affafec9a196bf572ea50c3e149c626409de2f0000000000000000000000000000000000000000000000000000000000000bb8000000000000000000000000000000000000000000000000000000000000003c000000000000000000000000bf42f398561644eb55a7269da0f937d0512c40c0000000000000000000000000000000000000000000000000000000000000003200000000000000000000000000000000000000000000000000000001000276a40000000000000000000000000000000000000000000000000000000069b67242",
        "nonce": "0x3b8",
        "chainId": "0x515"
      },
      "additionalContracts": [],
      "isFixedGasLimit": false
    },
    {
      "hash": "0x330e49df18a88f2d39346e3005995999b19484aadf6a49a34d7575a38b62db34",
      "transactionType": "CALL",
      "contractName": null,
      "contractAddress": "0xe56a90ad0deab20ee9fcd780b14ca90fc71d3f5d",
      "function": "executeNextSlice((bytes32,(address,address,uint24,int24,address),uint24,uint160,uint40))",
      "arguments": [
        "(0xbd2db7f6ebea19e620d9f2a7e94e51d1a3c3f59fc6038ac621bf2aae90e739e8, (0x26d8addca2FE30895de2b6E5AAee63cFD91bC4e2, 0xE7AFFaFeC9a196bF572Ea50C3e149C626409de2f, 3000, 60, 0xBF42f398561644Eb55A7269dA0F937D0512c40c0), 50, 4295128740, 1773564482)"
      ],
      "transaction": {
        "from": "0x4b992f2fbf714c0fcbb23bac5130ace48cad00cd",
        "to": "0xe56a90ad0deab20ee9fcd780b14ca90fc71d3f5d",
        "gas": "0x16d2d",
        "value": "0x0",
        "input": "0xdee73244bd2db7f6ebea19e620d9f2a7e94e51d1a3c3f59fc6038ac621bf2aae90e739e800000000000000000000000026d8addca2fe30895de2b6e5aaee63cfd91bc4e2000000000000000000000000e7affafec9a196bf572ea50c3e149c626409de2f0000000000000000000000000000000000000000000000000000000000000bb8000000000000000000000000000000000000000000000000000000000000003c000000000000000000000000bf42f398561644eb55a7269da0f937d0512c40c0000000000000000000000000000000000000000000000000000000000000003200000000000000000000000000000000000000000000000000000001000276a40000000000000000000000000000000000000000000000000000000069b67242",
        "nonce": "0x3b9",
        "chainId": "0x515"
      },
      "additionalContracts": [],
      "isFixedGasLimit": false
    },
    {
      "hash": "0x4f6b4b47ab398cf4812a639f1de08f6d13e3c7a8d2b6ac8e99a0026ae3d9333d",
      "transactionType": "CALL",
      "contractName": null,
      "contractAddress": "0xe56a90ad0deab20ee9fcd780b14ca90fc71d3f5d",
      "function": "executeNextSlice((bytes32,(address,address,uint24,int24,address),uint24,uint160,uint40))",
      "arguments": [
        "(0xbd2db7f6ebea19e620d9f2a7e94e51d1a3c3f59fc6038ac621bf2aae90e739e8, (0x26d8addca2FE30895de2b6E5AAee63cFD91bC4e2, 0xE7AFFaFeC9a196bF572Ea50C3e149C626409de2f, 3000, 60, 0xBF42f398561644Eb55A7269dA0F937D0512c40c0), 50, 4295128740, 1773564482)"
      ],
      "transaction": {
        "from": "0x4b992f2fbf714c0fcbb23bac5130ace48cad00cd",
        "to": "0xe56a90ad0deab20ee9fcd780b14ca90fc71d3f5d",
        "gas": "0x16d2d",
        "value": "0x0",
        "input": "0xdee73244bd2db7f6ebea19e620d9f2a7e94e51d1a3c3f59fc6038ac621bf2aae90e739e800000000000000000000000026d8addca2fe30895de2b6e5aaee63cfd91bc4e2000000000000000000000000e7affafec9a196bf572ea50c3e149c626409de2f0000000000000000000000000000000000000000000000000000000000000bb8000000000000000000000000000000000000000000000000000000000000003c000000000000000000000000bf42f398561644eb55a7269da0f937d0512c40c0000000000000000000000000000000000000000000000000000000000000003200000000000000000000000000000000000000000000000000000001000276a40000000000000000000000000000000000000000000000000000000069b67242",
        "nonce": "0x3ba",
        "chainId": "0x515"
      },
      "additionalContracts": [],
      "isFixedGasLimit": false
    },
    {
      "hash": "0xd70eddcbbcc21ab0544b9e6e58d567ed0270fcc60e58b707774ed8bf124c675b",
      "transactionType": "CALL",
      "contractName": null,
      "contractAddress": "0xe56a90ad0deab20ee9fcd780b14ca90fc71d3f5d",
      "function": "executeNextSlice((bytes32,(address,address,uint24,int24,address),uint24,uint160,uint40))",
      "arguments": [
        "(0xbd2db7f6ebea19e620d9f2a7e94e51d1a3c3f59fc6038ac621bf2aae90e739e8, (0x26d8addca2FE30895de2b6E5AAee63cFD91bC4e2, 0xE7AFFaFeC9a196bF572Ea50C3e149C626409de2f, 3000, 60, 0xBF42f398561644Eb55A7269dA0F937D0512c40c0), 50, 4295128740, 1773564482)"
      ],
      "transaction": {
        "from": "0x4b992f2fbf714c0fcbb23bac5130ace48cad00cd",
        "to": "0xe56a90ad0deab20ee9fcd780b14ca90fc71d3f5d",
        "gas": "0x16d2d",
        "value": "0x0",
        "input": "0xdee73244bd2db7f6ebea19e620d9f2a7e94e51d1a3c3f59fc6038ac621bf2aae90e739e800000000000000000000000026d8addca2fe30895de2b6e5aaee63cfd91bc4e2000000000000000000000000e7affafec9a196bf572ea50c3e149c626409de2f0000000000000000000000000000000000000000000000000000000000000bb8000000000000000000000000000000000000000000000000000000000000003c000000000000000000000000bf42f398561644eb55a7269da0f937d0512c40c0000000000000000000000000000000000000000000000000000000000000003200000000000000000000000000000000000000000000000000000001000276a40000000000000000000000000000000000000000000000000000000069b67242",
        "nonce": "0x3bb",
        "chainId": "0x515"
      },
      "additionalContracts": [],
      "isFixedGasLimit": false
    },
    {
      "hash": "0x40fee54f0d1aa40cda2a91721ff15348311cff428d3596ed50dca6434d17008a",
      "transactionType": "CALL",
      "contractName": null,
      "contractAddress": "0xe56a90ad0deab20ee9fcd780b14ca90fc71d3f5d",
      "function": "executeNextSlice((bytes32,(address,address,uint24,int24,address),uint24,uint160,uint40))",
      "arguments": [
        "(0xbd2db7f6ebea19e620d9f2a7e94e51d1a3c3f59fc6038ac621bf2aae90e739e8, (0x26d8addca2FE30895de2b6E5AAee63cFD91bC4e2, 0xE7AFFaFeC9a196bF572Ea50C3e149C626409de2f, 3000, 60, 0xBF42f398561644Eb55A7269dA0F937D0512c40c0), 50, 4295128740, 1773564482)"
      ],
      "transaction": {
        "from": "0x4b992f2fbf714c0fcbb23bac5130ace48cad00cd",
        "to": "0xe56a90ad0deab20ee9fcd780b14ca90fc71d3f5d",
        "gas": "0x16d2d",
        "value": "0x0",
        "input": "0xdee73244bd2db7f6ebea19e620d9f2a7e94e51d1a3c3f59fc6038ac621bf2aae90e739e800000000000000000000000026d8addca2fe30895de2b6e5aaee63cfd91bc4e2000000000000000000000000e7affafec9a196bf572ea50c3e149c626409de2f0000000000000000000000000000000000000000000000000000000000000bb8000000000000000000000000000000000000000000000000000000000000003c000000000000000000000000bf42f398561644eb55a7269da0f937d0512c40c0000000000000000000000000000000000000000000000000000000000000003200000000000000000000000000000000000000000000000000000001000276a40000000000000000000000000000000000000000000000000000000069b67242",
        "nonce": "0x3bc",
        "chainId": "0x515"
      },
      "additionalContracts": [],
      "isFixedGasLimit": false
    },
    {
      "hash": "0x7653adda65ea03f86654496ba7a86b75adb9dd5eb61fafe10b26f36921bed545",
      "transactionType": "CALL",
      "contractName": null,
      "contractAddress": "0xe56a90ad0deab20ee9fcd780b14ca90fc71d3f5d",
      "function": "executeNextSlice((bytes32,(address,address,uint24,int24,address),uint24,uint160,uint40))",
      "arguments": [
        "(0xbd2db7f6ebea19e620d9f2a7e94e51d1a3c3f59fc6038ac621bf2aae90e739e8, (0x26d8addca2FE30895de2b6E5AAee63cFD91bC4e2, 0xE7AFFaFeC9a196bF572Ea50C3e149C626409de2f, 3000, 60, 0xBF42f398561644Eb55A7269dA0F937D0512c40c0), 50, 4295128740, 1773564482)"
      ],
      "transaction": {
        "from": "0x4b992f2fbf714c0fcbb23bac5130ace48cad00cd",
        "to": "0xe56a90ad0deab20ee9fcd780b14ca90fc71d3f5d",
        "gas": "0x16d2d",
        "value": "0x0",
        "input": "0xdee73244bd2db7f6ebea19e620d9f2a7e94e51d1a3c3f59fc6038ac621bf2aae90e739e800000000000000000000000026d8addca2fe30895de2b6e5aaee63cfd91bc4e2000000000000000000000000e7affafec9a196bf572ea50c3e149c626409de2f0000000000000000000000000000000000000000000000000000000000000bb8000000000000000000000000000000000000000000000000000000000000003c000000000000000000000000bf42f398561644eb55a7269da0f937d0512c40c0000000000000000000000000000000000000000000000000000000000000003200000000000000000000000000000000000000000000000000000001000276a40000000000000000000000000000000000000000000000000000000069b67242",
        "nonce": "0x3bd",
        "chainId": "0x515"
      },
      "additionalContracts": [],
      "isFixedGasLimit": false
    },
    {
      "hash": "0xd0f90f08d225f3f32aa6d09146d98316f61afc70207074a7460a324646beeee2",
      "transactionType": "CALL",
      "contractName": null,
      "contractAddress": "0xe56a90ad0deab20ee9fcd780b14ca90fc71d3f5d",
      "function": "executeNextSlice((bytes32,(address,address,uint24,int24,address),uint24,uint160,uint40))",
      "arguments": [
        "(0xbd2db7f6ebea19e620d9f2a7e94e51d1a3c3f59fc6038ac621bf2aae90e739e8, (0x26d8addca2FE30895de2b6E5AAee63cFD91bC4e2, 0xE7AFFaFeC9a196bF572Ea50C3e149C626409de2f, 3000, 60, 0xBF42f398561644Eb55A7269dA0F937D0512c40c0), 50, 4295128740, 1773564482)"
      ],
      "transaction": {
        "from": "0x4b992f2fbf714c0fcbb23bac5130ace48cad00cd",
        "to": "0xe56a90ad0deab20ee9fcd780b14ca90fc71d3f5d",
        "gas": "0x16d2d",
        "value": "0x0",
        "input": "0xdee73244bd2db7f6ebea19e620d9f2a7e94e51d1a3c3f59fc6038ac621bf2aae90e739e800000000000000000000000026d8addca2fe30895de2b6e5aaee63cfd91bc4e2000000000000000000000000e7affafec9a196bf572ea50c3e149c626409de2f0000000000000000000000000000000000000000000000000000000000000bb8000000000000000000000000000000000000000000000000000000000000003c000000000000000000000000bf42f398561644eb55a7269da0f937d0512c40c0000000000000000000000000000000000000000000000000000000000000003200000000000000000000000000000000000000000000000000000001000276a40000000000000000000000000000000000000000000000000000000069b67242",
        "nonce": "0x3be",
        "chainId": "0x515"
      },
      "additionalContracts": [],
      "isFixedGasLimit": false
    }
  ],
  "receipts": [
    {
      "status": "0x1",
      "cumulativeGasUsed": "0x1de473",
      "logs": [],
      "logsBloom": "0x00000000000000000000000000000000000000000000000000000000000000000000000000000000000000000000000000000000000000000000000000000000000000000000000000000000000000000000000000000000000000000000000000000000000000000000000000000000000000000000000000000000000000000000000000000000000000000000000000000000000000000000000000000000000000000000000000000000000000000000000000000000000000000000000000000000000000000000000000000000000000000000000000000000000000000000000000000000000000000000000000000000000000000000000000000000",
      "type": "0x2",
      "transactionHash": "0x3d149be64ffdfcddbc7d4534f5dc52bbf6012fdf74f4db6f1cb4ad64c9711746",
      "transactionIndex": "0x7",
      "blockHash": "0x06a3a0145acd237ebdb9e33191205a277b6556e01f6a251f94f8a52f99a9a737",
      "blockNumber": "0x2c8c2b9",
      "gasUsed": "0xb4669",
      "effectiveGasPrice": "0x7a121",
      "blobGasUsed": "0xeff10",
      "from": "0x4b992f2fbf714c0fcbb23bac5130ace48cad00cd",
      "to": null,
      "contractAddress": "0x26d8addca2fe30895de2b6e5aaee63cfd91bc4e2",
      "daFootprintGasScalar": "0x190",
      "l1BaseFeeScalar": "0x7d0",
      "l1BlobBaseFee": "0x1",
      "l1BlobBaseFeeScalar": "0xdbba0",
      "l1Fee": "0xb67",
      "l1GasPrice": "0x9",
      "l1GasUsed": "0x999b"
    },
    {
      "status": "0x1",
      "cumulativeGasUsed": "0x1eef76",
      "logs": [
        {
          "address": "0x26d8addca2fe30895de2b6e5aaee63cfd91bc4e2",
          "topics": [
            "0xddf252ad1be2c89b69c2b068fc378daa952ba7f163c4a11628f55a4df523b3ef",
            "0x0000000000000000000000000000000000000000000000000000000000000000",
            "0x0000000000000000000000004b992f2fbf714c0fcbb23bac5130ace48cad00cd"
          ],
          "data": "0x000000000000000000000000000000000000007e37be2022c0914b2680000000",
          "blockHash": "0x06a3a0145acd237ebdb9e33191205a277b6556e01f6a251f94f8a52f99a9a737",
          "blockNumber": "0x2c8c2b9",
          "blockTimestamp": "0x69b67005",
          "transactionHash": "0xbe6c27563028776f3eb032f4a9cc16a0f27b05bb65bd026b543b9da2af60ff6d",
          "transactionIndex": "0x8",
          "logIndex": "0x5",
          "removed": false
        }
      ],
      "logsBloom": "0x00000000000000000000000000000000000000000000000000000000000000000000000000000000000000000000000000000202000000000000000000000000000000000000000000000008000000000000000000000000000100000000000000000000020000000000000000020800000000000000000000000010000000000000000000000000000000000000000000000000000000000000000000000000000000000000000000000000000000000000000000000000000000000000000000000002000000000000000000000000000000000000000000000000000020000000000000000000000000000000000000000000000000800000000002000000",
      "type": "0x2",
      "transactionHash": "0xbe6c27563028776f3eb032f4a9cc16a0f27b05bb65bd026b543b9da2af60ff6d",
      "transactionIndex": "0x8",
      "blockHash": "0x06a3a0145acd237ebdb9e33191205a277b6556e01f6a251f94f8a52f99a9a737",
      "blockNumber": "0x2c8c2b9",
      "gasUsed": "0x10b03",
      "effectiveGasPrice": "0x7a121",
      "blobGasUsed": "0x9c40",
      "from": "0x4b992f2fbf714c0fcbb23bac5130ace48cad00cd",
      "to": "0x26d8addca2fe30895de2b6e5aaee63cfd91bc4e2",
      "contractAddress": null,
      "daFootprintGasScalar": "0x190",
      "l1BaseFeeScalar": "0x7d0",
      "l1BlobBaseFee": "0x1",
      "l1BlobBaseFeeScalar": "0xdbba0",
      "l1Fee": "0x76",
      "l1GasPrice": "0x9",
      "l1GasUsed": "0x640"
    },
    {
      "status": "0x1",
      "cumulativeGasUsed": "0x221ac3",
      "logs": [
        {
          "address": "0x26d8addca2fe30895de2b6e5aaee63cfd91bc4e2",
          "topics": [
            "0x8c5be1e5ebec7d5bd14f71427d1e84f3dd0314c0f7b2291e5b200ac8c7c3b925",
            "0x0000000000000000000000004b992f2fbf714c0fcbb23bac5130ace48cad00cd",
            "0x000000000000000000000000f969aee60879c54baaed9f3ed26147db216fd664"
          ],
          "data": "0xffffffffffffffffffffffffffffffffffffffffffffffffffffffffffffffff",
          "blockHash": "0x06a3a0145acd237ebdb9e33191205a277b6556e01f6a251f94f8a52f99a9a737",
          "blockNumber": "0x2c8c2b9",
          "blockTimestamp": "0x69b67005",
          "transactionHash": "0xcbdea0829ca6ae54387b98f8aff7b33dfda7b92dc80fb05a49db053898bb67ab",
          "transactionIndex": "0xc",
          "logIndex": "0x9",
          "removed": false
        }
      ],
      "logsBloom": "0x00000000000000000000000000000000000000000000000000000000000000000000000000000000000000000000000000000202000000000000000000200000000000000000000000000000000000000000000000000000000100001000000000000000000000000000000000020000000000000040000000000000000000000000000000000000000000000000000000000000000000000000000000000000020000000000000000000000000000000000000000000000000000000000000000000000000000000000000000000000000000000000000000000000000000000010000000000000000000000000000000000000000000800000000002002000",
      "type": "0x2",
      "transactionHash": "0xcbdea0829ca6ae54387b98f8aff7b33dfda7b92dc80fb05a49db053898bb67ab",
      "transactionIndex": "0xc",
      "blockHash": "0x06a3a0145acd237ebdb9e33191205a277b6556e01f6a251f94f8a52f99a9a737",
      "blockNumber": "0x2c8c2b9",
      "gasUsed": "0xb596",
      "effectiveGasPrice": "0x7a121",
      "blobGasUsed": "0x9c40",
      "from": "0x4b992f2fbf714c0fcbb23bac5130ace48cad00cd",
      "to": "0x26d8addca2fe30895de2b6e5aaee63cfd91bc4e2",
      "contractAddress": null,
      "daFootprintGasScalar": "0x190",
      "l1BaseFeeScalar": "0x7d0",
      "l1BlobBaseFee": "0x1",
      "l1BlobBaseFeeScalar": "0xdbba0",
      "l1Fee": "0x76",
      "l1GasPrice": "0x9",
      "l1GasUsed": "0x640"
    },
    {
      "status": "0x1",
      "cumulativeGasUsed": "0x24408b",
      "logs": [
        {
          "address": "0xe7affafec9a196bf572ea50c3e149c626409de2f",
          "topics": [
            "0x8c5be1e5ebec7d5bd14f71427d1e84f3dd0314c0f7b2291e5b200ac8c7c3b925",
            "0x0000000000000000000000004b992f2fbf714c0fcbb23bac5130ace48cad00cd",
            "0x000000000000000000000000f969aee60879c54baaed9f3ed26147db216fd664"
          ],
          "data": "0xffffffffffffffffffffffffffffffffffffffffffffffffffffffffffffffff",
          "blockHash": "0x06a3a0145acd237ebdb9e33191205a277b6556e01f6a251f94f8a52f99a9a737",
          "blockNumber": "0x2c8c2b9",
          "blockTimestamp": "0x69b67005",
          "transactionHash": "0x418c9a4d2e220e66dadca0f52f99dc20222686620ee602d9cef8fd4ed5e2f82e",
          "transactionIndex": "0xe",
          "logIndex": "0xb",
          "removed": false
        }
      ],
      "logsBloom": "0x00000000000000000000000000000000000000000000040000000000000000000000000000000000000000000000000000000002000000000000000000200000000000000000000000008000000000000000000000000000000100001000000000000000000000000000000000020000000000000040000000000000000000000000000000000000000000000000000000000000000000000000000000000000020000000000000000000000000000000000000000000000000000000000000000000000000000000000000000000000000000000000000000000000000000001010000000000000000000000000000000000000000000000000000000002000",
      "type": "0x2",
      "transactionHash": "0x418c9a4d2e220e66dadca0f52f99dc20222686620ee602d9cef8fd4ed5e2f82e",
      "transactionIndex": "0xe",
      "blockHash": "0x06a3a0145acd237ebdb9e33191205a277b6556e01f6a251f94f8a52f99a9a737",
      "blockNumber": "0x2c8c2b9",
      "gasUsed": "0xb596",
      "effectiveGasPrice": "0x7a121",
      "blobGasUsed": "0x9c40",
      "from": "0x4b992f2fbf714c0fcbb23bac5130ace48cad00cd",
      "to": "0xe7affafec9a196bf572ea50c3e149c626409de2f",
      "contractAddress": null,
      "daFootprintGasScalar": "0x190",
      "l1BaseFeeScalar": "0x7d0",
      "l1BlobBaseFee": "0x1",
      "l1BlobBaseFeeScalar": "0xdbba0",
      "l1Fee": "0x76",
      "l1GasPrice": "0x9",
      "l1GasUsed": "0x640"
    },
    {
      "status": "0x1",
      "cumulativeGasUsed": "0x17e5f4",
      "logs": [
        {
          "address": "0x493a90b1ea1bcbe2c6ab5af70928c82051b5e726",
          "topics": [
            "0xb3dde0287222b49b4bbdfbd414c2ffd0c3624d21a3f2803e40d0b130ae277d76",
            "0xbd2db7f6ebea19e620d9f2a7e94e51d1a3c3f59fc6038ac621bf2aae90e739e8"
          ],
          "data": "0x00000000000000000000000000000000000000000000000000000000000000010000000000000000000000000000000000000000000000000000000000000003",
          "blockHash": "0x44bbc490ae5ca72fabcb9f65a8aee7784ad710381de3144d9a67302c3f86e49b",
          "blockNumber": "0x2c8c2ba",
          "blockTimestamp": "0x69b67006",
          "transactionHash": "0x0c058c1158e5ee0e35699ce45bf571c2bc5b6ca9633d00078a7cf0401c8fac07",
          "transactionIndex": "0xf",
          "logIndex": "0x1f",
          "removed": false
        },
        {
          "address": "0xbf42f398561644eb55a7269da0f937d0512c40c0",
          "topics": [
            "0x82efaee5b14d8017020d8b71e6fc399e18b833bca549be299b7db2752d4df935",
            "0xbd2db7f6ebea19e620d9f2a7e94e51d1a3c3f59fc6038ac621bf2aae90e739e8"
          ],
          "data": "0x00000000000000000000000000000000000000000000000000000000000000000000000000000000000000000000000000000000000000000000000000000003",
          "blockHash": "0x44bbc490ae5ca72fabcb9f65a8aee7784ad710381de3144d9a67302c3f86e49b",
          "blockNumber": "0x2c8c2ba",
          "blockTimestamp": "0x69b67006",
          "transactionHash": "0x0c058c1158e5ee0e35699ce45bf571c2bc5b6ca9633d00078a7cf0401c8fac07",
          "transactionIndex": "0xf",
          "logIndex": "0x20",
          "removed": false
        },
        {
          "address": "0xe56a90ad0deab20ee9fcd780b14ca90fc71d3f5d",
          "topics": [
            "0xdf7df68fddb55e38a4b636bbd972bdf7820a2a1b99e9531fe805a52f90a7e99d",
            "0xbd2db7f6ebea19e620d9f2a7e94e51d1a3c3f59fc6038ac621bf2aae90e739e8",
            "0x0000000000000000000000000000000000000000000000000000000000000000"
          ],
          "data": "0x000000000000000000000000000000000000000000000000000000000000000000000000000000000000000000000000000000000000000000000000000000030000000000000000000000000000000000000000000000000000000000000000",
          "blockHash": "0x44bbc490ae5ca72fabcb9f65a8aee7784ad710381de3144d9a67302c3f86e49b",
          "blockNumber": "0x2c8c2ba",
          "blockTimestamp": "0x69b67006",
          "transactionHash": "0x0c058c1158e5ee0e35699ce45bf571c2bc5b6ca9633d00078a7cf0401c8fac07",
          "transactionIndex": "0xf",
          "logIndex": "0x21",
          "removed": false
        }
      ],
      "logsBloom": "0x00000000000000000000002000000000000000000000000000000000000000000000000000000000000000000000000080000000000000040000001000000000000000000000000000000020000000000000000000200000000000040000000040000000020000000000000000020800000000000001000000000000000000200000000000000200000000000000000000000000000000000000000000000000000000000000000000000000040000000400000000000010000000000000000000000000800000000000000000100000000000000000000000000000000020000000000000000000001000000000000000040000000000003000000000000000",
      "type": "0x2",
      "transactionHash": "0x0c058c1158e5ee0e35699ce45bf571c2bc5b6ca9633d00078a7cf0401c8fac07",
      "transactionIndex": "0xf",
      "blockHash": "0x44bbc490ae5ca72fabcb9f65a8aee7784ad710381de3144d9a67302c3f86e49b",
      "blockNumber": "0x2c8c2ba",
      "gasUsed": "0xf9b2",
      "effectiveGasPrice": "0x7a121",
      "blobGasUsed": "0x11f80",
      "from": "0x4b992f2fbf714c0fcbb23bac5130ace48cad00cd",
      "to": "0xe56a90ad0deab20ee9fcd780b14ca90fc71d3f5d",
      "contractAddress": null,
      "daFootprintGasScalar": "0x190",
      "l1BaseFeeScalar": "0x7d0",
      "l1BlobBaseFee": "0x1",
      "l1BlobBaseFeeScalar": "0xdbba0",
      "l1Fee": "0xda",
      "l1GasPrice": "0x9",
      "l1GasUsed": "0xb81"
    },
    {
      "status": "0x1",
      "cumulativeGasUsed": "0x18dfa6",
      "logs": [
        {
          "address": "0x493a90b1ea1bcbe2c6ab5af70928c82051b5e726",
          "topics": [
            "0xb3dde0287222b49b4bbdfbd414c2ffd0c3624d21a3f2803e40d0b130ae277d76",
            "0xbd2db7f6ebea19e620d9f2a7e94e51d1a3c3f59fc6038ac621bf2aae90e739e8"
          ],
          "data": "0x00000000000000000000000000000000000000000000000000000000000000010000000000000000000000000000000000000000000000000000000000000003",
          "blockHash": "0x44bbc490ae5ca72fabcb9f65a8aee7784ad710381de3144d9a67302c3f86e49b",
          "blockNumber": "0x2c8c2ba",
          "blockTimestamp": "0x69b67006",
          "transactionHash": "0x381d9e85d0ce8072eebfdd08398ed6684089a608430c496d6d500045fed8156c",
          "transactionIndex": "0x10",
          "logIndex": "0x22",
          "removed": false
        },
        {
          "address": "0xbf42f398561644eb55a7269da0f937d0512c40c0",
          "topics": [
            "0x82efaee5b14d8017020d8b71e6fc399e18b833bca549be299b7db2752d4df935",
            "0xbd2db7f6ebea19e620d9f2a7e94e51d1a3c3f59fc6038ac621bf2aae90e739e8"
          ],
          "data": "0x00000000000000000000000000000000000000000000000000000000000000000000000000000000000000000000000000000000000000000000000000000003",
          "blockHash": "0x44bbc490ae5ca72fabcb9f65a8aee7784ad710381de3144d9a67302c3f86e49b",
          "blockNumber": "0x2c8c2ba",
          "blockTimestamp": "0x69b67006",
          "transactionHash": "0x381d9e85d0ce8072eebfdd08398ed6684089a608430c496d6d500045fed8156c",
          "transactionIndex": "0x10",
          "logIndex": "0x23",
          "removed": false
        },
        {
          "address": "0xe56a90ad0deab20ee9fcd780b14ca90fc71d3f5d",
          "topics": [
            "0xdf7df68fddb55e38a4b636bbd972bdf7820a2a1b99e9531fe805a52f90a7e99d",
            "0xbd2db7f6ebea19e620d9f2a7e94e51d1a3c3f59fc6038ac621bf2aae90e739e8",
            "0x0000000000000000000000000000000000000000000000000000000000000000"
          ],
          "data": "0x000000000000000000000000000000000000000000000000000000000000000000000000000000000000000000000000000000000000000000000000000000030000000000000000000000000000000000000000000000000000000000000000",
          "blockHash": "0x44bbc490ae5ca72fabcb9f65a8aee7784ad710381de3144d9a67302c3f86e49b",
          "blockNumber": "0x2c8c2ba",
          "blockTimestamp": "0x69b67006",
          "transactionHash": "0x381d9e85d0ce8072eebfdd08398ed6684089a608430c496d6d500045fed8156c",
          "transactionIndex": "0x10",
          "logIndex": "0x24",
          "removed": false
        }
      ],
      "logsBloom": "0x00000000000000000000002000000000000000000000000000000000000000000000000000000000000000000000000080000000000000040000001000000000000000000000000000000020000000000000000000200000000000040000000040000000020000000000000000020800000000000001000000000000000000200000000000000200000000000000000000000000000000000000000000000000000000000000000000000000040000000400000000000010000000000000000000000000800000000000000000100000000000000000000000000000000020000000000000000000001000000000000000040000000000003000000000000000",
      "type": "0x2",
      "transactionHash": "0x381d9e85d0ce8072eebfdd08398ed6684089a608430c496d6d500045fed8156c",
      "transactionIndex": "0x10",
      "blockHash": "0x44bbc490ae5ca72fabcb9f65a8aee7784ad710381de3144d9a67302c3f86e49b",
      "blockNumber": "0x2c8c2ba",
      "gasUsed": "0xf9b2",
      "effectiveGasPrice": "0x7a121",
      "blobGasUsed": "0x11f80",
      "from": "0x4b992f2fbf714c0fcbb23bac5130ace48cad00cd",
      "to": "0xe56a90ad0deab20ee9fcd780b14ca90fc71d3f5d",
      "contractAddress": null,
      "daFootprintGasScalar": "0x190",
      "l1BaseFeeScalar": "0x7d0",
      "l1BlobBaseFee": "0x1",
      "l1BlobBaseFeeScalar": "0xdbba0",
      "l1Fee": "0xda",
      "l1GasPrice": "0x9",
      "l1GasUsed": "0xb81"
    },
    {
      "status": "0x1",
      "cumulativeGasUsed": "0x19d958",
      "logs": [
        {
          "address": "0x493a90b1ea1bcbe2c6ab5af70928c82051b5e726",
          "topics": [
            "0xb3dde0287222b49b4bbdfbd414c2ffd0c3624d21a3f2803e40d0b130ae277d76",
            "0xbd2db7f6ebea19e620d9f2a7e94e51d1a3c3f59fc6038ac621bf2aae90e739e8"
          ],
          "data": "0x00000000000000000000000000000000000000000000000000000000000000010000000000000000000000000000000000000000000000000000000000000003",
          "blockHash": "0x44bbc490ae5ca72fabcb9f65a8aee7784ad710381de3144d9a67302c3f86e49b",
          "blockNumber": "0x2c8c2ba",
          "blockTimestamp": "0x69b67006",
          "transactionHash": "0x2082e2d0a563f1f82874ab1438bec11d411d3aef7b98eefa3dba9a0e0d686729",
          "transactionIndex": "0x11",
          "logIndex": "0x25",
          "removed": false
        },
        {
          "address": "0xbf42f398561644eb55a7269da0f937d0512c40c0",
          "topics": [
            "0x82efaee5b14d8017020d8b71e6fc399e18b833bca549be299b7db2752d4df935",
            "0xbd2db7f6ebea19e620d9f2a7e94e51d1a3c3f59fc6038ac621bf2aae90e739e8"
          ],
          "data": "0x00000000000000000000000000000000000000000000000000000000000000000000000000000000000000000000000000000000000000000000000000000003",
          "blockHash": "0x44bbc490ae5ca72fabcb9f65a8aee7784ad710381de3144d9a67302c3f86e49b",
          "blockNumber": "0x2c8c2ba",
          "blockTimestamp": "0x69b67006",
          "transactionHash": "0x2082e2d0a563f1f82874ab1438bec11d411d3aef7b98eefa3dba9a0e0d686729",
          "transactionIndex": "0x11",
          "logIndex": "0x26",
          "removed": false
        },
        {
          "address": "0xe56a90ad0deab20ee9fcd780b14ca90fc71d3f5d",
          "topics": [
            "0xdf7df68fddb55e38a4b636bbd972bdf7820a2a1b99e9531fe805a52f90a7e99d",
            "0xbd2db7f6ebea19e620d9f2a7e94e51d1a3c3f59fc6038ac621bf2aae90e739e8",
            "0x0000000000000000000000000000000000000000000000000000000000000000"
          ],
          "data": "0x000000000000000000000000000000000000000000000000000000000000000000000000000000000000000000000000000000000000000000000000000000030000000000000000000000000000000000000000000000000000000000000000",
          "blockHash": "0x44bbc490ae5ca72fabcb9f65a8aee7784ad710381de3144d9a67302c3f86e49b",
          "blockNumber": "0x2c8c2ba",
          "blockTimestamp": "0x69b67006",
          "transactionHash": "0x2082e2d0a563f1f82874ab1438bec11d411d3aef7b98eefa3dba9a0e0d686729",
          "transactionIndex": "0x11",
          "logIndex": "0x27",
          "removed": false
        }
      ],
      "logsBloom": "0x00000000000000000000002000000000000000000000000000000000000000000000000000000000000000000000000080000000000000040000001000000000000000000000000000000020000000000000000000200000000000040000000040000000020000000000000000020800000000000001000000000000000000200000000000000200000000000000000000000000000000000000000000000000000000000000000000000000040000000400000000000010000000000000000000000000800000000000000000100000000000000000000000000000000020000000000000000000001000000000000000040000000000003000000000000000",
      "type": "0x2",
      "transactionHash": "0x2082e2d0a563f1f82874ab1438bec11d411d3aef7b98eefa3dba9a0e0d686729",
      "transactionIndex": "0x11",
      "blockHash": "0x44bbc490ae5ca72fabcb9f65a8aee7784ad710381de3144d9a67302c3f86e49b",
      "blockNumber": "0x2c8c2ba",
      "gasUsed": "0xf9b2",
      "effectiveGasPrice": "0x7a121",
      "blobGasUsed": "0x11f80",
      "from": "0x4b992f2fbf714c0fcbb23bac5130ace48cad00cd",
      "to": "0xe56a90ad0deab20ee9fcd780b14ca90fc71d3f5d",
      "contractAddress": null,
      "daFootprintGasScalar": "0x190",
      "l1BaseFeeScalar": "0x7d0",
      "l1BlobBaseFee": "0x1",
      "l1BlobBaseFeeScalar": "0xdbba0",
      "l1Fee": "0xda",
      "l1GasPrice": "0x9",
      "l1GasUsed": "0xb81"
    },
    {
      "status": "0x1",
      "cumulativeGasUsed": "0x1ad30a",
      "logs": [
        {
          "address": "0x493a90b1ea1bcbe2c6ab5af70928c82051b5e726",
          "topics": [
            "0xb3dde0287222b49b4bbdfbd414c2ffd0c3624d21a3f2803e40d0b130ae277d76",
            "0xbd2db7f6ebea19e620d9f2a7e94e51d1a3c3f59fc6038ac621bf2aae90e739e8"
          ],
          "data": "0x00000000000000000000000000000000000000000000000000000000000000010000000000000000000000000000000000000000000000000000000000000003",
          "blockHash": "0x44bbc490ae5ca72fabcb9f65a8aee7784ad710381de3144d9a67302c3f86e49b",
          "blockNumber": "0x2c8c2ba",
          "blockTimestamp": "0x69b67006",
          "transactionHash": "0xe2548ffd8d2819518e1b2eb781744e878ab0d96c3753ffe57c0cb98bb84cdfc9",
          "transactionIndex": "0x12",
          "logIndex": "0x28",
          "removed": false
        },
        {
          "address": "0xbf42f398561644eb55a7269da0f937d0512c40c0",
          "topics": [
            "0x82efaee5b14d8017020d8b71e6fc399e18b833bca549be299b7db2752d4df935",
            "0xbd2db7f6ebea19e620d9f2a7e94e51d1a3c3f59fc6038ac621bf2aae90e739e8"
          ],
          "data": "0x00000000000000000000000000000000000000000000000000000000000000000000000000000000000000000000000000000000000000000000000000000003",
          "blockHash": "0x44bbc490ae5ca72fabcb9f65a8aee7784ad710381de3144d9a67302c3f86e49b",
          "blockNumber": "0x2c8c2ba",
          "blockTimestamp": "0x69b67006",
          "transactionHash": "0xe2548ffd8d2819518e1b2eb781744e878ab0d96c3753ffe57c0cb98bb84cdfc9",
          "transactionIndex": "0x12",
          "logIndex": "0x29",
          "removed": false
        },
        {
          "address": "0xe56a90ad0deab20ee9fcd780b14ca90fc71d3f5d",
          "topics": [
            "0xdf7df68fddb55e38a4b636bbd972bdf7820a2a1b99e9531fe805a52f90a7e99d",
            "0xbd2db7f6ebea19e620d9f2a7e94e51d1a3c3f59fc6038ac621bf2aae90e739e8",
            "0x0000000000000000000000000000000000000000000000000000000000000000"
          ],
          "data": "0x000000000000000000000000000000000000000000000000000000000000000000000000000000000000000000000000000000000000000000000000000000030000000000000000000000000000000000000000000000000000000000000000",
          "blockHash": "0x44bbc490ae5ca72fabcb9f65a8aee7784ad710381de3144d9a67302c3f86e49b",
          "blockNumber": "0x2c8c2ba",
          "blockTimestamp": "0x69b67006",
          "transactionHash": "0xe2548ffd8d2819518e1b2eb781744e878ab0d96c3753ffe57c0cb98bb84cdfc9",
          "transactionIndex": "0x12",
          "logIndex": "0x2a",
          "removed": false
        }
      ],
      "logsBloom": "0x00000000000000000000002000000000000000000000000000000000000000000000000000000000000000000000000080000000000000040000001000000000000000000000000000000020000000000000000000200000000000040000000040000000020000000000000000020800000000000001000000000000000000200000000000000200000000000000000000000000000000000000000000000000000000000000000000000000040000000400000000000010000000000000000000000000800000000000000000100000000000000000000000000000000020000000000000000000001000000000000000040000000000003000000000000000",
      "type": "0x2",
      "transactionHash": "0xe2548ffd8d2819518e1b2eb781744e878ab0d96c3753ffe57c0cb98bb84cdfc9",
      "transactionIndex": "0x12",
      "blockHash": "0x44bbc490ae5ca72fabcb9f65a8aee7784ad710381de3144d9a67302c3f86e49b",
      "blockNumber": "0x2c8c2ba",
      "gasUsed": "0xf9b2",
      "effectiveGasPrice": "0x7a121",
      "blobGasUsed": "0x11f80",
      "from": "0x4b992f2fbf714c0fcbb23bac5130ace48cad00cd",
      "to": "0xe56a90ad0deab20ee9fcd780b14ca90fc71d3f5d",
      "contractAddress": null,
      "daFootprintGasScalar": "0x190",
      "l1BaseFeeScalar": "0x7d0",
      "l1BlobBaseFee": "0x1",
      "l1BlobBaseFeeScalar": "0xdbba0",
      "l1Fee": "0xda",
      "l1GasPrice": "0x9",
      "l1GasUsed": "0xb81"
    },
    {
      "status": "0x1",
      "cumulativeGasUsed": "0x1bccbc",
      "logs": [
        {
          "address": "0x493a90b1ea1bcbe2c6ab5af70928c82051b5e726",
          "topics": [
            "0xb3dde0287222b49b4bbdfbd414c2ffd0c3624d21a3f2803e40d0b130ae277d76",
            "0xbd2db7f6ebea19e620d9f2a7e94e51d1a3c3f59fc6038ac621bf2aae90e739e8"
          ],
          "data": "0x00000000000000000000000000000000000000000000000000000000000000010000000000000000000000000000000000000000000000000000000000000003",
          "blockHash": "0x44bbc490ae5ca72fabcb9f65a8aee7784ad710381de3144d9a67302c3f86e49b",
          "blockNumber": "0x2c8c2ba",
          "blockTimestamp": "0x69b67006",
          "transactionHash": "0x4e4c0604a31e9c397b83865d618545fd3e110c05c81504c34d869cc1fb47901d",
          "transactionIndex": "0x13",
          "logIndex": "0x2b",
          "removed": false
        },
        {
          "address": "0xbf42f398561644eb55a7269da0f937d0512c40c0",
          "topics": [
            "0x82efaee5b14d8017020d8b71e6fc399e18b833bca549be299b7db2752d4df935",
            "0xbd2db7f6ebea19e620d9f2a7e94e51d1a3c3f59fc6038ac621bf2aae90e739e8"
          ],
          "data": "0x00000000000000000000000000000000000000000000000000000000000000000000000000000000000000000000000000000000000000000000000000000003",
          "blockHash": "0x44bbc490ae5ca72fabcb9f65a8aee7784ad710381de3144d9a67302c3f86e49b",
          "blockNumber": "0x2c8c2ba",
          "blockTimestamp": "0x69b67006",
          "transactionHash": "0x4e4c0604a31e9c397b83865d618545fd3e110c05c81504c34d869cc1fb47901d",
          "transactionIndex": "0x13",
          "logIndex": "0x2c",
          "removed": false
        },
        {
          "address": "0xe56a90ad0deab20ee9fcd780b14ca90fc71d3f5d",
          "topics": [
            "0xdf7df68fddb55e38a4b636bbd972bdf7820a2a1b99e9531fe805a52f90a7e99d",
            "0xbd2db7f6ebea19e620d9f2a7e94e51d1a3c3f59fc6038ac621bf2aae90e739e8",
            "0x0000000000000000000000000000000000000000000000000000000000000000"
          ],
          "data": "0x000000000000000000000000000000000000000000000000000000000000000000000000000000000000000000000000000000000000000000000000000000030000000000000000000000000000000000000000000000000000000000000000",
          "blockHash": "0x44bbc490ae5ca72fabcb9f65a8aee7784ad710381de3144d9a67302c3f86e49b",
          "blockNumber": "0x2c8c2ba",
          "blockTimestamp": "0x69b67006",
          "transactionHash": "0x4e4c0604a31e9c397b83865d618545fd3e110c05c81504c34d869cc1fb47901d",
          "transactionIndex": "0x13",
          "logIndex": "0x2d",
          "removed": false
        }
      ],
      "logsBloom": "0x00000000000000000000002000000000000000000000000000000000000000000000000000000000000000000000000080000000000000040000001000000000000000000000000000000020000000000000000000200000000000040000000040000000020000000000000000020800000000000001000000000000000000200000000000000200000000000000000000000000000000000000000000000000000000000000000000000000040000000400000000000010000000000000000000000000800000000000000000100000000000000000000000000000000020000000000000000000001000000000000000040000000000003000000000000000",
      "type": "0x2",
      "transactionHash": "0x4e4c0604a31e9c397b83865d618545fd3e110c05c81504c34d869cc1fb47901d",
      "transactionIndex": "0x13",
      "blockHash": "0x44bbc490ae5ca72fabcb9f65a8aee7784ad710381de3144d9a67302c3f86e49b",
      "blockNumber": "0x2c8c2ba",
      "gasUsed": "0xf9b2",
      "effectiveGasPrice": "0x7a121",
      "blobGasUsed": "0x11f80",
      "from": "0x4b992f2fbf714c0fcbb23bac5130ace48cad00cd",
      "to": "0xe56a90ad0deab20ee9fcd780b14ca90fc71d3f5d",
      "contractAddress": null,
      "daFootprintGasScalar": "0x190",
      "l1BaseFeeScalar": "0x7d0",
      "l1BlobBaseFee": "0x1",
      "l1BlobBaseFeeScalar": "0xdbba0",
      "l1Fee": "0xda",
      "l1GasPrice": "0x9",
      "l1GasUsed": "0xb81"
    },
    {
      "status": "0x1",
      "cumulativeGasUsed": "0x1cc66e",
      "logs": [
        {
          "address": "0x493a90b1ea1bcbe2c6ab5af70928c82051b5e726",
          "topics": [
            "0xb3dde0287222b49b4bbdfbd414c2ffd0c3624d21a3f2803e40d0b130ae277d76",
            "0xbd2db7f6ebea19e620d9f2a7e94e51d1a3c3f59fc6038ac621bf2aae90e739e8"
          ],
          "data": "0x00000000000000000000000000000000000000000000000000000000000000010000000000000000000000000000000000000000000000000000000000000003",
          "blockHash": "0x44bbc490ae5ca72fabcb9f65a8aee7784ad710381de3144d9a67302c3f86e49b",
          "blockNumber": "0x2c8c2ba",
          "blockTimestamp": "0x69b67006",
          "transactionHash": "0x1004341b3521ea715d6b6aacbe67012d5c903fc6d5183a1e6b0df812cd95a8b3",
          "transactionIndex": "0x14",
          "logIndex": "0x2e",
          "removed": false
        },
        {
          "address": "0xbf42f398561644eb55a7269da0f937d0512c40c0",
          "topics": [
            "0x82efaee5b14d8017020d8b71e6fc399e18b833bca549be299b7db2752d4df935",
            "0xbd2db7f6ebea19e620d9f2a7e94e51d1a3c3f59fc6038ac621bf2aae90e739e8"
          ],
          "data": "0x00000000000000000000000000000000000000000000000000000000000000000000000000000000000000000000000000000000000000000000000000000003",
          "blockHash": "0x44bbc490ae5ca72fabcb9f65a8aee7784ad710381de3144d9a67302c3f86e49b",
          "blockNumber": "0x2c8c2ba",
          "blockTimestamp": "0x69b67006",
          "transactionHash": "0x1004341b3521ea715d6b6aacbe67012d5c903fc6d5183a1e6b0df812cd95a8b3",
          "transactionIndex": "0x14",
          "logIndex": "0x2f",
          "removed": false
        },
        {
          "address": "0xe56a90ad0deab20ee9fcd780b14ca90fc71d3f5d",
          "topics": [
            "0xdf7df68fddb55e38a4b636bbd972bdf7820a2a1b99e9531fe805a52f90a7e99d",
            "0xbd2db7f6ebea19e620d9f2a7e94e51d1a3c3f59fc6038ac621bf2aae90e739e8",
            "0x0000000000000000000000000000000000000000000000000000000000000000"
          ],
          "data": "0x000000000000000000000000000000000000000000000000000000000000000000000000000000000000000000000000000000000000000000000000000000030000000000000000000000000000000000000000000000000000000000000000",
          "blockHash": "0x44bbc490ae5ca72fabcb9f65a8aee7784ad710381de3144d9a67302c3f86e49b",
          "blockNumber": "0x2c8c2ba",
          "blockTimestamp": "0x69b67006",
          "transactionHash": "0x1004341b3521ea715d6b6aacbe67012d5c903fc6d5183a1e6b0df812cd95a8b3",
          "transactionIndex": "0x14",
          "logIndex": "0x30",
          "removed": false
        }
      ],
      "logsBloom": "0x00000000000000000000002000000000000000000000000000000000000000000000000000000000000000000000000080000000000000040000001000000000000000000000000000000020000000000000000000200000000000040000000040000000020000000000000000020800000000000001000000000000000000200000000000000200000000000000000000000000000000000000000000000000000000000000000000000000040000000400000000000010000000000000000000000000800000000000000000100000000000000000000000000000000020000000000000000000001000000000000000040000000000003000000000000000",
      "type": "0x2",
      "transactionHash": "0x1004341b3521ea715d6b6aacbe67012d5c903fc6d5183a1e6b0df812cd95a8b3",
      "transactionIndex": "0x14",
      "blockHash": "0x44bbc490ae5ca72fabcb9f65a8aee7784ad710381de3144d9a67302c3f86e49b",
      "blockNumber": "0x2c8c2ba",
      "gasUsed": "0xf9b2",
      "effectiveGasPrice": "0x7a121",
      "blobGasUsed": "0x11f80",
      "from": "0x4b992f2fbf714c0fcbb23bac5130ace48cad00cd",
      "to": "0xe56a90ad0deab20ee9fcd780b14ca90fc71d3f5d",
      "contractAddress": null,
      "daFootprintGasScalar": "0x190",
      "l1BaseFeeScalar": "0x7d0",
      "l1BlobBaseFee": "0x1",
      "l1BlobBaseFeeScalar": "0xdbba0",
      "l1Fee": "0xda",
      "l1GasPrice": "0x9",
      "l1GasUsed": "0xb81"
    }
  ],
  "libraries": [],
  "pending": [],
  "returns": {},
  "timestamp": 1773564414903,
  "chain": 1301,
  "commit": "2745fea"
}