{
  "transactions": [
    {
      "hash": "0xd72b4e7dc1c778ef317d26ad403a138a960ba9db7c6bcaf622f035ac9b2716ae",
      "transactionType": "CREATE",
      "contractName": "MockERC20",
      "contractAddress": "0x58e856ed31902b3d90afa625fb8c8beb5b5df555",
      "function": null,
      "arguments": [
        "Mock WETH",
        "mWETH",
        "18"
      ],
      "transaction": {
        "from": "0x4b992f2fbf714c0fcbb23bac5130ace48cad00cd",
        "gas": "0xea855",
        "value": "0x0",
        "input": "0x60e060405234801561000f575f5ffd5b50604051610f39380380610f3983398101604081905261002e916101a1565b8282825f61003c84826102a2565b50600161004983826102a2565b5060ff81166080524660a05261005d61006c565b60c052506103cd945050505050565b5f7f8b73c3c69bb8fe3d512ecc4cf759cc79239f7b179b0ffacaa9a75d522b39400f5f60405161009c919061035c565b6040805191829003822060208301939093528101919091527fc89efdaa54c0f20c7adf612882df0950f5a951637e0307cdcb4c672f298b8bc660608201524660808201523060a082015260c00160405160208183030381529060405280519060200120905090565b634e487b7160e01b5f52604160045260245ffd5b5f82601f830112610127575f5ffd5b81516001600160401b0381111561014057610140610104565b604051601f8201601f19908116603f011681016001600160401b038111828210171561016e5761016e610104565b604052818152838201602001851015610185575f5ffd5b8160208501602083015e5f918101602001919091529392505050565b5f5f5f606084860312156101b3575f5ffd5b83516001600160401b038111156101c8575f5ffd5b6101d486828701610118565b602086015190945090506001600160401b038111156101f1575f5ffd5b6101fd86828701610118565b925050604084015160ff81168114610213575f5ffd5b809150509250925092565b600181811c9082168061023257607f821691505b60208210810361025057634e487b7160e01b5f52602260045260245ffd5b50919050565b601f82111561029d57805f5260205f20601f840160051c8101602085101561027b5750805b601f840160051c820191505b8181101561029a575f8155600101610287565b50505b505050565b81516001600160401b038111156102bb576102bb610104565b6102cf816102c9845461021e565b84610256565b6020601f821160018114610301575f83156102ea5750848201515b5f19600385901b1c1916600184901b17845561029a565b5f84815260208120601f198516915b828110156103305787850151825560209485019460019092019101610310565b508482101561034d57868401515f19600387901b60f8161c191681555b50505050600190811b01905550565b5f5f83546103698161021e565b6001821680156103805760018114610395576103c2565b60ff19831686528115158202860193506103c2565b865f5260205f205f5b838110156103ba5781548882015260019091019060200161039e565b505081860193505b509195945050505050565b60805160a05160c051610b426103f75f395f61045c01525f61042701525f6101590152610b425ff3fe608060405234801561000f575f5ffd5b50600436106100e5575f3560e01c806370a08231116100885780639dc29fac116100635780639dc29fac146101f0578063a9059cbb14610203578063d505accf14610216578063dd62ed3e14610229575f5ffd5b806370a08231146101aa5780637ecebe00146101c957806395d89b41146101e8575f5ffd5b806323b872dd116100c357806323b872dd14610141578063313ce567146101545780633644e5151461018d57806340c10f1914610195575f5ffd5b806306fdde03146100e9578063095ea7b31461010757806318160ddd1461012a575b5f5ffd5b6100f1610253565b6040516100fe9190610897565b60405180910390f35b61011a6101153660046108e7565b6102de565b60405190151581526020016100fe565b61013360025481565b6040519081526020016100fe565b61011a61014f36600461090f565b61034a565b61017b7f000000000000000000000000000000000000000000000000000000000000000081565b60405160ff90911681526020016100fe565b610133610424565b6101a86101a33660046108e7565b61047e565b005b6101336101b8366004610949565b60036020525f908152604090205481565b6101336101d7366004610949565b60056020525f908152604090205481565b6100f161048c565b6101a86101fe3660046108e7565b610499565b61011a6102113660046108e7565b6104a3565b6101a8610224366004610969565b610506565b6101336102373660046109d6565b600460209081525f928352604080842090915290825290205481565b5f805461025f90610a07565b80601f016020809104026020016040519081016040528092919081815260200182805461028b90610a07565b80156102d65780601f106102ad576101008083540402835291602001916102d6565b820191905f5260205f20905b8154815290600101906020018083116102b957829003601f168201915b505050505081565b335f8181526004602090815260408083206001600160a01b038716808552925280832085905551919290917f8c5be1e5ebec7d5bd14f71427d1e84f3dd0314c0f7b2291e5b200ac8c7c3b925906103389086815260200190565b60405180910390a35060015b92915050565b6001600160a01b0383165f9081526004602090815260408083203384529091528120545f1981146103a35761037f8382610a53565b6001600160a01b0386165f9081526004602090815260408083203384529091529020555b6001600160a01b0385165f90815260036020526040812080548592906103ca908490610a53565b90915550506001600160a01b038085165f81815260036020526040908190208054870190555190918716905f516020610b165f395f51905f52906104119087815260200190565b60405180910390a3506001949350505050565b5f7f0000000000000000000000000000000000000000000000000000000000000000461461045957610454610749565b905090565b507f000000000000000000000000000000000000000000000000000000000000000090565b61048882826107e1565b5050565b6001805461025f90610a07565b6104888282610838565b335f908152600360205260408120805483919083906104c3908490610a53565b90915550506001600160a01b0383165f81815260036020526040908190208054850190555133905f516020610b165f395f51905f52906103389086815260200190565b4284101561055b5760405162461bcd60e51b815260206004820152601760248201527f5045524d49545f444541444c494e455f4558504952454400000000000000000060448201526064015b60405180910390fd5b5f6001610566610424565b6001600160a01b038a81165f8181526005602090815260409182902080546001810190915582517f6e71edae12b1b97f4d1f60370fef10105fa2faae0126114a169c64845d6126c98184015280840194909452938d166060840152608083018c905260a083019390935260c08083018b90528151808403909101815260e08301909152805192019190912061190160f01b6101008301526101028201929092526101228101919091526101420160408051601f1981840301815282825280516020918201205f84529083018083525260ff871690820152606081018590526080810184905260a0016020604051602081039080840390855afa15801561066e573d5f5f3e3d5ffd5b5050604051601f1901519150506001600160a01b038116158015906106a45750876001600160a01b0316816001600160a01b0316145b6106e15760405162461bcd60e51b815260206004820152600e60248201526d24a72b20a624a22fa9a4a3a722a960911b6044820152606401610552565b6001600160a01b039081165f9081526004602090815260408083208a8516808552908352928190208990555188815291928a16917f8c5be1e5ebec7d5bd14f71427d1e84f3dd0314c0f7b2291e5b200ac8c7c3b925910160405180910390a350505050505050565b5f7f8b73c3c69bb8fe3d512ecc4cf759cc79239f7b179b0ffacaa9a75d522b39400f5f6040516107799190610a66565b6040805191829003822060208301939093528101919091527fc89efdaa54c0f20c7adf612882df0950f5a951637e0307cdcb4c672f298b8bc660608201524660808201523060a082015260c00160405160208183030381529060405280519060200120905090565b8060025f8282546107f29190610b02565b90915550506001600160a01b0382165f818152600360209081526040808320805486019055518481525f516020610b165f395f51905f5291015b60405180910390a35050565b6001600160a01b0382165f908152600360205260408120805483929061085f908490610a53565b90915550506002805482900390556040518181525f906001600160a01b038416905f516020610b165f395f51905f529060200161082c565b602081525f82518060208401528060208501604085015e5f604082850101526040601f19601f83011684010191505092915050565b80356001600160a01b03811681146108e2575f5ffd5b919050565b5f5f604083850312156108f8575f5ffd5b610901836108cc565b946020939093013593505050565b5f5f5f60608486031215610921575f5ffd5b61092a846108cc565b9250610938602085016108cc565b929592945050506040919091013590565b5f60208284031215610959575f5ffd5b610962826108cc565b9392505050565b5f5f5f5f5f5f5f60e0888a03121561097f575f5ffd5b610988886108cc565b9650610996602089016108cc565b95506040880135945060608801359350608088013560ff811681146109b9575f5ffd5b9699959850939692959460a0840135945060c09093013592915050565b5f5f604083850312156109e7575f5ffd5b6109f0836108cc565b91506109fe602084016108cc565b90509250929050565b600181811c90821680610a1b57607f821691505b602082108103610a3957634e487b7160e01b5f52602260045260245ffd5b50919050565b634e487b7160e01b5f52601160045260245ffd5b8181038181111561034457610344610a3f565b5f5f83545f8160011c90506001821680610a8157607f821691505b602082108103610a9f57634e487b7160e01b5f52602260045260245ffd5b808015610ab35760018114610ac857610af6565b60ff1984168752821515830287019450610af6565b5f888152602090205f5b84811015610aee57815489820152600190910190602001610ad2565b505082870194505b50929695505050505050565b8082018082111561034457610344610a3f56feddf252ad1be2c89b69c2b068fc378daa952ba7f163c4a11628f55a4df523b3efa164736f6c634300081e000a000000000000000000000000000000000000000000000000000000000000006000000000000000000000000000000000000000000000000000000000000000a0000000000000000000000000000000000000000000000000000000000000001200000000000000000000000000000000000000000000000000000000000000094d6f636b2057455448000000000000000000000000000000000000000000000000000000000000000000000000000000000000000000000000000000000000056d57455448000000000000000000000000000000000000000000000000000000",
        "nonce": "0x3d9",
        "chainId": "0x515"
      },
      "additionalContracts": [],
      "isFixedGasLimit": false
    },
    {
      "hash": "0xea80fa53a34700ec09f6a87ce8db21d15a269a5dd2ee8515462e1ce8c0977059",
      "transactionType": "CREATE",
      "contractName": "MockERC20",
      "contractAddress": "0x2881ef1ea066b3199a3b2e3370cc37c715734773",
      "function": null,
      "arguments": [
        "Mock USDC",
        "mUSDC",
        "6"
      ],
      "transaction": {
        "from": "0x4b992f2fbf714c0fcbb23bac5130ace48cad00cd",
        "gas": "0xea855",
        "value": "0x0",
        "input": "0x60e060405234801561000f575f5ffd5b50604051610f39380380610f3983398101604081905261002e916101a1565b8282825f61003c84826102a2565b50600161004983826102a2565b5060ff81166080524660a05261005d61006c565b60c052506103cd945050505050565b5f7f8b73c3c69bb8fe3d512ecc4cf759cc79239f7b179b0ffacaa9a75d522b39400f5f60405161009c919061035c565b6040805191829003822060208301939093528101919091527fc89efdaa54c0f20c7adf612882df0950f5a951637e0307cdcb4c672f298b8bc660608201524660808201523060a082015260c00160405160208183030381529060405280519060200120905090565b634e487b7160e01b5f52604160045260245ffd5b5f82601f830112610127575f5ffd5b81516001600160401b0381111561014057610140610104565b604051601f8201601f19908116603f011681016001600160401b038111828210171561016e5761016e610104565b604052818152838201602001851015610185575f5ffd5b8160208501602083015e5f918101602001919091529392505050565b5f5f5f606084860312156101b3575f5ffd5b83516001600160401b038111156101c8575f5ffd5b6101d486828701610118565b602086015190945090506001600160401b038111156101f1575f5ffd5b6101fd86828701610118565b925050604084015160ff81168114610213575f5ffd5b809150509250925092565b600181811c9082168061023257607f821691505b60208210810361025057634e487b7160e01b5f52602260045260245ffd5b50919050565b601f82111561029d57805f5260205f20601f840160051c8101602085101561027b5750805b601f840160051c820191505b8181101561029a575f8155600101610287565b50505b505050565b81516001600160401b038111156102bb576102bb610104565b6102cf816102c9845461021e565b84610256565b6020601f821160018114610301575f83156102ea5750848201515b5f19600385901b1c1916600184901b17845561029a565b5f84815260208120601f198516915b828110156103305787850151825560209485019460019092019101610310565b508482101561034d57868401515f19600387901b60f8161c191681555b50505050600190811b01905550565b5f5f83546103698161021e565b6001821680156103805760018114610395576103c2565b60ff19831686528115158202860193506103c2565b865f5260205f205f5b838110156103ba5781548882015260019091019060200161039e565b505081860193505b509195945050505050565b60805160a05160c051610b426103f75f395f61045c01525f61042701525f6101590152610b425ff3fe608060405234801561000f575f5ffd5b50600436106100e5575f3560e01c806370a08231116100885780639dc29fac116100635780639dc29fac146101f0578063a9059cbb14610203578063d505accf14610216578063dd62ed3e14610229575f5ffd5b806370a08231146101aa5780637ecebe00146101c957806395d89b41146101e8575f5ffd5b806323b872dd116100c357806323b872dd14610141578063313ce567146101545780633644e5151461018d57806340c10f1914610195575f5ffd5b806306fdde03146100e9578063095ea7b31461010757806318160ddd1461012a575b5f5ffd5b6100f1610253565b6040516100fe9190610897565b60405180910390f35b61011a6101153660046108e7565b6102de565b60405190151581526020016100fe565b61013360025481565b6040519081526020016100fe565b61011a61014f36600461090f565b61034a565b61017b7f000000000000000000000000000000000000000000000000000000000000000081565b60405160ff90911681526020016100fe565b610133610424565b6101a86101a33660046108e7565b61047e565b005b6101336101b8366004610949565b60036020525f908152604090205481565b6101336101d7366004610949565b60056020525f908152604090205481565b6100f161048c565b6101a86101fe3660046108e7565b610499565b61011a6102113660046108e7565b6104a3565b6101a8610224366004610969565b610506565b6101336102373660046109d6565b600460209081525f928352604080842090915290825290205481565b5f805461025f90610a07565b80601f016020809104026020016040519081016040528092919081815260200182805461028b90610a07565b80156102d65780601f106102ad576101008083540402835291602001916102d6565b820191905f5260205f20905b8154815290600101906020018083116102b957829003601f168201915b505050505081565b335f8181526004602090815260408083206001600160a01b038716808552925280832085905551919290917f8c5be1e5ebec7d5bd14f71427d1e84f3dd0314c0f7b2291e5b200ac8c7c3b925906103389086815260200190565b60405180910390a35060015b92915050565b6001600160a01b0383165f9081526004602090815260408083203384529091528120545f1981146103a35761037f8382610a53565b6001600160a01b0386165f9081526004602090815260408083203384529091529020555b6001600160a01b0385165f90815260036020526040812080548592906103ca908490610a53565b90915550506001600160a01b038085165f81815260036020526040908190208054870190555190918716905f516020610b165f395f51905f52906104119087815260200190565b60405180910390a3506001949350505050565b5f7f0000000000000000000000000000000000000000000000000000000000000000461461045957610454610749565b905090565b507f000000000000000000000000000000000000000000000000000000000000000090565b61048882826107e1565b5050565b6001805461025f90610a07565b6104888282610838565b335f908152600360205260408120805483919083906104c3908490610a53565b90915550506001600160a01b0383165f81815260036020526040908190208054850190555133905f516020610b165f395f51905f52906103389086815260200190565b4284101561055b5760405162461bcd60e51b815260206004820152601760248201527f5045524d49545f444541444c494e455f4558504952454400000000000000000060448201526064015b60405180910390fd5b5f6001610566610424565b6001600160a01b038a81165f8181526005602090815260409182902080546001810190915582517f6e71edae12b1b97f4d1f60370fef10105fa2faae0126114a169c64845d6126c98184015280840194909452938d166060840152608083018c905260a083019390935260c08083018b90528151808403909101815260e08301909152805192019190912061190160f01b6101008301526101028201929092526101228101919091526101420160408051601f1981840301815282825280516020918201205f84529083018083525260ff871690820152606081018590526080810184905260a0016020604051602081039080840390855afa15801561066e573d5f5f3e3d5ffd5b5050604051601f1901519150506001600160a01b038116158015906106a45750876001600160a01b0316816001600160a01b0316145b6106e15760405162461bcd60e51b815260206004820152600e60248201526d24a72b20a624a22fa9a4a3a722a960911b6044820152606401610552565b6001600160a01b039081165f9081526004602090815260408083208a8516808552908352928190208990555188815291928a16917f8c5be1e5ebec7d5bd14f71427d1e84f3dd0314c0f7b2291e5b200ac8c7c3b925910160405180910390a350505050505050565b5f7f8b73c3c69bb8fe3d512ecc4cf759cc79239f7b179b0ffacaa9a75d522b39400f5f6040516107799190610a66565b6040805191829003822060208301939093528101919091527fc89efdaa54c0f20c7adf612882df0950f5a951637e0307cdcb4c672f298b8bc660608201524660808201523060a082015260c00160405160208183030381529060405280519060200120905090565b8060025f8282546107f29190610b02565b90915550506001600160a01b0382165f818152600360209081526040808320805486019055518481525f516020610b165f395f51905f5291015b60405180910390a35050565b6001600160a01b0382165f908152600360205260408120805483929061085f908490610a53565b90915550506002805482900390556040518181525f906001600160a01b038416905f516020610b165f395f51905f529060200161082c565b602081525f82518060208401528060208501604085015e5f604082850101526040601f19601f83011684010191505092915050565b80356001600160a01b03811681146108e2575f5ffd5b919050565b5f5f604083850312156108f8575f5ffd5b610901836108cc565b946020939093013593505050565b5f5f5f60608486031215610921575f5ffd5b61092a846108cc565b9250610938602085016108cc565b929592945050506040919091013590565b5f60208284031215610959575f5ffd5b610962826108cc565b9392505050565b5f5f5f5f5f5f5f60e0888a03121561097f575f5ffd5b610988886108cc565b9650610996602089016108cc565b95506040880135945060608801359350608088013560ff811681146109b9575f5ffd5b9699959850939692959460a0840135945060c09093013592915050565b5f5f604083850312156109e7575f5ffd5b6109f0836108cc565b91506109fe602084016108cc565b90509250929050565b600181811c90821680610a1b57607f821691505b602082108103610a3957634e487b7160e01b5f52602260045260245ffd5b50919050565b634e487b7160e01b5f52601160045260245ffd5b8181038181111561034457610344610a3f565b5f5f83545f8160011c90506001821680610a8157607f821691505b602082108103610a9f57634e487b7160e01b5f52602260045260245ffd5b808015610ab35760018114610ac857610af6565b60ff1984168752821515830287019450610af6565b5f888152602090205f5b84811015610aee57815489820152600190910190602001610ad2565b505082870194505b50929695505050505050565b8082018082111561034457610344610a3f56feddf252ad1be2c89b69c2b068fc378daa952ba7f163c4a11628f55a4df523b3efa164736f6c634300081e000a000000000000000000000000000000000000000000000000000000000000006000000000000000000000000000000000000000000000000000000000000000a0000000000000000000000000000000000000000000000000000000000000000600000000000000000000000000000000000000000000000000000000000000094d6f636b2055534443000000000000000000000000000000000000000000000000000000000000000000000000000000000000000000000000000000000000056d55534443000000000000000000000000000000000000000000000000000000",
        "nonce": "0x3da",
        "chainId": "0x515"
      },
      "additionalContracts": [],
      "isFixedGasLimit": false
    },
    {
      "hash": "0x2ae5037a4d7e0ca14f0195ea061d1c0c7e40c5dad092e28a4fbd8903d637e52b",
      "transactionType": "CALL",
      "contractName": "MockERC20",
      "contractAddress": "0x2881ef1ea066b3199a3b2e3370cc37c715734773",
      "function": "mint(address,uint256)",
      "arguments": [
        "0x4b992F2Fbf714C0fCBb23baC5130Ace48CaD00cd",
        "10000000000000000000000000000000"
      ],
      "transaction": {
        "from": "0x4b992f2fbf714c0fcbb23bac5130ace48cad00cd",
        "to": "0x2881ef1ea066b3199a3b2e3370cc37c715734773",
        "gas": "0x18680",
        "value": "0x0",
        "input": "0x40c10f190000000000000000000000004b992f2fbf714c0fcbb23bac5130ace48cad00cd000000000000000000000000000000000000007e37be2022c0914b2680000000",
        "nonce": "0x3db",
        "chainId": "0x515"
      },
      "additionalContracts": [],
      "isFixedGasLimit": false
    },
    {
      "hash": "0x9b764f2f4db923e28d68585db40d656b0e015b1c902f3ad475ec8aab0336cdf4",
      "transactionType": "CALL",
      "contractName": "MockERC20",
      "contractAddress": "0x58e856ed31902b3d90afa625fb8c8beb5b5df555",
      "function": "mint(address,uint256)",
      "arguments": [
        "0x4b992F2Fbf714C0fCBb23baC5130Ace48CaD00cd",
        "10000000000000000000000000000000"
      ],
      "transaction": {
        "from": "0x4b992f2fbf714c0fcbb23bac5130ace48cad00cd",
        "to": "0x58e856ed31902b3d90afa625fb8c8beb5b5df555",
        "gas": "0x18680",
        "value": "0x0",
        "input": "0x40c10f190000000000000000000000004b992f2fbf714c0fcbb23bac5130ace48cad00cd000000000000000000000000000000000000007e37be2022c0914b2680000000",
        "nonce": "0x3dc",
        "chainId": "0x515"
      },
      "additionalContracts": [],
      "isFixedGasLimit": false
    },
    {
      "hash": "0xd77b23e5d17b6f7837e2ecbb6a97b08cec44ffc628233bb5bfbc4a819977de64",
      "transactionType": "CALL",
      "contractName": "MockERC20",
      "contractAddress": "0x2881ef1ea066b3199a3b2e3370cc37c715734773",
      "function": "approve(address,uint256)",
      "arguments": [
        "0x000000000022D473030F116dDEE9F6B43aC78BA3",
        "115792089237316195423570985008687907853269984665640564039457584007913129639935"
      ],
      "transaction": {
        "from": "0x4b992f2fbf714c0fcbb23bac5130ace48cad00cd",
        "to": "0x2881ef1ea066b3199a3b2e3370cc37c715734773",
        "gas": "0x10939",
        "value": "0x0",
        "input": "0x095ea7b3000000000000000000000000000000000022d473030f116ddee9f6b43ac78ba3ffffffffffffffffffffffffffffffffffffffffffffffffffffffffffffffff",
        "nonce": "0x3dd",
        "chainId": "0x515"
      },
      "additionalContracts": [],
      "isFixedGasLimit": false
    },
    {
      "hash": "0x745c1cd68a6b032d7281c34108959f92f3c27302dd831d21c158665b3785b713",
      "transactionType": "CALL",
      "contractName": "MockERC20",
      "contractAddress": "0x58e856ed31902b3d90afa625fb8c8beb5b5df555",
      "function": "approve(address,uint256)",
      "arguments": [
        "0x000000000022D473030F116dDEE9F6B43aC78BA3",
        "115792089237316195423570985008687907853269984665640564039457584007913129639935"
      ],
      "transaction": {
        "from": "0x4b992f2fbf714c0fcbb23bac5130ace48cad00cd",
        "to": "0x58e856ed31902b3d90afa625fb8c8beb5b5df555",
        "gas": "0x10939",
        "value": "0x0",
        "input": "0x095ea7b3000000000000000000000000000000000022d473030f116ddee9f6b43ac78ba3ffffffffffffffffffffffffffffffffffffffffffffffffffffffffffffffff",
        "nonce": "0x3de",
        "chainId": "0x515"
      },
      "additionalContracts": [],
      "isFixedGasLimit": false
    },
    {
      "hash": "0x0a248d1c182264c0fce439d26df5eaf85fa6d9556e22d5c81f1c3ddd20c46b90",
      "transactionType": "CALL",
      "contractName": "MockERC20",
      "contractAddress": "0x2881ef1ea066b3199a3b2e3370cc37c715734773",
      "function": "approve(address,uint256)",
      "arguments": [
        "0xf969Aee60879C54bAAed9F3eD26147Db216Fd664",
        "115792089237316195423570985008687907853269984665640564039457584007913129639935"
      ],
      "transaction": {
        "from": "0x4b992f2fbf714c0fcbb23bac5130ace48cad00cd",
        "to": "0x2881ef1ea066b3199a3b2e3370cc37c715734773",
        "gas": "0xfad0",
        "value": "0x0",
        "input": "0x095ea7b3000000000000000000000000f969aee60879c54baaed9f3ed26147db216fd664ffffffffffffffffffffffffffffffffffffffffffffffffffffffffffffffff",
        "nonce": "0x3df",
        "chainId": "0x515"
      },
      "additionalContracts": [],
      "isFixedGasLimit": false
    },
    {
      "hash": "0xf7a862047a30f593e10d985d9f9b02083b123c84eb29ec9a2b4b303bb3b703a9",
      "transactionType": "CALL",
      "contractName": "MockERC20",
      "contractAddress": "0x58e856ed31902b3d90afa625fb8c8beb5b5df555",
      "function": "approve(address,uint256)",
      "arguments": [
        "0xf969Aee60879C54bAAed9F3eD26147Db216Fd664",
        "115792089237316195423570985008687907853269984665640564039457584007913129639935"
      ],
      "transaction": {
        "from": "0x4b992f2fbf714c0fcbb23bac5130ace48cad00cd",
        "to": "0x58e856ed31902b3d90afa625fb8c8beb5b5df555",
        "gas": "0xfad0",
        "value": "0x0",
        "input": "0x095ea7b3000000000000000000000000f969aee60879c54baaed9f3ed26147db216fd664ffffffffffffffffffffffffffffffffffffffffffffffffffffffffffffffff",
        "nonce": "0x3e0",
        "chainId": "0x515"
      },
      "additionalContracts": [],
      "isFixedGasLimit": false
    },
    {
      "hash": "0x44426ecfd53484a1f8360a6f9a59a7106bbea077943a41063787f7797acf798e",
      "transactionType": "CALL",
      "contractName": null,
      "contractAddress": "0x000000000022d473030f116ddee9f6b43ac78ba3",
      "function": "approve(address,address,uint160,uint48)",
      "arguments": [
        "0x2881eF1Ea066b3199a3B2E3370cc37C715734773",
        "0xf969Aee60879C54bAAed9F3eD26147Db216Fd664",
        "1461501637330902918203684832716283019655932542975",
        "281474976710655"
      ],
      "transaction": {
        "from": "0x4b992f2fbf714c0fcbb23bac5130ace48cad00cd",
        "to": "0x000000000022d473030f116ddee9f6b43ac78ba3",
        "gas": "0x1112d",
        "value": "0x0",
        "input": "0x87517c450000000000000000000000002881ef1ea066b3199a3b2e3370cc37c715734773000000000000000000000000f969aee60879c54baaed9f3ed26147db216fd664000000000000000000000000ffffffffffffffffffffffffffffffffffffffff0000000000000000000000000000000000000000000000000000ffffffffffff",
        "nonce": "0x3e1",
        "chainId": "0x515"
      },
      "additionalContracts": [],
      "isFixedGasLimit": false
    },
    {
      "hash": "0x07095d4b5de215b15a0b301c786921fa2d1247e8a207ea7908d47a074dc9ac89",
      "transactionType": "CALL",
      "contractName": null,
      "contractAddress": "0x000000000022d473030f116ddee9f6b43ac78ba3",
      "function": "approve(address,address,uint160,uint48)",
      "arguments": [
        "0x58E856eD31902b3D90Afa625FB8C8BEB5b5DF555",
        "0xf969Aee60879C54bAAed9F3eD26147Db216Fd664",
        "1461501637330902918203684832716283019655932542975",
        "281474976710655"
      ],
      "transaction": {
        "from": "0x4b992f2fbf714c0fcbb23bac5130ace48cad00cd",
        "to": "0x000000000022d473030f116ddee9f6b43ac78ba3",
        "gas": "0x1112d",
        "value": "0x0",
        "input": "0x87517c4500000000000000000000000058e856ed31902b3d90afa625fb8c8beb5b5df555000000000000000000000000f969aee60879c54baaed9f3ed26147db216fd664000000000000000000000000ffffffffffffffffffffffffffffffffffffffff0000000000000000000000000000000000000000000000000000ffffffffffff",
        "nonce": "0x3e2",
        "chainId": "0x515"
      },
      "additionalContracts": [],
      "isFixedGasLimit": false
    },
    {
      "hash": "0x4c285d4695956eef23ac04d20fdb64b4eae00ed19ed600e7663aa07156a1c984",
      "transactionType": "CALL",
      "contractName": null,
      "contractAddress": "0xf969aee60879c54baaed9f3ed26147db216fd664",
      "function": "initializePool((address,address,uint24,int24,address),uint160)",
      "arguments": [
        "(0x2881eF1Ea066b3199a3B2E3370cc37C715734773, 0x58E856eD31902b3D90Afa625FB8C8BEB5b5DF555, 3000, 60, 0x0000000000000000000000000000000000000000)",
        "79228162514264337593543950336"
      ],
      "transaction": {
        "from": "0x4b992f2fbf714c0fcbb23bac5130ace48cad00cd",
        "to": "0xf969aee60879c54baaed9f3ed26147db216fd664",
        "gas": "0x12e9d",
        "value": "0x0",
        "input": "0xf70204050000000000000000000000002881ef1ea066b3199a3b2e3370cc37c71573477300000000000000000000000058e856ed31902b3d90afa625fb8c8beb5b5df5550000000000000000000000000000000000000000000000000000000000000bb8000000000000000000000000000000000000000000000000000000000000003c00000000000000000000000000000000000000000000000000000000000000000000000000000000000000000000000000000001000000000000000000000000",
        "nonce": "0x3e3",
        "chainId": "0x515"
      },
      "additionalContracts": [],
      "isFixedGasLimit": false
    },
    {
      "hash": "0x380db6acca50c48d523ab6e3fab32582e23c25e0abe9229a868bea3279f9781f",
      "transactionType": "CALL",
      "contractName": null,
      "contractAddress": "0xf969aee60879c54baaed9f3ed26147db216fd664",
      "function": "modifyLiquidities(bytes,uint256)",
      "arguments": [
        "0x000000000000000000000000000000000000000000000000000000000000004000000000000000000000000000000000000000000000000000000000000000800000000000000000000000000000000000000000000000000000000000000004020d14140000000000000000000000000000000000000000000000000000000000000000000000000000000000000000000000000000000000000000000000040000000000000000000000000000000000000000000000000000000000000080000000000000000000000000000000000000000000000000000000000000024000000000000000000000000000000000000000000000000000000000000002a0000000000000000000000000000000000000000000000000000000000000030000000000000000000000000000000000000000000000000000000000000001a00000000000000000000000002881ef1ea066b3199a3b2e3370cc37c71573477300000000000000000000000058e856ed31902b3d90afa625fb8c8beb5b5df5550000000000000000000000000000000000000000000000000000000000000bb8000000000000000000000000000000000000000000000000000000000000003c0000000000000000000000000000000000000000000000000000000000000000fffffffffffffffffffffffffffffffffffffffffffffffffffffffffff2764c00000000000000000000000000000000000000000000000000000000000d89b400000000000000000000000000000000000000000000d3c21bcecceda100000000000000000000000000000000000000000000000000d3c21bcecceda0ff2baf00000000000000000000000000000000000000000000d3c21bcecceda0ff2baf0000000000000000000000004b992f2fbf714c0fcbb23bac5130ace48cad00cd0000000000000000000000000000000000000000000000000000000000000180000000000000000000000000000000000000000000000000000000000000000000000000000000000000000000000000000000000000000000000000000000400000000000000000000000002881ef1ea066b3199a3b2e3370cc37c71573477300000000000000000000000058e856ed31902b3d90afa625fb8c8beb5b5df55500000000000000000000000000000000000000000000000000000000000000400000000000000000000000002881ef1ea066b3199a3b2e3370cc37c7157347730000000000000000000000004b992f2fbf714c0fcbb23bac5130ace48cad00cd000000000000000000000000000000000000000000000000000000000000004000000000000000000000000058e856ed31902b3d90afa625fb8c8beb5b5df5550000000000000000000000004b992f2fbf714c0fcbb23bac5130ace48cad00cd",
        "1773564937"
      ],
      "transaction": {
        "from": "0x4b992f2fbf714c0fcbb23bac5130ace48cad00cd",
        "to": "0xf969aee60879c54baaed9f3ed26147db216fd664",
        "gas": "0x8b692",
        "value": "0x0",
        "input": "0xdd46508f00000000000000000000000000000000000000000000000000000000000000400000000000000000000000000000000000000000000000000000000069b674090000000000000000000000000000000000000000000000000000000000000400000000000000000000000000000000000000000000000000000000000000004000000000000000000000000000000000000000000000000000000000000000800000000000000000000000000000000000000000000000000000000000000004020d14140000000000000000000000000000000000000000000000000000000000000000000000000000000000000000000000000000000000000000000000040000000000000000000000000000000000000000000000000000000000000080000000000000000000000000000000000000000000000000000000000000024000000000000000000000000000000000000000000000000000000000000002a0000000000000000000000000000000000000000000000000000000000000030000000000000000000000000000000000000000000000000000000000000001a00000000000000000000000002881ef1ea066b3199a3b2e3370cc37c71573477300000000000000000000000058e856ed31902b3d90afa625fb8c8beb5b5df5550000000000000000000000000000000000000000000000000000000000000bb8000000000000000000000000000000000000000000000000000000000000003c0000000000000000000000000000000000000000000000000000000000000000fffffffffffffffffffffffffffffffffffffffffffffffffffffffffff2764c00000000000000000000000000000000000000000000000000000000000d89b400000000000000000000000000000000000000000000d3c21bcecceda100000000000000000000000000000000000000000000000000d3c21bcecceda0ff2baf00000000000000000000000000000000000000000000d3c21bcecceda0ff2baf0000000000000000000000004b992f2fbf714c0fcbb23bac5130ace48cad00cd0000000000000000000000000000000000000000000000000000000000000180000000000000000000000000000000000000000000000000000000000000000000000000000000000000000000000000000000000000000000000000000000400000000000000000000000002881ef1ea066b3199a3b2e3370cc37c71573477300000000000000000000000058e856ed31902b3d90afa625fb8c8beb5b5df55500000000000000000000000000000000000000000000000000000000000000400000000000000000000000002881ef1ea066b3199a3b2e3370cc37c7157347730000000000000000000000004b992f2fbf714c0fcbb23bac5130ace48cad00cd000000000000000000000000000000000000000000000000000000000000004000000000000000000000000058e856ed31902b3d90afa625fb8c8beb5b5df5550000000000000000000000004b992f2fbf714c0fcbb23bac5130ace48cad00cd",
        "nonce": "0x3e4",
        "chainId": "0x515"
      },
      "additionalContracts": [],
      "isFixedGasLimit": false
    },
    {
      "hash": "0xabccc41d377a7ae266f88eb141680c34bcd48e528b40e87880efbec8b6ed02df",
      "transactionType": "CALL",
      "contractName": null,
      "contractAddress": "0xf969aee60879c54baaed9f3ed26147db216fd664",
      "function": "initializePool((address,address,uint24,int24,address),uint160)",
      "arguments": [
        "(0x2881eF1Ea066b3199a3B2E3370cc37C715734773, 0x58E856eD31902b3D90Afa625FB8C8BEB5b5DF555, 3000, 60, 0xBF42f398561644Eb55A7269dA0F937D0512c40c0)",
        "79228162514264337593543950336"
      ],
      "transaction": {
        "from": "0x4b992f2fbf714c0fcbb23bac5130ace48cad00cd",
        "to": "0xf969aee60879c54baaed9f3ed26147db216fd664",
        "gas": "0x14192",
        "value": "0x0",
        "input": "0xf70204050000000000000000000000002881ef1ea066b3199a3b2e3370cc37c71573477300000000000000000000000058e856ed31902b3d90afa625fb8c8beb5b5df5550000000000000000000000000000000000000000000000000000000000000bb8000000000000000000000000000000000000000000000000000000000000003c000000000000000000000000bf42f398561644eb55a7269da0f937d0512c40c00000000000000000000000000000000000000001000000000000000000000000",
        "nonce": "0x3e5",
        "chainId": "0x515"
      },
      "additionalContracts": [],
      "isFixedGasLimit": false
    },
    {
      "hash": "0x50a4f3db5370b2ef84069f6132b6a1ef669333442e6f47d45b9b5326f43d0061",
      "transactionType": "CALL",
      "contractName": null,
      "contractAddress": "0xf969aee60879c54baaed9f3ed26147db216fd664",
      "function": "modifyLiquidities(bytes,uint256)",
      "arguments": [
        "0x000000000000000000000000000000000000000000000000000000000000004000000000000000000000000000000000000000000000000000000000000000800000000000000000000000000000000000000000000000000000000000000004020d14140000000000000000000000000000000000000000000000000000000000000000000000000000000000000000000000000000000000000000000000040000000000000000000000000000000000000000000000000000000000000080000000000000000000000000000000000000000000000000000000000000024000000000000000000000000000000000000000000000000000000000000002a0000000000000000000000000000000000000000000000000000000000000030000000000000000000000000000000000000000000000000000000000000001a00000000000000000000000002881ef1ea066b3199a3b2e3370cc37c71573477300000000000000000000000058e856ed31902b3d90afa625fb8c8beb5b5df5550000000000000000000000000000000000000000000000000000000000000bb8000000000000000000000000000000000000000000000000000000000000003c000000000000000000000000bf42f398561644eb55a7269da0f937d0512c40c0fffffffffffffffffffffffffffffffffffffffffffffffffffffffffff2764c00000000000000000000000000000000000000000000000000000000000d89b400000000000000000000000000000000000000000000d3c21bcecceda100000000000000000000000000000000000000000000000000d3c21bcecceda0ff2baf00000000000000000000000000000000000000000000d3c21bcecceda0ff2baf0000000000000000000000004b992f2fbf714c0fcbb23bac5130ace48cad00cd0000000000000000000000000000000000000000000000000000000000000180000000000000000000000000000000000000000000000000000000000000000000000000000000000000000000000000000000000000000000000000000000400000000000000000000000002881ef1ea066b3199a3b2e3370cc37c71573477300000000000000000000000058e856ed31902b3d90afa625fb8c8beb5b5df55500000000000000000000000000000000000000000000000000000000000000400000000000000000000000002881ef1ea066b3199a3b2e3370cc37c7157347730000000000000000000000004b992f2fbf714c0fcbb23bac5130ace48cad00cd000000000000000000000000000000000000000000000000000000000000004000000000000000000000000058e856ed31902b3d90afa625fb8c8beb5b5df5550000000000000000000000004b992f2fbf714c0fcbb23bac5130ace48cad00cd",
        "1773564937"
      ],
      "transaction": {
        "from": "0x4b992f2fbf714c0fcbb23bac5130ace48cad00cd",
        "to": "0xf969aee60879c54baaed9f3ed26147db216fd664",
        "gas": "0x8e975",
        "value": "0x0",
        "input": "0xdd46508f00000000000000000000000000000000000000000000000000000000000000400000000000000000000000000000000000000000000000000000000069b674090000000000000000000000000000000000000000000000000000000000000400000000000000000000000000000000000000000000000000000000000000004000000000000000000000000000000000000000000000000000000000000000800000000000000000000000000000000000000000000000000000000000000004020d14140000000000000000000000000000000000000000000000000000000000000000000000000000000000000000000000000000000000000000000000040000000000000000000000000000000000000000000000000000000000000080000000000000000000000000000000000000000000000000000000000000024000000000000000000000000000000000000000000000000000000000000002a0000000000000000000000000000000000000000000000000000000000000030000000000000000000000000000000000000000000000000000000000000001a00000000000000000000000002881ef1ea066b3199a3b2e3370cc37c71573477300000000000000000000000058e856ed31902b3d90afa625fb8c8beb5b5df5550000000000000000000000000000000000000000000000000000000000000bb8000000000000000000000000000000000000000000000000000000000000003c000000000000000000000000bf42f398561644eb55a7269da0f937d0512c40c0fffffffffffffffffffffffffffffffffffffffffffffffffffffffffff2764c00000000000000000000000000000000000000000000000000000000000d89b400000000000000000000000000000000000000000000d3c21bcecceda100000000000000000000000000000000000000000000000000d3c21bcecceda0ff2baf00000000000000000000000000000000000000000000d3c21bcecceda0ff2baf0000000000000000000000004b992f2fbf714c0fcbb23bac5130ace48cad00cd0000000000000000000000000000000000000000000000000000000000000180000000000000000000000000000000000000000000000000000000000000000000000000000000000000000000000000000000000000000000000000000000400000000000000000000000002881ef1ea066b3199a3b2e3370cc37c71573477300000000000000000000000058e856ed31902b3d90afa625fb8c8beb5b5df55500000000000000000000000000000000000000000000000000000000000000400000000000000000000000002881ef1ea066b3199a3b2e3370cc37c7157347730000000000000000000000004b992f2fbf714c0fcbb23bac5130ace48cad00cd000000000000000000000000000000000000000000000000000000000000004000000000000000000000000058e856ed31902b3d90afa625fb8c8beb5b5df5550000000000000000000000004b992f2fbf714c0fcbb23bac5130ace48cad00cd",
        "nonce": "0x3e6",
        "chainId": "0x515"
      },
      "additionalContracts": [],
      "isFixedGasLimit": false
    },
    {
      "hash": "0x02054714a4f1fe06663166250241d0e23c3e475d5b2d196510237671796e5803",
      "transactionType": "CALL",
      "contractName": "MockERC20",
      "contractAddress": "0x2881ef1ea066b3199a3b2e3370cc37c715734773",
      "function": "approve(address,uint256)",
      "arguments": [
        "0x9cD2b0a732dd5e023a5539921e0FD1c30E198Dba",
        "115792089237316195423570985008687907853269984665640564039457584007913129639935"
      ],
      "transaction": {
        "from": "0x4b992f2fbf714c0fcbb23bac5130ace48cad00cd",
        "to": "0x2881ef1ea066b3199a3b2e3370cc37c715734773",
        "gas": "0xfad0",
        "value": "0x0",
        "input": "0x095ea7b30000000000000000000000009cd2b0a732dd5e023a5539921e0fd1c30e198dbaffffffffffffffffffffffffffffffffffffffffffffffffffffffffffffffff",
        "nonce": "0x3e7",
        "chainId": "0x515"
      },
      "additionalContracts": [],
      "isFixedGasLimit": false
    },
    {
      "hash": "0xf25132981a3f02e37f5249a392c978629a7c71ef6f534967352c76181c975aa5",
      "transactionType": "CALL",
      "contractName": "MockERC20",
      "contractAddress": "0x2881ef1ea066b3199a3b2e3370cc37c715734773",
      "function": "approve(address,uint256)",
      "arguments": [
        "0x493a90b1eA1bCbe2c6AB5af70928C82051B5e726",
        "115792089237316195423570985008687907853269984665640564039457584007913129639935"
      ],
      "transaction": {
        "from": "0x4b992f2fbf714c0fcbb23bac5130ace48cad00cd",
        "to": "0x2881ef1ea066b3199a3b2e3370cc37c715734773",
        "gas": "0xfad0",
        "value": "0x0",
        "input": "0x095ea7b3000000000000000000000000493a90b1ea1bcbe2c6ab5af70928c82051b5e726ffffffffffffffffffffffffffffffffffffffffffffffffffffffffffffffff",
        "nonce": "0x3e8",
        "chainId": "0x515"
      },
      "additionalContracts": [],
      "isFixedGasLimit": false
    },
    {
      "hash": "0xe9116620ba61e31b2223ad6c43c61d57de7e18088b5afb4da6a9c038d982635b",
      "transactionType": "CALL",
      "contractName": null,
      "contractAddress": "0x9cd2b0a732dd5e023a5539921e0fd1c30e198dba",
      "function": "swapExactTokensForTokens(uint256,uint256,bool,(address,address,uint24,int24,address),bytes,address,uint256)",
      "arguments": [
        "50000000000000000000",
        "1",
        "true",
        "(0x2881eF1Ea066b3199a3B2E3370cc37C715734773, 0x58E856eD31902b3D90Afa625FB8C8BEB5b5DF555, 3000, 60, 0x0000000000000000000000000000000000000000)",
        "0x",
        "0x4b992F2Fbf714C0fCBb23baC5130Ace48CaD00cd",
        "1773564937"
      ],
      "transaction": {
        "from": "0x4b992f2fbf714c0fcbb23bac5130ace48cad00cd",
        "to": "0x9cd2b0a732dd5e023a5539921e0fd1c30e198dba",
        "gas": "0x2ad99",
        "value": "0x0",
        "input": "0xb1a0d571000000000000000000000000000000000000000000000002b5e3af16b1880000000000000000000000000000000000000000000000000000000000000000000100000000000000000000000000000000000000000000000000000000000000010000000000000000000000002881ef1ea066b3199a3b2e3370cc37c71573477300000000000000000000000058e856ed31902b3d90afa625fb8c8beb5b5df5550000000000000000000000000000000000000000000000000000000000000bb8000000000000000000000000000000000000000000000000000000000000003c000000000000000000000000000000000000000000000000000000000000000000000000000000000000000000000000000000000000000000000000000001600000000000000000000000004b992f2fbf714c0fcbb23bac5130ace48cad00cd0000000000000000000000000000000000000000000000000000000069b674090000000000000000000000000000000000000000000000000000000000000000",
        "nonce": "0x3e9",
        "chainId": "0x515"
      },
      "additionalContracts": [],
      "isFixedGasLimit": false
    },
    {
      "hash": "0x75281713ab1b8a1099e3aa4579646ad82b1bb8c3ea4e7cbe1cc5a8bf88ecaeac",
      "transactionType": "CALL",
      "contractName": null,
      "contractAddress": "0x493a90b1ea1bcbe2c6ab5af70928c82051b5e726",
      "function": "createOrder((bytes32,address,address,bool,uint128,uint8,uint40,uint40,uint32,uint32,uint128,uint128,uint24,uint128,address))",
      "arguments": [
        "(0xc4cd1faa6b5f8b853624804c516eddb4bbd8408d1e9f828fef3c67e9e724c164, 0x2881eF1Ea066b3199a3B2E3370cc37C715734773, 0x58E856eD31902b3D90Afa625FB8C8BEB5b5DF555, true, 50000000000000000000, 0, 1773564337, 1773571537, 0, 1, 10000000000000000000, 10000000000000000000, 500, 1, 0x0000000000000000000000000000000000000000)"
      ],
      "transaction": {
        "from": "0x4b992f2fbf714c0fcbb23bac5130ace48cad00cd",
        "to": "0x493a90b1ea1bcbe2c6ab5af70928c82051b5e726",
        "gas": "0x62a92",
        "value": "0x0",
        "input": "0xe72aff3fc4cd1faa6b5f8b853624804c516eddb4bbd8408d1e9f828fef3c67e9e724c1640000000000000000000000002881ef1ea066b3199a3b2e3370cc37c71573477300000000000000000000000058e856ed31902b3d90afa625fb8c8beb5b5df5550000000000000000000000000000000000000000000000000000000000000001000000000000000000000000000000000000000000000002b5e3af16b188000000000000000000000000000000000000000000000000000000000000000000000000000000000000000000000000000000000000000000000000000069b671b10000000000000000000000000000000000000000000000000000000069b68dd1000000000000000000000000000000000000000000000000000000000000000000000000000000000000000000000000000000000000000000000000000000010000000000000000000000000000000000000000000000008ac7230489e800000000000000000000000000000000000000000000000000008ac7230489e8000000000000000000000000000000000000000000000000000000000000000001f400000000000000000000000000000000000000000000000000000000000000010000000000000000000000000000000000000000000000000000000000000000",
        "nonce": "0x3ea",
        "chainId": "0x515"
      },
      "additionalContracts": [],
      "isFixedGasLimit": false
    },
    {
      "hash": "0xbecadd9a0fe610c563765db50b6f1eed3cc159cb9211ef6663288e43fb5ca6ef",
      "transactionType": "CALL",
      "contractName": null,
      "contractAddress": "0xe56a90ad0deab20ee9fcd780b14ca90fc71d3f5d",
      "function": "executeNextSlice((bytes32,(address,address,uint24,int24,address),uint24,uint160,uint40))",
      "arguments": [
        "(0xd549bb81dc66bccbf9752dbf180b09c9edd51d9973fc40bde108f30bd66e7b36, (0x2881eF1Ea066b3199a3B2E3370cc37C715734773, 0x58E856eD31902b3D90Afa625FB8C8BEB5b5DF555, 3000, 60, 0xBF42f398561644Eb55A7269dA0F937D0512c40c0), 50, 4295128740, 1773564937)"
      ],
      "transaction": {
        "from": "0x4b992f2fbf714c0fcbb23bac5130ace48cad00cd",
        "to": "0xe56a90ad0deab20ee9fcd780b14ca90fc71d3f5d",
        "gas": "0x610ea",
        "value": "0x0",
        "input": "0xdee73244d549bb81dc66bccbf9752dbf180b09c9edd51d9973fc40bde108f30bd66e7b360000000000000000000000002881ef1ea066b3199a3b2e3370cc37c71573477300000000000000000000000058e856ed31902b3d90afa625fb8c8beb5b5df5550000000000000000000000000000000000000000000000000000000000000bb8000000000000000000000000000000000000000000000000000000000000003c000000000000000000000000bf42f398561644eb55a7269da0f937d0512c40c0000000000000000000000000000000000000000000000000000000000000003200000000000000000000000000000000000000000000000000000001000276a40000000000000000000000000000000000000000000000000000000069b67409",
        "nonce": "0x3eb",
        "chainId": "0x515"
      },
      "additionalContracts": [],
      "isFixedGasLimit": false
    },
    {
      "hash": "0xc1baa52979973defd43245b193c24dab2a759938583df382436d0958a2fb61ce",
      "transactionType": "CALL",
      "contractName": null,
      "contractAddress": "0xe56a90ad0deab20ee9fcd780b14ca90fc71d3f5d",
      "function": "executeNextSlice((bytes32,(address,address,uint24,int24,address),uint24,uint160,uint40))",
      "arguments": [
        "(0xd549bb81dc66bccbf9752dbf180b09c9edd51d9973fc40bde108f30bd66e7b36, (0x2881eF1Ea066b3199a3B2E3370cc37C715734773, 0x58E856eD31902b3D90Afa625FB8C8BEB5b5DF555, 3000, 60, 0xBF42f398561644Eb55A7269dA0F937D0512c40c0), 50, 4295128740, 1773564937)"
      ],
      "transaction": {
        "from": "0x4b992f2fbf714c0fcbb23bac5130ace48cad00cd",
        "to": "0xe56a90ad0deab20ee9fcd780b14ca90fc71d3f5d",
        "gas": "0x16d2d",
        "value": "0x0",
        "input": "0xdee73244d549bb81dc66bccbf9752dbf180b09c9edd51d9973fc40bde108f30bd66e7b360000000000000000000000002881ef1ea066b3199a3b2e3370cc37c71573477300000000000000000000000058e856ed31902b3d90afa625fb8c8beb5b5df5550000000000000000000000000000000000000000000000000000000000000bb8000000000000000000000000000000000000000000000000000000000000003c000000000000000000000000bf42f398561644eb55a7269da0f937d0512c40c0000000000000000000000000000000000000000000000000000000000000003200000000000000000000000000000000000000000000000000000001000276a40000000000000000000000000000000000000000000000000000000069b67409",
        "nonce": "0x3ec",
        "chainId": "0x515"
      },
      "additionalContracts": [],
      "isFixedGasLimit": false
    },
    {
      "hash": "0x0a23fadb67c3b21b2765fec8671707eadc5f93457b3d056456b3522cba44eac3",
      "transactionType": "CALL",
      "contractName": null,
      "contractAddress": "0xe56a90ad0deab20ee9fcd780b14ca90fc71d3f5d",
      "function": "executeNextSlice((bytes32,(address,address,uint24,int24,address),uint24,uint160,uint40))",
      "arguments": [
        "(0xd549bb81dc66bccbf9752dbf180b09c9edd51d9973fc40bde108f30bd66e7b36, (0x2881eF1Ea066b3199a3B2E3370cc37C715734773, 0x58E856eD31902b3D90Afa625FB8C8BEB5b5DF555, 3000, 60, 0xBF42f398561644Eb55A7269dA0F937D0512c40c0), 50, 4295128740, 1773564937)"
      ],
      "transaction": {
        "from": "0x4b992f2fbf714c0fcbb23bac5130ace48cad00cd",
        "to": "0xe56a90ad0deab20ee9fcd780b14ca90fc71d3f5d",
        "gas": "0x16d2d",
        "value": "0x0",
        "input": "0xdee73244d549bb81dc66bccbf9752dbf180b09c9edd51d9973fc40bde108f30bd66e7b360000000000000000000000002881ef1ea066b3199a3b2e3370cc37c71573477300000000000000000000000058e856ed31902b3d90afa625fb8c8beb5b5df5550000000000000000000000000000000000000000000000000000000000000bb8000000000000000000000000000000000000000000000000000000000000003c000000000000000000000000bf42f398561644eb55a7269da0f937d0512c40c0000000000000000000000000000000000000000000000000000000000000003200000000000000000000000000000000000000000000000000000001000276a40000000000000000000000000000000000000000000000000000000069b67409",
        "nonce": "0x3ed",
        "chainId": "0x515"
      },
      "additionalContracts": [],
      "isFixedGasLimit": false
    },
    {
      "hash": "0x0f51c872b33f1c65d4d57d67a2223d2fca9555ec93abf880983e036195052919",
      "transactionType": "CALL",
      "contractName": null,
      "contractAddress": "0xe56a90ad0deab20ee9fcd780b14ca90fc71d3f5d",
      "function": "executeNextSlice((bytes32,(address,address,uint24,int24,address),uint24,uint160,uint40))",
      "arguments": [
        "(0xd549bb81dc66bccbf9752dbf180b09c9edd51d9973fc40bde108f30bd66e7b36, (0x2881eF1Ea066b3199a3B2E3370cc37C715734773, 0x58E856eD31902b3D90Afa625FB8C8BEB5b5DF555, 3000, 60, 0xBF42f398561644Eb55A7269dA0F937D0512c40c0), 50, 4295128740, 1773564937)"
      ],
      "transaction": {
        "from": "0x4b992f2fbf714c0fcbb23bac5130ace48cad00cd",
        "to": "0xe56a90ad0deab20ee9fcd780b14ca90fc71d3f5d",
        "gas": "0x16d2d",
        "value": "0x0",
        "input": "0xdee73244d549bb81dc66bccbf9752dbf180b09c9edd51d9973fc40bde108f30bd66e7b360000000000000000000000002881ef1ea066b3199a3b2e3370cc37c71573477300000000000000000000000058e856ed31902b3d90afa625fb8c8beb5b5df5550000000000000000000000000000000000000000000000000000000000000bb8000000000000000000000000000000000000000000000000000000000000003c000000000000000000000000bf42f398561644eb55a7269da0f937d0512c40c0000000000000000000000000000000000000000000000000000000000000003200000000000000000000000000000000000000000000000000000001000276a40000000000000000000000000000000000000000000000000000000069b67409",
        "nonce": "0x3ee",
        "chainId": "0x515"
      },
      "additionalContracts": [],
      "isFixedGasLimit": false
    },
    {
      "hash": "0xafd7fd8efe62eca2d87e8a4071447365d2854d3436a2d8053d4e811c057e0f3a",
      "transactionType": "CALL",
      "contractName": null,
      "contractAddress": "0xe56a90ad0deab20ee9fcd780b14ca90fc71d3f5d",
      "function": "executeNextSlice((bytes32,(address,address,uint24,int24,address),uint24,uint160,uint40))",
      "arguments": [
        "(0xd549bb81dc66bccbf9752dbf180b09c9edd51d9973fc40bde108f30bd66e7b36, (0x2881eF1Ea066b3199a3B2E3370cc37C715734773, 0x58E856eD31902b3D90Afa625FB8C8BEB5b5DF555, 3000, 60, 0xBF42f398561644Eb55A7269dA0F937D0512c40c0), 50, 4295128740, 1773564937)"
      ],
      "transaction": {
        "from": "0x4b992f2fbf714c0fcbb23bac5130ace48cad00cd",
        "to": "0xe56a90ad0deab20ee9fcd780b14ca90fc71d3f5d",
        "gas": "0x16d2d",
        "value": "0x0",
        "input": "0xdee73244d549bb81dc66bccbf9752dbf180b09c9edd51d9973fc40bde108f30bd66e7b360000000000000000000000002881ef1ea066b3199a3b2e3370cc37c71573477300000000000000000000000058e856ed31902b3d90afa625fb8c8beb5b5df5550000000000000000000000000000000000000000000000000000000000000bb8000000000000000000000000000000000000000000000000000000000000003c000000000000000000000000bf42f398561644eb55a7269da0f937d0512c40c0000000000000000000000000000000000000000000000000000000000000003200000000000000000000000000000000000000000000000000000001000276a40000000000000000000000000000000000000000000000000000000069b67409",
        "nonce": "0x3ef",
        "chainId": "0x515"
      },
      "additionalContracts": [],
      "isFixedGasLimit": false
    },
    {
      "hash": "0x75a198b43ed46c396394fc896fd548a8c66a062383ca086f14832206422178d6",
      "transactionType": "CALL",
      "contractName": null,
      "contractAddress": "0xe56a90ad0deab20ee9fcd780b14ca90fc71d3f5d",
      "function": "executeNextSlice((bytes32,(address,address,uint24,int24,address),uint24,uint160,uint40))",
      "arguments": [
        "(0xd549bb81dc66bccbf9752dbf180b09c9edd51d9973fc40bde108f30bd66e7b36, (0x2881eF1Ea066b3199a3B2E3370cc37C715734773, 0x58E856eD31902b3D90Afa625FB8C8BEB5b5DF555, 3000, 60, 0xBF42f398561644Eb55A7269dA0F937D0512c40c0), 50, 4295128740, 1773564937)"
      ],
      "transaction": {
        "from": "0x4b992f2fbf714c0fcbb23bac5130ace48cad00cd",
        "to": "0xe56a90ad0deab20ee9fcd780b14ca90fc71d3f5d",
        "gas": "0x16d2d",
        "value": "0x0",
        "input": "0xdee73244d549bb81dc66bccbf9752dbf180b09c9edd51d9973fc40bde108f30bd66e7b360000000000000000000000002881ef1ea066b3199a3b2e3370cc37c71573477300000000000000000000000058e856ed31902b3d90afa625fb8c8beb5b5df5550000000000000000000000000000000000000000000000000000000000000bb8000000000000000000000000000000000000000000000000000000000000003c000000000000000000000000bf42f398561644eb55a7269da0f937d0512c40c0000000000000000000000000000000000000000000000000000000000000003200000000000000000000000000000000000000000000000000000001000276a40000000000000000000000000000000000000000000000000000000069b67409",
        "nonce": "0x3f0",
        "chainId": "0x515"
      },
      "additionalContracts": [],
      "isFixedGasLimit": false
    },
    {
      "hash": "0xe841bb961b18bf5552cbed2a18a3e574e7e3685a6b9b52637394c575c260a2cf",
      "transactionType": "CALL",
      "contractName": null,
      "contractAddress": "0xe56a90ad0deab20ee9fcd780b14ca90fc71d3f5d",
      "function": "executeNextSlice((bytes32,(address,address,uint24,int24,address),uint24,uint160,uint40))",
      "arguments": [
        "(0xd549bb81dc66bccbf9752dbf180b09c9edd51d9973fc40bde108f30bd66e7b36, (0x2881eF1Ea066b3199a3B2E3370cc37C715734773, 0x58E856eD31902b3D90Afa625FB8C8BEB5b5DF555, 3000, 60, 0xBF42f398561644Eb55A7269dA0F937D0512c40c0), 50, 4295128740, 1773564937)"
      ],
      "transaction": {
        "from": "0x4b992f2fbf714c0fcbb23bac5130ace48cad00cd",
        "to": "0xe56a90ad0deab20ee9fcd780b14ca90fc71d3f5d",
        "gas": "0x16d2d",
        "value": "0x0",
        "input": "0xdee73244d549bb81dc66bccbf9752dbf180b09c9edd51d9973fc40bde108f30bd66e7b360000000000000000000000002881ef1ea066b3199a3b2e3370cc37c71573477300000000000000000000000058e856ed31902b3d90afa625fb8c8beb5b5df5550000000000000000000000000000000000000000000000000000000000000bb8000000000000000000000000000000000000000000000000000000000000003c000000000000000000000000bf42f398561644eb55a7269da0f937d0512c40c0000000000000000000000000000000000000000000000000000000000000003200000000000000000000000000000000000000000000000000000001000276a40000000000000000000000000000000000000000000000000000000069b67409",
        "nonce": "0x3f1",
        "chainId": "0x515"
      },
      "additionalContracts": [],
      "isFixedGasLimit": false
    },
    {
      "hash": "0xcea2f601985fa66787503cef379b4bc76fe81e2d83d588ee6906ccf252203391",
      "transactionType": "CALL",
      "contractName": null,
      "contractAddress": "0xe56a90ad0deab20ee9fcd780b14ca90fc71d3f5d",
      "function": "executeNextSlice((bytes32,(address,address,uint24,int24,address),uint24,uint160,uint40))",
      "arguments": [
        "(0xd549bb81dc66bccbf9752dbf180b09c9edd51d9973fc40bde108f30bd66e7b36, (0x2881eF1Ea066b3199a3B2E3370cc37C715734773, 0x58E856eD31902b3D90Afa625FB8C8BEB5b5DF555, 3000, 60, 0xBF42f398561644Eb55A7269dA0F937D0512c40c0), 50, 4295128740, 1773564937)"
      ],
      "transaction": {
        "from": "0x4b992f2fbf714c0fcbb23bac5130ace48cad00cd",
        "to": "0xe56a90ad0deab20ee9fcd780b14ca90fc71d3f5d",
        "gas": "0x16d2d",
        "value": "0x0",
        "input": "0xdee73244d549bb81dc66bccbf9752dbf180b09c9edd51d9973fc40bde108f30bd66e7b360000000000000000000000002881ef1ea066b3199a3b2e3370cc37c71573477300000000000000000000000058e856ed31902b3d90afa625fb8c8beb5b5df5550000000000000000000000000000000000000000000000000000000000000bb8000000000000000000000000000000000000000000000000000000000000003c000000000000000000000000bf42f398561644eb55a7269da0f937d0512c40c0000000000000000000000000000000000000000000000000000000000000003200000000000000000000000000000000000000000000000000000001000276a40000000000000000000000000000000000000000000000000000000069b67409",
        "nonce": "0x3f2",
        "chainId": "0x515"
      },
      "additionalContracts": [],
      "isFixedGasLimit": false
    },
    {
      "hash": "0xf8641164420d5320cb21b7b6bf7587faafcfee5292581d48e2763738cc7b1641",
      "transactionType": "CALL",
      "contractName": null,
      "contractAddress": "0xe56a90ad0deab20ee9fcd780b14ca90fc71d3f5d",
      "function": "executeNextSlice((bytes32,(address,address,uint24,int24,address),uint24,uint160,uint40))",
      "arguments": [
        "(0xd549bb81dc66bccbf9752dbf180b09c9edd51d9973fc40bde108f30bd66e7b36, (0x2881eF1Ea066b3199a3B2E3370cc37C715734773, 0x58E856eD31902b3D90Afa625FB8C8BEB5b5DF555, 3000, 60, 0xBF42f398561644Eb55A7269dA0F937D0512c40c0), 50, 4295128740, 1773564937)"
      ],
      "transaction": {
        "from": "0x4b992f2fbf714c0fcbb23bac5130ace48cad00cd",
        "to": "0xe56a90ad0deab20ee9fcd780b14ca90fc71d3f5d",
        "gas": "0x16d2d",
        "value": "0x0",
        "input": "0xdee73244d549bb81dc66bccbf9752dbf180b09c9edd51d9973fc40bde108f30bd66e7b360000000000000000000000002881ef1ea066b3199a3b2e3370cc37c71573477300000000000000000000000058e856ed31902b3d90afa625fb8c8beb5b5df5550000000000000000000000000000000000000000000000000000000000000bb8000000000000000000000000000000000000000000000000000000000000003c000000000000000000000000bf42f398561644eb55a7269da0f937d0512c40c0000000000000000000000000000000000000000000000000000000000000003200000000000000000000000000000000000000000000000000000001000276a40000000000000000000000000000000000000000000000000000000069b67409",
        "nonce": "0x3f3",
        "chainId": "0x515"
      },
      "additionalContracts": [],
      "isFixedGasLimit": false
    },
    {
      "hash": "0x3dbd059a7219ab00b3f31f4f29fa865784c88cb310b13ea18562af97d58a527f",
      "transactionType": "CALL",
      "contractName": null,
      "contractAddress": "0xe56a90ad0deab20ee9fcd780b14ca90fc71d3f5d",
      "function": "executeNextSlice((bytes32,(address,address,uint24,int24,address),uint24,uint160,uint40))",
      "arguments": [
        "(0xd549bb81dc66bccbf9752dbf180b09c9edd51d9973fc40bde108f30bd66e7b36, (0x2881eF1Ea066b3199a3B2E3370cc37C715734773, 0x58E856eD31902b3D90Afa625FB8C8BEB5b5DF555, 3000, 60, 0xBF42f398561644Eb55A7269dA0F937D0512c40c0), 50, 4295128740, 1773564937)"
      ],
      "transaction": {
        "from": "0x4b992f2fbf714c0fcbb23bac5130ace48cad00cd",
        "to": "0xe56a90ad0deab20ee9fcd780b14ca90fc71d3f5d",
        "gas": "0x16d2d",
        "value": "0x0",
        "input": "0xdee73244d549bb81dc66bccbf9752dbf180b09c9edd51d9973fc40bde108f30bd66e7b360000000000000000000000002881ef1ea066b3199a3b2e3370cc37c71573477300000000000000000000000058e856ed31902b3d90afa625fb8c8beb5b5df5550000000000000000000000000000000000000000000000000000000000000bb8000000000000000000000000000000000000000000000000000000000000003c000000000000000000000000bf42f398561644eb55a7269da0f937d0512c40c0000000000000000000000000000000000000000000000000000000000000003200000000000000000000000000000000000000000000000000000001000276a40000000000000000000000000000000000000000000000000000000069b67409",
        "nonce": "0x3f4",
        "chainId": "0x515"
      },
      "additionalContracts": [],
      "isFixedGasLimit": false
    },
    {
      "hash": "0x94d2cf68f49fa9058f55e88f5c7f01ec6eabc30e90f58c072bd25276d9c1fabd",
      "transactionType": "CALL",
      "contractName": null,
      "contractAddress": "0xe56a90ad0deab20ee9fcd780b14ca90fc71d3f5d",
      "function": "executeNextSlice((bytes32,(address,address,uint24,int24,address),uint24,uint160,uint40))",
      "arguments": [
        "(0xd549bb81dc66bccbf9752dbf180b09c9edd51d9973fc40bde108f30bd66e7b36, (0x2881eF1Ea066b3199a3B2E3370cc37C715734773, 0x58E856eD31902b3D90Afa625FB8C8BEB5b5DF555, 3000, 60, 0xBF42f398561644Eb55A7269dA0F937D0512c40c0), 50, 4295128740, 1773564937)"
      ],
      "transaction": {
        "from": "0x4b992f2fbf714c0fcbb23bac5130ace48cad00cd",
        "to": "0xe56a90ad0deab20ee9fcd780b14ca90fc71d3f5d",
        "gas": "0x16d2d",
        "value": "0x0",
        "input": "0xdee73244d549bb81dc66bccbf9752dbf180b09c9edd51d9973fc40bde108f30bd66e7b360000000000000000000000002881ef1ea066b3199a3b2e3370cc37c71573477300000000000000000000000058e856ed31902b3d90afa625fb8c8beb5b5df5550000000000000000000000000000000000000000000000000000000000000bb8000000000000000000000000000000000000000000000000000000000000003c000000000000000000000000bf42f398561644eb55a7269da0f937d0512c40c0000000000000000000000000000000000000000000000000000000000000003200000000000000000000000000000000000000000000000000000001000276a40000000000000000000000000000000000000000000000000000000069b67409",
        "nonce": "0x3f5",
        "chainId": "0x515"
      },
      "additionalContracts": [],
      "isFixedGasLimit": false
    },
    {
      "hash": "0x4c6bb7d551d1087af97b51f0e813bd8a3941bdc1c8fd7180ede40e5d3033973a",
      "transactionType": "CALL",
      "contractName": null,
      "contractAddress": "0xe56a90ad0deab20ee9fcd780b14ca90fc71d3f5d",
      "function": "executeNextSlice((bytes32,(address,address,uint24,int24,address),uint24,uint160,uint40))",
      "arguments": [
        "(0xd549bb81dc66bccbf9752dbf180b09c9edd51d9973fc40bde108f30bd66e7b36, (0x2881eF1Ea066b3199a3B2E3370cc37C715734773, 0x58E856eD31902b3D90Afa625FB8C8BEB5b5DF555, 3000, 60, 0xBF42f398561644Eb55A7269dA0F937D0512c40c0), 50, 4295128740, 1773564937)"
      ],
      "transaction": {
        "from": "0x4b992f2fbf714c0fcbb23bac5130ace48cad00cd",
        "to": "0xe56a90ad0deab20ee9fcd780b14ca90fc71d3f5d",
        "gas": "0x16d2d",
        "value": "0x0",
        "input": "0xdee73244d549bb81dc66bccbf9752dbf180b09c9edd51d9973fc40bde108f30bd66e7b360000000000000000000000002881ef1ea066b3199a3b2e3370cc37c71573477300000000000000000000000058e856ed31902b3d90afa625fb8c8beb5b5df5550000000000000000000000000000000000000000000000000000000000000bb8000000000000000000000000000000000000000000000000000000000000003c000000000000000000000000bf42f398561644eb55a7269da0f937d0512c40c0000000000000000000000000000000000000000000000000000000000000003200000000000000000000000000000000000000000000000000000001000276a40000000000000000000000000000000000000000000000000000000069b67409",
        "nonce": "0x3f6",
        "chainId": "0x515"
      },
      "additionalContracts": [],
      "isFixedGasLimit": false
    },
    {
      "hash": "0x720475acd82f5aed29a761273fffd987a3ca8ac89586a43254c507c901986af5",
      "transactionType": "CALL",
      "contractName": null,
      "contractAddress": "0xe56a90ad0deab20ee9fcd780b14ca90fc71d3f5d",
      "function": "executeNextSlice((bytes32,(address,address,uint24,int24,address),uint24,uint160,uint40))",
      "arguments": [
        "(0xd549bb81dc66bccbf9752dbf180b09c9edd51d9973fc40bde108f30bd66e7b36, (0x2881eF1Ea066b3199a3B2E3370cc37C715734773, 0x58E856eD31902b3D90Afa625FB8C8BEB5b5DF555, 3000, 60, 0xBF42f398561644Eb55A7269dA0F937D0512c40c0), 50, 4295128740, 1773564937)"
      ],
      "transaction": {
        "from": "0x4b992f2fbf714c0fcbb23bac5130ace48cad00cd",
        "to": "0xe56a90ad0deab20ee9fcd780b14ca90fc71d3f5d",
        "gas": "0x16d2d",
        "value": "0x0",
        "input": "0xdee73244d549bb81dc66bccbf9752dbf180b09c9edd51d9973fc40bde108f30bd66e7b360000000000000000000000002881ef1ea066b3199a3b2e3370cc37c71573477300000000000000000000000058e856ed31902b3d90afa625fb8c8beb5b5df5550000000000000000000000000000000000000000000000000000000000000bb8000000000000000000000000000000000000000000000000000000000000003c000000000000000000000000bf42f398561644eb55a7269da0f937d0512c40c0000000000000000000000000000000000000000000000000000000000000003200000000000000000000000000000000000000000000000000000001000276a40000000000000000000000000000000000000000000000000000000069b67409",
        "nonce": "0x3f7",
        "chainId": "0x515"
      },
      "additionalContracts": [],
      "isFixedGasLimit": false
    },
    {
      "hash": "0xb801fedde59ac5f46d60d7a396e586ccb30c5043ed0696174e5fce122d8a177f",
      "transactionType": "CALL",
      "contractName": null,
      "contractAddress": "0xe56a90ad0deab20ee9fcd780b14ca90fc71d3f5d",
      "function": "executeNextSlice((bytes32,(address,address,uint24,int24,address),uint24,uint160,uint40))",
      "arguments": [
        "(0xd549bb81dc66bccbf9752dbf180b09c9edd51d9973fc40bde108f30bd66e7b36, (0x2881eF1Ea066b3199a3B2E3370cc37C715734773, 0x58E856eD31902b3D90Afa625FB8C8BEB5b5DF555, 3000, 60, 0xBF42f398561644Eb55A7269dA0F937D0512c40c0), 50, 4295128740, 1773564937)"
      ],
      "transaction": {
        "from": "0x4b992f2fbf714c0fcbb23bac5130ace48cad00cd",
        "to": "0xe56a90ad0deab20ee9fcd780b14ca90fc71d3f5d",
        "gas": "0x16d2d",
        "value": "0x0",
        "input": "0xdee73244d549bb81dc66bccbf9752dbf180b09c9edd51d9973fc40bde108f30bd66e7b360000000000000000000000002881ef1ea066b3199a3b2e3370cc37c71573477300000000000000000000000058e856ed31902b3d90afa625fb8c8beb5b5df5550000000000000000000000000000000000000000000000000000000000000bb8000000000000000000000000000000000000000000000000000000000000003c000000000000000000000000bf42f398561644eb55a7269da0f937d0512c40c0000000000000000000000000000000000000000000000000000000000000003200000000000000000000000000000000000000000000000000000001000276a40000000000000000000000000000000000000000000000000000000069b67409",
        "nonce": "0x3f8",
        "chainId": "0x515"
      },
      "additionalContracts": [],
      "isFixedGasLimit": false
    },
    {
      "hash": "0x4373f3d300ed04dad6f2b4fbc787ac5b551e8cda84bc6d4906e8b2984d13c508",
      "transactionType": "CALL",
      "contractName": null,
      "contractAddress": "0xe56a90ad0deab20ee9fcd780b14ca90fc71d3f5d",
      "function": "executeNextSlice((bytes32,(address,address,uint24,int24,address),uint24,uint160,uint40))",
      "arguments": [
        "(0xd549bb81dc66bccbf9752dbf180b09c9edd51d9973fc40bde108f30bd66e7b36, (0x2881eF1Ea066b3199a3B2E3370cc37C715734773, 0x58E856eD31902b3D90Afa625FB8C8BEB5b5DF555, 3000, 60, 0xBF42f398561644Eb55A7269dA0F937D0512c40c0), 50, 4295128740, 1773564937)"
      ],
      "transaction": {
        "from": "0x4b992f2fbf714c0fcbb23bac5130ace48cad00cd",
        "to": "0xe56a90ad0deab20ee9fcd780b14ca90fc71d3f5d",
        "gas": "0x16d2d",
        "value": "0x0",
        "input": "0xdee73244d549bb81dc66bccbf9752dbf180b09c9edd51d9973fc40bde108f30bd66e7b360000000000000000000000002881ef1ea066b3199a3b2e3370cc37c71573477300000000000000000000000058e856ed31902b3d90afa625fb8c8beb5b5df5550000000000000000000000000000000000000000000000000000000000000bb8000000000000000000000000000000000000000000000000000000000000003c000000000000000000000000bf42f398561644eb55a7269da0f937d0512c40c0000000000000000000000000000000000000000000000000000000000000003200000000000000000000000000000000000000000000000000000001000276a40000000000000000000000000000000000000000000000000000000069b67409",
        "nonce": "0x3f9",
        "chainId": "0x515"
      },
      "additionalContracts": [],
      "isFixedGasLimit": false
    },
    {
      "hash": "0x816d5a6f5afe11bf5e094b4cd635c8bb72f5356d208424f1cab87edebc0a295e",
      "transactionType": "CALL",
      "contractName": null,
      "contractAddress": "0xe56a90ad0deab20ee9fcd780b14ca90fc71d3f5d",
      "function": "executeNextSlice((bytes32,(address,address,uint24,int24,address),uint24,uint160,uint40))",
      "arguments": [
        "(0xd549bb81dc66bccbf9752dbf180b09c9edd51d9973fc40bde108f30bd66e7b36, (0x2881eF1Ea066b3199a3B2E3370cc37C715734773, 0x58E856eD31902b3D90Afa625FB8C8BEB5b5DF555, 3000, 60, 0xBF42f398561644Eb55A7269dA0F937D0512c40c0), 50, 4295128740, 1773564937)"
      ],
      "transaction": {
        "from": "0x4b992f2fbf714c0fcbb23bac5130ace48cad00cd",
        "to": "0xe56a90ad0deab20ee9fcd780b14ca90fc71d3f5d",
        "gas": "0x16d2d",
        "value": "0x0",
        "input": "0xdee73244d549bb81dc66bccbf9752dbf180b09c9edd51d9973fc40bde108f30bd66e7b360000000000000000000000002881ef1ea066b3199a3b2e3370cc37c71573477300000000000000000000000058e856ed31902b3d90afa625fb8c8beb5b5df5550000000000000000000000000000000000000000000000000000000000000bb8000000000000000000000000000000000000000000000000000000000000003c000000000000000000000000bf42f398561644eb55a7269da0f937d0512c40c0000000000000000000000000000000000000000000000000000000000000003200000000000000000000000000000000000000000000000000000001000276a40000000000000000000000000000000000000000000000000000000069b67409",
        "nonce": "0x3fa",
        "chainId": "0x515"
      },
      "additionalContracts": [],
      "isFixedGasLimit": false
    },
    {
      "hash": "0xd4bc555b37092bc8dcfc04113a4bdfb0f8dfbd93b987c9190d612b8882c01883",
      "transactionType": "CALL",
      "contractName": null,
      "contractAddress": "0xe56a90ad0deab20ee9fcd780b14ca90fc71d3f5d",
      "function": "executeNextSlice((bytes32,(address,address,uint24,int24,address),uint24,uint160,uint40))",
      "arguments": [
        "(0xd549bb81dc66bccbf9752dbf180b09c9edd51d9973fc40bde108f30bd66e7b36, (0x2881eF1Ea066b3199a3B2E3370cc37C715734773, 0x58E856eD31902b3D90Afa625FB8C8BEB5b5DF555, 3000, 60, 0xBF42f398561644Eb55A7269dA0F937D0512c40c0), 50, 4295128740, 1773564937)"
      ],
      "transaction": {
        "from": "0x4b992f2fbf714c0fcbb23bac5130ace48cad00cd",
        "to": "0xe56a90ad0deab20ee9fcd780b14ca90fc71d3f5d",
        "gas": "0x16d2d",
        "value": "0x0",
        "input": "0xdee73244d549bb81dc66bccbf9752dbf180b09c9edd51d9973fc40bde108f30bd66e7b360000000000000000000000002881ef1ea066b3199a3b2e3370cc37c71573477300000000000000000000000058e856ed31902b3d90afa625fb8c8beb5b5df5550000000000000000000000000000000000000000000000000000000000000bb8000000000000000000000000000000000000000000000000000000000000003c000000000000000000000000bf42f398561644eb55a7269da0f937d0512c40c0000000000000000000000000000000000000000000000000000000000000003200000000000000000000000000000000000000000000000000000001000276a40000000000000000000000000000000000000000000000000000000069b67409",
        "nonce": "0x3fb",
        "chainId": "0x515"
      },
      "additionalContracts": [],
      "isFixedGasLimit": false
    },
    {
      "hash": "0xa064cfc4b751bf501f3e14415a958a26e0c565956240fd8694c612d4c9f5959a",
      "transactionType": "CALL",
      "contractName": null,
      "contractAddress": "0xe56a90ad0deab20ee9fcd780b14ca90fc71d3f5d",
      "function": "executeNextSlice((bytes32,(address,address,uint24,int24,address),uint24,uint160,uint40))",
      "arguments": [
        "(0xd549bb81dc66bccbf9752dbf180b09c9edd51d9973fc40bde108f30bd66e7b36, (0x2881eF1Ea066b3199a3B2E3370cc37C715734773, 0x58E856eD31902b3D90Afa625FB8C8BEB5b5DF555, 3000, 60, 0xBF42f398561644Eb55A7269dA0F937D0512c40c0), 50, 4295128740, 1773564937)"
      ],
      "transaction": {
        "from": "0x4b992f2fbf714c0fcbb23bac5130ace48cad00cd",
        "to": "0xe56a90ad0deab20ee9fcd780b14ca90fc71d3f5d",
        "gas": "0x16d2d",
        "value": "0x0",
        "input": "0xdee73244d549bb81dc66bccbf9752dbf180b09c9edd51d9973fc40bde108f30bd66e7b360000000000000000000000002881ef1ea066b3199a3b2e3370cc37c71573477300000000000000000000000058e856ed31902b3d90afa625fb8c8beb5b5df5550000000000000000000000000000000000000000000000000000000000000bb8000000000000000000000000000000000000000000000000000000000000003c000000000000000000000000bf42f398561644eb55a7269da0f937d0512c40c0000000000000000000000000000000000000000000000000000000000000003200000000000000000000000000000000000000000000000000000001000276a40000000000000000000000000000000000000000000000000000000069b67409",
        "nonce": "0x3fc",
        "chainId": "0x515"
      },
      "additionalContracts": [],
      "isFixedGasLimit": false
    },
    {
      "hash": "0x226f40220eacc3f6acd16948b6c0a8a29f6261eb8d0b1c1eb78564266c31d209",
      "transactionType": "CALL",
      "contractName": null,
      "contractAddress": "0xe56a90ad0deab20ee9fcd780b14ca90fc71d3f5d",
      "function": "executeNextSlice((bytes32,(address,address,uint24,int24,address),uint24,uint160,uint40))",
      "arguments": [
        "(0xd549bb81dc66bccbf9752dbf180b09c9edd51d9973fc40bde108f30bd66e7b36, (0x2881eF1Ea066b3199a3B2E3370cc37C715734773, 0x58E856eD31902b3D90Afa625FB8C8BEB5b5DF555, 3000, 60, 0xBF42f398561644Eb55A7269dA0F937D0512c40c0), 50, 4295128740, 1773564937)"
      ],
      "transaction": {
        "from": "0x4b992f2fbf714c0fcbb23bac5130ace48cad00cd",
        "to": "0xe56a90ad0deab20ee9fcd780b14ca90fc71d3f5d",
        "gas": "0x16d2d",
        "value": "0x0",
        "input": "0xdee73244d549bb81dc66bccbf9752dbf180b09c9edd51d9973fc40bde108f30bd66e7b360000000000000000000000002881ef1ea066b3199a3b2e3370cc37c71573477300000000000000000000000058e856ed31902b3d90afa625fb8c8beb5b5df5550000000000000000000000000000000000000000000000000000000000000bb8000000000000000000000000000000000000000000000000000000000000003c000000000000000000000000bf42f398561644eb55a7269da0f937d0512c40c0000000000000000000000000000000000000000000000000000000000000003200000000000000000000000000000000000000000000000000000001000276a40000000000000000000000000000000000000000000000000000000069b67409",
        "nonce": "0x3fd",
        "chainId": "0x515"
      },
      "additionalContracts": [],
      "isFixedGasLimit": false
    },
    {
      "hash": "0x9b48f1cdb8549b2470021652dd32a8cf71098267d3564f633de27337071cab88",
      "transactionType": "CALL",
      "contractName": null,
      "contractAddress": "0xe56a90ad0deab20ee9fcd780b14ca90fc71d3f5d",
      "function": "executeNextSlice((bytes32,(address,address,uint24,int24,address),uint24,uint160,uint40))",
      "arguments": [
        "(0xd549bb81dc66bccbf9752dbf180b09c9edd51d9973fc40bde108f30bd66e7b36, (0x2881eF1Ea066b3199a3B2E3370cc37C715734773, 0x58E856eD31902b3D90Afa625FB8C8BEB5b5DF555, 3000, 60, 0xBF42f398561644Eb55A7269dA0F937D0512c40c0), 50, 4295128740, 1773564937)"
      ],
      "transaction": {
        "from": "0x4b992f2fbf714c0fcbb23bac5130ace48cad00cd",
        "to": "0xe56a90ad0deab20ee9fcd780b14ca90fc71d3f5d",
        "gas": "0x16d2d",
        "value": "0x0",
        "input": "0xdee73244d549bb81dc66bccbf9752dbf180b09c9edd51d9973fc40bde108f30bd66e7b360000000000000000000000002881ef1ea066b3199a3b2e3370cc37c71573477300000000000000000000000058e856ed31902b3d90afa625fb8c8beb5b5df5550000000000000000000000000000000000000000000000000000000000000bb8000000000000000000000000000000000000000000000000000000000000003c000000000000000000000000bf42f398561644eb55a7269da0f937d0512c40c0000000000000000000000000000000000000000000000000000000000000003200000000000000000000000000000000000000000000000000000001000276a40000000000000000000000000000000000000000000000000000000069b67409",
        "nonce": "0x3fe",
        "chainId": "0x515"
      },
      "additionalContracts": [],
      "isFixedGasLimit": false
    },
    {
      "hash": "0xa0bedc19486c23a1268a7e908d099d4af5342909bba2bbc9418eac60c9fc2ead",
      "transactionType": "CALL",
      "contractName": null,
      "contractAddress": "0xe56a90ad0deab20ee9fcd780b14ca90fc71d3f5d",
      "function": "executeNextSlice((bytes32,(address,address,uint24,int24,address),uint24,uint160,uint40))",
      "arguments": [
        "(0xd549bb81dc66bccbf9752dbf180b09c9edd51d9973fc40bde108f30bd66e7b36, (0x2881eF1Ea066b3199a3B2E3370cc37C715734773, 0x58E856eD31902b3D90Afa625FB8C8BEB5b5DF555, 3000, 60, 0xBF42f398561644Eb55A7269dA0F937D0512c40c0), 50, 4295128740, 1773564937)"
      ],
      "transaction": {
        "from": "0x4b992f2fbf714c0fcbb23bac5130ace48cad00cd",
        "to": "0xe56a90ad0deab20ee9fcd780b14ca90fc71d3f5d",
        "gas": "0x16d2d",
        "value": "0x0",
        "input": "0xdee73244d549bb81dc66bccbf9752dbf180b09c9edd51d9973fc40bde108f30bd66e7b360000000000000000000000002881ef1ea066b3199a3b2e3370cc37c71573477300000000000000000000000058e856ed31902b3d90afa625fb8c8beb5b5df5550000000000000000000000000000000000000000000000000000000000000bb8000000000000000000000000000000000000000000000000000000000000003c000000000000000000000000bf42f398561644eb55a7269da0f937d0512c40c0000000000000000000000000000000000000000000000000000000000000003200000000000000000000000000000000000000000000000000000001000276a40000000000000000000000000000000000000000000000000000000069b67409",
        "nonce": "0x3ff",
        "chainId": "0x515"
      },
      "additionalContracts": [],
      "isFixedGasLimit": false
    },
    {
      "hash": "0x6fa8fb81fd969db9f05a67a5a323dd9c286dcb1a89512b032c1869eb0d28ebb4",
      "transactionType": "CALL",
      "contractName": null,
      "contractAddress": "0xe56a90ad0deab20ee9fcd780b14ca90fc71d3f5d",
      "function": "executeNextSlice((bytes32,(address,address,uint24,int24,address),uint24,uint160,uint40))",
      "arguments": [
        "(0xd549bb81dc66bccbf9752dbf180b09c9edd51d9973fc40bde108f30bd66e7b36, (0x2881eF1Ea066b3199a3B2E3370cc37C715734773, 0x58E856eD31902b3D90Afa625FB8C8BEB5b5DF555, 3000, 60, 0xBF42f398561644Eb55A7269dA0F937D0512c40c0), 50, 4295128740, 1773564937)"
      ],
      "transaction": {
        "from": "0x4b992f2fbf714c0fcbb23bac5130ace48cad00cd",
        "to": "0xe56a90ad0deab20ee9fcd780b14ca90fc71d3f5d",
        "gas": "0x16d2d",
        "value": "0x0",
        "input": "0xdee73244d549bb81dc66bccbf9752dbf180b09c9edd51d9973fc40bde108f30bd66e7b360000000000000000000000002881ef1ea066b3199a3b2e3370cc37c71573477300000000000000000000000058e856ed31902b3d90afa625fb8c8beb5b5df5550000000000000000000000000000000000000000000000000000000000000bb8000000000000000000000000000000000000000000000000000000000000003c000000000000000000000000bf42f398561644eb55a7269da0f937d0512c40c0000000000000000000000000000000000000000000000000000000000000003200000000000000000000000000000000000000000000000000000001000276a40000000000000000000000000000000000000000000000000000000069b67409",
        "nonce": "0x400",
        "chainId": "0x515"
      },
      "additionalContracts": [],
      "isFixedGasLimit": false
    },
    {
      "hash": "0x9bc8bbbf43740b40ec572807d7da4272a0fca9aee1f5e8731abef86f45507f18",
      "transactionType": "CALL",
      "contractName": null,
      "contractAddress": "0xe56a90ad0deab20ee9fcd780b14ca90fc71d3f5d",
      "function": "executeNextSlice((bytes32,(address,address,uint24,int24,address),uint24,uint160,uint40))",
      "arguments": [
        "(0xd549bb81dc66bccbf9752dbf180b09c9edd51d9973fc40bde108f30bd66e7b36, (0x2881eF1Ea066b3199a3B2E3370cc37C715734773, 0x58E856eD31902b3D90Afa625FB8C8BEB5b5DF555, 3000, 60, 0xBF42f398561644Eb55A7269dA0F937D0512c40c0), 50, 4295128740, 1773564937)"
      ],
      "transaction": {
        "from": "0x4b992f2fbf714c0fcbb23bac5130ace48cad00cd",
        "to": "0xe56a90ad0deab20ee9fcd780b14ca90fc71d3f5d",
        "gas": "0x16d2d",
        "value": "0x0",
        "input": "0xdee73244d549bb81dc66bccbf9752dbf180b09c9edd51d9973fc40bde108f30bd66e7b360000000000000000000000002881ef1ea066b3199a3b2e3370cc37c71573477300000000000000000000000058e856ed31902b3d90afa625fb8c8beb5b5df5550000000000000000000000000000000000000000000000000000000000000bb8000000000000000000000000000000000000000000000000000000000000003c000000000000000000000000bf42f398561644eb55a7269da0f937d0512c40c0000000000000000000000000000000000000000000000000000000000000003200000000000000000000000000000000000000000000000000000001000276a40000000000000000000000000000000000000000000000000000000069b67409",
        "nonce": "0x401",
        "chainId": "0x515"
      },
      "additionalContracts": [],
      "isFixedGasLimit": false
    },
    {
      "hash": "0x549305161c9327e9fc09b5e701e1072cb03ca4b067aeb936c5df6a7329662608",
      "transactionType": "CALL",
      "contractName": null,
      "contractAddress": "0xe56a90ad0deab20ee9fcd780b14ca90fc71d3f5d",
      "function": "executeNextSlice((bytes32,(address,address,uint24,int24,address),uint24,uint160,uint40))",
      "arguments": [
        "(0xd549bb81dc66bccbf9752dbf180b09c9edd51d9973fc40bde108f30bd66e7b36, (0x2881eF1Ea066b3199a3B2E3370cc37C715734773, 0x58E856eD31902b3D90Afa625FB8C8BEB5b5DF555, 3000, 60, 0xBF42f398561644Eb55A7269dA0F937D0512c40c0), 50, 4295128740, 1773564937)"
      ],
      "transaction": {
        "from": "0x4b992f2fbf714c0fcbb23bac5130ace48cad00cd",
        "to": "0xe56a90ad0deab20ee9fcd780b14ca90fc71d3f5d",
        "gas": "0x16d2d",
        "value": "0x0",
        "input": "0xdee73244d549bb81dc66bccbf9752dbf180b09c9edd51d9973fc40bde108f30bd66e7b360000000000000000000000002881ef1ea066b3199a3b2e3370cc37c71573477300000000000000000000000058e856ed31902b3d90afa625fb8c8beb5b5df5550000000000000000000000000000000000000000000000000000000000000bb8000000000000000000000000000000000000000000000000000000000000003c000000000000000000000000bf42f398561644eb55a7269da0f937d0512c40c0000000000000000000000000000000000000000000000000000000000000003200000000000000000000000000000000000000000000000000000001000276a40000000000000000000000000000000000000000000000000000000069b67409",
        "nonce": "0x402",
        "chainId": "0x515"
      },
      "additionalContracts": [],
      "isFixedGasLimit": false
    }
  ],
  "receipts": [
    {
      "status": "0x1",
      "cumulativeGasUsed": "0x1a5a58",
      "logs": [],
      "logsBloom": "0x00000000000000000000000000000000000000000000000000000000000000000000000000000000000000000000000000000000000000000000000000000000000000000000000000000000000000000000000000000000000000000000000000000000000000000000000000000000000000000000000000000000000000000000000000000000000000000000000000000000000000000000000000000000000000000000000000000000000000000000000000000000000000000000000000000000000000000000000000000000000000000000000000000000000000000000000000000000000000000000000000000000000000000000000000000000",
      "type": "0x2",
      "transactionHash": "0xd72b4e7dc1c778ef317d26ad403a138a960ba9db7c6bcaf622f035ac9b2716ae",
      "transactionIndex": "0x7",
      "blockHash": "0x5bc8ca58d8b5618cf3b4332a176b42b8baa1205a412f2eccb048011ff626376b",
      "blockNumber": "0x2c8c47f",
      "gasUsed": "0xb4669",
      "effectiveGasPrice": "0x7a121",
      "blobGasUsed": "0xeff10",
      "from": "0x4b992f2fbf714c0fcbb23bac5130ace48cad00cd",
      "to": null,
      "contractAddress": "0x58e856ed31902b3d90afa625fb8c8beb5b5df555",
      "daFootprintGasScalar": "0x190",
      "l1BaseFeeScalar": "0x7d0",
      "l1BlobBaseFee": "0x1",
      "l1BlobBaseFeeScalar": "0xdbba0",
      "l1Fee": "0xb67",
      "l1GasPrice": "0x9",
      "l1GasUsed": "0x999b"
    },
    {
      "status": "0x1",
      "cumulativeGasUsed": "0xdc061",
      "logs": [],
      "logsBloom": "0x00000000000000000000000000000000000000000000000000000000000000000000000000000000000000000000000000000000000000000000000000000000000000000000000000000000000000000000000000000000000000000000000000000000000000000000000000000000000000000000000000000000000000000000000000000000000000000000000000000000000000000000000000000000000000000000000000000000000000000000000000000000000000000000000000000000000000000000000000000000000000000000000000000000000000000000000000000000000000000000000000000000000000000000000000000000",
      "type": "0x2",
      "transactionHash": "0xea80fa53a34700ec09f6a87ce8db21d15a269a5dd2ee8515462e1ce8c0977059",
      "transactionIndex": "0x3",
      "blockHash": "0x15f02cdf0f36923fe9b9dc28a7340d3cdb11cc3ef987e9955c7b38b80c1482bb",
      "blockNumber": "0x2c8c480",
      "gasUsed": "0xb4669",
      "effectiveGasPrice": "0x7a121",
      "blobGasUsed": "0xeff10",
      "from": "0x4b992f2fbf714c0fcbb23bac5130ace48cad00cd",
      "to": null,
      "contractAddress": "0x2881ef1ea066b3199a3b2e3370cc37c715734773",
      "daFootprintGasScalar": "0x190",
      "l1BaseFeeScalar": "0x7d0",
      "l1BlobBaseFee": "0x1",
      "l1BlobBaseFeeScalar": "0xdbba0",
      "l1Fee": "0xb67",
      "l1GasPrice": "0x9",
      "l1GasUsed": "0x999b"
    },
    {
      "status": "0x1",
      "cumulativeGasUsed": "0xecb64",
      "logs": [
        {
          "address": "0x2881ef1ea066b3199a3b2e3370cc37c715734773",
          "topics": [
            "0xddf252ad1be2c89b69c2b068fc378daa952ba7f163c4a11628f55a4df523b3ef",
            "0x0000000000000000000000000000000000000000000000000000000000000000",
            "0x0000000000000000000000004b992f2fbf714c0fcbb23bac5130ace48cad00cd"
          ],
          "data": "0x000000000000000000000000000000000000007e37be2022c0914b2680000000",
          "blockHash": "0x15f02cdf0f36923fe9b9dc28a7340d3cdb11cc3ef987e9955c7b38b80c1482bb",
          "blockNumber": "0x2c8c480",
          "blockTimestamp": "0x69b671cc",
          "transactionHash": "0x2ae5037a4d7e0ca14f0195ea061d1c0c7e40c5dad092e28a4fbd8903d637e52b",
          "transactionIndex": "0x4",
          "logIndex": "0x1",
          "removed": false
        }
      ],
      "logsBloom": "0x00000000000000000000000000000000000000000000000000000008000000000000000000000000000000000000000000000002000000000000000000000000000000000000000000000008002000000000000000000000000100000000000000000000020000000000000080020800000000000000000000000010000000000000000000000000000000000000000000000000000000000000000000000000000000000000000000000000000000000000000000000000000000000000000000000002000000000000000000000000000000000000000000000000000020000000000000000000000000000000000000000000000000000000000000000000",
      "type": "0x2",
      "transactionHash": "0x2ae5037a4d7e0ca14f0195ea061d1c0c7e40c5dad092e28a4fbd8903d637e52b",
      "transactionIndex": "0x4",
      "blockHash": "0x15f02cdf0f36923fe9b9dc28a7340d3cdb11cc3ef987e9955c7b38b80c1482bb",
      "blockNumber": "0x2c8c480",
      "gasUsed": "0x10b03",
      "effectiveGasPrice": "0x7a121",
      "blobGasUsed": "0x9c40",
      "from": "0x4b992f2fbf714c0fcbb23bac5130ace48cad00cd",
      "to": "0x2881ef1ea066b3199a3b2e3370cc37c715734773",
      "contractAddress": null,
      "daFootprintGasScalar": "0x190",
      "l1BaseFeeScalar": "0x7d0",
      "l1BlobBaseFee": "0x1",
      "l1BlobBaseFeeScalar": "0xdbba0",
      "l1Fee": "0x76",
      "l1GasPrice": "0x9",
      "l1GasUsed": "0x640"
    },
    {
      "status": "0x1",
      "cumulativeGasUsed": "0xfd667",
      "logs": [
        {
          "address": "0x58e856ed31902b3d90afa625fb8c8beb5b5df555",
          "topics": [
            "0xddf252ad1be2c89b69c2b068fc378daa952ba7f163c4a11628f55a4df523b3ef",
            "0x0000000000000000000000000000000000000000000000000000000000000000",
            "0x0000000000000000000000004b992f2fbf714c0fcbb23bac5130ace48cad00cd"
          ],
          "data": "0x000000000000000000000000000000000000007e37be2022c0914b2680000000",
          "blockHash": "0x15f02cdf0f36923fe9b9dc28a7340d3cdb11cc3ef987e9955c7b38b80c1482bb",
          "blockNumber": "0x2c8c480",
          "blockTimestamp": "0x69b671cc",
          "transactionHash": "0x9b764f2f4db923e28d68585db40d656b0e015b1c902f3ad475ec8aab0336cdf4",
          "transactionIndex": "0x5",
          "logIndex": "0x2",
          "removed": false
        }
      ],
      "logsBloom": "0x00000000000000000000000000000000000000000000000000000000000000000000000000000000000000000000000000000002000000000000000000000000000000000000000000000008004000000000000000000000000100000000000000000000020000000000000000020800000000000000000000000010000000000000080000000000000000000000000000000000000000000000000000000000000000000000000000000000000000000000000000000000000000000000000000000002000000000000000000000000000000000000000000000000000020000000000000000000000000000000000004000000000000000000000000000000",
      "type": "0x2",
      "transactionHash": "0x9b764f2f4db923e28d68585db40d656b0e015b1c902f3ad475ec8aab0336cdf4",
      "transactionIndex": "0x5",
      "blockHash": "0x15f02cdf0f36923fe9b9dc28a7340d3cdb11cc3ef987e9955c7b38b80c1482bb",
      "blockNumber": "0x2c8c480",
      "gasUsed": "0x10b03",
      "effectiveGasPrice": "0x7a121",
      "blobGasUsed": "0x9c40",
      "from": "0x4b992f2fbf714c0fcbb23bac5130ace48cad00cd",
      "to": "0x58e856ed31902b3d90afa625fb8c8beb5b5df555",
      "contractAddress": null,
      "daFootprintGasScalar": "0x190",
      "l1BaseFeeScalar": "0x7d0",
      "l1BlobBaseFee": "0x1",
      "l1BlobBaseFeeScalar": "0xdbba0",
      "l1Fee": "0x76",
      "l1GasPrice": "0x9",
      "l1GasUsed": "0x640"
    },
    {
      "status": "0x1",
      "cumulativeGasUsed": "0x108bc1",
      "logs": [
        {
          "address": "0x2881ef1ea066b3199a3b2e3370cc37c715734773",
          "topics": [
            "0x8c5be1e5ebec7d5bd14f71427d1e84f3dd0314c0f7b2291e5b200ac8c7c3b925",
            "0x0000000000000000000000004b992f2fbf714c0fcbb23bac5130ace48cad00cd",
            "0x000000000000000000000000000000000022d473030f116ddee9f6b43ac78ba3"
          ],
          "data": "0xffffffffffffffffffffffffffffffffffffffffffffffffffffffffffffffff",
          "blockHash": "0x15f02cdf0f36923fe9b9dc28a7340d3cdb11cc3ef987e9955c7b38b80c1482bb",
          "blockNumber": "0x2c8c480",
          "blockTimestamp": "0x69b671cc",
          "transactionHash": "0xd77b23e5d17b6f7837e2ecbb6a97b08cec44ffc628233bb5bfbc4a819977de64",
          "transactionIndex": "0x6",
          "logIndex": "0x3",
          "removed": false
        }
      ],
      "logsBloom": "0x00000000000000000000000000000000000000000000000000000008000000000000000000000000000000000000000000000002800000000000000000200000000000000000000000004000002000000000000000000800000100000000000000000000000000000000000080020000000000000000000000000000000000000000000000000000000000000000000000000000000000000000000000000000020000000000000000000000000000000000000000000000000000000000000000000000000000000000000000000000000000000000000000000000000000000010000000000000000000000000000000000000000000000000000000000000",
      "type": "0x2",
      "transactionHash": "0xd77b23e5d17b6f7837e2ecbb6a97b08cec44ffc628233bb5bfbc4a819977de64",
      "transactionIndex": "0x6",
      "blockHash": "0x15f02cdf0f36923fe9b9dc28a7340d3cdb11cc3ef987e9955c7b38b80c1482bb",
      "blockNumber": "0x2c8c480",
      "gasUsed": "0xb55a",
      "effectiveGasPrice": "0x7a121",
      "blobGasUsed": "0x9c40",
      "from": "0x4b992f2fbf714c0fcbb23bac5130ace48cad00cd",
      "to": "0x2881ef1ea066b3199a3b2e3370cc37c715734773",
      "contractAddress": null,
      "daFootprintGasScalar": "0x190",
      "l1BaseFeeScalar": "0x7d0",
      "l1BlobBaseFee": "0x1",
      "l1BlobBaseFeeScalar": "0xdbba0",
      "l1Fee": "0x76",
      "l1GasPrice": "0x9",
      "l1GasUsed": "0x640"
    },
    {
      "status": "0x1",
      "cumulativeGasUsed": "0x11411b",
      "logs": [
        {
          "address": "0x58e856ed31902b3d90afa625fb8c8beb5b5df555",
          "topics": [
            "0x8c5be1e5ebec7d5bd14f71427d1e84f3dd0314c0f7b2291e5b200ac8c7c3b925",
            "0x0000000000000000000000004b992f2fbf714c0fcbb23bac5130ace48cad00cd",
            "0x000000000000000000000000000000000022d473030f116ddee9f6b43ac78ba3"
          ],
          "data": "0xffffffffffffffffffffffffffffffffffffffffffffffffffffffffffffffff",
          "blockHash": "0x15f02cdf0f36923fe9b9dc28a7340d3cdb11cc3ef987e9955c7b38b80c1482bb",
          "blockNumber": "0x2c8c480",
          "blockTimestamp": "0x69b671cc",
          "transactionHash": "0x745c1cd68a6b032d7281c34108959f92f3c27302dd831d21c158665b3785b713",
          "transactionIndex": "0x7",
          "logIndex": "0x4",
          "removed": false
        }
      ],
      "logsBloom": "0x00000000000000000000000000000000000000000000000000000000000000000000000000000000000000000000000000000002800000000000000000200000000000000000000000004000004000000000000000000800000100000000000000000000000000000000000000020000000000000000000000000000000000000000080000000000000000000000000000000000000000000000000000000000020000000000000000000000000000000000000000000000000000000000000000000000000000000000000000000000000000000000000000000000000000000010000000000000000000000000000004000000000000000000000000000000",
      "type": "0x2",
      "transactionHash": "0x745c1cd68a6b032d7281c34108959f92f3c27302dd831d21c158665b3785b713",
      "transactionIndex": "0x7",
      "blockHash": "0x15f02cdf0f36923fe9b9dc28a7340d3cdb11cc3ef987e9955c7b38b80c1482bb",
      "blockNumber": "0x2c8c480",
      "gasUsed": "0xb55a",
      "effectiveGasPrice": "0x7a121",
      "blobGasUsed": "0x9c40",
      "from": "0x4b992f2fbf714c0fcbb23bac5130ace48cad00cd",
      "to": "0x58e856ed31902b3d90afa625fb8c8beb5b5df555",
      "contractAddress": null,
      "daFootprintGasScalar": "0x190",
      "l1BaseFeeScalar": "0x7d0",
      "l1BlobBaseFee": "0x1",
      "l1BlobBaseFeeScalar": "0xdbba0",
      "l1Fee": "0x76",
      "l1GasPrice": "0x9",
      "l1GasUsed": "0x640"
    },
    {
      "status": "0x1",
      "cumulativeGasUsed": "0x11f6b1",
      "logs": [
        {
          "address": "0x2881ef1ea066b3199a3b2e3370cc37c715734773",
          "topics": [
            "0x8c5be1e5ebec7d5bd14f71427d1e84f3dd0314c0f7b2291e5b200ac8c7c3b925",
            "0x0000000000000000000000004b992f2fbf714c0fcbb23bac5130ace48cad00cd",
            "0x000000000000000000000000f969aee60879c54baaed9f3ed26147db216fd664"
          ],
          "data": "0xffffffffffffffffffffffffffffffffffffffffffffffffffffffffffffffff",
          "blockHash": "0x15f02cdf0f36923fe9b9dc28a7340d3cdb11cc3ef987e9955c7b38b80c1482bb",
          "blockNumber": "0x2c8c480",
          "blockTimestamp": "0x69b671cc",
          "transactionHash": "0x0a248d1c182264c0fce439d26df5eaf85fa6d9556e22d5c81f1c3ddd20c46b90",
          "transactionIndex": "0x8",
          "logIndex": "0x5",
          "removed": false
        }
      ],
      "logsBloom": "0x00000000000000000000000000000000000000000000000000000008000000000000000000000000000000000000000000000002000000000000000000200000000000000000000000000000002000000000000000000000000100001000000000000000000000000000000080020000000000000040000000000000000000000000000000000000000000000000000000000000000000000000000000000000020000000000000000000000000000000000000000000000000000000000000000000000000000000000000000000000000000000000000000000000000000000010000000000000000000000000000000000000000000000000000000002000",
      "type": "0x2",
      "transactionHash": "0x0a248d1c182264c0fce439d26df5eaf85fa6d9556e22d5c81f1c3ddd20c46b90",
      "transactionIndex": "0x8",
      "blockHash": "0x15f02cdf0f36923fe9b9dc28a7340d3cdb11cc3ef987e9955c7b38b80c1482bb",
      "blockNumber": "0x2c8c480",
      "gasUsed": "0xb596",
      "effectiveGasPrice": "0x7a121",
      "blobGasUsed": "0x9c40",
      "from": "0x4b992f2fbf714c0fcbb23bac5130ace48cad00cd",
      "to": "0x2881ef1ea066b3199a3b2e3370cc37c715734773",
      "contractAddress": null,
      "daFootprintGasScalar": "0x190",
      "l1BaseFeeScalar": "0x7d0",
      "l1BlobBaseFee": "0x1",
      "l1BlobBaseFeeScalar": "0xdbba0",
      "l1Fee": "0x76",
      "l1GasPrice": "0x9",
      "l1GasUsed": "0x640"
    },
    {
      "status": "0x1",
      "cumulativeGasUsed": "0x12ac47",
      "logs": [
        {
          "address": "0x58e856ed31902b3d90afa625fb8c8beb5b5df555",
          "topics": [
            "0x8c5be1e5ebec7d5bd14f71427d1e84f3dd0314c0f7b2291e5b200ac8c7c3b925",
            "0x0000000000000000000000004b992f2fbf714c0fcbb23bac5130ace48cad00cd",
            "0x000000000000000000000000f969aee60879c54baaed9f3ed26147db216fd664"
          ],
          "data": "0xffffffffffffffffffffffffffffffffffffffffffffffffffffffffffffffff",
          "blockHash": "0x15f02cdf0f36923fe9b9dc28a7340d3cdb11cc3ef987e9955c7b38b80c1482bb",
          "blockNumber": "0x2c8c480",
          "blockTimestamp": "0x69b671cc",
          "transactionHash": "0xf7a862047a30f593e10d985d9f9b02083b123c84eb29ec9a2b4b303bb3b703a9",
          "transactionIndex": "0x9",
          "logIndex": "0x6",
          "removed": false
        }
      ],
      "logsBloom": "0x00000000000000000000000000000000000000000000000000000000000000000000000000000000000000000000000000000002000000000000000000200000000000000000000000000000004000000000000000000000000100001000000000000000000000000000000000020000000000000040000000000000000000000000080000000000000000000000000000000000000000000000000000000000020000000000000000000000000000000000000000000000000000000000000000000000000000000000000000000000000000000000000000000000000000000010000000000000000000000000000004000000000000000000000000002000",
      "type": "0x2",
      "transactionHash": "0xf7a862047a30f593e10d985d9f9b02083b123c84eb29ec9a2b4b303bb3b703a9",
      "transactionIndex": "0x9",
      "blockHash": "0x15f02cdf0f36923fe9b9dc28a7340d3cdb11cc3ef987e9955c7b38b80c1482bb",
      "blockNumber": "0x2c8c480",
      "gasUsed": "0xb596",
      "effectiveGasPrice": "0x7a121",
      "blobGasUsed": "0x9c40",
      "from": "0x4b992f2fbf714c0fcbb23bac5130ace48cad00cd",
      "to": "0x58e856ed31902b3d90afa625fb8c8beb5b5df555",
      "contractAddress": null,
      "daFootprintGasScalar": "0x190",
      "l1BaseFeeScalar": "0x7d0",
      "l1BlobBaseFee": "0x1",
      "l1BlobBaseFeeScalar": "0xdbba0",
      "l1Fee": "0x76",
      "l1GasPrice": "0x9",
      "l1GasUsed": "0x640"
    },
    {
      "status": "0x1",
      "cumulativeGasUsed": "0x14d743",
      "logs": [
        {
          "address": "0x000000000022d473030f116ddee9f6b43ac78ba3",
          "topics": [
            "0xda9fa7c1b00402c17d0161b249b1ab8bbec047c5a52207b9c112deffd817036b",
            "0x0000000000000000000000004b992f2fbf714c0fcbb23bac5130ace48cad00cd",
            "0x0000000000000000000000002881ef1ea066b3199a3b2e3370cc37c715734773",
            "0x000000000000000000000000f969aee60879c54baaed9f3ed26147db216fd664"
          ],
          "data": "0x000000000000000000000000ffffffffffffffffffffffffffffffffffffffff0000000000000000000000000000000000000000000000000000ffffffffffff",
          "blockHash": "0x15f02cdf0f36923fe9b9dc28a7340d3cdb11cc3ef987e9955c7b38b80c1482bb",
          "blockNumber": "0x2c8c480",
          "blockTimestamp": "0x69b671cc",
          "transactionHash": "0x44426ecfd53484a1f8360a6f9a59a7106bbea077943a41063787f7797acf798e",
          "transactionIndex": "0xb",
          "logIndex": "0x8",
          "removed": false
        }
      ],
      "logsBloom": "0x00010000000000000000000000000000000000000000000000000000000000000000000000000000000000000000000000000002000000000000000000080000000000000000000000000000000000000000000000000000000100001000000000008000000000000000000000020000000000000040000000000000000000000020000000000000000000000000000000000000000000000008000000000000001000000000000000000000000000000000000000000000000000080000000000000000000000000000000000000000000000000000000040000000000000000000000000000000000000000000000000000000000000000000000000002400",
      "type": "0x2",
      "transactionHash": "0x44426ecfd53484a1f8360a6f9a59a7106bbea077943a41063787f7797acf798e",
      "transactionIndex": "0xb",
      "blockHash": "0x15f02cdf0f36923fe9b9dc28a7340d3cdb11cc3ef987e9955c7b38b80c1482bb",
      "blockNumber": "0x2c8c480",
      "gasUsed": "0xbaca",
      "effectiveGasPrice": "0x7a121",
      "blobGasUsed": "0xabe0",
      "from": "0x4b992f2fbf714c0fcbb23bac5130ace48cad00cd",
      "to": "0x000000000022d473030f116ddee9f6b43ac78ba3",
      "contractAddress": null,
      "daFootprintGasScalar": "0x190",
      "l1BaseFeeScalar": "0x7d0",
      "l1BlobBaseFee": "0x1",
      "l1BlobBaseFeeScalar": "0xdbba0",
      "l1Fee": "0x83",
      "l1GasPrice": "0x9",
      "l1GasUsed": "0x6e7"
    },
    {
      "status": "0x1",
      "cumulativeGasUsed": "0x15920d",
      "logs": [
        {
          "address": "0x000000000022d473030f116ddee9f6b43ac78ba3",
          "topics": [
            "0xda9fa7c1b00402c17d0161b249b1ab8bbec047c5a52207b9c112deffd817036b",
            "0x0000000000000000000000004b992f2fbf714c0fcbb23bac5130ace48cad00cd",
            "0x00000000000000000000000058e856ed31902b3d90afa625fb8c8beb5b5df555",
            "0x000000000000000000000000f969aee60879c54baaed9f3ed26147db216fd664"
          ],
          "data": "0x000000000000000000000000ffffffffffffffffffffffffffffffffffffffff0000000000000000000000000000000000000000000000000000ffffffffffff",
          "blockHash": "0x15f02cdf0f36923fe9b9dc28a7340d3cdb11cc3ef987e9955c7b38b80c1482bb",
          "blockNumber": "0x2c8c480",
          "blockTimestamp": "0x69b671cc",
          "transactionHash": "0x07095d4b5de215b15a0b301c786921fa2d1247e8a207ea7908d47a074dc9ac89",
          "transactionIndex": "0xc",
          "logIndex": "0x9",
          "removed": false
        }
      ],
      "logsBloom": "0x00010000000000000000000000000000000000000000000000000000000000000000000000000000002000000000000000000002000000000000000000080000000000000000000000000000000000080000000000000000000100001000000000000000000000000000000000020000000000000040000000000000000000000020000000000000000000000000000000000000000000000000000000000000000000000000000000000000000000000000000000000000000000080000000000000000000000000000000000000000000000080000000040000000000000000000000000000000000000000000000000000000000000000000000000002400",
      "type": "0x2",
      "transactionHash": "0x07095d4b5de215b15a0b301c786921fa2d1247e8a207ea7908d47a074dc9ac89",
      "transactionIndex": "0xc",
      "blockHash": "0x15f02cdf0f36923fe9b9dc28a7340d3cdb11cc3ef987e9955c7b38b80c1482bb",
      "blockNumber": "0x2c8c480",
      "gasUsed": "0xbaca",
      "effectiveGasPrice": "0x7a121",
      "blobGasUsed": "0xabe0",
      "from": "0x4b992f2fbf714c0fcbb23bac5130ace48cad00cd",
      "to": "0x000000000022d473030f116ddee9f6b43ac78ba3",
      "contractAddress": null,
      "daFootprintGasScalar": "0x190",
      "l1BaseFeeScalar": "0x7d0",
      "l1BlobBaseFee": "0x1",
      "l1BlobBaseFeeScalar": "0xdbba0",
      "l1Fee": "0x83",
      "l1GasPrice": "0x9",
      "l1GasUsed": "0x6e7"
    },
    {
      "status": "0x1",
      "cumulativeGasUsed": "0x166d24",
      "logs": [
        {
          "address": "0x00b036b58a818b1bc34d502d3fe730db729e62ac",
          "topics": [
            "0xdd466e674ea557f56295e2d0218a125ea4b4f0f6f3307b95f85e6110838d6438",
            "0x21db916849d12ca72dfe2f77650921fe80c0bca02b60539c31e4034ebc3bb5f3",
            "0x0000000000000000000000002881ef1ea066b3199a3b2e3370cc37c715734773",
            "0x00000000000000000000000058e856ed31902b3d90afa625fb8c8beb5b5df555"
          ],
          "data": "0x0000000000000000000000000000000000000000000000000000000000000bb8000000000000000000000000000000000000000000000000000000000000003c000000000000000000000000000000000000000000000000000000000000000000000000000000000000000000000000000000010000000000000000000000000000000000000000000000000000000000000000000000000000000000000000",
          "blockHash": "0x15f02cdf0f36923fe9b9dc28a7340d3cdb11cc3ef987e9955c7b38b80c1482bb",
          "blockNumber": "0x2c8c480",
          "blockTimestamp": "0x69b671cc",
          "transactionHash": "0x4c285d4695956eef23ac04d20fdb64b4eae00ed19ed600e7663aa07156a1c984",
          "transactionIndex": "0xd",
          "logIndex": "0xa",
          "removed": false
        }
      ],
      "logsBloom": "0x00000000000000000000000000000000000000000000000000000000000000000800000000000000002000000000000000000000000000100000000000000000000000000000000000000000000000080000000000000000004000000000000000008000000000000000000000000000000000000000000000000000000000000000000000000008000000000008000000000001000000000008000000200000001000000000000000000000000000000000000000000000000000000000000000000000000000000000000000000000000000080000000000000000000000000000000000000000000000000000000000000000000002000000000000000010",
      "type": "0x2",
      "transactionHash": "0x4c285d4695956eef23ac04d20fdb64b4eae00ed19ed600e7663aa07156a1c984",
      "transactionIndex": "0xd",
      "blockHash": "0x15f02cdf0f36923fe9b9dc28a7340d3cdb11cc3ef987e9955c7b38b80c1482bb",
      "blockNumber": "0x2c8c480",
      "gasUsed": "0xdb17",
      "effectiveGasPrice": "0x7a121",
      "blobGasUsed": "0xbb80",
      "from": "0x4b992f2fbf714c0fcbb23bac5130ace48cad00cd",
      "to": "0xf969aee60879c54baaed9f3ed26147db216fd664",
      "contractAddress": null,
      "daFootprintGasScalar": "0x190",
      "l1BaseFeeScalar": "0x7d0",
      "l1BlobBaseFee": "0x1",
      "l1BlobBaseFeeScalar": "0xdbba0",
      "l1Fee": "0x8f",
      "l1GasPrice": "0x9",
      "l1GasUsed": "0x788"
    },
    {
      "status": "0x1",
      "cumulativeGasUsed": "0x1cbc09",
      "logs": [
        {
          "address": "0xf969aee60879c54baaed9f3ed26147db216fd664",
          "topics": [
            "0xddf252ad1be2c89b69c2b068fc378daa952ba7f163c4a11628f55a4df523b3ef",
            "0x0000000000000000000000000000000000000000000000000000000000000000",
            "0x0000000000000000000000004b992f2fbf714c0fcbb23bac5130ace48cad00cd",
            "0x0000000000000000000000000000000000000000000000000000000000001c11"
          ],
          "data": "0x",
          "blockHash": "0x15f02cdf0f36923fe9b9dc28a7340d3cdb11cc3ef987e9955c7b38b80c1482bb",
          "blockNumber": "0x2c8c480",
          "blockTimestamp": "0x69b671cc",
          "transactionHash": "0x380db6acca50c48d523ab6e3fab32582e23c25e0abe9229a868bea3279f9781f",
          "transactionIndex": "0xe",
          "logIndex": "0xb",
          "removed": false
        },
        {
          "address": "0x00b036b58a818b1bc34d502d3fe730db729e62ac",
          "topics": [
            "0xf208f4912782fd25c7f114ca3723a2d5dd6f3bcc3ac8db5af63baa85f711d5ec",
            "0x21db916849d12ca72dfe2f77650921fe80c0bca02b60539c31e4034ebc3bb5f3",
            "0x000000000000000000000000f969aee60879c54baaed9f3ed26147db216fd664"
          ],
          "data": "0xfffffffffffffffffffffffffffffffffffffffffffffffffffffffffff2764c00000000000000000000000000000000000000000000000000000000000d89b400000000000000000000000000000000000000000000d3c21bcecceda10000000000000000000000000000000000000000000000000000000000000000001c11",
          "blockHash": "0x15f02cdf0f36923fe9b9dc28a7340d3cdb11cc3ef987e9955c7b38b80c1482bb",
          "blockNumber": "0x2c8c480",
          "blockTimestamp": "0x69b671cc",
          "transactionHash": "0x380db6acca50c48d523ab6e3fab32582e23c25e0abe9229a868bea3279f9781f",
          "transactionIndex": "0xe",
          "logIndex": "0xc",
          "removed": false
        },
        {
          "address": "0x2881ef1ea066b3199a3b2e3370cc37c715734773",
          "topics": [
            "0xddf252ad1be2c89b69c2b068fc378daa952ba7f163c4a11628f55a4df523b3ef",
            "0x0000000000000000000000004b992f2fbf714c0fcbb23bac5130ace48cad00cd",
            "0x00000000000000000000000000b036b58a818b1bc34d502d3fe730db729e62ac"
          ],
          "data": "0x00000000000000000000000000000000000000000000d3c21bcecceda0ff2baf",
          "blockHash": "0x15f02cdf0f36923fe9b9dc28a7340d3cdb11cc3ef987e9955c7b38b80c1482bb",
          "blockNumber": "0x2c8c480",
          "blockTimestamp": "0x69b671cc",
          "transactionHash": "0x380db6acca50c48d523ab6e3fab32582e23c25e0abe9229a868bea3279f9781f",
          "transactionIndex": "0xe",
          "logIndex": "0xd",
          "removed": false
        },
        {
          "address": "0x58e856ed31902b3d90afa625fb8c8beb5b5df555",
          "topics": [
            "0xddf252ad1be2c89b69c2b068fc378daa952ba7f163c4a11628f55a4df523b3ef",
            "0x0000000000000000000000004b992f2fbf714c0fcbb23bac5130ace48cad00cd",
            "0x00000000000000000000000000b036b58a818b1bc34d502d3fe730db729e62ac"
          ],
          "data": "0x00000000000000000000000000000000000000000000d3c21bcecceda0ff2baf",
          "blockHash": "0x15f02cdf0f36923fe9b9dc28a7340d3cdb11cc3ef987e9955c7b38b80c1482bb",
          "blockNumber": "0x2c8c480",
          "blockTimestamp": "0x69b671cc",
          "transactionHash": "0x380db6acca50c48d523ab6e3fab32582e23c25e0abe9229a868bea3279f9781f",
          "transactionIndex": "0xe",
          "logIndex": "0xe",
          "removed": false
        }
      ],
      "logsBloom": "0x00000000000000000000000000000000000000000000000000000008000000000800000000000000000000000000000000000002001000100000000000000000000000000000000000000008006000000000000000000000004100001000000000000000020000000000000080024800000000000040000000000010000000000000080001000000000000000008000000000000000000000000000000000000000004000000000000000000000000000800000000000020000000000000000000000002080000000000000200000000000000000000000000000000000020004000000000000000004000000000001004000000000002000000000000002010",
      "type": "0x2",
      "transactionHash": "0x380db6acca50c48d523ab6e3fab32582e23c25e0abe9229a868bea3279f9781f",
      "transactionIndex": "0xe",
      "blockHash": "0x15f02cdf0f36923fe9b9dc28a7340d3cdb11cc3ef987e9955c7b38b80c1482bb",
      "blockNumber": "0x2c8c480",
      "gasUsed": "0x64ee5",
      "effectiveGasPrice": "0x7a121",
      "blobGasUsed": "0x1aa90",
      "from": "0x4b992f2fbf714c0fcbb23bac5130ace48cad00cd",
      "to": "0xf969aee60879c54baaed9f3ed26147db216fd664",
      "contractAddress": null,
      "daFootprintGasScalar": "0x190",
      "l1BaseFeeScalar": "0x7d0",
      "l1BlobBaseFee": "0x1",
      "l1BlobBaseFeeScalar": "0xdbba0",
      "l1Fee": "0x145",
      "l1GasPrice": "0x9",
      "l1GasUsed": "0x1119"
    },
    {
      "status": "0x1",
      "cumulativeGasUsed": "0x1d97ea",
      "logs": [
        {
          "address": "0x00b036b58a818b1bc34d502d3fe730db729e62ac",
          "topics": [
            "0xdd466e674ea557f56295e2d0218a125ea4b4f0f6f3307b95f85e6110838d6438",
            "0xc4cd1faa6b5f8b853624804c516eddb4bbd8408d1e9f828fef3c67e9e724c164",
            "0x0000000000000000000000002881ef1ea066b3199a3b2e3370cc37c715734773",
            "0x00000000000000000000000058e856ed31902b3d90afa625fb8c8beb5b5df555"
          ],
          "data": "0x0000000000000000000000000000000000000000000000000000000000000bb8000000000000000000000000000000000000000000000000000000000000003c000000000000000000000000bf42f398561644eb55a7269da0f937d0512c40c000000000000000000000000000000000000000010000000000000000000000000000000000000000000000000000000000000000000000000000000000000000",
          "blockHash": "0x15f02cdf0f36923fe9b9dc28a7340d3cdb11cc3ef987e9955c7b38b80c1482bb",
          "blockNumber": "0x2c8c480",
          "blockTimestamp": "0x69b671cc",
          "transactionHash": "0xabccc41d377a7ae266f88eb141680c34bcd48e528b40e87880efbec8b6ed02df",
          "transactionIndex": "0xf",
          "logIndex": "0xf",
          "removed": false
        }
      ],
      "logsBloom": "0x00000000000000000000000000000000000000000000000000000000000000000000000000000000002000000000000000000000000000000000000000080000000000000000000000000000000000080000000000000000000000000000000000008000000000000000000000000000000000000000000000000000000000000000000000000008000000000008000000000001000000000008000000200000005000000000000000000100000000000000000000000000000000000000000000000000000000000000000000000000000000080000000000000000000000000000000000000000000000000000000000000000000002000000000000000010",
      "type": "0x2",
      "transactionHash": "0xabccc41d377a7ae266f88eb141680c34bcd48e528b40e87880efbec8b6ed02df",
      "transactionIndex": "0xf",
      "blockHash": "0x15f02cdf0f36923fe9b9dc28a7340d3cdb11cc3ef987e9955c7b38b80c1482bb",
      "blockNumber": "0x2c8c480",
      "gasUsed": "0xdbe1",
      "effectiveGasPrice": "0x7a121",
      "blobGasUsed": "0xdde0",
      "from": "0x4b992f2fbf714c0fcbb23bac5130ace48cad00cd",
      "to": "0xf969aee60879c54baaed9f3ed26147db216fd664",
      "contractAddress": null,
      "daFootprintGasScalar": "0x190",
      "l1BaseFeeScalar": "0x7d0",
      "l1BlobBaseFee": "0x1",
      "l1BlobBaseFeeScalar": "0xdbba0",
      "l1Fee": "0xa9",
      "l1GasPrice": "0x9",
      "l1GasUsed": "0x8e4"
    },
    {
      "status": "0x1",
      "cumulativeGasUsed": "0x23afe3",
      "logs": [
        {
          "address": "0xf969aee60879c54baaed9f3ed26147db216fd664",
          "topics": [
            "0xddf252ad1be2c89b69c2b068fc378daa952ba7f163c4a11628f55a4df523b3ef",
            "0x0000000000000000000000000000000000000000000000000000000000000000",
            "0x0000000000000000000000004b992f2fbf714c0fcbb23bac5130ace48cad00cd",
            "0x0000000000000000000000000000000000000000000000000000000000001c12"
          ],
          "data": "0x",
          "blockHash": "0x15f02cdf0f36923fe9b9dc28a7340d3cdb11cc3ef987e9955c7b38b80c1482bb",
          "blockNumber": "0x2c8c480",
          "blockTimestamp": "0x69b671cc",
          "transactionHash": "0x50a4f3db5370b2ef84069f6132b6a1ef669333442e6f47d45b9b5326f43d0061",
          "transactionIndex": "0x10",
          "logIndex": "0x10",
          "removed": false
        },
        {
          "address": "0x00b036b58a818b1bc34d502d3fe730db729e62ac",
          "topics": [
            "0xf208f4912782fd25c7f114ca3723a2d5dd6f3bcc3ac8db5af63baa85f711d5ec",
            "0xc4cd1faa6b5f8b853624804c516eddb4bbd8408d1e9f828fef3c67e9e724c164",
            "0x000000000000000000000000f969aee60879c54baaed9f3ed26147db216fd664"
          ],
          "data": "0xfffffffffffffffffffffffffffffffffffffffffffffffffffffffffff2764c00000000000000000000000000000000000000000000000000000000000d89b400000000000000000000000000000000000000000000d3c21bcecceda10000000000000000000000000000000000000000000000000000000000000000001c12",
          "blockHash": "0x15f02cdf0f36923fe9b9dc28a7340d3cdb11cc3ef987e9955c7b38b80c1482bb",
          "blockNumber": "0x2c8c480",
          "blockTimestamp": "0x69b671cc",
          "transactionHash": "0x50a4f3db5370b2ef84069f6132b6a1ef669333442e6f47d45b9b5326f43d0061",
          "transactionIndex": "0x10",
          "logIndex": "0x11",
          "removed": false
        },
        {
          "address": "0x2881ef1ea066b3199a3b2e3370cc37c715734773",
          "topics": [
            "0xddf252ad1be2c89b69c2b068fc378daa952ba7f163c4a11628f55a4df523b3ef",
            "0x0000000000000000000000004b992f2fbf714c0fcbb23bac5130ace48cad00cd",
            "0x00000000000000000000000000b036b58a818b1bc34d502d3fe730db729e62ac"
          ],
          "data": "0x00000000000000000000000000000000000000000000d3c21bcecceda0ff2baf",
          "blockHash": "0x15f02cdf0f36923fe9b9dc28a7340d3cdb11cc3ef987e9955c7b38b80c1482bb",
          "blockNumber": "0x2c8c480",
          "blockTimestamp": "0x69b671cc",
          "transactionHash": "0x50a4f3db5370b2ef84069f6132b6a1ef669333442e6f47d45b9b5326f43d0061",
          "transactionIndex": "0x10",
          "logIndex": "0x12",
          "removed": false
        },
        {
          "address": "0x58e856ed31902b3d90afa625fb8c8beb5b5df555",
          "topics": [
            "0xddf252ad1be2c89b69c2b068fc378daa952ba7f163c4a11628f55a4df523b3ef",
            "0x0000000000000000000000004b992f2fbf714c0fcbb23bac5130ace48cad00cd",
            "0x00000000000000000000000000b036b58a818b1bc34d502d3fe730db729e62ac"
          ],
          "data": "0x00000000000000000000000000000000000000000000d3c21bcecceda0ff2baf",
          "blockHash": "0x15f02cdf0f36923fe9b9dc28a7340d3cdb11cc3ef987e9955c7b38b80c1482bb",
          "blockNumber": "0x2c8c480",
          "blockTimestamp": "0x69b671cc",
          "transactionHash": "0x50a4f3db5370b2ef84069f6132b6a1ef669333442e6f47d45b9b5326f43d0061",
          "transactionIndex": "0x10",
          "logIndex": "0x13",
          "removed": false
        }
      ],
      "logsBloom": "0x00000000000000000000000000000000000000000000000000000008000000000000000000000000000000000000000000000002001000000000000000080000000000000000000000000008806000000000000000000000000100001000000000000000020000000000000080024800000000000040000000000010000000000000080001000000000000000008000000000000000000000000001000000000004004000000000000000100000000000800000000000020000000000000000000000002080000000000000000000000000000000000000000000000000020004000000000000001000000000000000004000000000002000000000000002010",
      "type": "0x2",
      "transactionHash": "0x50a4f3db5370b2ef84069f6132b6a1ef669333442e6f47d45b9b5326f43d0061",
      "transactionIndex": "0x10",
      "blockHash": "0x15f02cdf0f36923fe9b9dc28a7340d3cdb11cc3ef987e9955c7b38b80c1482bb",
      "blockNumber": "0x2c8c480",
      "gasUsed": "0x617f9",
      "effectiveGasPrice": "0x7a121",
      "blobGasUsed": "0x1bee0",
      "from": "0x4b992f2fbf714c0fcbb23bac5130ace48cad00cd",
      "to": "0xf969aee60879c54baaed9f3ed26147db216fd664",
      "contractAddress": null,
      "daFootprintGasScalar": "0x190",
      "l1BaseFeeScalar": "0x7d0",
      "l1BlobBaseFee": "0x1",
      "l1BlobBaseFeeScalar": "0xdbba0",
      "l1Fee": "0x153",
      "l1GasPrice": "0x9",
      "l1GasUsed": "0x11e2"
    },
    {
      "status": "0x1",
      "cumulativeGasUsed": "0x25d5ab",
      "logs": [
        {
          "address": "0x2881ef1ea066b3199a3b2e3370cc37c715734773",
          "topics": [
            "0x8c5be1e5ebec7d5bd14f71427d1e84f3dd0314c0f7b2291e5b200ac8c7c3b925",
            "0x0000000000000000000000004b992f2fbf714c0fcbb23bac5130ace48cad00cd",
            "0x0000000000000000000000009cd2b0a732dd5e023a5539921e0fd1c30e198dba"
          ],
          "data": "0xffffffffffffffffffffffffffffffffffffffffffffffffffffffffffffffff",
          "blockHash": "0x15f02cdf0f36923fe9b9dc28a7340d3cdb11cc3ef987e9955c7b38b80c1482bb",
          "blockNumber": "0x2c8c480",
          "blockTimestamp": "0x69b671cc",
          "transactionHash": "0x02054714a4f1fe06663166250241d0e23c3e475d5b2d196510237671796e5803",
          "transactionIndex": "0x12",
          "logIndex": "0x15",
          "removed": false
        }
      ],
      "logsBloom": "0x00000000000000000000000000000000000000004000000000000008000000000080000000000000000000000000000000000002000000000000000000200000000000000000000000000000002000000000000000000000000100000000000000000000000000000000000080020000000000000000000000000000000000000000000000000000000000000000000000000000000000000000000000000000020000000000000000000000000000000000080000000000000000000000000000000000000000000000000000000000000000000000000000000000000000000010000000000000000000000000000000000000000000000000000000000000",
      "type": "0x2",
      "transactionHash": "0x02054714a4f1fe06663166250241d0e23c3e475d5b2d196510237671796e5803",
      "transactionIndex": "0x12",
      "blockHash": "0x15f02cdf0f36923fe9b9dc28a7340d3cdb11cc3ef987e9955c7b38b80c1482bb",
      "blockNumber": "0x2c8c480",
      "gasUsed": "0xb596",
      "effectiveGasPrice": "0x7a121",
      "blobGasUsed": "0x9c40",
      "from": "0x4b992f2fbf714c0fcbb23bac5130ace48cad00cd",
      "to": "0x2881ef1ea066b3199a3b2e3370cc37c715734773",
      "contractAddress": null,
      "daFootprintGasScalar": "0x190",
      "l1BaseFeeScalar": "0x7d0",
      "l1BlobBaseFee": "0x1",
      "l1BlobBaseFeeScalar": "0xdbba0",
      "l1Fee": "0x76",
      "l1GasPrice": "0x9",
      "l1GasUsed": "0x640"
    },
    {
      "status": "0x1",
      "cumulativeGasUsed": "0x27fb67",
      "logs": [
        {
          "address": "0x2881ef1ea066b3199a3b2e3370cc37c715734773",
          "topics": [
            "0x8c5be1e5ebec7d5bd14f71427d1e84f3dd0314c0f7b2291e5b200ac8c7c3b925",
            "0x0000000000000000000000004b992f2fbf714c0fcbb23bac5130ace48cad00cd",
            "0x000000000000000000000000493a90b1ea1bcbe2c6ab5af70928c82051b5e726"
          ],
          "data": "0xffffffffffffffffffffffffffffffffffffffffffffffffffffffffffffffff",
          "blockHash": "0x15f02cdf0f36923fe9b9dc28a7340d3cdb11cc3ef987e9955c7b38b80c1482bb",
          "blockNumber": "0x2c8c480",
          "blockTimestamp": "0x69b671cc",
          "transactionHash": "0xf25132981a3f02e37f5249a392c978629a7c71ef6f534967352c76181c975aa5",
          "transactionIndex": "0x14",
          "logIndex": "0x17",
          "removed": false
        }
      ],
      "logsBloom": "0x00000000000000000000000200000000000000000000000000000008000000000000000000000000000000000000000000000002000000000000000000200000000000000000000000000000002000000000000000000000000100000000000000200000000000000000000080020000000000000000000000000000000000000000000000100000000000000000000000000000000000000000000000000000020000000000000000000000000000000000000000000000000000000000000000000000000000000000000000000000000000000000000000000000000000000010000000000000000000000000000000000000000000000000000000000000",
      "type": "0x2",
      "transactionHash": "0xf25132981a3f02e37f5249a392c978629a7c71ef6f534967352c76181c975aa5",
      "transactionIndex": "0x14",
      "blockHash": "0x15f02cdf0f36923fe9b9dc28a7340d3cdb11cc3ef987e9955c7b38b80c1482bb",
      "blockNumber": "0x2c8c480",
      "gasUsed": "0xb596",
      "effectiveGasPrice": "0x7a121",
      "blobGasUsed": "0x9c40",
      "from": "0x4b992f2fbf714c0fcbb23bac5130ace48cad00cd",
      "to": "0x2881ef1ea066b3199a3b2e3370cc37c715734773",
      "contractAddress": null,
      "daFootprintGasScalar": "0x190",
      "l1BaseFeeScalar": "0x7d0",
      "l1BlobBaseFee": "0x1",
      "l1BlobBaseFeeScalar": "0xdbba0",
      "l1Fee": "0x76",
      "l1GasPrice": "0x9",
      "l1GasUsed": "0x640"
    },
    {
      "status": "0x1",
      "cumulativeGasUsed": "0x29ebc4",
      "logs": [
        {
          "address": "0x00b036b58a818b1bc34d502d3fe730db729e62ac",
          "topics": [
            "0x40e9cecb9f5f1f1c5b9c97dec2917b7ee92e57ba5563708daca94dd84ad7112f",
            "0x21db916849d12ca72dfe2f77650921fe80c0bca02b60539c31e4034ebc3bb5f3",
            "0x0000000000000000000000009cd2b0a732dd5e023a5539921e0fd1c30e198dba"
          ],
          "data": "0xfffffffffffffffffffffffffffffffffffffffffffffffd4a1c50e94e780000000000000000000000000000000000000000000000000002b3c5f2e19935a6f30000000000000000000000000000000000000000fffcbbb28d87c1d70daa712900000000000000000000000000000000000000000000d3c21bcecceda1000000ffffffffffffffffffffffffffffffffffffffffffffffffffffffffffffffff0000000000000000000000000000000000000000000000000000000000000bb8",
          "blockHash": "0x15f02cdf0f36923fe9b9dc28a7340d3cdb11cc3ef987e9955c7b38b80c1482bb",
          "blockNumber": "0x2c8c480",
          "blockTimestamp": "0x69b671cc",
          "transactionHash": "0xe9116620ba61e31b2223ad6c43c61d57de7e18088b5afb4da6a9c038d982635b",
          "transactionIndex": "0x15",
          "logIndex": "0x18",
          "removed": false
        },
        {
          "address": "0x2881ef1ea066b3199a3b2e3370cc37c715734773",
          "topics": [
            "0xddf252ad1be2c89b69c2b068fc378daa952ba7f163c4a11628f55a4df523b3ef",
            "0x0000000000000000000000004b992f2fbf714c0fcbb23bac5130ace48cad00cd",
            "0x00000000000000000000000000b036b58a818b1bc34d502d3fe730db729e62ac"
          ],
          "data": "0x000000000000000000000000000000000000000000000002b5e3af16b1880000",
          "blockHash": "0x15f02cdf0f36923fe9b9dc28a7340d3cdb11cc3ef987e9955c7b38b80c1482bb",
          "blockNumber": "0x2c8c480",
          "blockTimestamp": "0x69b671cc",
          "transactionHash": "0xe9116620ba61e31b2223ad6c43c61d57de7e18088b5afb4da6a9c038d982635b",
          "transactionIndex": "0x15",
          "logIndex": "0x19",
          "removed": false
        },
        {
          "address": "0x58e856ed31902b3d90afa625fb8c8beb5b5df555",
          "topics": [
            "0xddf252ad1be2c89b69c2b068fc378daa952ba7f163c4a11628f55a4df523b3ef",
            "0x00000000000000000000000000b036b58a818b1bc34d502d3fe730db729e62ac",
            "0x0000000000000000000000004b992f2fbf714c0fcbb23bac5130ace48cad00cd"
          ],
          "data": "0x000000000000000000000000000000000000000000000002b3c5f2e19935a6f3",
          "blockHash": "0x15f02cdf0f36923fe9b9dc28a7340d3cdb11cc3ef987e9955c7b38b80c1482bb",
          "blockNumber": "0x2c8c480",
          "blockTimestamp": "0x69b671cc",
          "transactionHash": "0xe9116620ba61e31b2223ad6c43c61d57de7e18088b5afb4da6a9c038d982635b",
          "transactionIndex": "0x15",
          "logIndex": "0x1a",
          "removed": false
        }
      ],
      "logsBloom": "0x00000000000000000000000000000000000000004000000000000008000000000880000000000000000000000000000000000002041000100000000000000000000000000000000000000008006000000000000000000020004100000000000000000000000000000000000080024000000000000000000000000010000000000000080000000000000000000008000000000000000000000000000000000000000000000000000000000000000000000000080000000020000000000000000000000002000000000000000000000000000000000000000000000000000000000000000000000000004000000000000004000000000002000000000000000010",
      "type": "0x2",
      "transactionHash": "0xe9116620ba61e31b2223ad6c43c61d57de7e18088b5afb4da6a9c038d982635b",
      "transactionIndex": "0x15",
      "blockHash": "0x15f02cdf0f36923fe9b9dc28a7340d3cdb11cc3ef987e9955c7b38b80c1482bb",
      "blockNumber": "0x2c8c480",
      "gasUsed": "0x1f05d",
      "effectiveGasPrice": "0x7a121",
      "blobGasUsed": "0x11300",
      "from": "0x4b992f2fbf714c0fcbb23bac5130ace48cad00cd",
      "to": "0x9cd2b0a732dd5e023a5539921e0fd1c30e198dba",
      "contractAddress": null,
      "daFootprintGasScalar": "0x190",
      "l1BaseFeeScalar": "0x7d0",
      "l1BlobBaseFee": "0x1",
      "l1BlobBaseFeeScalar": "0xdbba0",
      "l1Fee": "0xd1",
      "l1GasPrice": "0x9",
      "l1GasUsed": "0xb09"
    },
    {
      "status": "0x1",
      "cumulativeGasUsed": "0x2e62a0",
      "logs": [
        {
          "address": "0x2881ef1ea066b3199a3b2e3370cc37c715734773",
          "topics": [
            "0xddf252ad1be2c89b69c2b068fc378daa952ba7f163c4a11628f55a4df523b3ef",
            "0x0000000000000000000000004b992f2fbf714c0fcbb23bac5130ace48cad00cd",
            "0x000000000000000000000000493a90b1ea1bcbe2c6ab5af70928c82051b5e726"
          ],
          "data": "0x000000000000000000000000000000000000000000000002b5e3af16b1880000",
          "blockHash": "0x15f02cdf0f36923fe9b9dc28a7340d3cdb11cc3ef987e9955c7b38b80c1482bb",
          "blockNumber": "0x2c8c480",
          "blockTimestamp": "0x69b671cc",
          "transactionHash": "0x75281713ab1b8a1099e3aa4579646ad82b1bb8c3ea4e7cbe1cc5a8bf88ecaeac",
          "transactionIndex": "0x16",
          "logIndex": "0x1b",
          "removed": false
        },
        {
          "address": "0x493a90b1ea1bcbe2c6ab5af70928c82051b5e726",
          "topics": [
            "0x81bed46f3394c5b72a6081e944d2f16fd3d5d9ae08034008ce1fe8929114111c",
            "0xd549bb81dc66bccbf9752dbf180b09c9edd51d9973fc40bde108f30bd66e7b36",
            "0x0000000000000000000000004b992f2fbf714c0fcbb23bac5130ace48cad00cd",
            "0xc4cd1faa6b5f8b853624804c516eddb4bbd8408d1e9f828fef3c67e9e724c164"
          ],
          "data": "0x0000000000000000000000000000000000000000000000000000000000000000",
          "blockHash": "0x15f02cdf0f36923fe9b9dc28a7340d3cdb11cc3ef987e9955c7b38b80c1482bb",
          "blockNumber": "0x2c8c480",
          "blockTimestamp": "0x69b671cc",
          "transactionHash": "0x75281713ab1b8a1099e3aa4579646ad82b1bb8c3ea4e7cbe1cc5a8bf88ecaeac",
          "transactionIndex": "0x16",
          "logIndex": "0x1c",
          "removed": false
        },
        {
          "address": "0xbf42f398561644eb55a7269da0f937d0512c40c0",
          "topics": [
            "0x81bed46f3394c5b72a6081e944d2f16fd3d5d9ae08034008ce1fe8929114111c",
            "0xd549bb81dc66bccbf9752dbf180b09c9edd51d9973fc40bde108f30bd66e7b36",
            "0x0000000000000000000000004b992f2fbf714c0fcbb23bac5130ace48cad00cd",
            "0xc4cd1faa6b5f8b853624804c516eddb4bbd8408d1e9f828fef3c67e9e724c164"
          ],
          "data": "0x0000000000000000000000000000000000000000000000000000000000000000",
          "blockHash": "0x15f02cdf0f36923fe9b9dc28a7340d3cdb11cc3ef987e9955c7b38b80c1482bb",
          "blockNumber": "0x2c8c480",
          "blockTimestamp": "0x69b671cc",
          "transactionHash": "0x75281713ab1b8a1099e3aa4579646ad82b1bb8c3ea4e7cbe1cc5a8bf88ecaeac",
          "transactionIndex": "0x16",
          "logIndex": "0x1d",
          "removed": false
        }
      ],
      "logsBloom": "0x00000000000000000000100600040000000000000000000000000008000000000004000000000000000000000000000000000002000000040000000000080010000000000000000000000008002000000000000000200000000100000000000000200000000000000000000080020000000000000000000000000010000000200000000000100000000000000000000000000000000000000000000000000000004000000000000000000100000000000000000000000000000000000000000000000002800000000000000000100000000000000000800000000000000000000000000000000000001000000000000000000000000000000000000000000000",
      "type": "0x2",
      "transactionHash": "0x75281713ab1b8a1099e3aa4579646ad82b1bb8c3ea4e7cbe1cc5a8bf88ecaeac",
      "transactionIndex": "0x16",
      "blockHash": "0x15f02cdf0f36923fe9b9dc28a7340d3cdb11cc3ef987e9955c7b38b80c1482bb",
      "blockNumber": "0x2c8c480",
      "gasUsed": "0x476dc",
      "effectiveGasPrice": "0x7a121",
      "blobGasUsed": "0x12a70",
      "from": "0x4b992f2fbf714c0fcbb23bac5130ace48cad00cd",
      "to": "0x493a90b1ea1bcbe2c6ab5af70928c82051b5e726",
      "contractAddress": null,
      "daFootprintGasScalar": "0x190",
      "l1BaseFeeScalar": "0x7d0",
      "l1BlobBaseFee": "0x1",
      "l1BlobBaseFeeScalar": "0xdbba0",
      "l1Fee": "0xe3",
      "l1GasPrice": "0x9",
      "l1GasUsed": "0xbfa"
    },
    {
      "status": "0x1",
      "cumulativeGasUsed": "0x328873",
      "logs": [
        {
          "address": "0x2881ef1ea066b3199a3b2e3370cc37c715734773",
          "topics": [
            "0xddf252ad1be2c89b69c2b068fc378daa952ba7f163c4a11628f55a4df523b3ef",
            "0x000000000000000000000000493a90b1ea1bcbe2c6ab5af70928c82051b5e726",
            "0x000000000000000000000000e56a90ad0deab20ee9fcd780b14ca90fc71d3f5d"
          ],
          "data": "0x0000000000000000000000000000000000000000000000008ac7230489e80000",
          "blockHash": "0x15f02cdf0f36923fe9b9dc28a7340d3cdb11cc3ef987e9955c7b38b80c1482bb",
          "blockNumber": "0x2c8c480",
          "blockTimestamp": "0x69b671cc",
          "transactionHash": "0xbecadd9a0fe610c563765db50b6f1eed3cc159cb9211ef6663288e43fb5ca6ef",
          "transactionIndex": "0x17",
          "logIndex": "0x1e",
          "removed": false
        },
        {
          "address": "0xe56a90ad0deab20ee9fcd780b14ca90fc71d3f5d",
          "topics": [
            "0xfcd08d12d91ceb5bb6b09945d5df91da31280e1afc21692235e4df3d350ea1b4",
            "0xd549bb81dc66bccbf9752dbf180b09c9edd51d9973fc40bde108f30bd66e7b36",
            "0x0000000000000000000000000000000000000000000000000000000000000000"
          ],
          "data": "0x0000000000000000000000000000000000000000000000008ac7230489e80000",
          "blockHash": "0x15f02cdf0f36923fe9b9dc28a7340d3cdb11cc3ef987e9955c7b38b80c1482bb",
          "blockNumber": "0x2c8c480",
          "blockTimestamp": "0x69b671cc",
          "transactionHash": "0xbecadd9a0fe610c563765db50b6f1eed3cc159cb9211ef6663288e43fb5ca6ef",
          "transactionIndex": "0x17",
          "logIndex": "0x1f",
          "removed": false
        },
        {
          "address": "0x00b036b58a818b1bc34d502d3fe730db729e62ac",
          "topics": [
            "0x40e9cecb9f5f1f1c5b9c97dec2917b7ee92e57ba5563708daca94dd84ad7112f",
            "0xc4cd1faa6b5f8b853624804c516eddb4bbd8408d1e9f828fef3c67e9e724c164",
            "0x000000000000000000000000e56a90ad0deab20ee9fcd780b14ca90fc71d3f5d"
          ],
          "data": "0xffffffffffffffffffffffffffffffffffffffffffffffff7538dcfb761800000000000000000000000000000000000000000000000000008a5c33c5e260ff840000000000000000000000000000000000000000ffff58bb9a5cc825ba65190d00000000000000000000000000000000000000000000d3c21bcecceda1000000ffffffffffffffffffffffffffffffffffffffffffffffffffffffffffffffff0000000000000000000000000000000000000000000000000000000000000bb8",
          "blockHash": "0x15f02cdf0f36923fe9b9dc28a7340d3cdb11cc3ef987e9955c7b38b80c1482bb",
          "blockNumber": "0x2c8c480",
          "blockTimestamp": "0x69b671cc",
          "transactionHash": "0xbecadd9a0fe610c563765db50b6f1eed3cc159cb9211ef6663288e43fb5ca6ef",
          "transactionIndex": "0x17",
          "logIndex": "0x20",
          "removed": false
        },
        {
          "address": "0xbf42f398561644eb55a7269da0f937d0512c40c0",
          "topics": [
            "0xdc9ae19539af70419eb3901d67566a3324d783eeeb4423ce03cfe0fca1e59871",
            "0xd549bb81dc66bccbf9752dbf180b09c9edd51d9973fc40bde108f30bd66e7b36"
          ],
          "data": "0x00000000000000000000000000000000000000000000000000000000000000000000000000000000000000000000000000000000000000008ac7230489e800000000000000000000000000000000000000000000000000008a5c33c5e260ff840000000000000000000000000000000000000000000000000000000002c8c480",
          "blockHash": "0x15f02cdf0f36923fe9b9dc28a7340d3cdb11cc3ef987e9955c7b38b80c1482bb",
          "blockNumber": "0x2c8c480",
          "blockTimestamp": "0x69b671cc",
          "transactionHash": "0xbecadd9a0fe610c563765db50b6f1eed3cc159cb9211ef6663288e43fb5ca6ef",
          "transactionIndex": "0x17",
          "logIndex": "0x21",
          "removed": false
        },
        {
          "address": "0x2881ef1ea066b3199a3b2e3370cc37c715734773",
          "topics": [
            "0xddf252ad1be2c89b69c2b068fc378daa952ba7f163c4a11628f55a4df523b3ef",
            "0x000000000000000000000000e56a90ad0deab20ee9fcd780b14ca90fc71d3f5d",
            "0x00000000000000000000000000b036b58a818b1bc34d502d3fe730db729e62ac"
          ],
          "data": "0x0000000000000000000000000000000000000000000000008ac7230489e80000",
          "blockHash": "0x15f02cdf0f36923fe9b9dc28a7340d3cdb11cc3ef987e9955c7b38b80c1482bb",
          "blockNumber": "0x2c8c480",
          "blockTimestamp": "0x69b671cc",
          "transactionHash": "0xbecadd9a0fe610c563765db50b6f1eed3cc159cb9211ef6663288e43fb5ca6ef",
          "transactionIndex": "0x17",
          "logIndex": "0x22",
          "removed": false
        },
        {
          "address": "0x58e856ed31902b3d90afa625fb8c8beb5b5df555",
          "topics": [
            "0xddf252ad1be2c89b69c2b068fc378daa952ba7f163c4a11628f55a4df523b3ef",
            "0x00000000000000000000000000b036b58a818b1bc34d502d3fe730db729e62ac",
            "0x000000000000000000000000493a90b1ea1bcbe2c6ab5af70928c82051b5e726"
          ],
          "data": "0x0000000000000000000000000000000000000000000000008a5c33c5e260ff84",
          "blockHash": "0x15f02cdf0f36923fe9b9dc28a7340d3cdb11cc3ef987e9955c7b38b80c1482bb",
          "blockNumber": "0x2c8c480",
          "blockTimestamp": "0x69b671cc",
          "transactionHash": "0xbecadd9a0fe610c563765db50b6f1eed3cc159cb9211ef6663288e43fb5ca6ef",
          "transactionIndex": "0x17",
          "logIndex": "0x23",
          "removed": false
        },
        {
          "address": "0xe56a90ad0deab20ee9fcd780b14ca90fc71d3f5d",
          "topics": [
            "0xdf7df68fddb55e38a4b636bbd972bdf7820a2a1b99e9531fe805a52f90a7e99d",
            "0xd549bb81dc66bccbf9752dbf180b09c9edd51d9973fc40bde108f30bd66e7b36",
            "0x0000000000000000000000000000000000000000000000000000000000000000"
          ],
          "data": "0x000000000000000000000000000000000000000000000000000000000000000100000000000000000000000000000000000000000000000000000000000000000000000000000000000000000000000000000000000000008a5c33c5e260ff84",
          "blockHash": "0x15f02cdf0f36923fe9b9dc28a7340d3cdb11cc3ef987e9955c7b38b80c1482bb",
          "blockNumber": "0x2c8c480",
          "blockTimestamp": "0x69b671cc",
          "transactionHash": "0xbecadd9a0fe610c563765db50b6f1eed3cc159cb9211ef6663288e43fb5ca6ef",
          "transactionIndex": "0x17",
          "logIndex": "0x24",
          "removed": false
        }
      ],
      "logsBloom": "0x00000000000000000000102600040000000000000000000000000008000000000000000000000000000000000000000000200000041000000000001000080000000000000000000000000008006000000000000000000020000000440000000000200000020020000000000081004800000000000001000000000010000000200000080000100000000000000008000000000000000000000000000000000000004000020400000000000100040000000000000000000020000800000000000000000002000000000000000000100000000400000000000000000000000020000000000000000000005800000000000004000000000002001000000000000010",
      "type": "0x2",
      "transactionHash": "0xbecadd9a0fe610c563765db50b6f1eed3cc159cb9211ef6663288e43fb5ca6ef",
      "transactionIndex": "0x17",
      "blockHash": "0x15f02cdf0f36923fe9b9dc28a7340d3cdb11cc3ef987e9955c7b38b80c1482bb",
      "blockNumber": "0x2c8c480",
      "gasUsed": "0x425d3",
      "effectiveGasPrice": "0x7a121",
      "blobGasUsed": "0x11f80",
      "from": "0x4b992f2fbf714c0fcbb23bac5130ace48cad00cd",
      "to": "0xe56a90ad0deab20ee9fcd780b14ca90fc71d3f5d",
      "contractAddress": null,
      "daFootprintGasScalar": "0x190",
      "l1BaseFeeScalar": "0x7d0",
      "l1BlobBaseFee": "0x1",
      "l1BlobBaseFeeScalar": "0xdbba0",
      "l1Fee": "0xda",
      "l1GasPrice": "0x9",
      "l1GasUsed": "0xb81"
    },
    {
      "status": "0x1",
      "cumulativeGasUsed": "0x338225",
      "logs": [
        {
          "address": "0x493a90b1ea1bcbe2c6ab5af70928c82051b5e726",
          "topics": [
            "0xb3dde0287222b49b4bbdfbd414c2ffd0c3624d21a3f2803e40d0b130ae277d76",
            "0xd549bb81dc66bccbf9752dbf180b09c9edd51d9973fc40bde108f30bd66e7b36"
          ],
          "data": "0x00000000000000000000000000000000000000000000000000000000000000010000000000000000000000000000000000000000000000000000000000000003",
          "blockHash": "0x15f02cdf0f36923fe9b9dc28a7340d3cdb11cc3ef987e9955c7b38b80c1482bb",
          "blockNumber": "0x2c8c480",
          "blockTimestamp": "0x69b671cc",
          "transactionHash": "0xc1baa52979973defd43245b193c24dab2a759938583df382436d0958a2fb61ce",
          "transactionIndex": "0x18",
          "logIndex": "0x25",
          "removed": false
        },
        {
          "address": "0xbf42f398561644eb55a7269da0f937d0512c40c0",
          "topics": [
            "0x82efaee5b14d8017020d8b71e6fc399e18b833bca549be299b7db2752d4df935",
            "0xd549bb81dc66bccbf9752dbf180b09c9edd51d9973fc40bde108f30bd66e7b36"
          ],
          "data": "0x00000000000000000000000000000000000000000000000000000000000000000000000000000000000000000000000000000000000000000000000000000003",
          "blockHash": "0x15f02cdf0f36923fe9b9dc28a7340d3cdb11cc3ef987e9955c7b38b80c1482bb",
          "blockNumber": "0x2c8c480",
          "blockTimestamp": "0x69b671cc",
          "transactionHash": "0xc1baa52979973defd43245b193c24dab2a759938583df382436d0958a2fb61ce",
          "transactionIndex": "0x18",
          "logIndex": "0x26",
          "removed": false
        },
        {
          "address": "0xe56a90ad0deab20ee9fcd780b14ca90fc71d3f5d",
          "topics": [
            "0xdf7df68fddb55e38a4b636bbd972bdf7820a2a1b99e9531fe805a52f90a7e99d",
            "0xd549bb81dc66bccbf9752dbf180b09c9edd51d9973fc40bde108f30bd66e7b36",
            "0x0000000000000000000000000000000000000000000000000000000000000000"
          ],
          "data": "0x000000000000000000000000000000000000000000000000000000000000000000000000000000000000000000000000000000000000000000000000000000030000000000000000000000000000000000000000000000000000000000000000",
          "blockHash": "0x15f02cdf0f36923fe9b9dc28a7340d3cdb11cc3ef987e9955c7b38b80c1482bb",
          "blockNumber": "0x2c8c480",
          "blockTimestamp": "0x69b671cc",
          "transactionHash": "0xc1baa52979973defd43245b193c24dab2a759938583df382436d0958a2fb61ce",
          "transactionIndex": "0x18",
          "logIndex": "0x27",
          "removed": false
        }
      ],
      "logsBloom": "0x00000000000000000000102400040000000000000000000000000000000000000000000000000000000000000000000080000000000000040000001000000000000000000000000000000000000000000000000000200000000000040000000040000000020000000000000000000800000000000001000000000000000000200000000000000200000000000000000000000000000000000000000000000000000000000000000000000000040000000400000000000010000000000000000000000000800000000000000000100000000000000000000000000000000020000000000000000000001000000000000000000000000000003000000000000000",
      "type": "0x2",
      "transactionHash": "0xc1baa52979973defd43245b193c24dab2a759938583df382436d0958a2fb61ce",
      "transactionIndex": "0x18",
      "blockHash": "0x15f02cdf0f36923fe9b9dc28a7340d3cdb11cc3ef987e9955c7b38b80c1482bb",
      "blockNumber": "0x2c8c480",
      "gasUsed": "0xf9b2",
      "effectiveGasPrice": "0x7a121",
      "blobGasUsed": "0x11f80",
      "from": "0x4b992f2fbf714c0fcbb23bac5130ace48cad00cd",
      "to": "0xe56a90ad0deab20ee9fcd780b14ca90fc71d3f5d",
      "contractAddress": null,
      "daFootprintGasScalar": "0x190",
      "l1BaseFeeScalar": "0x7d0",
      "l1BlobBaseFee": "0x1",
      "l1BlobBaseFeeScalar": "0xdbba0",
      "l1Fee": "0xda",
      "l1GasPrice": "0x9",
      "l1GasUsed": "0xb81"
    },
    {
      "status": "0x1",
      "cumulativeGasUsed": "0x347bd7",
      "logs": [
        {
          "address": "0x493a90b1ea1bcbe2c6ab5af70928c82051b5e726",
          "topics": [
            "0xb3dde0287222b49b4bbdfbd414c2ffd0c3624d21a3f2803e40d0b130ae277d76",
            "0xd549bb81dc66bccbf9752dbf180b09c9edd51d9973fc40bde108f30bd66e7b36"
          ],
          "data": "0x00000000000000000000000000000000000000000000000000000000000000010000000000000000000000000000000000000000000000000000000000000003",
          "blockHash": "0x15f02cdf0f36923fe9b9dc28a7340d3cdb11cc3ef987e9955c7b38b80c1482bb",
          "blockNumber": "0x2c8c480",
          "blockTimestamp": "0x69b671cc",
          "transactionHash": "0x0a23fadb67c3b21b2765fec8671707eadc5f93457b3d056456b3522cba44eac3",
          "transactionIndex": "0x19",
          "logIndex": "0x28",
          "removed": false
        },
        {
          "address": "0xbf42f398561644eb55a7269da0f937d0512c40c0",
          "topics": [
            "0x82efaee5b14d8017020d8b71e6fc399e18b833bca549be299b7db2752d4df935",
            "0xd549bb81dc66bccbf9752dbf180b09c9edd51d9973fc40bde108f30bd66e7b36"
          ],
          "data": "0x00000000000000000000000000000000000000000000000000000000000000000000000000000000000000000000000000000000000000000000000000000003",
          "blockHash": "0x15f02cdf0f36923fe9b9dc28a7340d3cdb11cc3ef987e9955c7b38b80c1482bb",
          "blockNumber": "0x2c8c480",
          "blockTimestamp": "0x69b671cc",
          "transactionHash": "0x0a23fadb67c3b21b2765fec8671707eadc5f93457b3d056456b3522cba44eac3",
          "transactionIndex": "0x19",
          "logIndex": "0x29",
          "removed": false
        },
        {
          "address": "0xe56a90ad0deab20ee9fcd780b14ca90fc71d3f5d",
          "topics": [
            "0xdf7df68fddb55e38a4b636bbd972bdf7820a2a1b99e9531fe805a52f90a7e99d",
            "0xd549bb81dc66bccbf9752dbf180b09c9edd51d9973fc40bde108f30bd66e7b36",
            "0x0000000000000000000000000000000000000000000000000000000000000000"
          ],
          "data": "0x000000000000000000000000000000000000000000000000000000000000000000000000000000000000000000000000000000000000000000000000000000030000000000000000000000000000000000000000000000000000000000000000",
          "blockHash": "0x15f02cdf0f36923fe9b9dc28a7340d3cdb11cc3ef987e9955c7b38b80c1482bb",
          "blockNumber": "0x2c8c480",
          "blockTimestamp": "0x69b671cc",
          "transactionHash": "0x0a23fadb67c3b21b2765fec8671707eadc5f93457b3d056456b3522cba44eac3",
          "transactionIndex": "0x19",
          "logIndex": "0x2a",
          "removed": false
        }
      ],
      "logsBloom": "0x00000000000000000000102400040000000000000000000000000000000000000000000000000000000000000000000080000000000000040000001000000000000000000000000000000000000000000000000000200000000000040000000040000000020000000000000000000800000000000001000000000000000000200000000000000200000000000000000000000000000000000000000000000000000000000000000000000000040000000400000000000010000000000000000000000000800000000000000000100000000000000000000000000000000020000000000000000000001000000000000000000000000000003000000000000000",
      "type": "0x2",
      "transactionHash": "0x0a23fadb67c3b21b2765fec8671707eadc5f93457b3d056456b3522cba44eac3",
      "transactionIndex": "0x19",
      "blockHash": "0x15f02cdf0f36923fe9b9dc28a7340d3cdb11cc3ef987e9955c7b38b80c1482bb",
      "blockNumber": "0x2c8c480",
      "gasUsed": "0xf9b2",
      "effectiveGasPrice": "0x7a121",
      "blobGasUsed": "0x11f80",
      "from": "0x4b992f2fbf714c0fcbb23bac5130ace48cad00cd",
      "to": "0xe56a90ad0deab20ee9fcd780b14ca90fc71d3f5d",
      "contractAddress": null,
      "daFootprintGasScalar": "0x190",
      "l1BaseFeeScalar": "0x7d0",
      "l1BlobBaseFee": "0x1",
      "l1BlobBaseFeeScalar": "0xdbba0",
      "l1Fee": "0xda",
      "l1GasPrice": "0x9",
      "l1GasUsed": "0xb81"
    },
    {
      "status": "0x1",
      "cumulativeGasUsed": "0x36e5bb",
      "logs": [
        {
          "address": "0x493a90b1ea1bcbe2c6ab5af70928c82051b5e726",
          "topics": [
            "0xb3dde0287222b49b4bbdfbd414c2ffd0c3624d21a3f2803e40d0b130ae277d76",
            "0xd549bb81dc66bccbf9752dbf180b09c9edd51d9973fc40bde108f30bd66e7b36"
          ],
          "data": "0x00000000000000000000000000000000000000000000000000000000000000010000000000000000000000000000000000000000000000000000000000000003",
          "blockHash": "0x15f02cdf0f36923fe9b9dc28a7340d3cdb11cc3ef987e9955c7b38b80c1482bb",
          "blockNumber": "0x2c8c480",
          "blockTimestamp": "0x69b671cc",
          "transactionHash": "0x0f51c872b33f1c65d4d57d67a2223d2fca9555ec93abf880983e036195052919",
          "transactionIndex": "0x1b",
          "logIndex": "0x2c",
          "removed": false
        },
        {
          "address": "0xbf42f398561644eb55a7269da0f937d0512c40c0",
          "topics": [
            "0x82efaee5b14d8017020d8b71e6fc399e18b833bca549be299b7db2752d4df935",
            "0xd549bb81dc66bccbf9752dbf180b09c9edd51d9973fc40bde108f30bd66e7b36"
          ],
          "data": "0x00000000000000000000000000000000000000000000000000000000000000000000000000000000000000000000000000000000000000000000000000000003",
          "blockHash": "0x15f02cdf0f36923fe9b9dc28a7340d3cdb11cc3ef987e9955c7b38b80c1482bb",
          "blockNumber": "0x2c8c480",
          "blockTimestamp": "0x69b671cc",
          "transactionHash": "0x0f51c872b33f1c65d4d57d67a2223d2fca9555ec93abf880983e036195052919",
          "transactionIndex": "0x1b",
          "logIndex": "0x2d",
          "removed": false
        },
        {
          "address": "0xe56a90ad0deab20ee9fcd780b14ca90fc71d3f5d",
          "topics": [
            "0xdf7df68fddb55e38a4b636bbd972bdf7820a2a1b99e9531fe805a52f90a7e99d",
            "0xd549bb81dc66bccbf9752dbf180b09c9edd51d9973fc40bde108f30bd66e7b36",
            "0x0000000000000000000000000000000000000000000000000000000000000000"
          ],
          "data": "0x000000000000000000000000000000000000000000000000000000000000000000000000000000000000000000000000000000000000000000000000000000030000000000000000000000000000000000000000000000000000000000000000",
          "blockHash": "0x15f02cdf0f36923fe9b9dc28a7340d3cdb11cc3ef987e9955c7b38b80c1482bb",
          "blockNumber": "0x2c8c480",
          "blockTimestamp": "0x69b671cc",
          "transactionHash": "0x0f51c872b33f1c65d4d57d67a2223d2fca9555ec93abf880983e036195052919",
          "transactionIndex": "0x1b",
          "logIndex": "0x2e",
          "removed": false
        }
      ],
      "logsBloom": "0x00000000000000000000102400040000000000000000000000000000000000000000000000000000000000000000000080000000000000040000001000000000000000000000000000000000000000000000000000200000000000040000000040000000020000000000000000000800000000000001000000000000000000200000000000000200000000000000000000000000000000000000000000000000000000000000000000000000040000000400000000000010000000000000000000000000800000000000000000100000000000000000000000000000000020000000000000000000001000000000000000000000000000003000000000000000",
      "type": "0x2",
      "transactionHash": "0x0f51c872b33f1c65d4d57d67a2223d2fca9555ec93abf880983e036195052919",
      "transactionIndex": "0x1b",
      "blockHash": "0x15f02cdf0f36923fe9b9dc28a7340d3cdb11cc3ef987e9955c7b38b80c1482bb",
      "blockNumber": "0x2c8c480",
      "gasUsed": "0xf9b2",
      "effectiveGasPrice": "0x7a121",
      "blobGasUsed": "0x11f80",
      "from": "0x4b992f2fbf714c0fcbb23bac5130ace48cad00cd",
      "to": "0xe56a90ad0deab20ee9fcd780b14ca90fc71d3f5d",
      "contractAddress": null,
      "daFootprintGasScalar": "0x190",
      "l1BaseFeeScalar": "0x7d0",
      "l1BlobBaseFee": "0x1",
      "l1BlobBaseFeeScalar": "0xdbba0",
      "l1Fee": "0xda",
      "l1GasPrice": "0x9",
      "l1GasUsed": "0xb81"
    }
  ],
  "libraries": [],
  "pending": [],
  "returns": {},
  "timestamp": 1773564756771,
  "chain": 1301,
  "commit": "2745fea"
}