{
  "transactions": [
    {
      "hash": "0x4ccf8408aad1a6cc43c8ab1c2d433af218434bc6b07f2c1be7bac204e0175b5d",
      "transactionType": "CREATE",
      "contractName": "MockERC20",
      "contractAddress": "0x0959fa80b9622e369e43631ef44e4f2063094855",
      "function": null,
      "arguments": [
        "Mock WETH",
        "mWETH",
        "18"
      ],
      "transaction": {
        "from": "0x4b992f2fbf714c0fcbb23bac5130ace48cad00cd",
        "gas": "0xea855",
        "value": "0x0",
        "input": "0x60e060405234801561000f575f5ffd5b50604051610f39380380610f3983398101604081905261002e916101a1565b8282825f61003c84826102a2565b50600161004983826102a2565b5060ff81166080524660a05261005d61006c565b60c052506103cd945050505050565b5f7f8b73c3c69bb8fe3d512ecc4cf759cc79239f7b179b0ffacaa9a75d522b39400f5f60405161009c919061035c565b6040805191829003822060208301939093528101919091527fc89efdaa54c0f20c7adf612882df0950f5a951637e0307cdcb4c672f298b8bc660608201524660808201523060a082015260c00160405160208183030381529060405280519060200120905090565b634e487b7160e01b5f52604160045260245ffd5b5f82601f830112610127575f5ffd5b81516001600160401b0381111561014057610140610104565b604051601f8201601f19908116603f011681016001600160401b038111828210171561016e5761016e610104565b604052818152838201602001851015610185575f5ffd5b8160208501602083015e5f918101602001919091529392505050565b5f5f5f606084860312156101b3575f5ffd5b83516001600160401b038111156101c8575f5ffd5b6101d486828701610118565b602086015190945090506001600160401b038111156101f1575f5ffd5b6101fd86828701610118565b925050604084015160ff81168114610213575f5ffd5b809150509250925092565b600181811c9082168061023257607f821691505b60208210810361025057634e487b7160e01b5f52602260045260245ffd5b50919050565b601f82111561029d57805f5260205f20601f840160051c8101602085101561027b5750805b601f840160051c820191505b8181101561029a575f8155600101610287565b50505b505050565b81516001600160401b038111156102bb576102bb610104565b6102cf816102c9845461021e565b84610256565b6020601f821160018114610301575f83156102ea5750848201515b5f19600385901b1c1916600184901b17845561029a565b5f84815260208120601f198516915b828110156103305787850151825560209485019460019092019101610310565b508482101561034d57868401515f19600387901b60f8161c191681555b50505050600190811b01905550565b5f5f83546103698161021e565b6001821680156103805760018114610395576103c2565b60ff19831686528115158202860193506103c2565b865f5260205f205f5b838110156103ba5781548882015260019091019060200161039e565b505081860193505b509195945050505050565b60805160a05160c051610b426103f75f395f61045c01525f61042701525f6101590152610b425ff3fe608060405234801561000f575f5ffd5b50600436106100e5575f3560e01c806370a08231116100885780639dc29fac116100635780639dc29fac146101f0578063a9059cbb14610203578063d505accf14610216578063dd62ed3e14610229575f5ffd5b806370a08231146101aa5780637ecebe00146101c957806395d89b41146101e8575f5ffd5b806323b872dd116100c357806323b872dd14610141578063313ce567146101545780633644e5151461018d57806340c10f1914610195575f5ffd5b806306fdde03146100e9578063095ea7b31461010757806318160ddd1461012a575b5f5ffd5b6100f1610253565b6040516100fe9190610897565b60405180910390f35b61011a6101153660046108e7565b6102de565b60405190151581526020016100fe565b61013360025481565b6040519081526020016100fe565b61011a61014f36600461090f565b61034a565b61017b7f000000000000000000000000000000000000000000000000000000000000000081565b60405160ff90911681526020016100fe565b610133610424565b6101a86101a33660046108e7565b61047e565b005b6101336101b8366004610949565b60036020525f908152604090205481565b6101336101d7366004610949565b60056020525f908152604090205481565b6100f161048c565b6101a86101fe3660046108e7565b610499565b61011a6102113660046108e7565b6104a3565b6101a8610224366004610969565b610506565b6101336102373660046109d6565b600460209081525f928352604080842090915290825290205481565b5f805461025f90610a07565b80601f016020809104026020016040519081016040528092919081815260200182805461028b90610a07565b80156102d65780601f106102ad576101008083540402835291602001916102d6565b820191905f5260205f20905b8154815290600101906020018083116102b957829003601f168201915b505050505081565b335f8181526004602090815260408083206001600160a01b038716808552925280832085905551919290917f8c5be1e5ebec7d5bd14f71427d1e84f3dd0314c0f7b2291e5b200ac8c7c3b925906103389086815260200190565b60405180910390a35060015b92915050565b6001600160a01b0383165f9081526004602090815260408083203384529091528120545f1981146103a35761037f8382610a53565b6001600160a01b0386165f9081526004602090815260408083203384529091529020555b6001600160a01b0385165f90815260036020526040812080548592906103ca908490610a53565b90915550506001600160a01b038085165f81815260036020526040908190208054870190555190918716905f516020610b165f395f51905f52906104119087815260200190565b60405180910390a3506001949350505050565b5f7f0000000000000000000000000000000000000000000000000000000000000000461461045957610454610749565b905090565b507f000000000000000000000000000000000000000000000000000000000000000090565b61048882826107e1565b5050565b6001805461025f90610a07565b6104888282610838565b335f908152600360205260408120805483919083906104c3908490610a53565b90915550506001600160a01b0383165f81815260036020526040908190208054850190555133905f516020610b165f395f51905f52906103389086815260200190565b4284101561055b5760405162461bcd60e51b815260206004820152601760248201527f5045524d49545f444541444c494e455f4558504952454400000000000000000060448201526064015b60405180910390fd5b5f6001610566610424565b6001600160a01b038a81165f8181526005602090815260409182902080546001810190915582517f6e71edae12b1b97f4d1f60370fef10105fa2faae0126114a169c64845d6126c98184015280840194909452938d166060840152608083018c905260a083019390935260c08083018b90528151808403909101815260e08301909152805192019190912061190160f01b6101008301526101028201929092526101228101919091526101420160408051601f1981840301815282825280516020918201205f84529083018083525260ff871690820152606081018590526080810184905260a0016020604051602081039080840390855afa15801561066e573d5f5f3e3d5ffd5b5050604051601f1901519150506001600160a01b038116158015906106a45750876001600160a01b0316816001600160a01b0316145b6106e15760405162461bcd60e51b815260206004820152600e60248201526d24a72b20a624a22fa9a4a3a722a960911b6044820152606401610552565b6001600160a01b039081165f9081526004602090815260408083208a8516808552908352928190208990555188815291928a16917f8c5be1e5ebec7d5bd14f71427d1e84f3dd0314c0f7b2291e5b200ac8c7c3b925910160405180910390a350505050505050565b5f7f8b73c3c69bb8fe3d512ecc4cf759cc79239f7b179b0ffacaa9a75d522b39400f5f6040516107799190610a66565b6040805191829003822060208301939093528101919091527fc89efdaa54c0f20c7adf612882df0950f5a951637e0307cdcb4c672f298b8bc660608201524660808201523060a082015260c00160405160208183030381529060405280519060200120905090565b8060025f8282546107f29190610b02565b90915550506001600160a01b0382165f818152600360209081526040808320805486019055518481525f516020610b165f395f51905f5291015b60405180910390a35050565b6001600160a01b0382165f908152600360205260408120805483929061085f908490610a53565b90915550506002805482900390556040518181525f906001600160a01b038416905f516020610b165f395f51905f529060200161082c565b602081525f82518060208401528060208501604085015e5f604082850101526040601f19601f83011684010191505092915050565b80356001600160a01b03811681146108e2575f5ffd5b919050565b5f5f604083850312156108f8575f5ffd5b610901836108cc565b946020939093013593505050565b5f5f5f60608486031215610921575f5ffd5b61092a846108cc565b9250610938602085016108cc565b929592945050506040919091013590565b5f60208284031215610959575f5ffd5b610962826108cc565b9392505050565b5f5f5f5f5f5f5f60e0888a03121561097f575f5ffd5b610988886108cc565b9650610996602089016108cc565b95506040880135945060608801359350608088013560ff811681146109b9575f5ffd5b9699959850939692959460a0840135945060c09093013592915050565b5f5f604083850312156109e7575f5ffd5b6109f0836108cc565b91506109fe602084016108cc565b90509250929050565b600181811c90821680610a1b57607f821691505b602082108103610a3957634e487b7160e01b5f52602260045260245ffd5b50919050565b634e487b7160e01b5f52601160045260245ffd5b8181038181111561034457610344610a3f565b5f5f83545f8160011c90506001821680610a8157607f821691505b602082108103610a9f57634e487b7160e01b5f52602260045260245ffd5b808015610ab35760018114610ac857610af6565b60ff1984168752821515830287019450610af6565b5f888152602090205f5b84811015610aee57815489820152600190910190602001610ad2565b505082870194505b50929695505050505050565b8082018082111561034457610344610a3f56feddf252ad1be2c89b69c2b068fc378daa952ba7f163c4a11628f55a4df523b3efa164736f6c634300081e000a000000000000000000000000000000000000000000000000000000000000006000000000000000000000000000000000000000000000000000000000000000a0000000000000000000000000000000000000000000000000000000000000001200000000000000000000000000000000000000000000000000000000000000094d6f636b2057455448000000000000000000000000000000000000000000000000000000000000000000000000000000000000000000000000000000000000056d57455448000000000000000000000000000000000000000000000000000000",
        "nonce": "0x3f8",
        "chainId": "0x515"
      },
      "additionalContracts": [],
      "isFixedGasLimit": false
    },
    {
      "hash": "0x0f96f92d4ac9bae5079782ca7e4bdbe7daea73abd19a0099cb4585e0893109f9",
      "transactionType": "CREATE",
      "contractName": "MockERC20",
      "contractAddress": "0x2720892b2acd250891cd0069704d07fc981bf885",
      "function": null,
      "arguments": [
        "Mock USDC",
        "mUSDC",
        "6"
      ],
      "transaction": {
        "from": "0x4b992f2fbf714c0fcbb23bac5130ace48cad00cd",
        "gas": "0xea855",
        "value": "0x0",
        "input": "0x60e060405234801561000f575f5ffd5b50604051610f39380380610f3983398101604081905261002e916101a1565b8282825f61003c84826102a2565b50600161004983826102a2565b5060ff81166080524660a05261005d61006c565b60c052506103cd945050505050565b5f7f8b73c3c69bb8fe3d512ecc4cf759cc79239f7b179b0ffacaa9a75d522b39400f5f60405161009c919061035c565b6040805191829003822060208301939093528101919091527fc89efdaa54c0f20c7adf612882df0950f5a951637e0307cdcb4c672f298b8bc660608201524660808201523060a082015260c00160405160208183030381529060405280519060200120905090565b634e487b7160e01b5f52604160045260245ffd5b5f82601f830112610127575f5ffd5b81516001600160401b0381111561014057610140610104565b604051601f8201601f19908116603f011681016001600160401b038111828210171561016e5761016e610104565b604052818152838201602001851015610185575f5ffd5b8160208501602083015e5f918101602001919091529392505050565b5f5f5f606084860312156101b3575f5ffd5b83516001600160401b038111156101c8575f5ffd5b6101d486828701610118565b602086015190945090506001600160401b038111156101f1575f5ffd5b6101fd86828701610118565b925050604084015160ff81168114610213575f5ffd5b809150509250925092565b600181811c9082168061023257607f821691505b60208210810361025057634e487b7160e01b5f52602260045260245ffd5b50919050565b601f82111561029d57805f5260205f20601f840160051c8101602085101561027b5750805b601f840160051c820191505b8181101561029a575f8155600101610287565b50505b505050565b81516001600160401b038111156102bb576102bb610104565b6102cf816102c9845461021e565b84610256565b6020601f821160018114610301575f83156102ea5750848201515b5f19600385901b1c1916600184901b17845561029a565b5f84815260208120601f198516915b828110156103305787850151825560209485019460019092019101610310565b508482101561034d57868401515f19600387901b60f8161c191681555b50505050600190811b01905550565b5f5f83546103698161021e565b6001821680156103805760018114610395576103c2565b60ff19831686528115158202860193506103c2565b865f5260205f205f5b838110156103ba5781548882015260019091019060200161039e565b505081860193505b509195945050505050565b60805160a05160c051610b426103f75f395f61045c01525f61042701525f6101590152610b425ff3fe608060405234801561000f575f5ffd5b50600436106100e5575f3560e01c806370a08231116100885780639dc29fac116100635780639dc29fac146101f0578063a9059cbb14610203578063d505accf14610216578063dd62ed3e14610229575f5ffd5b806370a08231146101aa5780637ecebe00146101c957806395d89b41146101e8575f5ffd5b806323b872dd116100c357806323b872dd14610141578063313ce567146101545780633644e5151461018d57806340c10f1914610195575f5ffd5b806306fdde03146100e9578063095ea7b31461010757806318160ddd1461012a575b5f5ffd5b6100f1610253565b6040516100fe9190610897565b60405180910390f35b61011a6101153660046108e7565b6102de565b60405190151581526020016100fe565b61013360025481565b6040519081526020016100fe565b61011a61014f36600461090f565b61034a565b61017b7f000000000000000000000000000000000000000000000000000000000000000081565b60405160ff90911681526020016100fe565b610133610424565b6101a86101a33660046108e7565b61047e565b005b6101336101b8366004610949565b60036020525f908152604090205481565b6101336101d7366004610949565b60056020525f908152604090205481565b6100f161048c565b6101a86101fe3660046108e7565b610499565b61011a6102113660046108e7565b6104a3565b6101a8610224366004610969565b610506565b6101336102373660046109d6565b600460209081525f928352604080842090915290825290205481565b5f805461025f90610a07565b80601f016020809104026020016040519081016040528092919081815260200182805461028b90610a07565b80156102d65780601f106102ad576101008083540402835291602001916102d6565b820191905f5260205f20905b8154815290600101906020018083116102b957829003601f168201915b505050505081565b335f8181526004602090815260408083206001600160a01b038716808552925280832085905551919290917f8c5be1e5ebec7d5bd14f71427d1e84f3dd0314c0f7b2291e5b200ac8c7c3b925906103389086815260200190565b60405180910390a35060015b92915050565b6001600160a01b0383165f9081526004602090815260408083203384529091528120545f1981146103a35761037f8382610a53565b6001600160a01b0386165f9081526004602090815260408083203384529091529020555b6001600160a01b0385165f90815260036020526040812080548592906103ca908490610a53565b90915550506001600160a01b038085165f81815260036020526040908190208054870190555190918716905f516020610b165f395f51905f52906104119087815260200190565b60405180910390a3506001949350505050565b5f7f0000000000000000000000000000000000000000000000000000000000000000461461045957610454610749565b905090565b507f000000000000000000000000000000000000000000000000000000000000000090565b61048882826107e1565b5050565b6001805461025f90610a07565b6104888282610838565b335f908152600360205260408120805483919083906104c3908490610a53565b90915550506001600160a01b0383165f81815260036020526040908190208054850190555133905f516020610b165f395f51905f52906103389086815260200190565b4284101561055b5760405162461bcd60e51b815260206004820152601760248201527f5045524d49545f444541444c494e455f4558504952454400000000000000000060448201526064015b60405180910390fd5b5f6001610566610424565b6001600160a01b038a81165f8181526005602090815260409182902080546001810190915582517f6e71edae12b1b97f4d1f60370fef10105fa2faae0126114a169c64845d6126c98184015280840194909452938d166060840152608083018c905260a083019390935260c08083018b90528151808403909101815260e08301909152805192019190912061190160f01b6101008301526101028201929092526101228101919091526101420160408051601f1981840301815282825280516020918201205f84529083018083525260ff871690820152606081018590526080810184905260a0016020604051602081039080840390855afa15801561066e573d5f5f3e3d5ffd5b5050604051601f1901519150506001600160a01b038116158015906106a45750876001600160a01b0316816001600160a01b0316145b6106e15760405162461bcd60e51b815260206004820152600e60248201526d24a72b20a624a22fa9a4a3a722a960911b6044820152606401610552565b6001600160a01b039081165f9081526004602090815260408083208a8516808552908352928190208990555188815291928a16917f8c5be1e5ebec7d5bd14f71427d1e84f3dd0314c0f7b2291e5b200ac8c7c3b925910160405180910390a350505050505050565b5f7f8b73c3c69bb8fe3d512ecc4cf759cc79239f7b179b0ffacaa9a75d522b39400f5f6040516107799190610a66565b6040805191829003822060208301939093528101919091527fc89efdaa54c0f20c7adf612882df0950f5a951637e0307cdcb4c672f298b8bc660608201524660808201523060a082015260c00160405160208183030381529060405280519060200120905090565b8060025f8282546107f29190610b02565b90915550506001600160a01b0382165f818152600360209081526040808320805486019055518481525f516020610b165f395f51905f5291015b60405180910390a35050565b6001600160a01b0382165f908152600360205260408120805483929061085f908490610a53565b90915550506002805482900390556040518181525f906001600160a01b038416905f516020610b165f395f51905f529060200161082c565b602081525f82518060208401528060208501604085015e5f604082850101526040601f19601f83011684010191505092915050565b80356001600160a01b03811681146108e2575f5ffd5b919050565b5f5f604083850312156108f8575f5ffd5b610901836108cc565b946020939093013593505050565b5f5f5f60608486031215610921575f5ffd5b61092a846108cc565b9250610938602085016108cc565b929592945050506040919091013590565b5f60208284031215610959575f5ffd5b610962826108cc565b9392505050565b5f5f5f5f5f5f5f60e0888a03121561097f575f5ffd5b610988886108cc565b9650610996602089016108cc565b95506040880135945060608801359350608088013560ff811681146109b9575f5ffd5b9699959850939692959460a0840135945060c09093013592915050565b5f5f604083850312156109e7575f5ffd5b6109f0836108cc565b91506109fe602084016108cc565b90509250929050565b600181811c90821680610a1b57607f821691505b602082108103610a3957634e487b7160e01b5f52602260045260245ffd5b50919050565b634e487b7160e01b5f52601160045260245ffd5b8181038181111561034457610344610a3f565b5f5f83545f8160011c90506001821680610a8157607f821691505b602082108103610a9f57634e487b7160e01b5f52602260045260245ffd5b808015610ab35760018114610ac857610af6565b60ff1984168752821515830287019450610af6565b5f888152602090205f5b84811015610aee57815489820152600190910190602001610ad2565b505082870194505b50929695505050505050565b8082018082111561034457610344610a3f56feddf252ad1be2c89b69c2b068fc378daa952ba7f163c4a11628f55a4df523b3efa164736f6c634300081e000a000000000000000000000000000000000000000000000000000000000000006000000000000000000000000000000000000000000000000000000000000000a0000000000000000000000000000000000000000000000000000000000000000600000000000000000000000000000000000000000000000000000000000000094d6f636b2055534443000000000000000000000000000000000000000000000000000000000000000000000000000000000000000000000000000000000000056d55534443000000000000000000000000000000000000000000000000000000",
        "nonce": "0x3f9",
        "chainId": "0x515"
      },
      "additionalContracts": [],
      "isFixedGasLimit": false
    },
    {
      "hash": "0xc4a8b8c22f82b89e85140ce2eba1b28d9d8138a279792cb91e6907a0b1a7691b",
      "transactionType": "CALL",
      "contractName": "MockERC20",
      "contractAddress": "0x0959fa80b9622e369e43631ef44e4f2063094855",
      "function": "mint(address,uint256)",
      "arguments": [
        "0x4b992F2Fbf714C0fCBb23baC5130Ace48CaD00cd",
        "10000000000000000000000000000000"
      ],
      "transaction": {
        "from": "0x4b992f2fbf714c0fcbb23bac5130ace48cad00cd",
        "to": "0x0959fa80b9622e369e43631ef44e4f2063094855",
        "gas": "0x18680",
        "value": "0x0",
        "input": "0x40c10f190000000000000000000000004b992f2fbf714c0fcbb23bac5130ace48cad00cd000000000000000000000000000000000000007e37be2022c0914b2680000000",
        "nonce": "0x3fa",
        "chainId": "0x515"
      },
      "additionalContracts": [],
      "isFixedGasLimit": false
    },
    {
      "hash": "0x6a701797d66e1de9d5407c31388eb550fcf3a83e75cb942eccc7a84de10d5031",
      "transactionType": "CALL",
      "contractName": "MockERC20",
      "contractAddress": "0x2720892b2acd250891cd0069704d07fc981bf885",
      "function": "mint(address,uint256)",
      "arguments": [
        "0x4b992F2Fbf714C0fCBb23baC5130Ace48CaD00cd",
        "10000000000000000000000000000000"
      ],
      "transaction": {
        "from": "0x4b992f2fbf714c0fcbb23bac5130ace48cad00cd",
        "to": "0x2720892b2acd250891cd0069704d07fc981bf885",
        "gas": "0x18680",
        "value": "0x0",
        "input": "0x40c10f190000000000000000000000004b992f2fbf714c0fcbb23bac5130ace48cad00cd000000000000000000000000000000000000007e37be2022c0914b2680000000",
        "nonce": "0x3fb",
        "chainId": "0x515"
      },
      "additionalContracts": [],
      "isFixedGasLimit": false
    },
    {
      "hash": "0x16a8723fa4c3643a11d14afae9b05e964879e034e4245d90b78d3468c2ce4223",
      "transactionType": "CALL",
      "contractName": "MockERC20",
      "contractAddress": "0x0959fa80b9622e369e43631ef44e4f2063094855",
      "function": "approve(address,uint256)",
      "arguments": [
        "0x000000000022D473030F116dDEE9F6B43aC78BA3",
        "115792089237316195423570985008687907853269984665640564039457584007913129639935"
      ],
      "transaction": {
        "from": "0x4b992f2fbf714c0fcbb23bac5130ace48cad00cd",
        "to": "0x0959fa80b9622e369e43631ef44e4f2063094855",
        "gas": "0x10939",
        "value": "0x0",
        "input": "0x095ea7b3000000000000000000000000000000000022d473030f116ddee9f6b43ac78ba3ffffffffffffffffffffffffffffffffffffffffffffffffffffffffffffffff",
        "nonce": "0x3fc",
        "chainId": "0x515"
      },
      "additionalContracts": [],
      "isFixedGasLimit": false
    },
    {
      "hash": "0xc372709ce8ba9b5b31b8493e0fbda71e49af605048c3e1614702c91739840243",
      "transactionType": "CALL",
      "contractName": "MockERC20",
      "contractAddress": "0x2720892b2acd250891cd0069704d07fc981bf885",
      "function": "approve(address,uint256)",
      "arguments": [
        "0x000000000022D473030F116dDEE9F6B43aC78BA3",
        "115792089237316195423570985008687907853269984665640564039457584007913129639935"
      ],
      "transaction": {
        "from": "0x4b992f2fbf714c0fcbb23bac5130ace48cad00cd",
        "to": "0x2720892b2acd250891cd0069704d07fc981bf885",
        "gas": "0x10939",
        "value": "0x0",
        "input": "0x095ea7b3000000000000000000000000000000000022d473030f116ddee9f6b43ac78ba3ffffffffffffffffffffffffffffffffffffffffffffffffffffffffffffffff",
        "nonce": "0x3fd",
        "chainId": "0x515"
      },
      "additionalContracts": [],
      "isFixedGasLimit": false
    },
    {
      "hash": "0x5435233b8f05713a34d9b8400b51c3cbdf7de75889c6529ea268f580ef44fb91",
      "transactionType": "CALL",
      "contractName": "MockERC20",
      "contractAddress": "0x0959fa80b9622e369e43631ef44e4f2063094855",
      "function": "approve(address,uint256)",
      "arguments": [
        "0xf969Aee60879C54bAAed9F3eD26147Db216Fd664",
        "115792089237316195423570985008687907853269984665640564039457584007913129639935"
      ],
      "transaction": {
        "from": "0x4b992f2fbf714c0fcbb23bac5130ace48cad00cd",
        "to": "0x0959fa80b9622e369e43631ef44e4f2063094855",
        "gas": "0xfad0",
        "value": "0x0",
        "input": "0x095ea7b3000000000000000000000000f969aee60879c54baaed9f3ed26147db216fd664ffffffffffffffffffffffffffffffffffffffffffffffffffffffffffffffff",
        "nonce": "0x3fe",
        "chainId": "0x515"
      },
      "additionalContracts": [],
      "isFixedGasLimit": false
    },
    {
      "hash": "0x96b6052765c88cf837dc7ddce9bd3261ec3cb39bcc5cad61fab83999efa32694",
      "transactionType": "CALL",
      "contractName": "MockERC20",
      "contractAddress": "0x2720892b2acd250891cd0069704d07fc981bf885",
      "function": "approve(address,uint256)",
      "arguments": [
        "0xf969Aee60879C54bAAed9F3eD26147Db216Fd664",
        "115792089237316195423570985008687907853269984665640564039457584007913129639935"
      ],
      "transaction": {
        "from": "0x4b992f2fbf714c0fcbb23bac5130ace48cad00cd",
        "to": "0x2720892b2acd250891cd0069704d07fc981bf885",
        "gas": "0xfad0",
        "value": "0x0",
        "input": "0x095ea7b3000000000000000000000000f969aee60879c54baaed9f3ed26147db216fd664ffffffffffffffffffffffffffffffffffffffffffffffffffffffffffffffff",
        "nonce": "0x3ff",
        "chainId": "0x515"
      },
      "additionalContracts": [],
      "isFixedGasLimit": false
    },
    {
      "hash": "0xf3ec2e39de0eddf509cf3859752cbe9089246958f58ee35d8ce33884fe871b8b",
      "transactionType": "CALL",
      "contractName": null,
      "contractAddress": "0x000000000022d473030f116ddee9f6b43ac78ba3",
      "function": "approve(address,address,uint160,uint48)",
      "arguments": [
        "0x0959fA80b9622e369e43631ef44e4F2063094855",
        "0xf969Aee60879C54bAAed9F3eD26147Db216Fd664",
        "1461501637330902918203684832716283019655932542975",
        "281474976710655"
      ],
      "transaction": {
        "from": "0x4b992f2fbf714c0fcbb23bac5130ace48cad00cd",
        "to": "0x000000000022d473030f116ddee9f6b43ac78ba3",
        "gas": "0x1112d",
        "value": "0x0",
        "input": "0x87517c450000000000000000000000000959fa80b9622e369e43631ef44e4f2063094855000000000000000000000000f969aee60879c54baaed9f3ed26147db216fd664000000000000000000000000ffffffffffffffffffffffffffffffffffffffff0000000000000000000000000000000000000000000000000000ffffffffffff",
        "nonce": "0x400",
        "chainId": "0x515"
      },
      "additionalContracts": [],
      "isFixedGasLimit": false
    },
    {
      "hash": "0xafb571082feecf3be9b9e8fc9e62726fe974c46a9e4c5dd3837b45b2dfcc1574",
      "transactionType": "CALL",
      "contractName": null,
      "contractAddress": "0x000000000022d473030f116ddee9f6b43ac78ba3",
      "function": "approve(address,address,uint160,uint48)",
      "arguments": [
        "0x2720892B2acD250891cd0069704D07fC981bf885",
        "0xf969Aee60879C54bAAed9F3eD26147Db216Fd664",
        "1461501637330902918203684832716283019655932542975",
        "281474976710655"
      ],
      "transaction": {
        "from": "0x4b992f2fbf714c0fcbb23bac5130ace48cad00cd",
        "to": "0x000000000022d473030f116ddee9f6b43ac78ba3",
        "gas": "0x101ee",
        "value": "0x0",
        "input": "0x87517c450000000000000000000000002720892b2acd250891cd0069704d07fc981bf885000000000000000000000000f969aee60879c54baaed9f3ed26147db216fd664000000000000000000000000ffffffffffffffffffffffffffffffffffffffff0000000000000000000000000000000000000000000000000000ffffffffffff",
        "nonce": "0x401",
        "chainId": "0x515"
      },
      "additionalContracts": [],
      "isFixedGasLimit": false
    },
    {
      "hash": "0x6394a9a1b9d15b5013ffd94bbc6557299820227c325b6440e22e9d8f2fc44162",
      "transactionType": "CALL",
      "contractName": null,
      "contractAddress": "0xf969aee60879c54baaed9f3ed26147db216fd664",
      "function": "initializePool((address,address,uint24,int24,address),uint160)",
      "arguments": [
        "(0x0959fA80b9622e369e43631ef44e4F2063094855, 0x2720892B2acD250891cd0069704D07fC981bf885, 3000, 60, 0x0000000000000000000000000000000000000000)",
        "79228162514264337593543950336"
      ],
      "transaction": {
        "from": "0x4b992f2fbf714c0fcbb23bac5130ace48cad00cd",
        "to": "0xf969aee60879c54baaed9f3ed26147db216fd664",
        "gas": "0x14059",
        "value": "0x0",
        "input": "0xf70204050000000000000000000000000959fa80b9622e369e43631ef44e4f20630948550000000000000000000000002720892b2acd250891cd0069704d07fc981bf8850000000000000000000000000000000000000000000000000000000000000bb8000000000000000000000000000000000000000000000000000000000000003c00000000000000000000000000000000000000000000000000000000000000000000000000000000000000000000000000000001000000000000000000000000",
        "nonce": "0x402",
        "chainId": "0x515"
      },
      "additionalContracts": [],
      "isFixedGasLimit": false
    },
    {
      "hash": "0x2482531cd09e5950740cbfc5a0f657663d3417be007cf939278e33f15f17e9ac",
      "transactionType": "CALL",
      "contractName": null,
      "contractAddress": "0xf969aee60879c54baaed9f3ed26147db216fd664",
      "function": "modifyLiquidities(bytes,uint256)",
      "arguments": [
        "0x000000000000000000000000000000000000000000000000000000000000004000000000000000000000000000000000000000000000000000000000000000800000000000000000000000000000000000000000000000000000000000000004020d14140000000000000000000000000000000000000000000000000000000000000000000000000000000000000000000000000000000000000000000000040000000000000000000000000000000000000000000000000000000000000080000000000000000000000000000000000000000000000000000000000000024000000000000000000000000000000000000000000000000000000000000002a0000000000000000000000000000000000000000000000000000000000000030000000000000000000000000000000000000000000000000000000000000001a00000000000000000000000000959fa80b9622e369e43631ef44e4f20630948550000000000000000000000002720892b2acd250891cd0069704d07fc981bf8850000000000000000000000000000000000000000000000000000000000000bb8000000000000000000000000000000000000000000000000000000000000003c0000000000000000000000000000000000000000000000000000000000000000fffffffffffffffffffffffffffffffffffffffffffffffffffffffffff2764c00000000000000000000000000000000000000000000000000000000000d89b400000000000000000000000000000000000000000000d3c21bcecceda100000000000000000000000000000000000000000000000000d3c21bcecceda0ff2baf00000000000000000000000000000000000000000000d3c21bcecceda0ff2baf0000000000000000000000004b992f2fbf714c0fcbb23bac5130ace48cad00cd0000000000000000000000000000000000000000000000000000000000000180000000000000000000000000000000000000000000000000000000000000000000000000000000000000000000000000000000000000000000000000000000400000000000000000000000000959fa80b9622e369e43631ef44e4f20630948550000000000000000000000002720892b2acd250891cd0069704d07fc981bf88500000000000000000000000000000000000000000000000000000000000000400000000000000000000000000959fa80b9622e369e43631ef44e4f20630948550000000000000000000000004b992f2fbf714c0fcbb23bac5130ace48cad00cd00000000000000000000000000000000000000000000000000000000000000400000000000000000000000002720892b2acd250891cd0069704d07fc981bf8850000000000000000000000004b992f2fbf714c0fcbb23bac5130ace48cad00cd",
        "1773565275"
      ],
      "transaction": {
        "from": "0x4b992f2fbf714c0fcbb23bac5130ace48cad00cd",
        "to": "0xf969aee60879c54baaed9f3ed26147db216fd664",
        "gas": "0x93993",
        "value": "0x0",
        "input": "0xdd46508f00000000000000000000000000000000000000000000000000000000000000400000000000000000000000000000000000000000000000000000000069b6755b0000000000000000000000000000000000000000000000000000000000000400000000000000000000000000000000000000000000000000000000000000004000000000000000000000000000000000000000000000000000000000000000800000000000000000000000000000000000000000000000000000000000000004020d14140000000000000000000000000000000000000000000000000000000000000000000000000000000000000000000000000000000000000000000000040000000000000000000000000000000000000000000000000000000000000080000000000000000000000000000000000000000000000000000000000000024000000000000000000000000000000000000000000000000000000000000002a0000000000000000000000000000000000000000000000000000000000000030000000000000000000000000000000000000000000000000000000000000001a00000000000000000000000000959fa80b9622e369e43631ef44e4f20630948550000000000000000000000002720892b2acd250891cd0069704d07fc981bf8850000000000000000000000000000000000000000000000000000000000000bb8000000000000000000000000000000000000000000000000000000000000003c0000000000000000000000000000000000000000000000000000000000000000fffffffffffffffffffffffffffffffffffffffffffffffffffffffffff2764c00000000000000000000000000000000000000000000000000000000000d89b400000000000000000000000000000000000000000000d3c21bcecceda100000000000000000000000000000000000000000000000000d3c21bcecceda0ff2baf00000000000000000000000000000000000000000000d3c21bcecceda0ff2baf0000000000000000000000004b992f2fbf714c0fcbb23bac5130ace48cad00cd0000000000000000000000000000000000000000000000000000000000000180000000000000000000000000000000000000000000000000000000000000000000000000000000000000000000000000000000000000000000000000000000400000000000000000000000000959fa80b9622e369e43631ef44e4f20630948550000000000000000000000002720892b2acd250891cd0069704d07fc981bf88500000000000000000000000000000000000000000000000000000000000000400000000000000000000000000959fa80b9622e369e43631ef44e4f20630948550000000000000000000000004b992f2fbf714c0fcbb23bac5130ace48cad00cd00000000000000000000000000000000000000000000000000000000000000400000000000000000000000002720892b2acd250891cd0069704d07fc981bf8850000000000000000000000004b992f2fbf714c0fcbb23bac5130ace48cad00cd",
        "nonce": "0x403",
        "chainId": "0x515"
      },
      "additionalContracts": [],
      "isFixedGasLimit": false
    },
    {
      "hash": "0x1480ccd5121155a48fa2da6e4e39b641e98c69963f0e126a86644d8c2b7e6e66",
      "transactionType": "CALL",
      "contractName": null,
      "contractAddress": "0xf969aee60879c54baaed9f3ed26147db216fd664",
      "function": "initializePool((address,address,uint24,int24,address),uint160)",
      "arguments": [
        "(0x0959fA80b9622e369e43631ef44e4F2063094855, 0x2720892B2acD250891cd0069704D07fC981bf885, 3000, 60, 0xBF42f398561644Eb55A7269dA0F937D0512c40c0)",
        "79228162514264337593543950336"
      ],
      "transaction": {
        "from": "0x4b992f2fbf714c0fcbb23bac5130ace48cad00cd",
        "to": "0xf969aee60879c54baaed9f3ed26147db216fd664",
        "gas": "0x12fa4",
        "value": "0x0",
        "input": "0xf70204050000000000000000000000000959fa80b9622e369e43631ef44e4f20630948550000000000000000000000002720892b2acd250891cd0069704d07fc981bf8850000000000000000000000000000000000000000000000000000000000000bb8000000000000000000000000000000000000000000000000000000000000003c000000000000000000000000bf42f398561644eb55a7269da0f937d0512c40c00000000000000000000000000000000000000001000000000000000000000000",
        "nonce": "0x404",
        "chainId": "0x515"
      },
      "additionalContracts": [],
      "isFixedGasLimit": false
    },
    {
      "hash": "0x21ed7abd2fe12d8fbba479154b20b1c05c81bae2f44271bfcbc1c66e0a5f6929",
      "transactionType": "CALL",
      "contractName": null,
      "contractAddress": "0xf969aee60879c54baaed9f3ed26147db216fd664",
      "function": "modifyLiquidities(bytes,uint256)",
      "arguments": [
        "0x000000000000000000000000000000000000000000000000000000000000004000000000000000000000000000000000000000000000000000000000000000800000000000000000000000000000000000000000000000000000000000000004020d14140000000000000000000000000000000000000000000000000000000000000000000000000000000000000000000000000000000000000000000000040000000000000000000000000000000000000000000000000000000000000080000000000000000000000000000000000000000000000000000000000000024000000000000000000000000000000000000000000000000000000000000002a0000000000000000000000000000000000000000000000000000000000000030000000000000000000000000000000000000000000000000000000000000001a00000000000000000000000000959fa80b9622e369e43631ef44e4f20630948550000000000000000000000002720892b2acd250891cd0069704d07fc981bf8850000000000000000000000000000000000000000000000000000000000000bb8000000000000000000000000000000000000000000000000000000000000003c000000000000000000000000bf42f398561644eb55a7269da0f937d0512c40c0fffffffffffffffffffffffffffffffffffffffffffffffffffffffffff2764c00000000000000000000000000000000000000000000000000000000000d89b400000000000000000000000000000000000000000000d3c21bcecceda100000000000000000000000000000000000000000000000000d3c21bcecceda0ff2baf00000000000000000000000000000000000000000000d3c21bcecceda0ff2baf0000000000000000000000004b992f2fbf714c0fcbb23bac5130ace48cad00cd0000000000000000000000000000000000000000000000000000000000000180000000000000000000000000000000000000000000000000000000000000000000000000000000000000000000000000000000000000000000000000000000400000000000000000000000000959fa80b9622e369e43631ef44e4f20630948550000000000000000000000002720892b2acd250891cd0069704d07fc981bf88500000000000000000000000000000000000000000000000000000000000000400000000000000000000000000959fa80b9622e369e43631ef44e4f20630948550000000000000000000000004b992f2fbf714c0fcbb23bac5130ace48cad00cd00000000000000000000000000000000000000000000000000000000000000400000000000000000000000002720892b2acd250891cd0069704d07fc981bf8850000000000000000000000004b992f2fbf714c0fcbb23bac5130ace48cad00cd",
        "1773565275"
      ],
      "transaction": {
        "from": "0x4b992f2fbf714c0fcbb23bac5130ace48cad00cd",
        "to": "0xf969aee60879c54baaed9f3ed26147db216fd664",
        "gas": "0x86a84",
        "value": "0x0",
        "input": "0xdd46508f00000000000000000000000000000000000000000000000000000000000000400000000000000000000000000000000000000000000000000000000069b6755b0000000000000000000000000000000000000000000000000000000000000400000000000000000000000000000000000000000000000000000000000000004000000000000000000000000000000000000000000000000000000000000000800000000000000000000000000000000000000000000000000000000000000004020d14140000000000000000000000000000000000000000000000000000000000000000000000000000000000000000000000000000000000000000000000040000000000000000000000000000000000000000000000000000000000000080000000000000000000000000000000000000000000000000000000000000024000000000000000000000000000000000000000000000000000000000000002a0000000000000000000000000000000000000000000000000000000000000030000000000000000000000000000000000000000000000000000000000000001a00000000000000000000000000959fa80b9622e369e43631ef44e4f20630948550000000000000000000000002720892b2acd250891cd0069704d07fc981bf8850000000000000000000000000000000000000000000000000000000000000bb8000000000000000000000000000000000000000000000000000000000000003c000000000000000000000000bf42f398561644eb55a7269da0f937d0512c40c0fffffffffffffffffffffffffffffffffffffffffffffffffffffffffff2764c00000000000000000000000000000000000000000000000000000000000d89b400000000000000000000000000000000000000000000d3c21bcecceda100000000000000000000000000000000000000000000000000d3c21bcecceda0ff2baf00000000000000000000000000000000000000000000d3c21bcecceda0ff2baf0000000000000000000000004b992f2fbf714c0fcbb23bac5130ace48cad00cd0000000000000000000000000000000000000000000000000000000000000180000000000000000000000000000000000000000000000000000000000000000000000000000000000000000000000000000000000000000000000000000000400000000000000000000000000959fa80b9622e369e43631ef44e4f20630948550000000000000000000000002720892b2acd250891cd0069704d07fc981bf88500000000000000000000000000000000000000000000000000000000000000400000000000000000000000000959fa80b9622e369e43631ef44e4f20630948550000000000000000000000004b992f2fbf714c0fcbb23bac5130ace48cad00cd00000000000000000000000000000000000000000000000000000000000000400000000000000000000000002720892b2acd250891cd0069704d07fc981bf8850000000000000000000000004b992f2fbf714c0fcbb23bac5130ace48cad00cd",
        "nonce": "0x405",
        "chainId": "0x515"
      },
      "additionalContracts": [],
      "isFixedGasLimit": false
    },
    {
      "hash": "0xc069b0f06295defb82153dcbf06cf4c0b4967f09a90eb3b5173ea9a4b7e321c6",
      "transactionType": "CALL",
      "contractName": "MockERC20",
      "contractAddress": "0x0959fa80b9622e369e43631ef44e4f2063094855",
      "function": "approve(address,uint256)",
      "arguments": [
        "0x9cD2b0a732dd5e023a5539921e0FD1c30E198Dba",
        "115792089237316195423570985008687907853269984665640564039457584007913129639935"
      ],
      "transaction": {
        "from": "0x4b992f2fbf714c0fcbb23bac5130ace48cad00cd",
        "to": "0x0959fa80b9622e369e43631ef44e4f2063094855",
        "gas": "0xfad0",
        "value": "0x0",
        "input": "0x095ea7b30000000000000000000000009cd2b0a732dd5e023a5539921e0fd1c30e198dbaffffffffffffffffffffffffffffffffffffffffffffffffffffffffffffffff",
        "nonce": "0x406",
        "chainId": "0x515"
      },
      "additionalContracts": [],
      "isFixedGasLimit": false
    },
    {
      "hash": "0x1524262a4a8ef6f80b8d8a392f9d3e97db9fcc8efd1457b8c19f879b1b0c6c3e",
      "transactionType": "CALL",
      "contractName": "MockERC20",
      "contractAddress": "0x0959fa80b9622e369e43631ef44e4f2063094855",
      "function": "approve(address,uint256)",
      "arguments": [
        "0x493a90b1eA1bCbe2c6AB5af70928C82051B5e726",
        "115792089237316195423570985008687907853269984665640564039457584007913129639935"
      ],
      "transaction": {
        "from": "0x4b992f2fbf714c0fcbb23bac5130ace48cad00cd",
        "to": "0x0959fa80b9622e369e43631ef44e4f2063094855",
        "gas": "0xfad0",
        "value": "0x0",
        "input": "0x095ea7b3000000000000000000000000493a90b1ea1bcbe2c6ab5af70928c82051b5e726ffffffffffffffffffffffffffffffffffffffffffffffffffffffffffffffff",
        "nonce": "0x407",
        "chainId": "0x515"
      },
      "additionalContracts": [],
      "isFixedGasLimit": false
    },
    {
      "hash": "0xbc1191947184efdfe27bcfa91c927e90cc0c207e52d8ec19887d16be684fb243",
      "transactionType": "CALL",
      "contractName": null,
      "contractAddress": "0x9cd2b0a732dd5e023a5539921e0fd1c30e198dba",
      "function": "swapExactTokensForTokens(uint256,uint256,bool,(address,address,uint24,int24,address),bytes,address,uint256)",
      "arguments": [
        "50000000000000000000",
        "1",
        "true",
        "(0x0959fA80b9622e369e43631ef44e4F2063094855, 0x2720892B2acD250891cd0069704D07fC981bf885, 3000, 60, 0x0000000000000000000000000000000000000000)",
        "0x",
        "0x4b992F2Fbf714C0fCBb23baC5130Ace48CaD00cd",
        "1773565275"
      ],
      "transaction": {
        "from": "0x4b992f2fbf714c0fcbb23bac5130ace48cad00cd",
        "to": "0x9cd2b0a732dd5e023a5539921e0fd1c30e198dba",
        "gas": "0x2d5dc",
        "value": "0x0",
        "input": "0xb1a0d571000000000000000000000000000000000000000000000002b5e3af16b1880000000000000000000000000000000000000000000000000000000000000000000100000000000000000000000000000000000000000000000000000000000000010000000000000000000000000959fa80b9622e369e43631ef44e4f20630948550000000000000000000000002720892b2acd250891cd0069704d07fc981bf8850000000000000000000000000000000000000000000000000000000000000bb8000000000000000000000000000000000000000000000000000000000000003c000000000000000000000000000000000000000000000000000000000000000000000000000000000000000000000000000000000000000000000000000001600000000000000000000000004b992f2fbf714c0fcbb23bac5130ace48cad00cd0000000000000000000000000000000000000000000000000000000069b6755b0000000000000000000000000000000000000000000000000000000000000000",
        "nonce": "0x408",
        "chainId": "0x515"
      },
      "additionalContracts": [],
      "isFixedGasLimit": false
    },
    {
      "hash": "0xc4604f3e2e97aa0cdcb97db6e57f2073bf1f843d3916a1132c56f9eb2be9e276",
      "transactionType": "CALL",
      "contractName": null,
      "contractAddress": "0x493a90b1ea1bcbe2c6ab5af70928c82051b5e726",
      "function": "createOrder((bytes32,address,address,bool,uint128,uint8,uint40,uint40,uint32,uint32,uint128,uint128,uint24,uint128,address))",
      "arguments": [
        "(0xfc7e76b61dfeebf45a97e9066b6cd972baa97ff9c45aaf4149ed9ab2a3bfe3d9, 0x0959fA80b9622e369e43631ef44e4F2063094855, 0x2720892B2acD250891cd0069704D07fC981bf885, true, 50000000000000000000, 0, 1773564675, 1773571875, 0, 1, 10000000000000000000, 10000000000000000000, 500, 1, 0x0000000000000000000000000000000000000000)"
      ],
      "transaction": {
        "from": "0x4b992f2fbf714c0fcbb23bac5130ace48cad00cd",
        "to": "0x493a90b1ea1bcbe2c6ab5af70928c82051b5e726",
        "gas": "0x62a82",
        "value": "0x0",
        "input": "0xe72aff3ffc7e76b61dfeebf45a97e9066b6cd972baa97ff9c45aaf4149ed9ab2a3bfe3d90000000000000000000000000959fa80b9622e369e43631ef44e4f20630948550000000000000000000000002720892b2acd250891cd0069704d07fc981bf8850000000000000000000000000000000000000000000000000000000000000001000000000000000000000000000000000000000000000002b5e3af16b188000000000000000000000000000000000000000000000000000000000000000000000000000000000000000000000000000000000000000000000000000069b673030000000000000000000000000000000000000000000000000000000069b68f23000000000000000000000000000000000000000000000000000000000000000000000000000000000000000000000000000000000000000000000000000000010000000000000000000000000000000000000000000000008ac7230489e800000000000000000000000000000000000000000000000000008ac7230489e8000000000000000000000000000000000000000000000000000000000000000001f400000000000000000000000000000000000000000000000000000000000000010000000000000000000000000000000000000000000000000000000000000000",
        "nonce": "0x409",
        "chainId": "0x515"
      },
      "additionalContracts": [],
      "isFixedGasLimit": false
    },
    {
      "hash": "0x27dab4db93b7949178939dba99182d6c7a141d4a1db35b443a87a7a74bae11d0",
      "transactionType": "CALL",
      "contractName": null,
      "contractAddress": "0xe56a90ad0deab20ee9fcd780b14ca90fc71d3f5d",
      "function": "executeNextSlice((bytes32,(address,address,uint24,int24,address),uint24,uint160,uint40))",
      "arguments": [
        "(0x8133e457b20c3dc261c5e5c2bfb5dc55a15258c5a399731ced16dcfddee2db86, (0x0959fA80b9622e369e43631ef44e4F2063094855, 0x2720892B2acD250891cd0069704D07fC981bf885, 3000, 60, 0xBF42f398561644Eb55A7269dA0F937D0512c40c0), 50, 4295128740, 1773565275)"
      ],
      "transaction": {
        "from": "0x4b992f2fbf714c0fcbb23bac5130ace48cad00cd",
        "to": "0xe56a90ad0deab20ee9fcd780b14ca90fc71d3f5d",
        "gas": "0x610dc",
        "value": "0x0",
        "input": "0xdee732448133e457b20c3dc261c5e5c2bfb5dc55a15258c5a399731ced16dcfddee2db860000000000000000000000000959fa80b9622e369e43631ef44e4f20630948550000000000000000000000002720892b2acd250891cd0069704d07fc981bf8850000000000000000000000000000000000000000000000000000000000000bb8000000000000000000000000000000000000000000000000000000000000003c000000000000000000000000bf42f398561644eb55a7269da0f937d0512c40c0000000000000000000000000000000000000000000000000000000000000003200000000000000000000000000000000000000000000000000000001000276a40000000000000000000000000000000000000000000000000000000069b6755b",
        "nonce": "0x40a",
        "chainId": "0x515"
      },
      "additionalContracts": [],
      "isFixedGasLimit": false
    },
    {
      "hash": "0xeee31bd77b4dc87b678d56c62b18015a3df54f95d18564aef34b54d914b44e62",
      "transactionType": "CALL",
      "contractName": null,
      "contractAddress": "0xe56a90ad0deab20ee9fcd780b14ca90fc71d3f5d",
      "function": "executeNextSlice((bytes32,(address,address,uint24,int24,address),uint24,uint160,uint40))",
      "arguments": [
        "(0x8133e457b20c3dc261c5e5c2bfb5dc55a15258c5a399731ced16dcfddee2db86, (0x0959fA80b9622e369e43631ef44e4F2063094855, 0x2720892B2acD250891cd0069704D07fC981bf885, 3000, 60, 0xBF42f398561644Eb55A7269dA0F937D0512c40c0), 50, 4295128740, 1773565275)"
      ],
      "transaction": {
        "from": "0x4b992f2fbf714c0fcbb23bac5130ace48cad00cd",
        "to": "0xe56a90ad0deab20ee9fcd780b14ca90fc71d3f5d",
        "gas": "0x158d3",
        "value": "0x0",
        "input": "0xdee732448133e457b20c3dc261c5e5c2bfb5dc55a15258c5a399731ced16dcfddee2db860000000000000000000000000959fa80b9622e369e43631ef44e4f20630948550000000000000000000000002720892b2acd250891cd0069704d07fc981bf8850000000000000000000000000000000000000000000000000000000000000bb8000000000000000000000000000000000000000000000000000000000000003c000000000000000000000000bf42f398561644eb55a7269da0f937d0512c40c0000000000000000000000000000000000000000000000000000000000000003200000000000000000000000000000000000000000000000000000001000276a40000000000000000000000000000000000000000000000000000000069b6755b",
        "nonce": "0x40b",
        "chainId": "0x515"
      },
      "additionalContracts": [],
      "isFixedGasLimit": false
    },
    {
      "hash": "0xe8f977b1f744ddf9836e0ba30548140284dc3389823a6bf4676d4bd84c44d121",
      "transactionType": "CALL",
      "contractName": null,
      "contractAddress": "0xe56a90ad0deab20ee9fcd780b14ca90fc71d3f5d",
      "function": "executeNextSlice((bytes32,(address,address,uint24,int24,address),uint24,uint160,uint40))",
      "arguments": [
        "(0x8133e457b20c3dc261c5e5c2bfb5dc55a15258c5a399731ced16dcfddee2db86, (0x0959fA80b9622e369e43631ef44e4F2063094855, 0x2720892B2acD250891cd0069704D07fC981bf885, 3000, 60, 0xBF42f398561644Eb55A7269dA0F937D0512c40c0), 50, 4295128740, 1773565275)"
      ],
      "transaction": {
        "from": "0x4b992f2fbf714c0fcbb23bac5130ace48cad00cd",
        "to": "0xe56a90ad0deab20ee9fcd780b14ca90fc71d3f5d",
        "gas": "0x158d3",
        "value": "0x0",
        "input": "0xdee732448133e457b20c3dc261c5e5c2bfb5dc55a15258c5a399731ced16dcfddee2db860000000000000000000000000959fa80b9622e369e43631ef44e4f20630948550000000000000000000000002720892b2acd250891cd0069704d07fc981bf8850000000000000000000000000000000000000000000000000000000000000bb8000000000000000000000000000000000000000000000000000000000000003c000000000000000000000000bf42f398561644eb55a7269da0f937d0512c40c0000000000000000000000000000000000000000000000000000000000000003200000000000000000000000000000000000000000000000000000001000276a40000000000000000000000000000000000000000000000000000000069b6755b",
        "nonce": "0x40c",
        "chainId": "0x515"
      },
      "additionalContracts": [],
      "isFixedGasLimit": false
    },
    {
      "hash": "0xb67c16ca474bb0f2d9ebae25a188f58bf91a518915d3b28ffae33a2487c58c71",
      "transactionType": "CALL",
      "contractName": null,
      "contractAddress": "0xe56a90ad0deab20ee9fcd780b14ca90fc71d3f5d",
      "function": "executeNextSlice((bytes32,(address,address,uint24,int24,address),uint24,uint160,uint40))",
      "arguments": [
        "(0x8133e457b20c3dc261c5e5c2bfb5dc55a15258c5a399731ced16dcfddee2db86, (0x0959fA80b9622e369e43631ef44e4F2063094855, 0x2720892B2acD250891cd0069704D07fC981bf885, 3000, 60, 0xBF42f398561644Eb55A7269dA0F937D0512c40c0), 50, 4295128740, 1773565275)"
      ],
      "transaction": {
        "from": "0x4b992f2fbf714c0fcbb23bac5130ace48cad00cd",
        "to": "0xe56a90ad0deab20ee9fcd780b14ca90fc71d3f5d",
        "gas": "0x158d3",
        "value": "0x0",
        "input": "0xdee732448133e457b20c3dc261c5e5c2bfb5dc55a15258c5a399731ced16dcfddee2db860000000000000000000000000959fa80b9622e369e43631ef44e4f20630948550000000000000000000000002720892b2acd250891cd0069704d07fc981bf8850000000000000000000000000000000000000000000000000000000000000bb8000000000000000000000000000000000000000000000000000000000000003c000000000000000000000000bf42f398561644eb55a7269da0f937d0512c40c0000000000000000000000000000000000000000000000000000000000000003200000000000000000000000000000000000000000000000000000001000276a40000000000000000000000000000000000000000000000000000000069b6755b",
        "nonce": "0x40d",
        "chainId": "0x515"
      },
      "additionalContracts": [],
      "isFixedGasLimit": false
    },
    {
      "hash": "0xcd645b17a12b3c5a4788807c22b0e2773e8b7aadcecf3049392068289c682e75",
      "transactionType": "CALL",
      "contractName": null,
      "contractAddress": "0xe56a90ad0deab20ee9fcd780b14ca90fc71d3f5d",
      "function": "executeNextSlice((bytes32,(address,address,uint24,int24,address),uint24,uint160,uint40))",
      "arguments": [
        "(0x8133e457b20c3dc261c5e5c2bfb5dc55a15258c5a399731ced16dcfddee2db86, (0x0959fA80b9622e369e43631ef44e4F2063094855, 0x2720892B2acD250891cd0069704D07fC981bf885, 3000, 60, 0xBF42f398561644Eb55A7269dA0F937D0512c40c0), 50, 4295128740, 1773565275)"
      ],
      "transaction": {
        "from": "0x4b992f2fbf714c0fcbb23bac5130ace48cad00cd",
        "to": "0xe56a90ad0deab20ee9fcd780b14ca90fc71d3f5d",
        "gas": "0x158d3",
        "value": "0x0",
        "input": "0xdee732448133e457b20c3dc261c5e5c2bfb5dc55a15258c5a399731ced16dcfddee2db860000000000000000000000000959fa80b9622e369e43631ef44e4f20630948550000000000000000000000002720892b2acd250891cd0069704d07fc981bf8850000000000000000000000000000000000000000000000000000000000000bb8000000000000000000000000000000000000000000000000000000000000003c000000000000000000000000bf42f398561644eb55a7269da0f937d0512c40c0000000000000000000000000000000000000000000000000000000000000003200000000000000000000000000000000000000000000000000000001000276a40000000000000000000000000000000000000000000000000000000069b6755b",
        "nonce": "0x40e",
        "chainId": "0x515"
      },
      "additionalContracts": [],
      "isFixedGasLimit": false
    },
    {
      "hash": "0x93547269bb5b1862b385517cff21607050b9cc6335f03cb9e3248f549ad39fe1",
      "transactionType": "CALL",
      "contractName": null,
      "contractAddress": "0xe56a90ad0deab20ee9fcd780b14ca90fc71d3f5d",
      "function": "executeNextSlice((bytes32,(address,address,uint24,int24,address),uint24,uint160,uint40))",
      "arguments": [
        "(0x8133e457b20c3dc261c5e5c2bfb5dc55a15258c5a399731ced16dcfddee2db86, (0x0959fA80b9622e369e43631ef44e4F2063094855, 0x2720892B2acD250891cd0069704D07fC981bf885, 3000, 60, 0xBF42f398561644Eb55A7269dA0F937D0512c40c0), 50, 4295128740, 1773565275)"
      ],
      "transaction": {
        "from": "0x4b992f2fbf714c0fcbb23bac5130ace48cad00cd",
        "to": "0xe56a90ad0deab20ee9fcd780b14ca90fc71d3f5d",
        "gas": "0x158d3",
        "value": "0x0",
        "input": "0xdee732448133e457b20c3dc261c5e5c2bfb5dc55a15258c5a399731ced16dcfddee2db860000000000000000000000000959fa80b9622e369e43631ef44e4f20630948550000000000000000000000002720892b2acd250891cd0069704d07fc981bf8850000000000000000000000000000000000000000000000000000000000000bb8000000000000000000000000000000000000000000000000000000000000003c000000000000000000000000bf42f398561644eb55a7269da0f937d0512c40c0000000000000000000000000000000000000000000000000000000000000003200000000000000000000000000000000000000000000000000000001000276a40000000000000000000000000000000000000000000000000000000069b6755b",
        "nonce": "0x40f",
        "chainId": "0x515"
      },
      "additionalContracts": [],
      "isFixedGasLimit": false
    },
    {
      "hash": "0xb2e19d17330eb76ad6345dade4a3c2bf42fa3c2582d5beca9655d3d11aa50855",
      "transactionType": "CALL",
      "contractName": null,
      "contractAddress": "0xe56a90ad0deab20ee9fcd780b14ca90fc71d3f5d",
      "function": "executeNextSlice((bytes32,(address,address,uint24,int24,address),uint24,uint160,uint40))",
      "arguments": [
        "(0x8133e457b20c3dc261c5e5c2bfb5dc55a15258c5a399731ced16dcfddee2db86, (0x0959fA80b9622e369e43631ef44e4F2063094855, 0x2720892B2acD250891cd0069704D07fC981bf885, 3000, 60, 0xBF42f398561644Eb55A7269dA0F937D0512c40c0), 50, 4295128740, 1773565275)"
      ],
      "transaction": {
        "from": "0x4b992f2fbf714c0fcbb23bac5130ace48cad00cd",
        "to": "0xe56a90ad0deab20ee9fcd780b14ca90fc71d3f5d",
        "gas": "0x158d3",
        "value": "0x0",
        "input": "0xdee732448133e457b20c3dc261c5e5c2bfb5dc55a15258c5a399731ced16dcfddee2db860000000000000000000000000959fa80b9622e369e43631ef44e4f20630948550000000000000000000000002720892b2acd250891cd0069704d07fc981bf8850000000000000000000000000000000000000000000000000000000000000bb8000000000000000000000000000000000000000000000000000000000000003c000000000000000000000000bf42f398561644eb55a7269da0f937d0512c40c0000000000000000000000000000000000000000000000000000000000000003200000000000000000000000000000000000000000000000000000001000276a40000000000000000000000000000000000000000000000000000000069b6755b",
        "nonce": "0x410",
        "chainId": "0x515"
      },
      "additionalContracts": [],
      "isFixedGasLimit": false
    },
    {
      "hash": "0xaabe9b5c3cf51013b9dff7984e68be2a26a0d95e4811a956f7b3e3ef58da3148",
      "transactionType": "CALL",
      "contractName": null,
      "contractAddress": "0xe56a90ad0deab20ee9fcd780b14ca90fc71d3f5d",
      "function": "executeNextSlice((bytes32,(address,address,uint24,int24,address),uint24,uint160,uint40))",
      "arguments": [
        "(0x8133e457b20c3dc261c5e5c2bfb5dc55a15258c5a399731ced16dcfddee2db86, (0x0959fA80b9622e369e43631ef44e4F2063094855, 0x2720892B2acD250891cd0069704D07fC981bf885, 3000, 60, 0xBF42f398561644Eb55A7269dA0F937D0512c40c0), 50, 4295128740, 1773565275)"
      ],
      "transaction": {
        "from": "0x4b992f2fbf714c0fcbb23bac5130ace48cad00cd",
        "to": "0xe56a90ad0deab20ee9fcd780b14ca90fc71d3f5d",
        "gas": "0x158d3",
        "value": "0x0",
        "input": "0xdee732448133e457b20c3dc261c5e5c2bfb5dc55a15258c5a399731ced16dcfddee2db860000000000000000000000000959fa80b9622e369e43631ef44e4f20630948550000000000000000000000002720892b2acd250891cd0069704d07fc981bf8850000000000000000000000000000000000000000000000000000000000000bb8000000000000000000000000000000000000000000000000000000000000003c000000000000000000000000bf42f398561644eb55a7269da0f937d0512c40c0000000000000000000000000000000000000000000000000000000000000003200000000000000000000000000000000000000000000000000000001000276a40000000000000000000000000000000000000000000000000000000069b6755b",
        "nonce": "0x411",
        "chainId": "0x515"
      },
      "additionalContracts": [],
      "isFixedGasLimit": false
    },
    {
      "hash": "0xed752727599d6f66c15297068c6292e7071f58a5c1110aac934dd9f967bd732a",
      "transactionType": "CALL",
      "contractName": null,
      "contractAddress": "0xe56a90ad0deab20ee9fcd780b14ca90fc71d3f5d",
      "function": "executeNextSlice((bytes32,(address,address,uint24,int24,address),uint24,uint160,uint40))",
      "arguments": [
        "(0x8133e457b20c3dc261c5e5c2bfb5dc55a15258c5a399731ced16dcfddee2db86, (0x0959fA80b9622e369e43631ef44e4F2063094855, 0x2720892B2acD250891cd0069704D07fC981bf885, 3000, 60, 0xBF42f398561644Eb55A7269dA0F937D0512c40c0), 50, 4295128740, 1773565275)"
      ],
      "transaction": {
        "from": "0x4b992f2fbf714c0fcbb23bac5130ace48cad00cd",
        "to": "0xe56a90ad0deab20ee9fcd780b14ca90fc71d3f5d",
        "gas": "0x158d3",
        "value": "0x0",
        "input": "0xdee732448133e457b20c3dc261c5e5c2bfb5dc55a15258c5a399731ced16dcfddee2db860000000000000000000000000959fa80b9622e369e43631ef44e4f20630948550000000000000000000000002720892b2acd250891cd0069704d07fc981bf8850000000000000000000000000000000000000000000000000000000000000bb8000000000000000000000000000000000000000000000000000000000000003c000000000000000000000000bf42f398561644eb55a7269da0f937d0512c40c0000000000000000000000000000000000000000000000000000000000000003200000000000000000000000000000000000000000000000000000001000276a40000000000000000000000000000000000000000000000000000000069b6755b",
        "nonce": "0x412",
        "chainId": "0x515"
      },
      "additionalContracts": [],
      "isFixedGasLimit": false
    },
    {
      "hash": "0x93bc26a328a2d5d863b2497bf8ce17bbaa63229f7e09c460c38f5977cdbd55cd",
      "transactionType": "CALL",
      "contractName": null,
      "contractAddress": "0xe56a90ad0deab20ee9fcd780b14ca90fc71d3f5d",
      "function": "executeNextSlice((bytes32,(address,address,uint24,int24,address),uint24,uint160,uint40))",
      "arguments": [
        "(0x8133e457b20c3dc261c5e5c2bfb5dc55a15258c5a399731ced16dcfddee2db86, (0x0959fA80b9622e369e43631ef44e4F2063094855, 0x2720892B2acD250891cd0069704D07fC981bf885, 3000, 60, 0xBF42f398561644Eb55A7269dA0F937D0512c40c0), 50, 4295128740, 1773565275)"
      ],
      "transaction": {
        "from": "0x4b992f2fbf714c0fcbb23bac5130ace48cad00cd",
        "to": "0xe56a90ad0deab20ee9fcd780b14ca90fc71d3f5d",
        "gas": "0x158d3",
        "value": "0x0",
        "input": "0xdee732448133e457b20c3dc261c5e5c2bfb5dc55a15258c5a399731ced16dcfddee2db860000000000000000000000000959fa80b9622e369e43631ef44e4f20630948550000000000000000000000002720892b2acd250891cd0069704d07fc981bf8850000000000000000000000000000000000000000000000000000000000000bb8000000000000000000000000000000000000000000000000000000000000003c000000000000000000000000bf42f398561644eb55a7269da0f937d0512c40c0000000000000000000000000000000000000000000000000000000000000003200000000000000000000000000000000000000000000000000000001000276a40000000000000000000000000000000000000000000000000000000069b6755b",
        "nonce": "0x413",
        "chainId": "0x515"
      },
      "additionalContracts": [],
      "isFixedGasLimit": false
    },
    {
      "hash": null,
      "transactionType": "CALL",
      "contractName": null,
      "contractAddress": "0xe56a90ad0deab20ee9fcd780b14ca90fc71d3f5d",
      "function": "executeNextSlice((bytes32,(address,address,uint24,int24,address),uint24,uint160,uint40))",
      "arguments": [
        "(0x8133e457b20c3dc261c5e5c2bfb5dc55a15258c5a399731ced16dcfddee2db86, (0x0959fA80b9622e369e43631ef44e4F2063094855, 0x2720892B2acD250891cd0069704D07fC981bf885, 3000, 60, 0xBF42f398561644Eb55A7269dA0F937D0512c40c0), 50, 4295128740, 1773565275)"
      ],
      "transaction": {
        "from": "0x4b992f2fbf714c0fcbb23bac5130ace48cad00cd",
        "to": "0xe56a90ad0deab20ee9fcd780b14ca90fc71d3f5d",
        "gas": "0x158d3",
        "value": "0x0",
        "input": "0xdee732448133e457b20c3dc261c5e5c2bfb5dc55a15258c5a399731ced16dcfddee2db860000000000000000000000000959fa80b9622e369e43631ef44e4f20630948550000000000000000000000002720892b2acd250891cd0069704d07fc981bf8850000000000000000000000000000000000000000000000000000000000000bb8000000000000000000000000000000000000000000000000000000000000003c000000000000000000000000bf42f398561644eb55a7269da0f937d0512c40c0000000000000000000000000000000000000000000000000000000000000003200000000000000000000000000000000000000000000000000000001000276a40000000000000000000000000000000000000000000000000000000069b6755b",
        "nonce": "0x414",
        "chainId": "0x515"
      },
      "additionalContracts": [],
      "isFixedGasLimit": false
    },
    {
      "hash": null,
      "transactionType": "CALL",
      "contractName": null,
      "contractAddress": "0xe56a90ad0deab20ee9fcd780b14ca90fc71d3f5d",
      "function": "executeNextSlice((bytes32,(address,address,uint24,int24,address),uint24,uint160,uint40))",
      "arguments": [
        "(0x8133e457b20c3dc261c5e5c2bfb5dc55a15258c5a399731ced16dcfddee2db86, (0x0959fA80b9622e369e43631ef44e4F2063094855, 0x2720892B2acD250891cd0069704D07fC981bf885, 3000, 60, 0xBF42f398561644Eb55A7269dA0F937D0512c40c0), 50, 4295128740, 1773565275)"
      ],
      "transaction": {
        "from": "0x4b992f2fbf714c0fcbb23bac5130ace48cad00cd",
        "to": "0xe56a90ad0deab20ee9fcd780b14ca90fc71d3f5d",
        "gas": "0x158d3",
        "value": "0x0",
        "input": "0xdee732448133e457b20c3dc261c5e5c2bfb5dc55a15258c5a399731ced16dcfddee2db860000000000000000000000000959fa80b9622e369e43631ef44e4f20630948550000000000000000000000002720892b2acd250891cd0069704d07fc981bf8850000000000000000000000000000000000000000000000000000000000000bb8000000000000000000000000000000000000000000000000000000000000003c000000000000000000000000bf42f398561644eb55a7269da0f937d0512c40c0000000000000000000000000000000000000000000000000000000000000003200000000000000000000000000000000000000000000000000000001000276a40000000000000000000000000000000000000000000000000000000069b6755b",
        "nonce": "0x415",
        "chainId": "0x515"
      },
      "additionalContracts": [],
      "isFixedGasLimit": false
    },
    {
      "hash": null,
      "transactionType": "CALL",
      "contractName": null,
      "contractAddress": "0xe56a90ad0deab20ee9fcd780b14ca90fc71d3f5d",
      "function": "executeNextSlice((bytes32,(address,address,uint24,int24,address),uint24,uint160,uint40))",
      "arguments": [
        "(0x8133e457b20c3dc261c5e5c2bfb5dc55a15258c5a399731ced16dcfddee2db86, (0x0959fA80b9622e369e43631ef44e4F2063094855, 0x2720892B2acD250891cd0069704D07fC981bf885, 3000, 60, 0xBF42f398561644Eb55A7269dA0F937D0512c40c0), 50, 4295128740, 1773565275)"
      ],
      "transaction": {
        "from": "0x4b992f2fbf714c0fcbb23bac5130ace48cad00cd",
        "to": "0xe56a90ad0deab20ee9fcd780b14ca90fc71d3f5d",
        "gas": "0x158d3",
        "value": "0x0",
        "input": "0xdee732448133e457b20c3dc261c5e5c2bfb5dc55a15258c5a399731ced16dcfddee2db860000000000000000000000000959fa80b9622e369e43631ef44e4f20630948550000000000000000000000002720892b2acd250891cd0069704d07fc981bf8850000000000000000000000000000000000000000000000000000000000000bb8000000000000000000000000000000000000000000000000000000000000003c000000000000000000000000bf42f398561644eb55a7269da0f937d0512c40c0000000000000000000000000000000000000000000000000000000000000003200000000000000000000000000000000000000000000000000000001000276a40000000000000000000000000000000000000000000000000000000069b6755b",
        "nonce": "0x416",
        "chainId": "0x515"
      },
      "additionalContracts": [],
      "isFixedGasLimit": false
    },
    {
      "hash": null,
      "transactionType": "CALL",
      "contractName": null,
      "contractAddress": "0xe56a90ad0deab20ee9fcd780b14ca90fc71d3f5d",
      "function": "executeNextSlice((bytes32,(address,address,uint24,int24,address),uint24,uint160,uint40))",
      "arguments": [
        "(0x8133e457b20c3dc261c5e5c2bfb5dc55a15258c5a399731ced16dcfddee2db86, (0x0959fA80b9622e369e43631ef44e4F2063094855, 0x2720892B2acD250891cd0069704D07fC981bf885, 3000, 60, 0xBF42f398561644Eb55A7269dA0F937D0512c40c0), 50, 4295128740, 1773565275)"
      ],
      "transaction": {
        "from": "0x4b992f2fbf714c0fcbb23bac5130ace48cad00cd",
        "to": "0xe56a90ad0deab20ee9fcd780b14ca90fc71d3f5d",
        "gas": "0x158d3",
        "value": "0x0",
        "input": "0xdee732448133e457b20c3dc261c5e5c2bfb5dc55a15258c5a399731ced16dcfddee2db860000000000000000000000000959fa80b9622e369e43631ef44e4f20630948550000000000000000000000002720892b2acd250891cd0069704d07fc981bf8850000000000000000000000000000000000000000000000000000000000000bb8000000000000000000000000000000000000000000000000000000000000003c000000000000000000000000bf42f398561644eb55a7269da0f937d0512c40c0000000000000000000000000000000000000000000000000000000000000003200000000000000000000000000000000000000000000000000000001000276a40000000000000000000000000000000000000000000000000000000069b6755b",
        "nonce": "0x417",
        "chainId": "0x515"
      },
      "additionalContracts": [],
      "isFixedGasLimit": false
    },
    {
      "hash": null,
      "transactionType": "CALL",
      "contractName": null,
      "contractAddress": "0xe56a90ad0deab20ee9fcd780b14ca90fc71d3f5d",
      "function": "executeNextSlice((bytes32,(address,address,uint24,int24,address),uint24,uint160,uint40))",
      "arguments": [
        "(0x8133e457b20c3dc261c5e5c2bfb5dc55a15258c5a399731ced16dcfddee2db86, (0x0959fA80b9622e369e43631ef44e4F2063094855, 0x2720892B2acD250891cd0069704D07fC981bf885, 3000, 60, 0xBF42f398561644Eb55A7269dA0F937D0512c40c0), 50, 4295128740, 1773565275)"
      ],
      "transaction": {
        "from": "0x4b992f2fbf714c0fcbb23bac5130ace48cad00cd",
        "to": "0xe56a90ad0deab20ee9fcd780b14ca90fc71d3f5d",
        "gas": "0x158d3",
        "value": "0x0",
        "input": "0xdee732448133e457b20c3dc261c5e5c2bfb5dc55a15258c5a399731ced16dcfddee2db860000000000000000000000000959fa80b9622e369e43631ef44e4f20630948550000000000000000000000002720892b2acd250891cd0069704d07fc981bf8850000000000000000000000000000000000000000000000000000000000000bb8000000000000000000000000000000000000000000000000000000000000003c000000000000000000000000bf42f398561644eb55a7269da0f937d0512c40c0000000000000000000000000000000000000000000000000000000000000003200000000000000000000000000000000000000000000000000000001000276a40000000000000000000000000000000000000000000000000000000069b6755b",
        "nonce": "0x418",
        "chainId": "0x515"
      },
      "additionalContracts": [],
      "isFixedGasLimit": false
    },
    {
      "hash": null,
      "transactionType": "CALL",
      "contractName": null,
      "contractAddress": "0xe56a90ad0deab20ee9fcd780b14ca90fc71d3f5d",
      "function": "executeNextSlice((bytes32,(address,address,uint24,int24,address),uint24,uint160,uint40))",
      "arguments": [
        "(0x8133e457b20c3dc261c5e5c2bfb5dc55a15258c5a399731ced16dcfddee2db86, (0x0959fA80b9622e369e43631ef44e4F2063094855, 0x2720892B2acD250891cd0069704D07fC981bf885, 3000, 60, 0xBF42f398561644Eb55A7269dA0F937D0512c40c0), 50, 4295128740, 1773565275)"
      ],
      "transaction": {
        "from": "0x4b992f2fbf714c0fcbb23bac5130ace48cad00cd",
        "to": "0xe56a90ad0deab20ee9fcd780b14ca90fc71d3f5d",
        "gas": "0x158d3",
        "value": "0x0",
        "input": "0xdee732448133e457b20c3dc261c5e5c2bfb5dc55a15258c5a399731ced16dcfddee2db860000000000000000000000000959fa80b9622e369e43631ef44e4f20630948550000000000000000000000002720892b2acd250891cd0069704d07fc981bf8850000000000000000000000000000000000000000000000000000000000000bb8000000000000000000000000000000000000000000000000000000000000003c000000000000000000000000bf42f398561644eb55a7269da0f937d0512c40c0000000000000000000000000000000000000000000000000000000000000003200000000000000000000000000000000000000000000000000000001000276a40000000000000000000000000000000000000000000000000000000069b6755b",
        "nonce": "0x419",
        "chainId": "0x515"
      },
      "additionalContracts": [],
      "isFixedGasLimit": false
    },
    {
      "hash": null,
      "transactionType": "CALL",
      "contractName": null,
      "contractAddress": "0xe56a90ad0deab20ee9fcd780b14ca90fc71d3f5d",
      "function": "executeNextSlice((bytes32,(address,address,uint24,int24,address),uint24,uint160,uint40))",
      "arguments": [
        "(0x8133e457b20c3dc261c5e5c2bfb5dc55a15258c5a399731ced16dcfddee2db86, (0x0959fA80b9622e369e43631ef44e4F2063094855, 0x2720892B2acD250891cd0069704D07fC981bf885, 3000, 60, 0xBF42f398561644Eb55A7269dA0F937D0512c40c0), 50, 4295128740, 1773565275)"
      ],
      "transaction": {
        "from": "0x4b992f2fbf714c0fcbb23bac5130ace48cad00cd",
        "to": "0xe56a90ad0deab20ee9fcd780b14ca90fc71d3f5d",
        "gas": "0x158d3",
        "value": "0x0",
        "input": "0xdee732448133e457b20c3dc261c5e5c2bfb5dc55a15258c5a399731ced16dcfddee2db860000000000000000000000000959fa80b9622e369e43631ef44e4f20630948550000000000000000000000002720892b2acd250891cd0069704d07fc981bf8850000000000000000000000000000000000000000000000000000000000000bb8000000000000000000000000000000000000000000000000000000000000003c000000000000000000000000bf42f398561644eb55a7269da0f937d0512c40c0000000000000000000000000000000000000000000000000000000000000003200000000000000000000000000000000000000000000000000000001000276a40000000000000000000000000000000000000000000000000000000069b6755b",
        "nonce": "0x41a",
        "chainId": "0x515"
      },
      "additionalContracts": [],
      "isFixedGasLimit": false
    },
    {
      "hash": null,
      "transactionType": "CALL",
      "contractName": null,
      "contractAddress": "0xe56a90ad0deab20ee9fcd780b14ca90fc71d3f5d",
      "function": "executeNextSlice((bytes32,(address,address,uint24,int24,address),uint24,uint160,uint40))",
      "arguments": [
        "(0x8133e457b20c3dc261c5e5c2bfb5dc55a15258c5a399731ced16dcfddee2db86, (0x0959fA80b9622e369e43631ef44e4F2063094855, 0x2720892B2acD250891cd0069704D07fC981bf885, 3000, 60, 0xBF42f398561644Eb55A7269dA0F937D0512c40c0), 50, 4295128740, 1773565275)"
      ],
      "transaction": {
        "from": "0x4b992f2fbf714c0fcbb23bac5130ace48cad00cd",
        "to": "0xe56a90ad0deab20ee9fcd780b14ca90fc71d3f5d",
        "gas": "0x158d3",
        "value": "0x0",
        "input": "0xdee732448133e457b20c3dc261c5e5c2bfb5dc55a15258c5a399731ced16dcfddee2db860000000000000000000000000959fa80b9622e369e43631ef44e4f20630948550000000000000000000000002720892b2acd250891cd0069704d07fc981bf8850000000000000000000000000000000000000000000000000000000000000bb8000000000000000000000000000000000000000000000000000000000000003c000000000000000000000000bf42f398561644eb55a7269da0f937d0512c40c0000000000000000000000000000000000000000000000000000000000000003200000000000000000000000000000000000000000000000000000001000276a40000000000000000000000000000000000000000000000000000000069b6755b",
        "nonce": "0x41b",
        "chainId": "0x515"
      },
      "additionalContracts": [],
      "isFixedGasLimit": false
    },
    {
      "hash": null,
      "transactionType": "CALL",
      "contractName": null,
      "contractAddress": "0xe56a90ad0deab20ee9fcd780b14ca90fc71d3f5d",
      "function": "executeNextSlice((bytes32,(address,address,uint24,int24,address),uint24,uint160,uint40))",
      "arguments": [
        "(0x8133e457b20c3dc261c5e5c2bfb5dc55a15258c5a399731ced16dcfddee2db86, (0x0959fA80b9622e369e43631ef44e4F2063094855, 0x2720892B2acD250891cd0069704D07fC981bf885, 3000, 60, 0xBF42f398561644Eb55A7269dA0F937D0512c40c0), 50, 4295128740, 1773565275)"
      ],
      "transaction": {
        "from": "0x4b992f2fbf714c0fcbb23bac5130ace48cad00cd",
        "to": "0xe56a90ad0deab20ee9fcd780b14ca90fc71d3f5d",
        "gas": "0x158d3",
        "value": "0x0",
        "input": "0xdee732448133e457b20c3dc261c5e5c2bfb5dc55a15258c5a399731ced16dcfddee2db860000000000000000000000000959fa80b9622e369e43631ef44e4f20630948550000000000000000000000002720892b2acd250891cd0069704d07fc981bf8850000000000000000000000000000000000000000000000000000000000000bb8000000000000000000000000000000000000000000000000000000000000003c000000000000000000000000bf42f398561644eb55a7269da0f937d0512c40c0000000000000000000000000000000000000000000000000000000000000003200000000000000000000000000000000000000000000000000000001000276a40000000000000000000000000000000000000000000000000000000069b6755b",
        "nonce": "0x41c",
        "chainId": "0x515"
      },
      "additionalContracts": [],
      "isFixedGasLimit": false
    },
    {
      "hash": null,
      "transactionType": "CALL",
      "contractName": null,
      "contractAddress": "0xe56a90ad0deab20ee9fcd780b14ca90fc71d3f5d",
      "function": "executeNextSlice((bytes32,(address,address,uint24,int24,address),uint24,uint160,uint40))",
      "arguments": [
        "(0x8133e457b20c3dc261c5e5c2bfb5dc55a15258c5a399731ced16dcfddee2db86, (0x0959fA80b9622e369e43631ef44e4F2063094855, 0x2720892B2acD250891cd0069704D07fC981bf885, 3000, 60, 0xBF42f398561644Eb55A7269dA0F937D0512c40c0), 50, 4295128740, 1773565275)"
      ],
      "transaction": {
        "from": "0x4b992f2fbf714c0fcbb23bac5130ace48cad00cd",
        "to": "0xe56a90ad0deab20ee9fcd780b14ca90fc71d3f5d",
        "gas": "0x158d3",
        "value": "0x0",
        "input": "0xdee732448133e457b20c3dc261c5e5c2bfb5dc55a15258c5a399731ced16dcfddee2db860000000000000000000000000959fa80b9622e369e43631ef44e4f20630948550000000000000000000000002720892b2acd250891cd0069704d07fc981bf8850000000000000000000000000000000000000000000000000000000000000bb8000000000000000000000000000000000000000000000000000000000000003c000000000000000000000000bf42f398561644eb55a7269da0f937d0512c40c0000000000000000000000000000000000000000000000000000000000000003200000000000000000000000000000000000000000000000000000001000276a40000000000000000000000000000000000000000000000000000000069b6755b",
        "nonce": "0x41d",
        "chainId": "0x515"
      },
      "additionalContracts": [],
      "isFixedGasLimit": false
    },
    {
      "hash": null,
      "transactionType": "CALL",
      "contractName": null,
      "contractAddress": "0xe56a90ad0deab20ee9fcd780b14ca90fc71d3f5d",
      "function": "executeNextSlice((bytes32,(address,address,uint24,int24,address),uint24,uint160,uint40))",
      "arguments": [
        "(0x8133e457b20c3dc261c5e5c2bfb5dc55a15258c5a399731ced16dcfddee2db86, (0x0959fA80b9622e369e43631ef44e4F2063094855, 0x2720892B2acD250891cd0069704D07fC981bf885, 3000, 60, 0xBF42f398561644Eb55A7269dA0F937D0512c40c0), 50, 4295128740, 1773565275)"
      ],
      "transaction": {
        "from": "0x4b992f2fbf714c0fcbb23bac5130ace48cad00cd",
        "to": "0xe56a90ad0deab20ee9fcd780b14ca90fc71d3f5d",
        "gas": "0x158d3",
        "value": "0x0",
        "input": "0xdee732448133e457b20c3dc261c5e5c2bfb5dc55a15258c5a399731ced16dcfddee2db860000000000000000000000000959fa80b9622e369e43631ef44e4f20630948550000000000000000000000002720892b2acd250891cd0069704d07fc981bf8850000000000000000000000000000000000000000000000000000000000000bb8000000000000000000000000000000000000000000000000000000000000003c000000000000000000000000bf42f398561644eb55a7269da0f937d0512c40c0000000000000000000000000000000000000000000000000000000000000003200000000000000000000000000000000000000000000000000000001000276a40000000000000000000000000000000000000000000000000000000069b6755b",
        "nonce": "0x41e",
        "chainId": "0x515"
      },
      "additionalContracts": [],
      "isFixedGasLimit": false
    },
    {
      "hash": null,
      "transactionType": "CALL",
      "contractName": null,
      "contractAddress": "0xe56a90ad0deab20ee9fcd780b14ca90fc71d3f5d",
      "function": "executeNextSlice((bytes32,(address,address,uint24,int24,address),uint24,uint160,uint40))",
      "arguments": [
        "(0x8133e457b20c3dc261c5e5c2bfb5dc55a15258c5a399731ced16dcfddee2db86, (0x0959fA80b9622e369e43631ef44e4F2063094855, 0x2720892B2acD250891cd0069704D07fC981bf885, 3000, 60, 0xBF42f398561644Eb55A7269dA0F937D0512c40c0), 50, 4295128740, 1773565275)"
      ],
      "transaction": {
        "from": "0x4b992f2fbf714c0fcbb23bac5130ace48cad00cd",
        "to": "0xe56a90ad0deab20ee9fcd780b14ca90fc71d3f5d",
        "gas": "0x158d3",
        "value": "0x0",
        "input": "0xdee732448133e457b20c3dc261c5e5c2bfb5dc55a15258c5a399731ced16dcfddee2db860000000000000000000000000959fa80b9622e369e43631ef44e4f20630948550000000000000000000000002720892b2acd250891cd0069704d07fc981bf8850000000000000000000000000000000000000000000000000000000000000bb8000000000000000000000000000000000000000000000000000000000000003c000000000000000000000000bf42f398561644eb55a7269da0f937d0512c40c0000000000000000000000000000000000000000000000000000000000000003200000000000000000000000000000000000000000000000000000001000276a40000000000000000000000000000000000000000000000000000000069b6755b",
        "nonce": "0x41f",
        "chainId": "0x515"
      },
      "additionalContracts": [],
      "isFixedGasLimit": false
    },
    {
      "hash": null,
      "transactionType": "CALL",
      "contractName": null,
      "contractAddress": "0xe56a90ad0deab20ee9fcd780b14ca90fc71d3f5d",
      "function": "executeNextSlice((bytes32,(address,address,uint24,int24,address),uint24,uint160,uint40))",
      "arguments": [
        "(0x8133e457b20c3dc261c5e5c2bfb5dc55a15258c5a399731ced16dcfddee2db86, (0x0959fA80b9622e369e43631ef44e4F2063094855, 0x2720892B2acD250891cd0069704D07fC981bf885, 3000, 60, 0xBF42f398561644Eb55A7269dA0F937D0512c40c0), 50, 4295128740, 1773565275)"
      ],
      "transaction": {
        "from": "0x4b992f2fbf714c0fcbb23bac5130ace48cad00cd",
        "to": "0xe56a90ad0deab20ee9fcd780b14ca90fc71d3f5d",
        "gas": "0x158d3",
        "value": "0x0",
        "input": "0xdee732448133e457b20c3dc261c5e5c2bfb5dc55a15258c5a399731ced16dcfddee2db860000000000000000000000000959fa80b9622e369e43631ef44e4f20630948550000000000000000000000002720892b2acd250891cd0069704d07fc981bf8850000000000000000000000000000000000000000000000000000000000000bb8000000000000000000000000000000000000000000000000000000000000003c000000000000000000000000bf42f398561644eb55a7269da0f937d0512c40c0000000000000000000000000000000000000000000000000000000000000003200000000000000000000000000000000000000000000000000000001000276a40000000000000000000000000000000000000000000000000000000069b6755b",
        "nonce": "0x420",
        "chainId": "0x515"
      },
      "additionalContracts": [],
      "isFixedGasLimit": false
    },
    {
      "hash": null,
      "transactionType": "CALL",
      "contractName": null,
      "contractAddress": "0xe56a90ad0deab20ee9fcd780b14ca90fc71d3f5d",
      "function": "executeNextSlice((bytes32,(address,address,uint24,int24,address),uint24,uint160,uint40))",
      "arguments": [
        "(0x8133e457b20c3dc261c5e5c2bfb5dc55a15258c5a399731ced16dcfddee2db86, (0x0959fA80b9622e369e43631ef44e4F2063094855, 0x2720892B2acD250891cd0069704D07fC981bf885, 3000, 60, 0xBF42f398561644Eb55A7269dA0F937D0512c40c0), 50, 4295128740, 1773565275)"
      ],
      "transaction": {
        "from": "0x4b992f2fbf714c0fcbb23bac5130ace48cad00cd",
        "to": "0xe56a90ad0deab20ee9fcd780b14ca90fc71d3f5d",
        "gas": "0x158d3",
        "value": "0x0",
        "input": "0xdee732448133e457b20c3dc261c5e5c2bfb5dc55a15258c5a399731ced16dcfddee2db860000000000000000000000000959fa80b9622e369e43631ef44e4f20630948550000000000000000000000002720892b2acd250891cd0069704d07fc981bf8850000000000000000000000000000000000000000000000000000000000000bb8000000000000000000000000000000000000000000000000000000000000003c000000000000000000000000bf42f398561644eb55a7269da0f937d0512c40c0000000000000000000000000000000000000000000000000000000000000003200000000000000000000000000000000000000000000000000000001000276a40000000000000000000000000000000000000000000000000000000069b6755b",
        "nonce": "0x421",
        "chainId": "0x515"
      },
      "additionalContracts": [],
      "isFixedGasLimit": false
    }
  ],
  "receipts": [],
  "libraries": [],
  "pending": [
    "0x4ccf8408aad1a6cc43c8ab1c2d433af218434bc6b07f2c1be7bac204e0175b5d",
    "0x0f96f92d4ac9bae5079782ca7e4bdbe7daea73abd19a0099cb4585e0893109f9",
    "0xc4a8b8c22f82b89e85140ce2eba1b28d9d8138a279792cb91e6907a0b1a7691b",
    "0x6a701797d66e1de9d5407c31388eb550fcf3a83e75cb942eccc7a84de10d5031",
    "0x16a8723fa4c3643a11d14afae9b05e964879e034e4245d90b78d3468c2ce4223",
    "0xc372709ce8ba9b5b31b8493e0fbda71e49af605048c3e1614702c91739840243",
    "0x5435233b8f05713a34d9b8400b51c3cbdf7de75889c6529ea268f580ef44fb91",
    "0x96b6052765c88cf837dc7ddce9bd3261ec3cb39bcc5cad61fab83999efa32694",
    "0xf3ec2e39de0eddf509cf3859752cbe9089246958f58ee35d8ce33884fe871b8b",
    "0xafb571082feecf3be9b9e8fc9e62726fe974c46a9e4c5dd3837b45b2dfcc1574",
    "0x6394a9a1b9d15b5013ffd94bbc6557299820227c325b6440e22e9d8f2fc44162",
    "0x2482531cd09e5950740cbfc5a0f657663d3417be007cf939278e33f15f17e9ac",
    "0x1480ccd5121155a48fa2da6e4e39b641e98c69963f0e126a86644d8c2b7e6e66",
    "0x21ed7abd2fe12d8fbba479154b20b1c05c81bae2f44271bfcbc1c66e0a5f6929",
    "0xc069b0f06295defb82153dcbf06cf4c0b4967f09a90eb3b5173ea9a4b7e321c6",
    "0x1524262a4a8ef6f80b8d8a392f9d3e97db9fcc8efd1457b8c19f879b1b0c6c3e",
    "0xbc1191947184efdfe27bcfa91c927e90cc0c207e52d8ec19887d16be684fb243",
    "0xc4604f3e2e97aa0cdcb97db6e57f2073bf1f843d3916a1132c56f9eb2be9e276",
    "0x27dab4db93b7949178939dba99182d6c7a141d4a1db35b443a87a7a74bae11d0",
    "0xeee31bd77b4dc87b678d56c62b18015a3df54f95d18564aef34b54d914b44e62",
    "0xe8f977b1f744ddf9836e0ba30548140284dc3389823a6bf4676d4bd84c44d121",
    "0xb67c16ca474bb0f2d9ebae25a188f58bf91a518915d3b28ffae33a2487c58c71",
    "0xcd645b17a12b3c5a4788807c22b0e2773e8b7aadcecf3049392068289c682e75",
    "0x93547269bb5b1862b385517cff21607050b9cc6335f03cb9e3248f549ad39fe1",
    "0xb2e19d17330eb76ad6345dade4a3c2bf42fa3c2582d5beca9655d3d11aa50855",
    "0xaabe9b5c3cf51013b9dff7984e68be2a26a0d95e4811a956f7b3e3ef58da3148",
    "0xed752727599d6f66c15297068c6292e7071f58a5c1110aac934dd9f967bd732a",
    "0x93bc26a328a2d5d863b2497bf8ce17bbaa63229f7e09c460c38f5977cdbd55cd"
  ],
  "returns": {},
  "timestamp": 1773564714107,
  "chain": 1301,
  "commit": "2745fea"
}