{
  "transactions": [
    {
      "hash": "0x8d0eabdcbdaaeceb29ee423e7ad7499dadfa2f67307e34c5face2be3b86bec8c",
      "transactionType": "CREATE",
      "contractName": "MockERC20",
      "contractAddress": "0x21f4a697823b3a0490ba09ddfa3d84fed00db634",
      "function": null,
      "arguments": [
        "Mock WETH",
        "mWETH",
        "18"
      ],
      "transaction": {
        "from": "0x4b992f2fbf714c0fcbb23bac5130ace48cad00cd",
        "gas": "0xea855",
        "value": "0x0",
        "input": "0x60e060405234801561000f575f5ffd5b50604051610f39380380610f3983398101604081905261002e916101a1565b8282825f61003c84826102a2565b50600161004983826102a2565b5060ff81166080524660a05261005d61006c565b60c052506103cd945050505050565b5f7f8b73c3c69bb8fe3d512ecc4cf759cc79239f7b179b0ffacaa9a75d522b39400f5f60405161009c919061035c565b6040805191829003822060208301939093528101919091527fc89efdaa54c0f20c7adf612882df0950f5a951637e0307cdcb4c672f298b8bc660608201524660808201523060a082015260c00160405160208183030381529060405280519060200120905090565b634e487b7160e01b5f52604160045260245ffd5b5f82601f830112610127575f5ffd5b81516001600160401b0381111561014057610140610104565b604051601f8201601f19908116603f011681016001600160401b038111828210171561016e5761016e610104565b604052818152838201602001851015610185575f5ffd5b8160208501602083015e5f918101602001919091529392505050565b5f5f5f606084860312156101b3575f5ffd5b83516001600160401b038111156101c8575f5ffd5b6101d486828701610118565b602086015190945090506001600160401b038111156101f1575f5ffd5b6101fd86828701610118565b925050604084015160ff81168114610213575f5ffd5b809150509250925092565b600181811c9082168061023257607f821691505b60208210810361025057634e487b7160e01b5f52602260045260245ffd5b50919050565b601f82111561029d57805f5260205f20601f840160051c8101602085101561027b5750805b601f840160051c820191505b8181101561029a575f8155600101610287565b50505b505050565b81516001600160401b038111156102bb576102bb610104565b6102cf816102c9845461021e565b84610256565b6020601f821160018114610301575f83156102ea5750848201515b5f19600385901b1c1916600184901b17845561029a565b5f84815260208120601f198516915b828110156103305787850151825560209485019460019092019101610310565b508482101561034d57868401515f19600387901b60f8161c191681555b50505050600190811b01905550565b5f5f83546103698161021e565b6001821680156103805760018114610395576103c2565b60ff19831686528115158202860193506103c2565b865f5260205f205f5b838110156103ba5781548882015260019091019060200161039e565b505081860193505b509195945050505050565b60805160a05160c051610b426103f75f395f61045c01525f61042701525f6101590152610b425ff3fe608060405234801561000f575f5ffd5b50600436106100e5575f3560e01c806370a08231116100885780639dc29fac116100635780639dc29fac146101f0578063a9059cbb14610203578063d505accf14610216578063dd62ed3e14610229575f5ffd5b806370a08231146101aa5780637ecebe00146101c957806395d89b41146101e8575f5ffd5b806323b872dd116100c357806323b872dd14610141578063313ce567146101545780633644e5151461018d57806340c10f1914610195575f5ffd5b806306fdde03146100e9578063095ea7b31461010757806318160ddd1461012a575b5f5ffd5b6100f1610253565b6040516100fe9190610897565b60405180910390f35b61011a6101153660046108e7565b6102de565b60405190151581526020016100fe565b61013360025481565b6040519081526020016100fe565b61011a61014f36600461090f565b61034a565b61017b7f000000000000000000000000000000000000000000000000000000000000000081565b60405160ff90911681526020016100fe565b610133610424565b6101a86101a33660046108e7565b61047e565b005b6101336101b8366004610949565b60036020525f908152604090205481565b6101336101d7366004610949565b60056020525f908152604090205481565b6100f161048c565b6101a86101fe3660046108e7565b610499565b61011a6102113660046108e7565b6104a3565b6101a8610224366004610969565b610506565b6101336102373660046109d6565b600460209081525f928352604080842090915290825290205481565b5f805461025f90610a07565b80601f016020809104026020016040519081016040528092919081815260200182805461028b90610a07565b80156102d65780601f106102ad576101008083540402835291602001916102d6565b820191905f5260205f20905b8154815290600101906020018083116102b957829003601f168201915b505050505081565b335f8181526004602090815260408083206001600160a01b038716808552925280832085905551919290917f8c5be1e5ebec7d5bd14f71427d1e84f3dd0314c0f7b2291e5b200ac8c7c3b925906103389086815260200190565b60405180910390a35060015b92915050565b6001600160a01b0383165f9081526004602090815260408083203384529091528120545f1981146103a35761037f8382610a53565b6001600160a01b0386165f9081526004602090815260408083203384529091529020555b6001600160a01b0385165f90815260036020526040812080548592906103ca908490610a53565b90915550506001600160a01b038085165f81815260036020526040908190208054870190555190918716905f516020610b165f395f51905f52906104119087815260200190565b60405180910390a3506001949350505050565b5f7f0000000000000000000000000000000000000000000000000000000000000000461461045957610454610749565b905090565b507f000000000000000000000000000000000000000000000000000000000000000090565b61048882826107e1565b5050565b6001805461025f90610a07565b6104888282610838565b335f908152600360205260408120805483919083906104c3908490610a53565b90915550506001600160a01b0383165f81815260036020526040908190208054850190555133905f516020610b165f395f51905f52906103389086815260200190565b4284101561055b5760405162461bcd60e51b815260206004820152601760248201527f5045524d49545f444541444c494e455f4558504952454400000000000000000060448201526064015b60405180910390fd5b5f6001610566610424565b6001600160a01b038a81165f8181526005602090815260409182902080546001810190915582517f6e71edae12b1b97f4d1f60370fef10105fa2faae0126114a169c64845d6126c98184015280840194909452938d166060840152608083018c905260a083019390935260c08083018b90528151808403909101815260e08301909152805192019190912061190160f01b6101008301526101028201929092526101228101919091526101420160408051601f1981840301815282825280516020918201205f84529083018083525260ff871690820152606081018590526080810184905260a0016020604051602081039080840390855afa15801561066e573d5f5f3e3d5ffd5b5050604051601f1901519150506001600160a01b038116158015906106a45750876001600160a01b0316816001600160a01b0316145b6106e15760405162461bcd60e51b815260206004820152600e60248201526d24a72b20a624a22fa9a4a3a722a960911b6044820152606401610552565b6001600160a01b039081165f9081526004602090815260408083208a8516808552908352928190208990555188815291928a16917f8c5be1e5ebec7d5bd14f71427d1e84f3dd0314c0f7b2291e5b200ac8c7c3b925910160405180910390a350505050505050565b5f7f8b73c3c69bb8fe3d512ecc4cf759cc79239f7b179b0ffacaa9a75d522b39400f5f6040516107799190610a66565b6040805191829003822060208301939093528101919091527fc89efdaa54c0f20c7adf612882df0950f5a951637e0307cdcb4c672f298b8bc660608201524660808201523060a082015260c00160405160208183030381529060405280519060200120905090565b8060025f8282546107f29190610b02565b90915550506001600160a01b0382165f818152600360209081526040808320805486019055518481525f516020610b165f395f51905f5291015b60405180910390a35050565b6001600160a01b0382165f908152600360205260408120805483929061085f908490610a53565b90915550506002805482900390556040518181525f906001600160a01b038416905f516020610b165f395f51905f529060200161082c565b602081525f82518060208401528060208501604085015e5f604082850101526040601f19601f83011684010191505092915050565b80356001600160a01b03811681146108e2575f5ffd5b919050565b5f5f604083850312156108f8575f5ffd5b610901836108cc565b946020939093013593505050565b5f5f5f60608486031215610921575f5ffd5b61092a846108cc565b9250610938602085016108cc565b929592945050506040919091013590565b5f60208284031215610959575f5ffd5b610962826108cc565b9392505050565b5f5f5f5f5f5f5f60e0888a03121561097f575f5ffd5b610988886108cc565b9650610996602089016108cc565b95506040880135945060608801359350608088013560ff811681146109b9575f5ffd5b9699959850939692959460a0840135945060c09093013592915050565b5f5f604083850312156109e7575f5ffd5b6109f0836108cc565b91506109fe602084016108cc565b90509250929050565b600181811c90821680610a1b57607f821691505b602082108103610a3957634e487b7160e01b5f52602260045260245ffd5b50919050565b634e487b7160e01b5f52601160045260245ffd5b8181038181111561034457610344610a3f565b5f5f83545f8160011c90506001821680610a8157607f821691505b602082108103610a9f57634e487b7160e01b5f52602260045260245ffd5b808015610ab35760018114610ac857610af6565b60ff1984168752821515830287019450610af6565b5f888152602090205f5b84811015610aee57815489820152600190910190602001610ad2565b505082870194505b50929695505050505050565b8082018082111561034457610344610a3f56feddf252ad1be2c89b69c2b068fc378daa952ba7f163c4a11628f55a4df523b3efa164736f6c634300081e000a000000000000000000000000000000000000000000000000000000000000006000000000000000000000000000000000000000000000000000000000000000a0000000000000000000000000000000000000000000000000000000000000001200000000000000000000000000000000000000000000000000000000000000094d6f636b2057455448000000000000000000000000000000000000000000000000000000000000000000000000000000000000000000000000000000000000056d57455448000000000000000000000000000000000000000000000000000000",
        "nonce": "0x42e",
        "chainId": "0x515"
      },
      "additionalContracts": [],
      "isFixedGasLimit": false
    },
    {
      "hash": "0x68c8050126a548e4dbe0462168bb3b8d42a5e901c66ee28f17a7c2d0f3ec4f44",
      "transactionType": "CREATE",
      "contractName": "MockERC20",
      "contractAddress": "0xbc650a93ae8732f7f49a5a722cd73a9f0ae36007",
      "function": null,
      "arguments": [
        "Mock USDC",
        "mUSDC",
        "6"
      ],
      "transaction": {
        "from": "0x4b992f2fbf714c0fcbb23bac5130ace48cad00cd",
        "gas": "0xea855",
        "value": "0x0",
        "input": "0x60e060405234801561000f575f5ffd5b50604051610f39380380610f3983398101604081905261002e916101a1565b8282825f61003c84826102a2565b50600161004983826102a2565b5060ff81166080524660a05261005d61006c565b60c052506103cd945050505050565b5f7f8b73c3c69bb8fe3d512ecc4cf759cc79239f7b179b0ffacaa9a75d522b39400f5f60405161009c919061035c565b6040805191829003822060208301939093528101919091527fc89efdaa54c0f20c7adf612882df0950f5a951637e0307cdcb4c672f298b8bc660608201524660808201523060a082015260c00160405160208183030381529060405280519060200120905090565b634e487b7160e01b5f52604160045260245ffd5b5f82601f830112610127575f5ffd5b81516001600160401b0381111561014057610140610104565b604051601f8201601f19908116603f011681016001600160401b038111828210171561016e5761016e610104565b604052818152838201602001851015610185575f5ffd5b8160208501602083015e5f918101602001919091529392505050565b5f5f5f606084860312156101b3575f5ffd5b83516001600160401b038111156101c8575f5ffd5b6101d486828701610118565b602086015190945090506001600160401b038111156101f1575f5ffd5b6101fd86828701610118565b925050604084015160ff81168114610213575f5ffd5b809150509250925092565b600181811c9082168061023257607f821691505b60208210810361025057634e487b7160e01b5f52602260045260245ffd5b50919050565b601f82111561029d57805f5260205f20601f840160051c8101602085101561027b5750805b601f840160051c820191505b8181101561029a575f8155600101610287565b50505b505050565b81516001600160401b038111156102bb576102bb610104565b6102cf816102c9845461021e565b84610256565b6020601f821160018114610301575f83156102ea5750848201515b5f19600385901b1c1916600184901b17845561029a565b5f84815260208120601f198516915b828110156103305787850151825560209485019460019092019101610310565b508482101561034d57868401515f19600387901b60f8161c191681555b50505050600190811b01905550565b5f5f83546103698161021e565b6001821680156103805760018114610395576103c2565b60ff19831686528115158202860193506103c2565b865f5260205f205f5b838110156103ba5781548882015260019091019060200161039e565b505081860193505b509195945050505050565b60805160a05160c051610b426103f75f395f61045c01525f61042701525f6101590152610b425ff3fe608060405234801561000f575f5ffd5b50600436106100e5575f3560e01c806370a08231116100885780639dc29fac116100635780639dc29fac146101f0578063a9059cbb14610203578063d505accf14610216578063dd62ed3e14610229575f5ffd5b806370a08231146101aa5780637ecebe00146101c957806395d89b41146101e8575f5ffd5b806323b872dd116100c357806323b872dd14610141578063313ce567146101545780633644e5151461018d57806340c10f1914610195575f5ffd5b806306fdde03146100e9578063095ea7b31461010757806318160ddd1461012a575b5f5ffd5b6100f1610253565b6040516100fe9190610897565b60405180910390f35b61011a6101153660046108e7565b6102de565b60405190151581526020016100fe565b61013360025481565b6040519081526020016100fe565b61011a61014f36600461090f565b61034a565b61017b7f000000000000000000000000000000000000000000000000000000000000000081565b60405160ff90911681526020016100fe565b610133610424565b6101a86101a33660046108e7565b61047e565b005b6101336101b8366004610949565b60036020525f908152604090205481565b6101336101d7366004610949565b60056020525f908152604090205481565b6100f161048c565b6101a86101fe3660046108e7565b610499565b61011a6102113660046108e7565b6104a3565b6101a8610224366004610969565b610506565b6101336102373660046109d6565b600460209081525f928352604080842090915290825290205481565b5f805461025f90610a07565b80601f016020809104026020016040519081016040528092919081815260200182805461028b90610a07565b80156102d65780601f106102ad576101008083540402835291602001916102d6565b820191905f5260205f20905b8154815290600101906020018083116102b957829003601f168201915b505050505081565b335f8181526004602090815260408083206001600160a01b038716808552925280832085905551919290917f8c5be1e5ebec7d5bd14f71427d1e84f3dd0314c0f7b2291e5b200ac8c7c3b925906103389086815260200190565b60405180910390a35060015b92915050565b6001600160a01b0383165f9081526004602090815260408083203384529091528120545f1981146103a35761037f8382610a53565b6001600160a01b0386165f9081526004602090815260408083203384529091529020555b6001600160a01b0385165f90815260036020526040812080548592906103ca908490610a53565b90915550506001600160a01b038085165f81815260036020526040908190208054870190555190918716905f516020610b165f395f51905f52906104119087815260200190565b60405180910390a3506001949350505050565b5f7f0000000000000000000000000000000000000000000000000000000000000000461461045957610454610749565b905090565b507f000000000000000000000000000000000000000000000000000000000000000090565b61048882826107e1565b5050565b6001805461025f90610a07565b6104888282610838565b335f908152600360205260408120805483919083906104c3908490610a53565b90915550506001600160a01b0383165f81815260036020526040908190208054850190555133905f516020610b165f395f51905f52906103389086815260200190565b4284101561055b5760405162461bcd60e51b815260206004820152601760248201527f5045524d49545f444541444c494e455f4558504952454400000000000000000060448201526064015b60405180910390fd5b5f6001610566610424565b6001600160a01b038a81165f8181526005602090815260409182902080546001810190915582517f6e71edae12b1b97f4d1f60370fef10105fa2faae0126114a169c64845d6126c98184015280840194909452938d166060840152608083018c905260a083019390935260c08083018b90528151808403909101815260e08301909152805192019190912061190160f01b6101008301526101028201929092526101228101919091526101420160408051601f1981840301815282825280516020918201205f84529083018083525260ff871690820152606081018590526080810184905260a0016020604051602081039080840390855afa15801561066e573d5f5f3e3d5ffd5b5050604051601f1901519150506001600160a01b038116158015906106a45750876001600160a01b0316816001600160a01b0316145b6106e15760405162461bcd60e51b815260206004820152600e60248201526d24a72b20a624a22fa9a4a3a722a960911b6044820152606401610552565b6001600160a01b039081165f9081526004602090815260408083208a8516808552908352928190208990555188815291928a16917f8c5be1e5ebec7d5bd14f71427d1e84f3dd0314c0f7b2291e5b200ac8c7c3b925910160405180910390a350505050505050565b5f7f8b73c3c69bb8fe3d512ecc4cf759cc79239f7b179b0ffacaa9a75d522b39400f5f6040516107799190610a66565b6040805191829003822060208301939093528101919091527fc89efdaa54c0f20c7adf612882df0950f5a951637e0307cdcb4c672f298b8bc660608201524660808201523060a082015260c00160405160208183030381529060405280519060200120905090565b8060025f8282546107f29190610b02565b90915550506001600160a01b0382165f818152600360209081526040808320805486019055518481525f516020610b165f395f51905f5291015b60405180910390a35050565b6001600160a01b0382165f908152600360205260408120805483929061085f908490610a53565b90915550506002805482900390556040518181525f906001600160a01b038416905f516020610b165f395f51905f529060200161082c565b602081525f82518060208401528060208501604085015e5f604082850101526040601f19601f83011684010191505092915050565b80356001600160a01b03811681146108e2575f5ffd5b919050565b5f5f604083850312156108f8575f5ffd5b610901836108cc565b946020939093013593505050565b5f5f5f60608486031215610921575f5ffd5b61092a846108cc565b9250610938602085016108cc565b929592945050506040919091013590565b5f60208284031215610959575f5ffd5b610962826108cc565b9392505050565b5f5f5f5f5f5f5f60e0888a03121561097f575f5ffd5b610988886108cc565b9650610996602089016108cc565b95506040880135945060608801359350608088013560ff811681146109b9575f5ffd5b9699959850939692959460a0840135945060c09093013592915050565b5f5f604083850312156109e7575f5ffd5b6109f0836108cc565b91506109fe602084016108cc565b90509250929050565b600181811c90821680610a1b57607f821691505b602082108103610a3957634e487b7160e01b5f52602260045260245ffd5b50919050565b634e487b7160e01b5f52601160045260245ffd5b8181038181111561034457610344610a3f565b5f5f83545f8160011c90506001821680610a8157607f821691505b602082108103610a9f57634e487b7160e01b5f52602260045260245ffd5b808015610ab35760018114610ac857610af6565b60ff1984168752821515830287019450610af6565b5f888152602090205f5b84811015610aee57815489820152600190910190602001610ad2565b505082870194505b50929695505050505050565b8082018082111561034457610344610a3f56feddf252ad1be2c89b69c2b068fc378daa952ba7f163c4a11628f55a4df523b3efa164736f6c634300081e000a000000000000000000000000000000000000000000000000000000000000006000000000000000000000000000000000000000000000000000000000000000a0000000000000000000000000000000000000000000000000000000000000000600000000000000000000000000000000000000000000000000000000000000094d6f636b2055534443000000000000000000000000000000000000000000000000000000000000000000000000000000000000000000000000000000000000056d55534443000000000000000000000000000000000000000000000000000000",
        "nonce": "0x42f",
        "chainId": "0x515"
      },
      "additionalContracts": [],
      "isFixedGasLimit": false
    },
    {
      "hash": "0x2d395647263d6f8eae1491601da6f836a34926d3c001f6a292863440eee912e4",
      "transactionType": "CALL",
      "contractName": "MockERC20",
      "contractAddress": "0x21f4a697823b3a0490ba09ddfa3d84fed00db634",
      "function": "mint(address,uint256)",
      "arguments": [
        "0x4b992F2Fbf714C0fCBb23baC5130Ace48CaD00cd",
        "10000000000000000000000000000000"
      ],
      "transaction": {
        "from": "0x4b992f2fbf714c0fcbb23bac5130ace48cad00cd",
        "to": "0x21f4a697823b3a0490ba09ddfa3d84fed00db634",
        "gas": "0x18680",
        "value": "0x0",
        "input": "0x40c10f190000000000000000000000004b992f2fbf714c0fcbb23bac5130ace48cad00cd000000000000000000000000000000000000007e37be2022c0914b2680000000",
        "nonce": "0x430",
        "chainId": "0x515"
      },
      "additionalContracts": [],
      "isFixedGasLimit": false
    },
    {
      "hash": "0xf9e5a716c41b711e57ece2f5440b4117067eeaad71681c0923b9e56f9c3d7e62",
      "transactionType": "CALL",
      "contractName": "MockERC20",
      "contractAddress": "0xbc650a93ae8732f7f49a5a722cd73a9f0ae36007",
      "function": "mint(address,uint256)",
      "arguments": [
        "0x4b992F2Fbf714C0fCBb23baC5130Ace48CaD00cd",
        "10000000000000000000000000000000"
      ],
      "transaction": {
        "from": "0x4b992f2fbf714c0fcbb23bac5130ace48cad00cd",
        "to": "0xbc650a93ae8732f7f49a5a722cd73a9f0ae36007",
        "gas": "0x18680",
        "value": "0x0",
        "input": "0x40c10f190000000000000000000000004b992f2fbf714c0fcbb23bac5130ace48cad00cd000000000000000000000000000000000000007e37be2022c0914b2680000000",
        "nonce": "0x431",
        "chainId": "0x515"
      },
      "additionalContracts": [],
      "isFixedGasLimit": false
    },
    {
      "hash": "0x12e4314355e2354c774ecc8972e24a5892fa6f9b4606a160d77628fc8488dbdb",
      "transactionType": "CALL",
      "contractName": "MockERC20",
      "contractAddress": "0x21f4a697823b3a0490ba09ddfa3d84fed00db634",
      "function": "approve(address,uint256)",
      "arguments": [
        "0x000000000022D473030F116dDEE9F6B43aC78BA3",
        "115792089237316195423570985008687907853269984665640564039457584007913129639935"
      ],
      "transaction": {
        "from": "0x4b992f2fbf714c0fcbb23bac5130ace48cad00cd",
        "to": "0x21f4a697823b3a0490ba09ddfa3d84fed00db634",
        "gas": "0x10939",
        "value": "0x0",
        "input": "0x095ea7b3000000000000000000000000000000000022d473030f116ddee9f6b43ac78ba3ffffffffffffffffffffffffffffffffffffffffffffffffffffffffffffffff",
        "nonce": "0x432",
        "chainId": "0x515"
      },
      "additionalContracts": [],
      "isFixedGasLimit": false
    },
    {
      "hash": "0x5d19cddff20911371ad384db29bc971c1071c23b7dcaeeb49b62eeafb7d2826c",
      "transactionType": "CALL",
      "contractName": "MockERC20",
      "contractAddress": "0xbc650a93ae8732f7f49a5a722cd73a9f0ae36007",
      "function": "approve(address,uint256)",
      "arguments": [
        "0x000000000022D473030F116dDEE9F6B43aC78BA3",
        "115792089237316195423570985008687907853269984665640564039457584007913129639935"
      ],
      "transaction": {
        "from": "0x4b992f2fbf714c0fcbb23bac5130ace48cad00cd",
        "to": "0xbc650a93ae8732f7f49a5a722cd73a9f0ae36007",
        "gas": "0x10939",
        "value": "0x0",
        "input": "0x095ea7b3000000000000000000000000000000000022d473030f116ddee9f6b43ac78ba3ffffffffffffffffffffffffffffffffffffffffffffffffffffffffffffffff",
        "nonce": "0x433",
        "chainId": "0x515"
      },
      "additionalContracts": [],
      "isFixedGasLimit": false
    },
    {
      "hash": "0xb629192b61c7d0fc22fd3d463ec165946466f415c176af0a76c150cb568948de",
      "transactionType": "CALL",
      "contractName": "MockERC20",
      "contractAddress": "0x21f4a697823b3a0490ba09ddfa3d84fed00db634",
      "function": "approve(address,uint256)",
      "arguments": [
        "0xf969Aee60879C54bAAed9F3eD26147Db216Fd664",
        "115792089237316195423570985008687907853269984665640564039457584007913129639935"
      ],
      "transaction": {
        "from": "0x4b992f2fbf714c0fcbb23bac5130ace48cad00cd",
        "to": "0x21f4a697823b3a0490ba09ddfa3d84fed00db634",
        "gas": "0xfad0",
        "value": "0x0",
        "input": "0x095ea7b3000000000000000000000000f969aee60879c54baaed9f3ed26147db216fd664ffffffffffffffffffffffffffffffffffffffffffffffffffffffffffffffff",
        "nonce": "0x434",
        "chainId": "0x515"
      },
      "additionalContracts": [],
      "isFixedGasLimit": false
    },
    {
      "hash": "0x48a79ff6038ad49d92828aa796afc4dbfd893c46923909a5af4596af0209e359",
      "transactionType": "CALL",
      "contractName": "MockERC20",
      "contractAddress": "0xbc650a93ae8732f7f49a5a722cd73a9f0ae36007",
      "function": "approve(address,uint256)",
      "arguments": [
        "0xf969Aee60879C54bAAed9F3eD26147Db216Fd664",
        "115792089237316195423570985008687907853269984665640564039457584007913129639935"
      ],
      "transaction": {
        "from": "0x4b992f2fbf714c0fcbb23bac5130ace48cad00cd",
        "to": "0xbc650a93ae8732f7f49a5a722cd73a9f0ae36007",
        "gas": "0xfad0",
        "value": "0x0",
        "input": "0x095ea7b3000000000000000000000000f969aee60879c54baaed9f3ed26147db216fd664ffffffffffffffffffffffffffffffffffffffffffffffffffffffffffffffff",
        "nonce": "0x435",
        "chainId": "0x515"
      },
      "additionalContracts": [],
      "isFixedGasLimit": false
    },
    {
      "hash": "0x3faa0498a105ce50742033f1abd869688513dc629aad8c9b4118049231203a31",
      "transactionType": "CALL",
      "contractName": null,
      "contractAddress": "0x000000000022d473030f116ddee9f6b43ac78ba3",
      "function": "approve(address,address,uint160,uint48)",
      "arguments": [
        "0x21f4a697823B3A0490Ba09DdFA3D84fed00db634",
        "0xf969Aee60879C54bAAed9F3eD26147Db216Fd664",
        "1461501637330902918203684832716283019655932542975",
        "281474976710655"
      ],
      "transaction": {
        "from": "0x4b992f2fbf714c0fcbb23bac5130ace48cad00cd",
        "to": "0x000000000022d473030f116ddee9f6b43ac78ba3",
        "gas": "0x1112d",
        "value": "0x0",
        "input": "0x87517c4500000000000000000000000021f4a697823b3a0490ba09ddfa3d84fed00db634000000000000000000000000f969aee60879c54baaed9f3ed26147db216fd664000000000000000000000000ffffffffffffffffffffffffffffffffffffffff0000000000000000000000000000000000000000000000000000ffffffffffff",
        "nonce": "0x436",
        "chainId": "0x515"
      },
      "additionalContracts": [],
      "isFixedGasLimit": false
    },
    {
      "hash": "0xdb7465ed54592e94d096959df6be33a18b30b8445026049358dd8592c11963c8",
      "transactionType": "CALL",
      "contractName": null,
      "contractAddress": "0x000000000022d473030f116ddee9f6b43ac78ba3",
      "function": "approve(address,address,uint160,uint48)",
      "arguments": [
        "0xbc650A93Ae8732f7f49A5A722cD73a9f0ae36007",
        "0xf969Aee60879C54bAAed9F3eD26147Db216Fd664",
        "1461501637330902918203684832716283019655932542975",
        "281474976710655"
      ],
      "transaction": {
        "from": "0x4b992f2fbf714c0fcbb23bac5130ace48cad00cd",
        "to": "0x000000000022d473030f116ddee9f6b43ac78ba3",
        "gas": "0x1112d",
        "value": "0x0",
        "input": "0x87517c45000000000000000000000000bc650a93ae8732f7f49a5a722cd73a9f0ae36007000000000000000000000000f969aee60879c54baaed9f3ed26147db216fd664000000000000000000000000ffffffffffffffffffffffffffffffffffffffff0000000000000000000000000000000000000000000000000000ffffffffffff",
        "nonce": "0x437",
        "chainId": "0x515"
      },
      "additionalContracts": [],
      "isFixedGasLimit": false
    },
    {
      "hash": "0x6237eac9765310b52520ab8137c2e7975344ac1158143439f3260f66422a5805",
      "transactionType": "CALL",
      "contractName": null,
      "contractAddress": "0xf969aee60879c54baaed9f3ed26147db216fd664",
      "function": "initializePool((address,address,uint24,int24,address),uint160)",
      "arguments": [
        "(0x21f4a697823B3A0490Ba09DdFA3D84fed00db634, 0xbc650A93Ae8732f7f49A5A722cD73a9f0ae36007, 3000, 60, 0x0000000000000000000000000000000000000000)",
        "79228162514264337593543950336"
      ],
      "transaction": {
        "from": "0x4b992f2fbf714c0fcbb23bac5130ace48cad00cd",
        "to": "0xf969aee60879c54baaed9f3ed26147db216fd664",
        "gas": "0x12e9d",
        "value": "0x0",
        "input": "0xf702040500000000000000000000000021f4a697823b3a0490ba09ddfa3d84fed00db634000000000000000000000000bc650a93ae8732f7f49a5a722cd73a9f0ae360070000000000000000000000000000000000000000000000000000000000000bb8000000000000000000000000000000000000000000000000000000000000003c00000000000000000000000000000000000000000000000000000000000000000000000000000000000000000000000000000001000000000000000000000000",
        "nonce": "0x438",
        "chainId": "0x515"
      },
      "additionalContracts": [],
      "isFixedGasLimit": false
    },
    {
      "hash": "0x1db1e175ede6cbc5f0ee9ac1b1d1d406b8d20eac9bfbe3e0e1b0d9f37c0e3db2",
      "transactionType": "CALL",
      "contractName": null,
      "contractAddress": "0xf969aee60879c54baaed9f3ed26147db216fd664",
      "function": "modifyLiquidities(bytes,uint256)",
      "arguments": [
        "0x000000000000000000000000000000000000000000000000000000000000004000000000000000000000000000000000000000000000000000000000000000800000000000000000000000000000000000000000000000000000000000000004020d14140000000000000000000000000000000000000000000000000000000000000000000000000000000000000000000000000000000000000000000000040000000000000000000000000000000000000000000000000000000000000080000000000000000000000000000000000000000000000000000000000000024000000000000000000000000000000000000000000000000000000000000002a0000000000000000000000000000000000000000000000000000000000000030000000000000000000000000000000000000000000000000000000000000001a000000000000000000000000021f4a697823b3a0490ba09ddfa3d84fed00db634000000000000000000000000bc650a93ae8732f7f49a5a722cd73a9f0ae360070000000000000000000000000000000000000000000000000000000000000bb8000000000000000000000000000000000000000000000000000000000000003c0000000000000000000000000000000000000000000000000000000000000000fffffffffffffffffffffffffffffffffffffffffffffffffffffffffff2764c00000000000000000000000000000000000000000000000000000000000d89b400000000000000000000000000000000000000000000d3c21bcecceda100000000000000000000000000000000000000000000000000d3c21bcecceda0ff2baf00000000000000000000000000000000000000000000d3c21bcecceda0ff2baf0000000000000000000000004b992f2fbf714c0fcbb23bac5130ace48cad00cd00000000000000000000000000000000000000000000000000000000000001800000000000000000000000000000000000000000000000000000000000000000000000000000000000000000000000000000000000000000000000000000004000000000000000000000000021f4a697823b3a0490ba09ddfa3d84fed00db634000000000000000000000000bc650a93ae8732f7f49a5a722cd73a9f0ae36007000000000000000000000000000000000000000000000000000000000000004000000000000000000000000021f4a697823b3a0490ba09ddfa3d84fed00db6340000000000000000000000004b992f2fbf714c0fcbb23bac5130ace48cad00cd0000000000000000000000000000000000000000000000000000000000000040000000000000000000000000bc650a93ae8732f7f49a5a722cd73a9f0ae360070000000000000000000000004b992f2fbf714c0fcbb23bac5130ace48cad00cd",
        "1773565406"
      ],
      "transaction": {
        "from": "0x4b992f2fbf714c0fcbb23bac5130ace48cad00cd",
        "to": "0xf969aee60879c54baaed9f3ed26147db216fd664",
        "gas": "0x8b692",
        "value": "0x0",
        "input": "0xdd46508f00000000000000000000000000000000000000000000000000000000000000400000000000000000000000000000000000000000000000000000000069b675de0000000000000000000000000000000000000000000000000000000000000400000000000000000000000000000000000000000000000000000000000000004000000000000000000000000000000000000000000000000000000000000000800000000000000000000000000000000000000000000000000000000000000004020d14140000000000000000000000000000000000000000000000000000000000000000000000000000000000000000000000000000000000000000000000040000000000000000000000000000000000000000000000000000000000000080000000000000000000000000000000000000000000000000000000000000024000000000000000000000000000000000000000000000000000000000000002a0000000000000000000000000000000000000000000000000000000000000030000000000000000000000000000000000000000000000000000000000000001a000000000000000000000000021f4a697823b3a0490ba09ddfa3d84fed00db634000000000000000000000000bc650a93ae8732f7f49a5a722cd73a9f0ae360070000000000000000000000000000000000000000000000000000000000000bb8000000000000000000000000000000000000000000000000000000000000003c0000000000000000000000000000000000000000000000000000000000000000fffffffffffffffffffffffffffffffffffffffffffffffffffffffffff2764c00000000000000000000000000000000000000000000000000000000000d89b400000000000000000000000000000000000000000000d3c21bcecceda100000000000000000000000000000000000000000000000000d3c21bcecceda0ff2baf00000000000000000000000000000000000000000000d3c21bcecceda0ff2baf0000000000000000000000004b992f2fbf714c0fcbb23bac5130ace48cad00cd00000000000000000000000000000000000000000000000000000000000001800000000000000000000000000000000000000000000000000000000000000000000000000000000000000000000000000000000000000000000000000000004000000000000000000000000021f4a697823b3a0490ba09ddfa3d84fed00db634000000000000000000000000bc650a93ae8732f7f49a5a722cd73a9f0ae36007000000000000000000000000000000000000000000000000000000000000004000000000000000000000000021f4a697823b3a0490ba09ddfa3d84fed00db6340000000000000000000000004b992f2fbf714c0fcbb23bac5130ace48cad00cd0000000000000000000000000000000000000000000000000000000000000040000000000000000000000000bc650a93ae8732f7f49a5a722cd73a9f0ae360070000000000000000000000004b992f2fbf714c0fcbb23bac5130ace48cad00cd",
        "nonce": "0x439",
        "chainId": "0x515"
      },
      "additionalContracts": [],
      "isFixedGasLimit": false
    },
    {
      "hash": "0xca1ce75ea75cb4f3171040f597e707e718243b9f5b38245d8f6ac6ce907b0d4b",
      "transactionType": "CALL",
      "contractName": null,
      "contractAddress": "0xf969aee60879c54baaed9f3ed26147db216fd664",
      "function": "initializePool((address,address,uint24,int24,address),uint160)",
      "arguments": [
        "(0x21f4a697823B3A0490Ba09DdFA3D84fed00db634, 0xbc650A93Ae8732f7f49A5A722cD73a9f0ae36007, 3000, 60, 0xBF42f398561644Eb55A7269dA0F937D0512c40c0)",
        "79228162514264337593543950336"
      ],
      "transaction": {
        "from": "0x4b992f2fbf714c0fcbb23bac5130ace48cad00cd",
        "to": "0xf969aee60879c54baaed9f3ed26147db216fd664",
        "gas": "0x14192",
        "value": "0x0",
        "input": "0xf702040500000000000000000000000021f4a697823b3a0490ba09ddfa3d84fed00db634000000000000000000000000bc650a93ae8732f7f49a5a722cd73a9f0ae360070000000000000000000000000000000000000000000000000000000000000bb8000000000000000000000000000000000000000000000000000000000000003c000000000000000000000000bf42f398561644eb55a7269da0f937d0512c40c00000000000000000000000000000000000000001000000000000000000000000",
        "nonce": "0x43a",
        "chainId": "0x515"
      },
      "additionalContracts": [],
      "isFixedGasLimit": false
    },
    {
      "hash": "0x7d2ff4bf17d5bae96f8736314beb9c3959c357ed374be48e35722e8d5b11c8ab",
      "transactionType": "CALL",
      "contractName": null,
      "contractAddress": "0xf969aee60879c54baaed9f3ed26147db216fd664",
      "function": "modifyLiquidities(bytes,uint256)",
      "arguments": [
        "0x000000000000000000000000000000000000000000000000000000000000004000000000000000000000000000000000000000000000000000000000000000800000000000000000000000000000000000000000000000000000000000000004020d14140000000000000000000000000000000000000000000000000000000000000000000000000000000000000000000000000000000000000000000000040000000000000000000000000000000000000000000000000000000000000080000000000000000000000000000000000000000000000000000000000000024000000000000000000000000000000000000000000000000000000000000002a0000000000000000000000000000000000000000000000000000000000000030000000000000000000000000000000000000000000000000000000000000001a000000000000000000000000021f4a697823b3a0490ba09ddfa3d84fed00db634000000000000000000000000bc650a93ae8732f7f49a5a722cd73a9f0ae360070000000000000000000000000000000000000000000000000000000000000bb8000000000000000000000000000000000000000000000000000000000000003c000000000000000000000000bf42f398561644eb55a7269da0f937d0512c40c0fffffffffffffffffffffffffffffffffffffffffffffffffffffffffff2764c00000000000000000000000000000000000000000000000000000000000d89b400000000000000000000000000000000000000000000d3c21bcecceda100000000000000000000000000000000000000000000000000d3c21bcecceda0ff2baf00000000000000000000000000000000000000000000d3c21bcecceda0ff2baf0000000000000000000000004b992f2fbf714c0fcbb23bac5130ace48cad00cd00000000000000000000000000000000000000000000000000000000000001800000000000000000000000000000000000000000000000000000000000000000000000000000000000000000000000000000000000000000000000000000004000000000000000000000000021f4a697823b3a0490ba09ddfa3d84fed00db634000000000000000000000000bc650a93ae8732f7f49a5a722cd73a9f0ae36007000000000000000000000000000000000000000000000000000000000000004000000000000000000000000021f4a697823b3a0490ba09ddfa3d84fed00db6340000000000000000000000004b992f2fbf714c0fcbb23bac5130ace48cad00cd0000000000000000000000000000000000000000000000000000000000000040000000000000000000000000bc650a93ae8732f7f49a5a722cd73a9f0ae360070000000000000000000000004b992f2fbf714c0fcbb23bac5130ace48cad00cd",
        "1773565406"
      ],
      "transaction": {
        "from": "0x4b992f2fbf714c0fcbb23bac5130ace48cad00cd",
        "to": "0xf969aee60879c54baaed9f3ed26147db216fd664",
        "gas": "0x8e975",
        "value": "0x0",
        "input": "0xdd46508f00000000000000000000000000000000000000000000000000000000000000400000000000000000000000000000000000000000000000000000000069b675de0000000000000000000000000000000000000000000000000000000000000400000000000000000000000000000000000000000000000000000000000000004000000000000000000000000000000000000000000000000000000000000000800000000000000000000000000000000000000000000000000000000000000004020d14140000000000000000000000000000000000000000000000000000000000000000000000000000000000000000000000000000000000000000000000040000000000000000000000000000000000000000000000000000000000000080000000000000000000000000000000000000000000000000000000000000024000000000000000000000000000000000000000000000000000000000000002a0000000000000000000000000000000000000000000000000000000000000030000000000000000000000000000000000000000000000000000000000000001a000000000000000000000000021f4a697823b3a0490ba09ddfa3d84fed00db634000000000000000000000000bc650a93ae8732f7f49a5a722cd73a9f0ae360070000000000000000000000000000000000000000000000000000000000000bb8000000000000000000000000000000000000000000000000000000000000003c000000000000000000000000bf42f398561644eb55a7269da0f937d0512c40c0fffffffffffffffffffffffffffffffffffffffffffffffffffffffffff2764c00000000000000000000000000000000000000000000000000000000000d89b400000000000000000000000000000000000000000000d3c21bcecceda100000000000000000000000000000000000000000000000000d3c21bcecceda0ff2baf00000000000000000000000000000000000000000000d3c21bcecceda0ff2baf0000000000000000000000004b992f2fbf714c0fcbb23bac5130ace48cad00cd00000000000000000000000000000000000000000000000000000000000001800000000000000000000000000000000000000000000000000000000000000000000000000000000000000000000000000000000000000000000000000000004000000000000000000000000021f4a697823b3a0490ba09ddfa3d84fed00db634000000000000000000000000bc650a93ae8732f7f49a5a722cd73a9f0ae36007000000000000000000000000000000000000000000000000000000000000004000000000000000000000000021f4a697823b3a0490ba09ddfa3d84fed00db6340000000000000000000000004b992f2fbf714c0fcbb23bac5130ace48cad00cd0000000000000000000000000000000000000000000000000000000000000040000000000000000000000000bc650a93ae8732f7f49a5a722cd73a9f0ae360070000000000000000000000004b992f2fbf714c0fcbb23bac5130ace48cad00cd",
        "nonce": "0x43b",
        "chainId": "0x515"
      },
      "additionalContracts": [],
      "isFixedGasLimit": false
    },
    {
      "hash": "0x69887ec6cfd656dff354d1b7b3b964482d2915ea24a16d4ade7b50e142d90e98",
      "transactionType": "CALL",
      "contractName": "MockERC20",
      "contractAddress": "0x21f4a697823b3a0490ba09ddfa3d84fed00db634",
      "function": "approve(address,uint256)",
      "arguments": [
        "0x9cD2b0a732dd5e023a5539921e0FD1c30E198Dba",
        "115792089237316195423570985008687907853269984665640564039457584007913129639935"
      ],
      "transaction": {
        "from": "0x4b992f2fbf714c0fcbb23bac5130ace48cad00cd",
        "to": "0x21f4a697823b3a0490ba09ddfa3d84fed00db634",
        "gas": "0xfad0",
        "value": "0x0",
        "input": "0x095ea7b30000000000000000000000009cd2b0a732dd5e023a5539921e0fd1c30e198dbaffffffffffffffffffffffffffffffffffffffffffffffffffffffffffffffff",
        "nonce": "0x43c",
        "chainId": "0x515"
      },
      "additionalContracts": [],
      "isFixedGasLimit": false
    },
    {
      "hash": "0x0388cde733309cc892db484ef542bebee7523342a9602d67b0542bf39af07d73",
      "transactionType": "CALL",
      "contractName": "MockERC20",
      "contractAddress": "0x21f4a697823b3a0490ba09ddfa3d84fed00db634",
      "function": "approve(address,uint256)",
      "arguments": [
        "0x493a90b1eA1bCbe2c6AB5af70928C82051B5e726",
        "115792089237316195423570985008687907853269984665640564039457584007913129639935"
      ],
      "transaction": {
        "from": "0x4b992f2fbf714c0fcbb23bac5130ace48cad00cd",
        "to": "0x21f4a697823b3a0490ba09ddfa3d84fed00db634",
        "gas": "0xfad0",
        "value": "0x0",
        "input": "0x095ea7b3000000000000000000000000493a90b1ea1bcbe2c6ab5af70928c82051b5e726ffffffffffffffffffffffffffffffffffffffffffffffffffffffffffffffff",
        "nonce": "0x43d",
        "chainId": "0x515"
      },
      "additionalContracts": [],
      "isFixedGasLimit": false
    },
    {
      "hash": "0x3657dac8435ae022883881218f0bc33d4a183cdb1a60d8d8e3c6b7f5ab642889",
      "transactionType": "CALL",
      "contractName": null,
      "contractAddress": "0x9cd2b0a732dd5e023a5539921e0fd1c30e198dba",
      "function": "swapExactTokensForTokens(uint256,uint256,bool,(address,address,uint24,int24,address),bytes,address,uint256)",
      "arguments": [
        "50000000000000000000",
        "1",
        "true",
        "(0x21f4a697823B3A0490Ba09DdFA3D84fed00db634, 0xbc650A93Ae8732f7f49A5A722cD73a9f0ae36007, 3000, 60, 0x0000000000000000000000000000000000000000)",
        "0x",
        "0x4b992F2Fbf714C0fCBb23baC5130Ace48CaD00cd",
        "1773565406"
      ],
      "transaction": {
        "from": "0x4b992f2fbf714c0fcbb23bac5130ace48cad00cd",
        "to": "0x9cd2b0a732dd5e023a5539921e0fd1c30e198dba",
        "gas": "0x2ad99",
        "value": "0x0",
        "input": "0xb1a0d571000000000000000000000000000000000000000000000002b5e3af16b18800000000000000000000000000000000000000000000000000000000000000000001000000000000000000000000000000000000000000000000000000000000000100000000000000000000000021f4a697823b3a0490ba09ddfa3d84fed00db634000000000000000000000000bc650a93ae8732f7f49a5a722cd73a9f0ae360070000000000000000000000000000000000000000000000000000000000000bb8000000000000000000000000000000000000000000000000000000000000003c000000000000000000000000000000000000000000000000000000000000000000000000000000000000000000000000000000000000000000000000000001600000000000000000000000004b992f2fbf714c0fcbb23bac5130ace48cad00cd0000000000000000000000000000000000000000000000000000000069b675de0000000000000000000000000000000000000000000000000000000000000000",
        "nonce": "0x43e",
        "chainId": "0x515"
      },
      "additionalContracts": [],
      "isFixedGasLimit": false
    },
    {
      "hash": "0x0455fd267cf1715cfb8ed53381173908960cb19027ad460f3899b80d5953f103",
      "transactionType": "CALL",
      "contractName": null,
      "contractAddress": "0x493a90b1ea1bcbe2c6ab5af70928c82051b5e726",
      "function": "createOrder((bytes32,address,address,bool,uint128,uint8,uint40,uint40,uint32,uint32,uint128,uint128,uint24,uint128,address))",
      "arguments": [
        "(0xa71d0b87f687572767c9aedef53890ef9f0f66306935d30af85948cfef93e9c1, 0x21f4a697823B3A0490Ba09DdFA3D84fed00db634, 0xbc650A93Ae8732f7f49A5A722cD73a9f0ae36007, true, 50000000000000000000, 0, 1773564806, 1773572006, 0, 1, 10000000000000000000, 10000000000000000000, 500, 1, 0x0000000000000000000000000000000000000000)"
      ],
      "transaction": {
        "from": "0x4b992f2fbf714c0fcbb23bac5130ace48cad00cd",
        "to": "0x493a90b1ea1bcbe2c6ab5af70928c82051b5e726",
        "gas": "0x62a92",
        "value": "0x0",
        "input": "0xe72aff3fa71d0b87f687572767c9aedef53890ef9f0f66306935d30af85948cfef93e9c100000000000000000000000021f4a697823b3a0490ba09ddfa3d84fed00db634000000000000000000000000bc650a93ae8732f7f49a5a722cd73a9f0ae360070000000000000000000000000000000000000000000000000000000000000001000000000000000000000000000000000000000000000002b5e3af16b188000000000000000000000000000000000000000000000000000000000000000000000000000000000000000000000000000000000000000000000000000069b673860000000000000000000000000000000000000000000000000000000069b68fa6000000000000000000000000000000000000000000000000000000000000000000000000000000000000000000000000000000000000000000000000000000010000000000000000000000000000000000000000000000008ac7230489e800000000000000000000000000000000000000000000000000008ac7230489e8000000000000000000000000000000000000000000000000000000000000000001f400000000000000000000000000000000000000000000000000000000000000010000000000000000000000000000000000000000000000000000000000000000",
        "nonce": "0x43f",
        "chainId": "0x515"
      },
      "additionalContracts": [],
      "isFixedGasLimit": false
    },
    {
      "hash": "0x933dbdda9a764c2205a1322c428bd9df2d6f297a56ce7cc7f2655f8cc1daae0e",
      "transactionType": "CALL",
      "contractName": null,
      "contractAddress": "0xe56a90ad0deab20ee9fcd780b14ca90fc71d3f5d",
      "function": "executeNextSlice((bytes32,(address,address,uint24,int24,address),uint24,uint160,uint40))",
      "arguments": [
        "(0x4dfeca0efe16849e034754b8beaad94f7d5a53bf807a9690cf2665fe7681766b, (0x21f4a697823B3A0490Ba09DdFA3D84fed00db634, 0xbc650A93Ae8732f7f49A5A722cD73a9f0ae36007, 3000, 60, 0xBF42f398561644Eb55A7269dA0F937D0512c40c0), 50, 4295128740, 1773565406)"
      ],
      "transaction": {
        "from": "0x4b992f2fbf714c0fcbb23bac5130ace48cad00cd",
        "to": "0xe56a90ad0deab20ee9fcd780b14ca90fc71d3f5d",
        "gas": "0x610ea",
        "value": "0x0",
        "input": "0xdee732444dfeca0efe16849e034754b8beaad94f7d5a53bf807a9690cf2665fe7681766b00000000000000000000000021f4a697823b3a0490ba09ddfa3d84fed00db634000000000000000000000000bc650a93ae8732f7f49a5a722cd73a9f0ae360070000000000000000000000000000000000000000000000000000000000000bb8000000000000000000000000000000000000000000000000000000000000003c000000000000000000000000bf42f398561644eb55a7269da0f937d0512c40c0000000000000000000000000000000000000000000000000000000000000003200000000000000000000000000000000000000000000000000000001000276a40000000000000000000000000000000000000000000000000000000069b675de",
        "nonce": "0x440",
        "chainId": "0x515"
      },
      "additionalContracts": [],
      "isFixedGasLimit": false
    },
    {
      "hash": "0x7ae74937c701c9871ff07dcbea33d391457bed2dee8f5280cdbfed19b60f73fe",
      "transactionType": "CALL",
      "contractName": null,
      "contractAddress": "0xe56a90ad0deab20ee9fcd780b14ca90fc71d3f5d",
      "function": "executeNextSlice((bytes32,(address,address,uint24,int24,address),uint24,uint160,uint40))",
      "arguments": [
        "(0x4dfeca0efe16849e034754b8beaad94f7d5a53bf807a9690cf2665fe7681766b, (0x21f4a697823B3A0490Ba09DdFA3D84fed00db634, 0xbc650A93Ae8732f7f49A5A722cD73a9f0ae36007, 3000, 60, 0xBF42f398561644Eb55A7269dA0F937D0512c40c0), 50, 4295128740, 1773565406)"
      ],
      "transaction": {
        "from": "0x4b992f2fbf714c0fcbb23bac5130ace48cad00cd",
        "to": "0xe56a90ad0deab20ee9fcd780b14ca90fc71d3f5d",
        "gas": "0x16d2d",
        "value": "0x0",
        "input": "0xdee732444dfeca0efe16849e034754b8beaad94f7d5a53bf807a9690cf2665fe7681766b00000000000000000000000021f4a697823b3a0490ba09ddfa3d84fed00db634000000000000000000000000bc650a93ae8732f7f49a5a722cd73a9f0ae360070000000000000000000000000000000000000000000000000000000000000bb8000000000000000000000000000000000000000000000000000000000000003c000000000000000000000000bf42f398561644eb55a7269da0f937d0512c40c0000000000000000000000000000000000000000000000000000000000000003200000000000000000000000000000000000000000000000000000001000276a40000000000000000000000000000000000000000000000000000000069b675de",
        "nonce": "0x441",
        "chainId": "0x515"
      },
      "additionalContracts": [],
      "isFixedGasLimit": false
    },
    {
      "hash": "0xa1de9a8df136e2937dfb80949dd47b02864e7f5a5bdc42bba9903d606682253b",
      "transactionType": "CALL",
      "contractName": null,
      "contractAddress": "0xe56a90ad0deab20ee9fcd780b14ca90fc71d3f5d",
      "function": "executeNextSlice((bytes32,(address,address,uint24,int24,address),uint24,uint160,uint40))",
      "arguments": [
        "(0x4dfeca0efe16849e034754b8beaad94f7d5a53bf807a9690cf2665fe7681766b, (0x21f4a697823B3A0490Ba09DdFA3D84fed00db634, 0xbc650A93Ae8732f7f49A5A722cD73a9f0ae36007, 3000, 60, 0xBF42f398561644Eb55A7269dA0F937D0512c40c0), 50, 4295128740, 1773565406)"
      ],
      "transaction": {
        "from": "0x4b992f2fbf714c0fcbb23bac5130ace48cad00cd",
        "to": "0xe56a90ad0deab20ee9fcd780b14ca90fc71d3f5d",
        "gas": "0x16d2d",
        "value": "0x0",
        "input": "0xdee732444dfeca0efe16849e034754b8beaad94f7d5a53bf807a9690cf2665fe7681766b00000000000000000000000021f4a697823b3a0490ba09ddfa3d84fed00db634000000000000000000000000bc650a93ae8732f7f49a5a722cd73a9f0ae360070000000000000000000000000000000000000000000000000000000000000bb8000000000000000000000000000000000000000000000000000000000000003c000000000000000000000000bf42f398561644eb55a7269da0f937d0512c40c0000000000000000000000000000000000000000000000000000000000000003200000000000000000000000000000000000000000000000000000001000276a40000000000000000000000000000000000000000000000000000000069b675de",
        "nonce": "0x442",
        "chainId": "0x515"
      },
      "additionalContracts": [],
      "isFixedGasLimit": false
    },
    {
      "hash": "0xf606aebabcf056e05ef58d1112ece660da2ce72cc3ff7c2e3c7c065b97e2b06f",
      "transactionType": "CALL",
      "contractName": null,
      "contractAddress": "0xe56a90ad0deab20ee9fcd780b14ca90fc71d3f5d",
      "function": "executeNextSlice((bytes32,(address,address,uint24,int24,address),uint24,uint160,uint40))",
      "arguments": [
        "(0x4dfeca0efe16849e034754b8beaad94f7d5a53bf807a9690cf2665fe7681766b, (0x21f4a697823B3A0490Ba09DdFA3D84fed00db634, 0xbc650A93Ae8732f7f49A5A722cD73a9f0ae36007, 3000, 60, 0xBF42f398561644Eb55A7269dA0F937D0512c40c0), 50, 4295128740, 1773565406)"
      ],
      "transaction": {
        "from": "0x4b992f2fbf714c0fcbb23bac5130ace48cad00cd",
        "to": "0xe56a90ad0deab20ee9fcd780b14ca90fc71d3f5d",
        "gas": "0x16d2d",
        "value": "0x0",
        "input": "0xdee732444dfeca0efe16849e034754b8beaad94f7d5a53bf807a9690cf2665fe7681766b00000000000000000000000021f4a697823b3a0490ba09ddfa3d84fed00db634000000000000000000000000bc650a93ae8732f7f49a5a722cd73a9f0ae360070000000000000000000000000000000000000000000000000000000000000bb8000000000000000000000000000000000000000000000000000000000000003c000000000000000000000000bf42f398561644eb55a7269da0f937d0512c40c0000000000000000000000000000000000000000000000000000000000000003200000000000000000000000000000000000000000000000000000001000276a40000000000000000000000000000000000000000000000000000000069b675de",
        "nonce": "0x443",
        "chainId": "0x515"
      },
      "additionalContracts": [],
      "isFixedGasLimit": false
    },
    {
      "hash": "0x85cda7955adabce8603b4e774f5c5fd4698d2b8ece44ae5599cda23a85dd8381",
      "transactionType": "CALL",
      "contractName": null,
      "contractAddress": "0xe56a90ad0deab20ee9fcd780b14ca90fc71d3f5d",
      "function": "executeNextSlice((bytes32,(address,address,uint24,int24,address),uint24,uint160,uint40))",
      "arguments": [
        "(0x4dfeca0efe16849e034754b8beaad94f7d5a53bf807a9690cf2665fe7681766b, (0x21f4a697823B3A0490Ba09DdFA3D84fed00db634, 0xbc650A93Ae8732f7f49A5A722cD73a9f0ae36007, 3000, 60, 0xBF42f398561644Eb55A7269dA0F937D0512c40c0), 50, 4295128740, 1773565406)"
      ],
      "transaction": {
        "from": "0x4b992f2fbf714c0fcbb23bac5130ace48cad00cd",
        "to": "0xe56a90ad0deab20ee9fcd780b14ca90fc71d3f5d",
        "gas": "0x16d2d",
        "value": "0x0",
        "input": "0xdee732444dfeca0efe16849e034754b8beaad94f7d5a53bf807a9690cf2665fe7681766b00000000000000000000000021f4a697823b3a0490ba09ddfa3d84fed00db634000000000000000000000000bc650a93ae8732f7f49a5a722cd73a9f0ae360070000000000000000000000000000000000000000000000000000000000000bb8000000000000000000000000000000000000000000000000000000000000003c000000000000000000000000bf42f398561644eb55a7269da0f937d0512c40c0000000000000000000000000000000000000000000000000000000000000003200000000000000000000000000000000000000000000000000000001000276a40000000000000000000000000000000000000000000000000000000069b675de",
        "nonce": "0x444",
        "chainId": "0x515"
      },
      "additionalContracts": [],
      "isFixedGasLimit": false
    },
    {
      "hash": "0x8295d3c6cb279437c84bef804d5b9900b9da040540a2bc07bbc141ca8d038fea",
      "transactionType": "CALL",
      "contractName": null,
      "contractAddress": "0xe56a90ad0deab20ee9fcd780b14ca90fc71d3f5d",
      "function": "executeNextSlice((bytes32,(address,address,uint24,int24,address),uint24,uint160,uint40))",
      "arguments": [
        "(0x4dfeca0efe16849e034754b8beaad94f7d5a53bf807a9690cf2665fe7681766b, (0x21f4a697823B3A0490Ba09DdFA3D84fed00db634, 0xbc650A93Ae8732f7f49A5A722cD73a9f0ae36007, 3000, 60, 0xBF42f398561644Eb55A7269dA0F937D0512c40c0), 50, 4295128740, 1773565406)"
      ],
      "transaction": {
        "from": "0x4b992f2fbf714c0fcbb23bac5130ace48cad00cd",
        "to": "0xe56a90ad0deab20ee9fcd780b14ca90fc71d3f5d",
        "gas": "0x16d2d",
        "value": "0x0",
        "input": "0xdee732444dfeca0efe16849e034754b8beaad94f7d5a53bf807a9690cf2665fe7681766b00000000000000000000000021f4a697823b3a0490ba09ddfa3d84fed00db634000000000000000000000000bc650a93ae8732f7f49a5a722cd73a9f0ae360070000000000000000000000000000000000000000000000000000000000000bb8000000000000000000000000000000000000000000000000000000000000003c000000000000000000000000bf42f398561644eb55a7269da0f937d0512c40c0000000000000000000000000000000000000000000000000000000000000003200000000000000000000000000000000000000000000000000000001000276a40000000000000000000000000000000000000000000000000000000069b675de",
        "nonce": "0x445",
        "chainId": "0x515"
      },
      "additionalContracts": [],
      "isFixedGasLimit": false
    },
    {
      "hash": "0xb98e0cfb2f8dadfb3dcd0bc24c6872f16fe3dfcb9e49ad23e04dfe5a41cb30fd",
      "transactionType": "CALL",
      "contractName": null,
      "contractAddress": "0xe56a90ad0deab20ee9fcd780b14ca90fc71d3f5d",
      "function": "executeNextSlice((bytes32,(address,address,uint24,int24,address),uint24,uint160,uint40))",
      "arguments": [
        "(0x4dfeca0efe16849e034754b8beaad94f7d5a53bf807a9690cf2665fe7681766b, (0x21f4a697823B3A0490Ba09DdFA3D84fed00db634, 0xbc650A93Ae8732f7f49A5A722cD73a9f0ae36007, 3000, 60, 0xBF42f398561644Eb55A7269dA0F937D0512c40c0), 50, 4295128740, 1773565406)"
      ],
      "transaction": {
        "from": "0x4b992f2fbf714c0fcbb23bac5130ace48cad00cd",
        "to": "0xe56a90ad0deab20ee9fcd780b14ca90fc71d3f5d",
        "gas": "0x16d2d",
        "value": "0x0",
        "input": "0xdee732444dfeca0efe16849e034754b8beaad94f7d5a53bf807a9690cf2665fe7681766b00000000000000000000000021f4a697823b3a0490ba09ddfa3d84fed00db634000000000000000000000000bc650a93ae8732f7f49a5a722cd73a9f0ae360070000000000000000000000000000000000000000000000000000000000000bb8000000000000000000000000000000000000000000000000000000000000003c000000000000000000000000bf42f398561644eb55a7269da0f937d0512c40c0000000000000000000000000000000000000000000000000000000000000003200000000000000000000000000000000000000000000000000000001000276a40000000000000000000000000000000000000000000000000000000069b675de",
        "nonce": "0x446",
        "chainId": "0x515"
      },
      "additionalContracts": [],
      "isFixedGasLimit": false
    },
    {
      "hash": "0x4b1ba1623f703c5a1f9cbc5c1145cbac101af661e1942ba8c3e0324c10f22211",
      "transactionType": "CALL",
      "contractName": null,
      "contractAddress": "0xe56a90ad0deab20ee9fcd780b14ca90fc71d3f5d",
      "function": "executeNextSlice((bytes32,(address,address,uint24,int24,address),uint24,uint160,uint40))",
      "arguments": [
        "(0x4dfeca0efe16849e034754b8beaad94f7d5a53bf807a9690cf2665fe7681766b, (0x21f4a697823B3A0490Ba09DdFA3D84fed00db634, 0xbc650A93Ae8732f7f49A5A722cD73a9f0ae36007, 3000, 60, 0xBF42f398561644Eb55A7269dA0F937D0512c40c0), 50, 4295128740, 1773565406)"
      ],
      "transaction": {
        "from": "0x4b992f2fbf714c0fcbb23bac5130ace48cad00cd",
        "to": "0xe56a90ad0deab20ee9fcd780b14ca90fc71d3f5d",
        "gas": "0x16d2d",
        "value": "0x0",
        "input": "0xdee732444dfeca0efe16849e034754b8beaad94f7d5a53bf807a9690cf2665fe7681766b00000000000000000000000021f4a697823b3a0490ba09ddfa3d84fed00db634000000000000000000000000bc650a93ae8732f7f49a5a722cd73a9f0ae360070000000000000000000000000000000000000000000000000000000000000bb8000000000000000000000000000000000000000000000000000000000000003c000000000000000000000000bf42f398561644eb55a7269da0f937d0512c40c0000000000000000000000000000000000000000000000000000000000000003200000000000000000000000000000000000000000000000000000001000276a40000000000000000000000000000000000000000000000000000000069b675de",
        "nonce": "0x447",
        "chainId": "0x515"
      },
      "additionalContracts": [],
      "isFixedGasLimit": false
    },
    {
      "hash": "0x473affaf7bf2a669c8dfd3729bddfc798a924cd501c349db2070ed9cd14a9355",
      "transactionType": "CALL",
      "contractName": null,
      "contractAddress": "0xe56a90ad0deab20ee9fcd780b14ca90fc71d3f5d",
      "function": "executeNextSlice((bytes32,(address,address,uint24,int24,address),uint24,uint160,uint40))",
      "arguments": [
        "(0x4dfeca0efe16849e034754b8beaad94f7d5a53bf807a9690cf2665fe7681766b, (0x21f4a697823B3A0490Ba09DdFA3D84fed00db634, 0xbc650A93Ae8732f7f49A5A722cD73a9f0ae36007, 3000, 60, 0xBF42f398561644Eb55A7269dA0F937D0512c40c0), 50, 4295128740, 1773565406)"
      ],
      "transaction": {
        "from": "0x4b992f2fbf714c0fcbb23bac5130ace48cad00cd",
        "to": "0xe56a90ad0deab20ee9fcd780b14ca90fc71d3f5d",
        "gas": "0x16d2d",
        "value": "0x0",
        "input": "0xdee732444dfeca0efe16849e034754b8beaad94f7d5a53bf807a9690cf2665fe7681766b00000000000000000000000021f4a697823b3a0490ba09ddfa3d84fed00db634000000000000000000000000bc650a93ae8732f7f49a5a722cd73a9f0ae360070000000000000000000000000000000000000000000000000000000000000bb8000000000000000000000000000000000000000000000000000000000000003c000000000000000000000000bf42f398561644eb55a7269da0f937d0512c40c0000000000000000000000000000000000000000000000000000000000000003200000000000000000000000000000000000000000000000000000001000276a40000000000000000000000000000000000000000000000000000000069b675de",
        "nonce": "0x448",
        "chainId": "0x515"
      },
      "additionalContracts": [],
      "isFixedGasLimit": false
    },
    {
      "hash": "0x50a943e2c4f24e68e700c5fb0a7d58610e1a028bc6d45fdea2bd645b32a8cf2a",
      "transactionType": "CALL",
      "contractName": null,
      "contractAddress": "0xe56a90ad0deab20ee9fcd780b14ca90fc71d3f5d",
      "function": "executeNextSlice((bytes32,(address,address,uint24,int24,address),uint24,uint160,uint40))",
      "arguments": [
        "(0x4dfeca0efe16849e034754b8beaad94f7d5a53bf807a9690cf2665fe7681766b, (0x21f4a697823B3A0490Ba09DdFA3D84fed00db634, 0xbc650A93Ae8732f7f49A5A722cD73a9f0ae36007, 3000, 60, 0xBF42f398561644Eb55A7269dA0F937D0512c40c0), 50, 4295128740, 1773565406)"
      ],
      "transaction": {
        "from": "0x4b992f2fbf714c0fcbb23bac5130ace48cad00cd",
        "to": "0xe56a90ad0deab20ee9fcd780b14ca90fc71d3f5d",
        "gas": "0x16d2d",
        "value": "0x0",
        "input": "0xdee732444dfeca0efe16849e034754b8beaad94f7d5a53bf807a9690cf2665fe7681766b00000000000000000000000021f4a697823b3a0490ba09ddfa3d84fed00db634000000000000000000000000bc650a93ae8732f7f49a5a722cd73a9f0ae360070000000000000000000000000000000000000000000000000000000000000bb8000000000000000000000000000000000000000000000000000000000000003c000000000000000000000000bf42f398561644eb55a7269da0f937d0512c40c0000000000000000000000000000000000000000000000000000000000000003200000000000000000000000000000000000000000000000000000001000276a40000000000000000000000000000000000000000000000000000000069b675de",
        "nonce": "0x449",
        "chainId": "0x515"
      },
      "additionalContracts": [],
      "isFixedGasLimit": false
    },
    {
      "hash": "0x189d9d34f31e554da3f8725e92dc508bd551104077ed3307e7ee1c2c52c5d3ae",
      "transactionType": "CALL",
      "contractName": null,
      "contractAddress": "0xe56a90ad0deab20ee9fcd780b14ca90fc71d3f5d",
      "function": "executeNextSlice((bytes32,(address,address,uint24,int24,address),uint24,uint160,uint40))",
      "arguments": [
        "(0x4dfeca0efe16849e034754b8beaad94f7d5a53bf807a9690cf2665fe7681766b, (0x21f4a697823B3A0490Ba09DdFA3D84fed00db634, 0xbc650A93Ae8732f7f49A5A722cD73a9f0ae36007, 3000, 60, 0xBF42f398561644Eb55A7269dA0F937D0512c40c0), 50, 4295128740, 1773565406)"
      ],
      "transaction": {
        "from": "0x4b992f2fbf714c0fcbb23bac5130ace48cad00cd",
        "to": "0xe56a90ad0deab20ee9fcd780b14ca90fc71d3f5d",
        "gas": "0x16d2d",
        "value": "0x0",
        "input": "0xdee732444dfeca0efe16849e034754b8beaad94f7d5a53bf807a9690cf2665fe7681766b00000000000000000000000021f4a697823b3a0490ba09ddfa3d84fed00db634000000000000000000000000bc650a93ae8732f7f49a5a722cd73a9f0ae360070000000000000000000000000000000000000000000000000000000000000bb8000000000000000000000000000000000000000000000000000000000000003c000000000000000000000000bf42f398561644eb55a7269da0f937d0512c40c0000000000000000000000000000000000000000000000000000000000000003200000000000000000000000000000000000000000000000000000001000276a40000000000000000000000000000000000000000000000000000000069b675de",
        "nonce": "0x44a",
        "chainId": "0x515"
      },
      "additionalContracts": [],
      "isFixedGasLimit": false
    },
    {
      "hash": null,
      "transactionType": "CALL",
      "contractName": null,
      "contractAddress": "0xe56a90ad0deab20ee9fcd780b14ca90fc71d3f5d",
      "function": "executeNextSlice((bytes32,(address,address,uint24,int24,address),uint24,uint160,uint40))",
      "arguments": [
        "(0x4dfeca0efe16849e034754b8beaad94f7d5a53bf807a9690cf2665fe7681766b, (0x21f4a697823B3A0490Ba09DdFA3D84fed00db634, 0xbc650A93Ae8732f7f49A5A722cD73a9f0ae36007, 3000, 60, 0xBF42f398561644Eb55A7269dA0F937D0512c40c0), 50, 4295128740, 1773565406)"
      ],
      "transaction": {
        "from": "0x4b992f2fbf714c0fcbb23bac5130ace48cad00cd",
        "to": "0xe56a90ad0deab20ee9fcd780b14ca90fc71d3f5d",
        "gas": "0x16d2d",
        "value": "0x0",
        "input": "0xdee732444dfeca0efe16849e034754b8beaad94f7d5a53bf807a9690cf2665fe7681766b00000000000000000000000021f4a697823b3a0490ba09ddfa3d84fed00db634000000000000000000000000bc650a93ae8732f7f49a5a722cd73a9f0ae360070000000000000000000000000000000000000000000000000000000000000bb8000000000000000000000000000000000000000000000000000000000000003c000000000000000000000000bf42f398561644eb55a7269da0f937d0512c40c0000000000000000000000000000000000000000000000000000000000000003200000000000000000000000000000000000000000000000000000001000276a40000000000000000000000000000000000000000000000000000000069b675de",
        "nonce": "0x44b",
        "chainId": "0x515"
      },
      "additionalContracts": [],
      "isFixedGasLimit": false
    },
    {
      "hash": null,
      "transactionType": "CALL",
      "contractName": null,
      "contractAddress": "0xe56a90ad0deab20ee9fcd780b14ca90fc71d3f5d",
      "function": "executeNextSlice((bytes32,(address,address,uint24,int24,address),uint24,uint160,uint40))",
      "arguments": [
        "(0x4dfeca0efe16849e034754b8beaad94f7d5a53bf807a9690cf2665fe7681766b, (0x21f4a697823B3A0490Ba09DdFA3D84fed00db634, 0xbc650A93Ae8732f7f49A5A722cD73a9f0ae36007, 3000, 60, 0xBF42f398561644Eb55A7269dA0F937D0512c40c0), 50, 4295128740, 1773565406)"
      ],
      "transaction": {
        "from": "0x4b992f2fbf714c0fcbb23bac5130ace48cad00cd",
        "to": "0xe56a90ad0deab20ee9fcd780b14ca90fc71d3f5d",
        "gas": "0x16d2d",
        "value": "0x0",
        "input": "0xdee732444dfeca0efe16849e034754b8beaad94f7d5a53bf807a9690cf2665fe7681766b00000000000000000000000021f4a697823b3a0490ba09ddfa3d84fed00db634000000000000000000000000bc650a93ae8732f7f49a5a722cd73a9f0ae360070000000000000000000000000000000000000000000000000000000000000bb8000000000000000000000000000000000000000000000000000000000000003c000000000000000000000000bf42f398561644eb55a7269da0f937d0512c40c0000000000000000000000000000000000000000000000000000000000000003200000000000000000000000000000000000000000000000000000001000276a40000000000000000000000000000000000000000000000000000000069b675de",
        "nonce": "0x44c",
        "chainId": "0x515"
      },
      "additionalContracts": [],
      "isFixedGasLimit": false
    },
    {
      "hash": null,
      "transactionType": "CALL",
      "contractName": null,
      "contractAddress": "0xe56a90ad0deab20ee9fcd780b14ca90fc71d3f5d",
      "function": "executeNextSlice((bytes32,(address,address,uint24,int24,address),uint24,uint160,uint40))",
      "arguments": [
        "(0x4dfeca0efe16849e034754b8beaad94f7d5a53bf807a9690cf2665fe7681766b, (0x21f4a697823B3A0490Ba09DdFA3D84fed00db634, 0xbc650A93Ae8732f7f49A5A722cD73a9f0ae36007, 3000, 60, 0xBF42f398561644Eb55A7269dA0F937D0512c40c0), 50, 4295128740, 1773565406)"
      ],
      "transaction": {
        "from": "0x4b992f2fbf714c0fcbb23bac5130ace48cad00cd",
        "to": "0xe56a90ad0deab20ee9fcd780b14ca90fc71d3f5d",
        "gas": "0x16d2d",
        "value": "0x0",
        "input": "0xdee732444dfeca0efe16849e034754b8beaad94f7d5a53bf807a9690cf2665fe7681766b00000000000000000000000021f4a697823b3a0490ba09ddfa3d84fed00db634000000000000000000000000bc650a93ae8732f7f49a5a722cd73a9f0ae360070000000000000000000000000000000000000000000000000000000000000bb8000000000000000000000000000000000000000000000000000000000000003c000000000000000000000000bf42f398561644eb55a7269da0f937d0512c40c0000000000000000000000000000000000000000000000000000000000000003200000000000000000000000000000000000000000000000000000001000276a40000000000000000000000000000000000000000000000000000000069b675de",
        "nonce": "0x44d",
        "chainId": "0x515"
      },
      "additionalContracts": [],
      "isFixedGasLimit": false
    },
    {
      "hash": null,
      "transactionType": "CALL",
      "contractName": null,
      "contractAddress": "0xe56a90ad0deab20ee9fcd780b14ca90fc71d3f5d",
      "function": "executeNextSlice((bytes32,(address,address,uint24,int24,address),uint24,uint160,uint40))",
      "arguments": [
        "(0x4dfeca0efe16849e034754b8beaad94f7d5a53bf807a9690cf2665fe7681766b, (0x21f4a697823B3A0490Ba09DdFA3D84fed00db634, 0xbc650A93Ae8732f7f49A5A722cD73a9f0ae36007, 3000, 60, 0xBF42f398561644Eb55A7269dA0F937D0512c40c0), 50, 4295128740, 1773565406)"
      ],
      "transaction": {
        "from": "0x4b992f2fbf714c0fcbb23bac5130ace48cad00cd",
        "to": "0xe56a90ad0deab20ee9fcd780b14ca90fc71d3f5d",
        "gas": "0x16d2d",
        "value": "0x0",
        "input": "0xdee732444dfeca0efe16849e034754b8beaad94f7d5a53bf807a9690cf2665fe7681766b00000000000000000000000021f4a697823b3a0490ba09ddfa3d84fed00db634000000000000000000000000bc650a93ae8732f7f49a5a722cd73a9f0ae360070000000000000000000000000000000000000000000000000000000000000bb8000000000000000000000000000000000000000000000000000000000000003c000000000000000000000000bf42f398561644eb55a7269da0f937d0512c40c0000000000000000000000000000000000000000000000000000000000000003200000000000000000000000000000000000000000000000000000001000276a40000000000000000000000000000000000000000000000000000000069b675de",
        "nonce": "0x44e",
        "chainId": "0x515"
      },
      "additionalContracts": [],
      "isFixedGasLimit": false
    },
    {
      "hash": null,
      "transactionType": "CALL",
      "contractName": null,
      "contractAddress": "0xe56a90ad0deab20ee9fcd780b14ca90fc71d3f5d",
      "function": "executeNextSlice((bytes32,(address,address,uint24,int24,address),uint24,uint160,uint40))",
      "arguments": [
        "(0x4dfeca0efe16849e034754b8beaad94f7d5a53bf807a9690cf2665fe7681766b, (0x21f4a697823B3A0490Ba09DdFA3D84fed00db634, 0xbc650A93Ae8732f7f49A5A722cD73a9f0ae36007, 3000, 60, 0xBF42f398561644Eb55A7269dA0F937D0512c40c0), 50, 4295128740, 1773565406)"
      ],
      "transaction": {
        "from": "0x4b992f2fbf714c0fcbb23bac5130ace48cad00cd",
        "to": "0xe56a90ad0deab20ee9fcd780b14ca90fc71d3f5d",
        "gas": "0x16d2d",
        "value": "0x0",
        "input": "0xdee732444dfeca0efe16849e034754b8beaad94f7d5a53bf807a9690cf2665fe7681766b00000000000000000000000021f4a697823b3a0490ba09ddfa3d84fed00db634000000000000000000000000bc650a93ae8732f7f49a5a722cd73a9f0ae360070000000000000000000000000000000000000000000000000000000000000bb8000000000000000000000000000000000000000000000000000000000000003c000000000000000000000000bf42f398561644eb55a7269da0f937d0512c40c0000000000000000000000000000000000000000000000000000000000000003200000000000000000000000000000000000000000000000000000001000276a40000000000000000000000000000000000000000000000000000000069b675de",
        "nonce": "0x44f",
        "chainId": "0x515"
      },
      "additionalContracts": [],
      "isFixedGasLimit": false
    },
    {
      "hash": null,
      "transactionType": "CALL",
      "contractName": null,
      "contractAddress": "0xe56a90ad0deab20ee9fcd780b14ca90fc71d3f5d",
      "function": "executeNextSlice((bytes32,(address,address,uint24,int24,address),uint24,uint160,uint40))",
      "arguments": [
        "(0x4dfeca0efe16849e034754b8beaad94f7d5a53bf807a9690cf2665fe7681766b, (0x21f4a697823B3A0490Ba09DdFA3D84fed00db634, 0xbc650A93Ae8732f7f49A5A722cD73a9f0ae36007, 3000, 60, 0xBF42f398561644Eb55A7269dA0F937D0512c40c0), 50, 4295128740, 1773565406)"
      ],
      "transaction": {
        "from": "0x4b992f2fbf714c0fcbb23bac5130ace48cad00cd",
        "to": "0xe56a90ad0deab20ee9fcd780b14ca90fc71d3f5d",
        "gas": "0x16d2d",
        "value": "0x0",
        "input": "0xdee732444dfeca0efe16849e034754b8beaad94f7d5a53bf807a9690cf2665fe7681766b00000000000000000000000021f4a697823b3a0490ba09ddfa3d84fed00db634000000000000000000000000bc650a93ae8732f7f49a5a722cd73a9f0ae360070000000000000000000000000000000000000000000000000000000000000bb8000000000000000000000000000000000000000000000000000000000000003c000000000000000000000000bf42f398561644eb55a7269da0f937d0512c40c0000000000000000000000000000000000000000000000000000000000000003200000000000000000000000000000000000000000000000000000001000276a40000000000000000000000000000000000000000000000000000000069b675de",
        "nonce": "0x450",
        "chainId": "0x515"
      },
      "additionalContracts": [],
      "isFixedGasLimit": false
    },
    {
      "hash": null,
      "transactionType": "CALL",
      "contractName": null,
      "contractAddress": "0xe56a90ad0deab20ee9fcd780b14ca90fc71d3f5d",
      "function": "executeNextSlice((bytes32,(address,address,uint24,int24,address),uint24,uint160,uint40))",
      "arguments": [
        "(0x4dfeca0efe16849e034754b8beaad94f7d5a53bf807a9690cf2665fe7681766b, (0x21f4a697823B3A0490Ba09DdFA3D84fed00db634, 0xbc650A93Ae8732f7f49A5A722cD73a9f0ae36007, 3000, 60, 0xBF42f398561644Eb55A7269dA0F937D0512c40c0), 50, 4295128740, 1773565406)"
      ],
      "transaction": {
        "from": "0x4b992f2fbf714c0fcbb23bac5130ace48cad00cd",
        "to": "0xe56a90ad0deab20ee9fcd780b14ca90fc71d3f5d",
        "gas": "0x16d2d",
        "value": "0x0",
        "input": "0xdee732444dfeca0efe16849e034754b8beaad94f7d5a53bf807a9690cf2665fe7681766b00000000000000000000000021f4a697823b3a0490ba09ddfa3d84fed00db634000000000000000000000000bc650a93ae8732f7f49a5a722cd73a9f0ae360070000000000000000000000000000000000000000000000000000000000000bb8000000000000000000000000000000000000000000000000000000000000003c000000000000000000000000bf42f398561644eb55a7269da0f937d0512c40c0000000000000000000000000000000000000000000000000000000000000003200000000000000000000000000000000000000000000000000000001000276a40000000000000000000000000000000000000000000000000000000069b675de",
        "nonce": "0x451",
        "chainId": "0x515"
      },
      "additionalContracts": [],
      "isFixedGasLimit": false
    },
    {
      "hash": null,
      "transactionType": "CALL",
      "contractName": null,
      "contractAddress": "0xe56a90ad0deab20ee9fcd780b14ca90fc71d3f5d",
      "function": "executeNextSlice((bytes32,(address,address,uint24,int24,address),uint24,uint160,uint40))",
      "arguments": [
        "(0x4dfeca0efe16849e034754b8beaad94f7d5a53bf807a9690cf2665fe7681766b, (0x21f4a697823B3A0490Ba09DdFA3D84fed00db634, 0xbc650A93Ae8732f7f49A5A722cD73a9f0ae36007, 3000, 60, 0xBF42f398561644Eb55A7269dA0F937D0512c40c0), 50, 4295128740, 1773565406)"
      ],
      "transaction": {
        "from": "0x4b992f2fbf714c0fcbb23bac5130ace48cad00cd",
        "to": "0xe56a90ad0deab20ee9fcd780b14ca90fc71d3f5d",
        "gas": "0x16d2d",
        "value": "0x0",
        "input": "0xdee732444dfeca0efe16849e034754b8beaad94f7d5a53bf807a9690cf2665fe7681766b00000000000000000000000021f4a697823b3a0490ba09ddfa3d84fed00db634000000000000000000000000bc650a93ae8732f7f49a5a722cd73a9f0ae360070000000000000000000000000000000000000000000000000000000000000bb8000000000000000000000000000000000000000000000000000000000000003c000000000000000000000000bf42f398561644eb55a7269da0f937d0512c40c0000000000000000000000000000000000000000000000000000000000000003200000000000000000000000000000000000000000000000000000001000276a40000000000000000000000000000000000000000000000000000000069b675de",
        "nonce": "0x452",
        "chainId": "0x515"
      },
      "additionalContracts": [],
      "isFixedGasLimit": false
    },
    {
      "hash": null,
      "transactionType": "CALL",
      "contractName": null,
      "contractAddress": "0xe56a90ad0deab20ee9fcd780b14ca90fc71d3f5d",
      "function": "executeNextSlice((bytes32,(address,address,uint24,int24,address),uint24,uint160,uint40))",
      "arguments": [
        "(0x4dfeca0efe16849e034754b8beaad94f7d5a53bf807a9690cf2665fe7681766b, (0x21f4a697823B3A0490Ba09DdFA3D84fed00db634, 0xbc650A93Ae8732f7f49A5A722cD73a9f0ae36007, 3000, 60, 0xBF42f398561644Eb55A7269dA0F937D0512c40c0), 50, 4295128740, 1773565406)"
      ],
      "transaction": {
        "from": "0x4b992f2fbf714c0fcbb23bac5130ace48cad00cd",
        "to": "0xe56a90ad0deab20ee9fcd780b14ca90fc71d3f5d",
        "gas": "0x16d2d",
        "value": "0x0",
        "input": "0xdee732444dfeca0efe16849e034754b8beaad94f7d5a53bf807a9690cf2665fe7681766b00000000000000000000000021f4a697823b3a0490ba09ddfa3d84fed00db634000000000000000000000000bc650a93ae8732f7f49a5a722cd73a9f0ae360070000000000000000000000000000000000000000000000000000000000000bb8000000000000000000000000000000000000000000000000000000000000003c000000000000000000000000bf42f398561644eb55a7269da0f937d0512c40c0000000000000000000000000000000000000000000000000000000000000003200000000000000000000000000000000000000000000000000000001000276a40000000000000000000000000000000000000000000000000000000069b675de",
        "nonce": "0x453",
        "chainId": "0x515"
      },
      "additionalContracts": [],
      "isFixedGasLimit": false
    },
    {
      "hash": null,
      "transactionType": "CALL",
      "contractName": null,
      "contractAddress": "0xe56a90ad0deab20ee9fcd780b14ca90fc71d3f5d",
      "function": "executeNextSlice((bytes32,(address,address,uint24,int24,address),uint24,uint160,uint40))",
      "arguments": [
        "(0x4dfeca0efe16849e034754b8beaad94f7d5a53bf807a9690cf2665fe7681766b, (0x21f4a697823B3A0490Ba09DdFA3D84fed00db634, 0xbc650A93Ae8732f7f49A5A722cD73a9f0ae36007, 3000, 60, 0xBF42f398561644Eb55A7269dA0F937D0512c40c0), 50, 4295128740, 1773565406)"
      ],
      "transaction": {
        "from": "0x4b992f2fbf714c0fcbb23bac5130ace48cad00cd",
        "to": "0xe56a90ad0deab20ee9fcd780b14ca90fc71d3f5d",
        "gas": "0x16d2d",
        "value": "0x0",
        "input": "0xdee732444dfeca0efe16849e034754b8beaad94f7d5a53bf807a9690cf2665fe7681766b00000000000000000000000021f4a697823b3a0490ba09ddfa3d84fed00db634000000000000000000000000bc650a93ae8732f7f49a5a722cd73a9f0ae360070000000000000000000000000000000000000000000000000000000000000bb8000000000000000000000000000000000000000000000000000000000000003c000000000000000000000000bf42f398561644eb55a7269da0f937d0512c40c0000000000000000000000000000000000000000000000000000000000000003200000000000000000000000000000000000000000000000000000001000276a40000000000000000000000000000000000000000000000000000000069b675de",
        "nonce": "0x454",
        "chainId": "0x515"
      },
      "additionalContracts": [],
      "isFixedGasLimit": false
    },
    {
      "hash": null,
      "transactionType": "CALL",
      "contractName": null,
      "contractAddress": "0xe56a90ad0deab20ee9fcd780b14ca90fc71d3f5d",
      "function": "executeNextSlice((bytes32,(address,address,uint24,int24,address),uint24,uint160,uint40))",
      "arguments": [
        "(0x4dfeca0efe16849e034754b8beaad94f7d5a53bf807a9690cf2665fe7681766b, (0x21f4a697823B3A0490Ba09DdFA3D84fed00db634, 0xbc650A93Ae8732f7f49A5A722cD73a9f0ae36007, 3000, 60, 0xBF42f398561644Eb55A7269dA0F937D0512c40c0), 50, 4295128740, 1773565406)"
      ],
      "transaction": {
        "from": "0x4b992f2fbf714c0fcbb23bac5130ace48cad00cd",
        "to": "0xe56a90ad0deab20ee9fcd780b14ca90fc71d3f5d",
        "gas": "0x16d2d",
        "value": "0x0",
        "input": "0xdee732444dfeca0efe16849e034754b8beaad94f7d5a53bf807a9690cf2665fe7681766b00000000000000000000000021f4a697823b3a0490ba09ddfa3d84fed00db634000000000000000000000000bc650a93ae8732f7f49a5a722cd73a9f0ae360070000000000000000000000000000000000000000000000000000000000000bb8000000000000000000000000000000000000000000000000000000000000003c000000000000000000000000bf42f398561644eb55a7269da0f937d0512c40c0000000000000000000000000000000000000000000000000000000000000003200000000000000000000000000000000000000000000000000000001000276a40000000000000000000000000000000000000000000000000000000069b675de",
        "nonce": "0x455",
        "chainId": "0x515"
      },
      "additionalContracts": [],
      "isFixedGasLimit": false
    },
    {
      "hash": null,
      "transactionType": "CALL",
      "contractName": null,
      "contractAddress": "0xe56a90ad0deab20ee9fcd780b14ca90fc71d3f5d",
      "function": "executeNextSlice((bytes32,(address,address,uint24,int24,address),uint24,uint160,uint40))",
      "arguments": [
        "(0x4dfeca0efe16849e034754b8beaad94f7d5a53bf807a9690cf2665fe7681766b, (0x21f4a697823B3A0490Ba09DdFA3D84fed00db634, 0xbc650A93Ae8732f7f49A5A722cD73a9f0ae36007, 3000, 60, 0xBF42f398561644Eb55A7269dA0F937D0512c40c0), 50, 4295128740, 1773565406)"
      ],
      "transaction": {
        "from": "0x4b992f2fbf714c0fcbb23bac5130ace48cad00cd",
        "to": "0xe56a90ad0deab20ee9fcd780b14ca90fc71d3f5d",
        "gas": "0x16d2d",
        "value": "0x0",
        "input": "0xdee732444dfeca0efe16849e034754b8beaad94f7d5a53bf807a9690cf2665fe7681766b00000000000000000000000021f4a697823b3a0490ba09ddfa3d84fed00db634000000000000000000000000bc650a93ae8732f7f49a5a722cd73a9f0ae360070000000000000000000000000000000000000000000000000000000000000bb8000000000000000000000000000000000000000000000000000000000000003c000000000000000000000000bf42f398561644eb55a7269da0f937d0512c40c0000000000000000000000000000000000000000000000000000000000000003200000000000000000000000000000000000000000000000000000001000276a40000000000000000000000000000000000000000000000000000000069b675de",
        "nonce": "0x456",
        "chainId": "0x515"
      },
      "additionalContracts": [],
      "isFixedGasLimit": false
    },
    {
      "hash": null,
      "transactionType": "CALL",
      "contractName": null,
      "contractAddress": "0xe56a90ad0deab20ee9fcd780b14ca90fc71d3f5d",
      "function": "executeNextSlice((bytes32,(address,address,uint24,int24,address),uint24,uint160,uint40))",
      "arguments": [
        "(0x4dfeca0efe16849e034754b8beaad94f7d5a53bf807a9690cf2665fe7681766b, (0x21f4a697823B3A0490Ba09DdFA3D84fed00db634, 0xbc650A93Ae8732f7f49A5A722cD73a9f0ae36007, 3000, 60, 0xBF42f398561644Eb55A7269dA0F937D0512c40c0), 50, 4295128740, 1773565406)"
      ],
      "transaction": {
        "from": "0x4b992f2fbf714c0fcbb23bac5130ace48cad00cd",
        "to": "0xe56a90ad0deab20ee9fcd780b14ca90fc71d3f5d",
        "gas": "0x16d2d",
        "value": "0x0",
        "input": "0xdee732444dfeca0efe16849e034754b8beaad94f7d5a53bf807a9690cf2665fe7681766b00000000000000000000000021f4a697823b3a0490ba09ddfa3d84fed00db634000000000000000000000000bc650a93ae8732f7f49a5a722cd73a9f0ae360070000000000000000000000000000000000000000000000000000000000000bb8000000000000000000000000000000000000000000000000000000000000003c000000000000000000000000bf42f398561644eb55a7269da0f937d0512c40c0000000000000000000000000000000000000000000000000000000000000003200000000000000000000000000000000000000000000000000000001000276a40000000000000000000000000000000000000000000000000000000069b675de",
        "nonce": "0x457",
        "chainId": "0x515"
      },
      "additionalContracts": [],
      "isFixedGasLimit": false
    }
  ],
  "receipts": [],
  "libraries": [],
  "pending": [
    "0x8d0eabdcbdaaeceb29ee423e7ad7499dadfa2f67307e34c5face2be3b86bec8c",
    "0x68c8050126a548e4dbe0462168bb3b8d42a5e901c66ee28f17a7c2d0f3ec4f44",
    "0x2d395647263d6f8eae1491601da6f836a34926d3c001f6a292863440eee912e4",
    "0xf9e5a716c41b711e57ece2f5440b4117067eeaad71681c0923b9e56f9c3d7e62",
    "0x12e4314355e2354c774ecc8972e24a5892fa6f9b4606a160d77628fc8488dbdb",
    "0x5d19cddff20911371ad384db29bc971c1071c23b7dcaeeb49b62eeafb7d2826c",
    "0xb629192b61c7d0fc22fd3d463ec165946466f415c176af0a76c150cb568948de",
    "0x48a79ff6038ad49d92828aa796afc4dbfd893c46923909a5af4596af0209e359",
    "0x3faa0498a105ce50742033f1abd869688513dc629aad8c9b4118049231203a31",
    "0xdb7465ed54592e94d096959df6be33a18b30b8445026049358dd8592c11963c8",
    "0x6237eac9765310b52520ab8137c2e7975344ac1158143439f3260f66422a5805",
    "0x1db1e175ede6cbc5f0ee9ac1b1d1d406b8d20eac9bfbe3e0e1b0d9f37c0e3db2",
    "0xca1ce75ea75cb4f3171040f597e707e718243b9f5b38245d8f6ac6ce907b0d4b",
    "0x7d2ff4bf17d5bae96f8736314beb9c3959c357ed374be48e35722e8d5b11c8ab",
    "0x69887ec6cfd656dff354d1b7b3b964482d2915ea24a16d4ade7b50e142d90e98",
    "0x0388cde733309cc892db484ef542bebee7523342a9602d67b0542bf39af07d73",
    "0x3657dac8435ae022883881218f0bc33d4a183cdb1a60d8d8e3c6b7f5ab642889",
    "0x0455fd267cf1715cfb8ed53381173908960cb19027ad460f3899b80d5953f103",
    "0x933dbdda9a764c2205a1322c428bd9df2d6f297a56ce7cc7f2655f8cc1daae0e",
    "0x7ae74937c701c9871ff07dcbea33d391457bed2dee8f5280cdbfed19b60f73fe",
    "0xa1de9a8df136e2937dfb80949dd47b02864e7f5a5bdc42bba9903d606682253b",
    "0xf606aebabcf056e05ef58d1112ece660da2ce72cc3ff7c2e3c7c065b97e2b06f",
    "0x85cda7955adabce8603b4e774f5c5fd4698d2b8ece44ae5599cda23a85dd8381",
    "0x8295d3c6cb279437c84bef804d5b9900b9da040540a2bc07bbc141ca8d038fea",
    "0xb98e0cfb2f8dadfb3dcd0bc24c6872f16fe3dfcb9e49ad23e04dfe5a41cb30fd",
    "0x4b1ba1623f703c5a1f9cbc5c1145cbac101af661e1942ba8c3e0324c10f22211",
    "0x473affaf7bf2a669c8dfd3729bddfc798a924cd501c349db2070ed9cd14a9355",
    "0x50a943e2c4f24e68e700c5fb0a7d58610e1a028bc6d45fdea2bd645b32a8cf2a",
    "0x189d9d34f31e554da3f8725e92dc508bd551104077ed3307e7ee1c2c52c5d3ae"
  ],
  "returns": {},
  "timestamp": 1773564842635,
  "chain": 1301,
  "commit": "2745fea"
}