{
  "transactions": [
    {
      "hash": null,
      "transactionType": "CREATE",
      "contractName": "MockERC20",
      "contractAddress": "0x8a39d15ca044ab6cd19a733a8eaddef22375429b",
      "function": null,
      "arguments": [
        "Mock WETH",
        "mWETH",
        "18"
      ],
      "transaction": {
        "from": "0x4b992f2fbf714c0fcbb23bac5130ace48cad00cd",
        "gas": "0xea855",
        "value": "0x0",
        "input": "0x60e060405234801561000f575f5ffd5b50604051610f39380380610f3983398101604081905261002e916101a1565b8282825f61003c84826102a2565b50600161004983826102a2565b5060ff81166080524660a05261005d61006c565b60c052506103cd945050505050565b5f7f8b73c3c69bb8fe3d512ecc4cf759cc79239f7b179b0ffacaa9a75d522b39400f5f60405161009c919061035c565b6040805191829003822060208301939093528101919091527fc89efdaa54c0f20c7adf612882df0950f5a951637e0307cdcb4c672f298b8bc660608201524660808201523060a082015260c00160405160208183030381529060405280519060200120905090565b634e487b7160e01b5f52604160045260245ffd5b5f82601f830112610127575f5ffd5b81516001600160401b0381111561014057610140610104565b604051601f8201601f19908116603f011681016001600160401b038111828210171561016e5761016e610104565b604052818152838201602001851015610185575f5ffd5b8160208501602083015e5f918101602001919091529392505050565b5f5f5f606084860312156101b3575f5ffd5b83516001600160401b038111156101c8575f5ffd5b6101d486828701610118565b602086015190945090506001600160401b038111156101f1575f5ffd5b6101fd86828701610118565b925050604084015160ff81168114610213575f5ffd5b809150509250925092565b600181811c9082168061023257607f821691505b60208210810361025057634e487b7160e01b5f52602260045260245ffd5b50919050565b601f82111561029d57805f5260205f20601f840160051c8101602085101561027b5750805b601f840160051c820191505b8181101561029a575f8155600101610287565b50505b505050565b81516001600160401b038111156102bb576102bb610104565b6102cf816102c9845461021e565b84610256565b6020601f821160018114610301575f83156102ea5750848201515b5f19600385901b1c1916600184901b17845561029a565b5f84815260208120601f198516915b828110156103305787850151825560209485019460019092019101610310565b508482101561034d57868401515f19600387901b60f8161c191681555b50505050600190811b01905550565b5f5f83546103698161021e565b6001821680156103805760018114610395576103c2565b60ff19831686528115158202860193506103c2565b865f5260205f205f5b838110156103ba5781548882015260019091019060200161039e565b505081860193505b509195945050505050565b60805160a05160c051610b426103f75f395f61045c01525f61042701525f6101590152610b425ff3fe608060405234801561000f575f5ffd5b50600436106100e5575f3560e01c806370a08231116100885780639dc29fac116100635780639dc29fac146101f0578063a9059cbb14610203578063d505accf14610216578063dd62ed3e14610229575f5ffd5b806370a08231146101aa5780637ecebe00146101c957806395d89b41146101e8575f5ffd5b806323b872dd116100c357806323b872dd14610141578063313ce567146101545780633644e5151461018d57806340c10f1914610195575f5ffd5b806306fdde03146100e9578063095ea7b31461010757806318160ddd1461012a575b5f5ffd5b6100f1610253565b6040516100fe9190610897565b60405180910390f35b61011a6101153660046108e7565b6102de565b60405190151581526020016100fe565b61013360025481565b6040519081526020016100fe565b61011a61014f36600461090f565b61034a565b61017b7f000000000000000000000000000000000000000000000000000000000000000081565b60405160ff90911681526020016100fe565b610133610424565b6101a86101a33660046108e7565b61047e565b005b6101336101b8366004610949565b60036020525f908152604090205481565b6101336101d7366004610949565b60056020525f908152604090205481565b6100f161048c565b6101a86101fe3660046108e7565b610499565b61011a6102113660046108e7565b6104a3565b6101a8610224366004610969565b610506565b6101336102373660046109d6565b600460209081525f928352604080842090915290825290205481565b5f805461025f90610a07565b80601f016020809104026020016040519081016040528092919081815260200182805461028b90610a07565b80156102d65780601f106102ad576101008083540402835291602001916102d6565b820191905f5260205f20905b8154815290600101906020018083116102b957829003601f168201915b505050505081565b335f8181526004602090815260408083206001600160a01b038716808552925280832085905551919290917f8c5be1e5ebec7d5bd14f71427d1e84f3dd0314c0f7b2291e5b200ac8c7c3b925906103389086815260200190565b60405180910390a35060015b92915050565b6001600160a01b0383165f9081526004602090815260408083203384529091528120545f1981146103a35761037f8382610a53565b6001600160a01b0386165f9081526004602090815260408083203384529091529020555b6001600160a01b0385165f90815260036020526040812080548592906103ca908490610a53565b90915550506001600160a01b038085165f81815260036020526040908190208054870190555190918716905f516020610b165f395f51905f52906104119087815260200190565b60405180910390a3506001949350505050565b5f7f0000000000000000000000000000000000000000000000000000000000000000461461045957610454610749565b905090565b507f000000000000000000000000000000000000000000000000000000000000000090565b61048882826107e1565b5050565b6001805461025f90610a07565b6104888282610838565b335f908152600360205260408120805483919083906104c3908490610a53565b90915550506001600160a01b0383165f81815260036020526040908190208054850190555133905f516020610b165f395f51905f52906103389086815260200190565b4284101561055b5760405162461bcd60e51b815260206004820152601760248201527f5045524d49545f444541444c494e455f4558504952454400000000000000000060448201526064015b60405180910390fd5b5f6001610566610424565b6001600160a01b038a81165f8181526005602090815260409182902080546001810190915582517f6e71edae12b1b97f4d1f60370fef10105fa2faae0126114a169c64845d6126c98184015280840194909452938d166060840152608083018c905260a083019390935260c08083018b90528151808403909101815260e08301909152805192019190912061190160f01b6101008301526101028201929092526101228101919091526101420160408051601f1981840301815282825280516020918201205f84529083018083525260ff871690820152606081018590526080810184905260a0016020604051602081039080840390855afa15801561066e573d5f5f3e3d5ffd5b5050604051601f1901519150506001600160a01b038116158015906106a45750876001600160a01b0316816001600160a01b0316145b6106e15760405162461bcd60e51b815260206004820152600e60248201526d24a72b20a624a22fa9a4a3a722a960911b6044820152606401610552565b6001600160a01b039081165f9081526004602090815260408083208a8516808552908352928190208990555188815291928a16917f8c5be1e5ebec7d5bd14f71427d1e84f3dd0314c0f7b2291e5b200ac8c7c3b925910160405180910390a350505050505050565b5f7f8b73c3c69bb8fe3d512ecc4cf759cc79239f7b179b0ffacaa9a75d522b39400f5f6040516107799190610a66565b6040805191829003822060208301939093528101919091527fc89efdaa54c0f20c7adf612882df0950f5a951637e0307cdcb4c672f298b8bc660608201524660808201523060a082015260c00160405160208183030381529060405280519060200120905090565b8060025f8282546107f29190610b02565b90915550506001600160a01b0382165f818152600360209081526040808320805486019055518481525f516020610b165f395f51905f5291015b60405180910390a35050565b6001600160a01b0382165f908152600360205260408120805483929061085f908490610a53565b90915550506002805482900390556040518181525f906001600160a01b038416905f516020610b165f395f51905f529060200161082c565b602081525f82518060208401528060208501604085015e5f604082850101526040601f19601f83011684010191505092915050565b80356001600160a01b03811681146108e2575f5ffd5b919050565b5f5f604083850312156108f8575f5ffd5b610901836108cc565b946020939093013593505050565b5f5f5f60608486031215610921575f5ffd5b61092a846108cc565b9250610938602085016108cc565b929592945050506040919091013590565b5f60208284031215610959575f5ffd5b610962826108cc565b9392505050565b5f5f5f5f5f5f5f60e0888a03121561097f575f5ffd5b610988886108cc565b9650610996602089016108cc565b95506040880135945060608801359350608088013560ff811681146109b9575f5ffd5b9699959850939692959460a0840135945060c09093013592915050565b5f5f604083850312156109e7575f5ffd5b6109f0836108cc565b91506109fe602084016108cc565b90509250929050565b600181811c90821680610a1b57607f821691505b602082108103610a3957634e487b7160e01b5f52602260045260245ffd5b50919050565b634e487b7160e01b5f52601160045260245ffd5b8181038181111561034457610344610a3f565b5f5f83545f8160011c90506001821680610a8157607f821691505b602082108103610a9f57634e487b7160e01b5f52602260045260245ffd5b808015610ab35760018114610ac857610af6565b60ff1984168752821515830287019450610af6565b5f888152602090205f5b84811015610aee57815489820152600190910190602001610ad2565b505082870194505b50929695505050505050565b8082018082111561034457610344610a3f56feddf252ad1be2c89b69c2b068fc378daa952ba7f163c4a11628f55a4df523b3efa164736f6c634300081e000a000000000000000000000000000000000000000000000000000000000000006000000000000000000000000000000000000000000000000000000000000000a0000000000000000000000000000000000000000000000000000000000000001200000000000000000000000000000000000000000000000000000000000000094d6f636b2057455448000000000000000000000000000000000000000000000000000000000000000000000000000000000000000000000000000000000000056d57455448000000000000000000000000000000000000000000000000000000",
        "nonce": "0x4b5",
        "chainId": "0x515"
      },
      "additionalContracts": [],
      "isFixedGasLimit": false
    },
    {
      "hash": null,
      "transactionType": "CREATE",
      "contractName": "MockERC20",
      "contractAddress": "0xf80672134d30fe40ac8f00b617811d96e51662c3",
      "function": null,
      "arguments": [
        "Mock USDC",
        "mUSDC",
        "6"
      ],
      "transaction": {
        "from": "0x4b992f2fbf714c0fcbb23bac5130ace48cad00cd",
        "gas": "0xea855",
        "value": "0x0",
        "input": "0x60e060405234801561000f575f5ffd5b50604051610f39380380610f3983398101604081905261002e916101a1565b8282825f61003c84826102a2565b50600161004983826102a2565b5060ff81166080524660a05261005d61006c565b60c052506103cd945050505050565b5f7f8b73c3c69bb8fe3d512ecc4cf759cc79239f7b179b0ffacaa9a75d522b39400f5f60405161009c919061035c565b6040805191829003822060208301939093528101919091527fc89efdaa54c0f20c7adf612882df0950f5a951637e0307cdcb4c672f298b8bc660608201524660808201523060a082015260c00160405160208183030381529060405280519060200120905090565b634e487b7160e01b5f52604160045260245ffd5b5f82601f830112610127575f5ffd5b81516001600160401b0381111561014057610140610104565b604051601f8201601f19908116603f011681016001600160401b038111828210171561016e5761016e610104565b604052818152838201602001851015610185575f5ffd5b8160208501602083015e5f918101602001919091529392505050565b5f5f5f606084860312156101b3575f5ffd5b83516001600160401b038111156101c8575f5ffd5b6101d486828701610118565b602086015190945090506001600160401b038111156101f1575f5ffd5b6101fd86828701610118565b925050604084015160ff81168114610213575f5ffd5b809150509250925092565b600181811c9082168061023257607f821691505b60208210810361025057634e487b7160e01b5f52602260045260245ffd5b50919050565b601f82111561029d57805f5260205f20601f840160051c8101602085101561027b5750805b601f840160051c820191505b8181101561029a575f8155600101610287565b50505b505050565b81516001600160401b038111156102bb576102bb610104565b6102cf816102c9845461021e565b84610256565b6020601f821160018114610301575f83156102ea5750848201515b5f19600385901b1c1916600184901b17845561029a565b5f84815260208120601f198516915b828110156103305787850151825560209485019460019092019101610310565b508482101561034d57868401515f19600387901b60f8161c191681555b50505050600190811b01905550565b5f5f83546103698161021e565b6001821680156103805760018114610395576103c2565b60ff19831686528115158202860193506103c2565b865f5260205f205f5b838110156103ba5781548882015260019091019060200161039e565b505081860193505b509195945050505050565b60805160a05160c051610b426103f75f395f61045c01525f61042701525f6101590152610b425ff3fe608060405234801561000f575f5ffd5b50600436106100e5575f3560e01c806370a08231116100885780639dc29fac116100635780639dc29fac146101f0578063a9059cbb14610203578063d505accf14610216578063dd62ed3e14610229575f5ffd5b806370a08231146101aa5780637ecebe00146101c957806395d89b41146101e8575f5ffd5b806323b872dd116100c357806323b872dd14610141578063313ce567146101545780633644e5151461018d57806340c10f1914610195575f5ffd5b806306fdde03146100e9578063095ea7b31461010757806318160ddd1461012a575b5f5ffd5b6100f1610253565b6040516100fe9190610897565b60405180910390f35b61011a6101153660046108e7565b6102de565b60405190151581526020016100fe565b61013360025481565b6040519081526020016100fe565b61011a61014f36600461090f565b61034a565b61017b7f000000000000000000000000000000000000000000000000000000000000000081565b60405160ff90911681526020016100fe565b610133610424565b6101a86101a33660046108e7565b61047e565b005b6101336101b8366004610949565b60036020525f908152604090205481565b6101336101d7366004610949565b60056020525f908152604090205481565b6100f161048c565b6101a86101fe3660046108e7565b610499565b61011a6102113660046108e7565b6104a3565b6101a8610224366004610969565b610506565b6101336102373660046109d6565b600460209081525f928352604080842090915290825290205481565b5f805461025f90610a07565b80601f016020809104026020016040519081016040528092919081815260200182805461028b90610a07565b80156102d65780601f106102ad576101008083540402835291602001916102d6565b820191905f5260205f20905b8154815290600101906020018083116102b957829003601f168201915b505050505081565b335f8181526004602090815260408083206001600160a01b038716808552925280832085905551919290917f8c5be1e5ebec7d5bd14f71427d1e84f3dd0314c0f7b2291e5b200ac8c7c3b925906103389086815260200190565b60405180910390a35060015b92915050565b6001600160a01b0383165f9081526004602090815260408083203384529091528120545f1981146103a35761037f8382610a53565b6001600160a01b0386165f9081526004602090815260408083203384529091529020555b6001600160a01b0385165f90815260036020526040812080548592906103ca908490610a53565b90915550506001600160a01b038085165f81815260036020526040908190208054870190555190918716905f516020610b165f395f51905f52906104119087815260200190565b60405180910390a3506001949350505050565b5f7f0000000000000000000000000000000000000000000000000000000000000000461461045957610454610749565b905090565b507f000000000000000000000000000000000000000000000000000000000000000090565b61048882826107e1565b5050565b6001805461025f90610a07565b6104888282610838565b335f908152600360205260408120805483919083906104c3908490610a53565b90915550506001600160a01b0383165f81815260036020526040908190208054850190555133905f516020610b165f395f51905f52906103389086815260200190565b4284101561055b5760405162461bcd60e51b815260206004820152601760248201527f5045524d49545f444541444c494e455f4558504952454400000000000000000060448201526064015b60405180910390fd5b5f6001610566610424565b6001600160a01b038a81165f8181526005602090815260409182902080546001810190915582517f6e71edae12b1b97f4d1f60370fef10105fa2faae0126114a169c64845d6126c98184015280840194909452938d166060840152608083018c905260a083019390935260c08083018b90528151808403909101815260e08301909152805192019190912061190160f01b6101008301526101028201929092526101228101919091526101420160408051601f1981840301815282825280516020918201205f84529083018083525260ff871690820152606081018590526080810184905260a0016020604051602081039080840390855afa15801561066e573d5f5f3e3d5ffd5b5050604051601f1901519150506001600160a01b038116158015906106a45750876001600160a01b0316816001600160a01b0316145b6106e15760405162461bcd60e51b815260206004820152600e60248201526d24a72b20a624a22fa9a4a3a722a960911b6044820152606401610552565b6001600160a01b039081165f9081526004602090815260408083208a8516808552908352928190208990555188815291928a16917f8c5be1e5ebec7d5bd14f71427d1e84f3dd0314c0f7b2291e5b200ac8c7c3b925910160405180910390a350505050505050565b5f7f8b73c3c69bb8fe3d512ecc4cf759cc79239f7b179b0ffacaa9a75d522b39400f5f6040516107799190610a66565b6040805191829003822060208301939093528101919091527fc89efdaa54c0f20c7adf612882df0950f5a951637e0307cdcb4c672f298b8bc660608201524660808201523060a082015260c00160405160208183030381529060405280519060200120905090565b8060025f8282546107f29190610b02565b90915550506001600160a01b0382165f818152600360209081526040808320805486019055518481525f516020610b165f395f51905f5291015b60405180910390a35050565b6001600160a01b0382165f908152600360205260408120805483929061085f908490610a53565b90915550506002805482900390556040518181525f906001600160a01b038416905f516020610b165f395f51905f529060200161082c565b602081525f82518060208401528060208501604085015e5f604082850101526040601f19601f83011684010191505092915050565b80356001600160a01b03811681146108e2575f5ffd5b919050565b5f5f604083850312156108f8575f5ffd5b610901836108cc565b946020939093013593505050565b5f5f5f60608486031215610921575f5ffd5b61092a846108cc565b9250610938602085016108cc565b929592945050506040919091013590565b5f60208284031215610959575f5ffd5b610962826108cc565b9392505050565b5f5f5f5f5f5f5f60e0888a03121561097f575f5ffd5b610988886108cc565b9650610996602089016108cc565b95506040880135945060608801359350608088013560ff811681146109b9575f5ffd5b9699959850939692959460a0840135945060c09093013592915050565b5f5f604083850312156109e7575f5ffd5b6109f0836108cc565b91506109fe602084016108cc565b90509250929050565b600181811c90821680610a1b57607f821691505b602082108103610a3957634e487b7160e01b5f52602260045260245ffd5b50919050565b634e487b7160e01b5f52601160045260245ffd5b8181038181111561034457610344610a3f565b5f5f83545f8160011c90506001821680610a8157607f821691505b602082108103610a9f57634e487b7160e01b5f52602260045260245ffd5b808015610ab35760018114610ac857610af6565b60ff1984168752821515830287019450610af6565b5f888152602090205f5b84811015610aee57815489820152600190910190602001610ad2565b505082870194505b50929695505050505050565b8082018082111561034457610344610a3f56feddf252ad1be2c89b69c2b068fc378daa952ba7f163c4a11628f55a4df523b3efa164736f6c634300081e000a000000000000000000000000000000000000000000000000000000000000006000000000000000000000000000000000000000000000000000000000000000a0000000000000000000000000000000000000000000000000000000000000000600000000000000000000000000000000000000000000000000000000000000094d6f636b2055534443000000000000000000000000000000000000000000000000000000000000000000000000000000000000000000000000000000000000056d55534443000000000000000000000000000000000000000000000000000000",
        "nonce": "0x4b6",
        "chainId": "0x515"
      },
      "additionalContracts": [],
      "isFixedGasLimit": false
    },
    {
      "hash": null,
      "transactionType": "CALL",
      "contractName": "MockERC20",
      "contractAddress": "0x8a39d15ca044ab6cd19a733a8eaddef22375429b",
      "function": "mint(address,uint256)",
      "arguments": [
        "0x4b992F2Fbf714C0fCBb23baC5130Ace48CaD00cd",
        "10000000000000000000000000000000"
      ],
      "transaction": {
        "from": "0x4b992f2fbf714c0fcbb23bac5130ace48cad00cd",
        "to": "0x8a39d15ca044ab6cd19a733a8eaddef22375429b",
        "gas": "0x18680",
        "value": "0x0",
        "input": "0x40c10f190000000000000000000000004b992f2fbf714c0fcbb23bac5130ace48cad00cd000000000000000000000000000000000000007e37be2022c0914b2680000000",
        "nonce": "0x4b7",
        "chainId": "0x515"
      },
      "additionalContracts": [],
      "isFixedGasLimit": false
    },
    {
      "hash": null,
      "transactionType": "CALL",
      "contractName": "MockERC20",
      "contractAddress": "0xf80672134d30fe40ac8f00b617811d96e51662c3",
      "function": "mint(address,uint256)",
      "arguments": [
        "0x4b992F2Fbf714C0fCBb23baC5130Ace48CaD00cd",
        "10000000000000000000000000000000"
      ],
      "transaction": {
        "from": "0x4b992f2fbf714c0fcbb23bac5130ace48cad00cd",
        "to": "0xf80672134d30fe40ac8f00b617811d96e51662c3",
        "gas": "0x18680",
        "value": "0x0",
        "input": "0x40c10f190000000000000000000000004b992f2fbf714c0fcbb23bac5130ace48cad00cd000000000000000000000000000000000000007e37be2022c0914b2680000000",
        "nonce": "0x4b8",
        "chainId": "0x515"
      },
      "additionalContracts": [],
      "isFixedGasLimit": false
    },
    {
      "hash": null,
      "transactionType": "CALL",
      "contractName": "MockERC20",
      "contractAddress": "0x8a39d15ca044ab6cd19a733a8eaddef22375429b",
      "function": "approve(address,uint256)",
      "arguments": [
        "0x000000000022D473030F116dDEE9F6B43aC78BA3",
        "115792089237316195423570985008687907853269984665640564039457584007913129639935"
      ],
      "transaction": {
        "from": "0x4b992f2fbf714c0fcbb23bac5130ace48cad00cd",
        "to": "0x8a39d15ca044ab6cd19a733a8eaddef22375429b",
        "gas": "0x10939",
        "value": "0x0",
        "input": "0x095ea7b3000000000000000000000000000000000022d473030f116ddee9f6b43ac78ba3ffffffffffffffffffffffffffffffffffffffffffffffffffffffffffffffff",
        "nonce": "0x4b9",
        "chainId": "0x515"
      },
      "additionalContracts": [],
      "isFixedGasLimit": false
    },
    {
      "hash": null,
      "transactionType": "CALL",
      "contractName": "MockERC20",
      "contractAddress": "0xf80672134d30fe40ac8f00b617811d96e51662c3",
      "function": "approve(address,uint256)",
      "arguments": [
        "0x000000000022D473030F116dDEE9F6B43aC78BA3",
        "115792089237316195423570985008687907853269984665640564039457584007913129639935"
      ],
      "transaction": {
        "from": "0x4b992f2fbf714c0fcbb23bac5130ace48cad00cd",
        "to": "0xf80672134d30fe40ac8f00b617811d96e51662c3",
        "gas": "0x10939",
        "value": "0x0",
        "input": "0x095ea7b3000000000000000000000000000000000022d473030f116ddee9f6b43ac78ba3ffffffffffffffffffffffffffffffffffffffffffffffffffffffffffffffff",
        "nonce": "0x4ba",
        "chainId": "0x515"
      },
      "additionalContracts": [],
      "isFixedGasLimit": false
    },
    {
      "hash": null,
      "transactionType": "CALL",
      "contractName": "MockERC20",
      "contractAddress": "0x8a39d15ca044ab6cd19a733a8eaddef22375429b",
      "function": "approve(address,uint256)",
      "arguments": [
        "0xf969Aee60879C54bAAed9F3eD26147Db216Fd664",
        "115792089237316195423570985008687907853269984665640564039457584007913129639935"
      ],
      "transaction": {
        "from": "0x4b992f2fbf714c0fcbb23bac5130ace48cad00cd",
        "to": "0x8a39d15ca044ab6cd19a733a8eaddef22375429b",
        "gas": "0xfad0",
        "value": "0x0",
        "input": "0x095ea7b3000000000000000000000000f969aee60879c54baaed9f3ed26147db216fd664ffffffffffffffffffffffffffffffffffffffffffffffffffffffffffffffff",
        "nonce": "0x4bb",
        "chainId": "0x515"
      },
      "additionalContracts": [],
      "isFixedGasLimit": false
    },
    {
      "hash": null,
      "transactionType": "CALL",
      "contractName": "MockERC20",
      "contractAddress": "0xf80672134d30fe40ac8f00b617811d96e51662c3",
      "function": "approve(address,uint256)",
      "arguments": [
        "0xf969Aee60879C54bAAed9F3eD26147Db216Fd664",
        "115792089237316195423570985008687907853269984665640564039457584007913129639935"
      ],
      "transaction": {
        "from": "0x4b992f2fbf714c0fcbb23bac5130ace48cad00cd",
        "to": "0xf80672134d30fe40ac8f00b617811d96e51662c3",
        "gas": "0xfad0",
        "value": "0x0",
        "input": "0x095ea7b3000000000000000000000000f969aee60879c54baaed9f3ed26147db216fd664ffffffffffffffffffffffffffffffffffffffffffffffffffffffffffffffff",
        "nonce": "0x4bc",
        "chainId": "0x515"
      },
      "additionalContracts": [],
      "isFixedGasLimit": false
    },
    {
      "hash": null,
      "transactionType": "CALL",
      "contractName": null,
      "contractAddress": "0x000000000022d473030f116ddee9f6b43ac78ba3",
      "function": "approve(address,address,uint160,uint48)",
      "arguments": [
        "0x8a39d15CA044AB6cD19A733a8eADdEF22375429B",
        "0xf969Aee60879C54bAAed9F3eD26147Db216Fd664",
        "1461501637330902918203684832716283019655932542975",
        "281474976710655"
      ],
      "transaction": {
        "from": "0x4b992f2fbf714c0fcbb23bac5130ace48cad00cd",
        "to": "0x000000000022d473030f116ddee9f6b43ac78ba3",
        "gas": "0x1112d",
        "value": "0x0",
        "input": "0x87517c450000000000000000000000008a39d15ca044ab6cd19a733a8eaddef22375429b000000000000000000000000f969aee60879c54baaed9f3ed26147db216fd664000000000000000000000000ffffffffffffffffffffffffffffffffffffffff0000000000000000000000000000000000000000000000000000ffffffffffff",
        "nonce": "0x4bd",
        "chainId": "0x515"
      },
      "additionalContracts": [],
      "isFixedGasLimit": false
    },
    {
      "hash": null,
      "transactionType": "CALL",
      "contractName": null,
      "contractAddress": "0x000000000022d473030f116ddee9f6b43ac78ba3",
      "function": "approve(address,address,uint160,uint48)",
      "arguments": [
        "0xF80672134D30Fe40AC8f00B617811D96E51662c3",
        "0xf969Aee60879C54bAAed9F3eD26147Db216Fd664",
        "1461501637330902918203684832716283019655932542975",
        "281474976710655"
      ],
      "transaction": {
        "from": "0x4b992f2fbf714c0fcbb23bac5130ace48cad00cd",
        "to": "0x000000000022d473030f116ddee9f6b43ac78ba3",
        "gas": "0x101ee",
        "value": "0x0",
        "input": "0x87517c45000000000000000000000000f80672134d30fe40ac8f00b617811d96e51662c3000000000000000000000000f969aee60879c54baaed9f3ed26147db216fd664000000000000000000000000ffffffffffffffffffffffffffffffffffffffff0000000000000000000000000000000000000000000000000000ffffffffffff",
        "nonce": "0x4be",
        "chainId": "0x515"
      },
      "additionalContracts": [],
      "isFixedGasLimit": false
    },
    {
      "hash": null,
      "transactionType": "CALL",
      "contractName": null,
      "contractAddress": "0xf969aee60879c54baaed9f3ed26147db216fd664",
      "function": "initializePool((address,address,uint24,int24,address),uint160)",
      "arguments": [
        "(0x8a39d15CA044AB6cD19A733a8eADdEF22375429B, 0xF80672134D30Fe40AC8f00B617811D96E51662c3, 3000, 60, 0x0000000000000000000000000000000000000000)",
        "79228162514264337593543950336"
      ],
      "transaction": {
        "from": "0x4b992f2fbf714c0fcbb23bac5130ace48cad00cd",
        "to": "0xf969aee60879c54baaed9f3ed26147db216fd664",
        "gas": "0x14059",
        "value": "0x0",
        "input": "0xf70204050000000000000000000000008a39d15ca044ab6cd19a733a8eaddef22375429b000000000000000000000000f80672134d30fe40ac8f00b617811d96e51662c30000000000000000000000000000000000000000000000000000000000000bb8000000000000000000000000000000000000000000000000000000000000003c00000000000000000000000000000000000000000000000000000000000000000000000000000000000000000000000000000001000000000000000000000000",
        "nonce": "0x4bf",
        "chainId": "0x515"
      },
      "additionalContracts": [],
      "isFixedGasLimit": false
    },
    {
      "hash": null,
      "transactionType": "CALL",
      "contractName": null,
      "contractAddress": "0xf969aee60879c54baaed9f3ed26147db216fd664",
      "function": "modifyLiquidities(bytes,uint256)",
      "arguments": [
        "0x000000000000000000000000000000000000000000000000000000000000004000000000000000000000000000000000000000000000000000000000000000800000000000000000000000000000000000000000000000000000000000000004020d14140000000000000000000000000000000000000000000000000000000000000000000000000000000000000000000000000000000000000000000000040000000000000000000000000000000000000000000000000000000000000080000000000000000000000000000000000000000000000000000000000000024000000000000000000000000000000000000000000000000000000000000002a0000000000000000000000000000000000000000000000000000000000000030000000000000000000000000000000000000000000000000000000000000001a00000000000000000000000008a39d15ca044ab6cd19a733a8eaddef22375429b000000000000000000000000f80672134d30fe40ac8f00b617811d96e51662c30000000000000000000000000000000000000000000000000000000000000bb8000000000000000000000000000000000000000000000000000000000000003c0000000000000000000000000000000000000000000000000000000000000000fffffffffffffffffffffffffffffffffffffffffffffffffffffffffff2764c00000000000000000000000000000000000000000000000000000000000d89b400000000000000000000000000000000000000000000d3c21bcecceda100000000000000000000000000000000000000000000000000d3c21bcecceda0ff2baf00000000000000000000000000000000000000000000d3c21bcecceda0ff2baf0000000000000000000000004b992f2fbf714c0fcbb23bac5130ace48cad00cd0000000000000000000000000000000000000000000000000000000000000180000000000000000000000000000000000000000000000000000000000000000000000000000000000000000000000000000000000000000000000000000000400000000000000000000000008a39d15ca044ab6cd19a733a8eaddef22375429b000000000000000000000000f80672134d30fe40ac8f00b617811d96e51662c300000000000000000000000000000000000000000000000000000000000000400000000000000000000000008a39d15ca044ab6cd19a733a8eaddef22375429b0000000000000000000000004b992f2fbf714c0fcbb23bac5130ace48cad00cd0000000000000000000000000000000000000000000000000000000000000040000000000000000000000000f80672134d30fe40ac8f00b617811d96e51662c30000000000000000000000004b992f2fbf714c0fcbb23bac5130ace48cad00cd",
        "1773586399"
      ],
      "transaction": {
        "from": "0x4b992f2fbf714c0fcbb23bac5130ace48cad00cd",
        "to": "0xf969aee60879c54baaed9f3ed26147db216fd664",
        "gas": "0x93993",
        "value": "0x0",
        "input": "0xdd46508f00000000000000000000000000000000000000000000000000000000000000400000000000000000000000000000000000000000000000000000000069b6c7df0000000000000000000000000000000000000000000000000000000000000400000000000000000000000000000000000000000000000000000000000000004000000000000000000000000000000000000000000000000000000000000000800000000000000000000000000000000000000000000000000000000000000004020d14140000000000000000000000000000000000000000000000000000000000000000000000000000000000000000000000000000000000000000000000040000000000000000000000000000000000000000000000000000000000000080000000000000000000000000000000000000000000000000000000000000024000000000000000000000000000000000000000000000000000000000000002a0000000000000000000000000000000000000000000000000000000000000030000000000000000000000000000000000000000000000000000000000000001a00000000000000000000000008a39d15ca044ab6cd19a733a8eaddef22375429b000000000000000000000000f80672134d30fe40ac8f00b617811d96e51662c30000000000000000000000000000000000000000000000000000000000000bb8000000000000000000000000000000000000000000000000000000000000003c0000000000000000000000000000000000000000000000000000000000000000fffffffffffffffffffffffffffffffffffffffffffffffffffffffffff2764c00000000000000000000000000000000000000000000000000000000000d89b400000000000000000000000000000000000000000000d3c21bcecceda100000000000000000000000000000000000000000000000000d3c21bcecceda0ff2baf00000000000000000000000000000000000000000000d3c21bcecceda0ff2baf0000000000000000000000004b992f2fbf714c0fcbb23bac5130ace48cad00cd0000000000000000000000000000000000000000000000000000000000000180000000000000000000000000000000000000000000000000000000000000000000000000000000000000000000000000000000000000000000000000000000400000000000000000000000008a39d15ca044ab6cd19a733a8eaddef22375429b000000000000000000000000f80672134d30fe40ac8f00b617811d96e51662c300000000000000000000000000000000000000000000000000000000000000400000000000000000000000008a39d15ca044ab6cd19a733a8eaddef22375429b0000000000000000000000004b992f2fbf714c0fcbb23bac5130ace48cad00cd0000000000000000000000000000000000000000000000000000000000000040000000000000000000000000f80672134d30fe40ac8f00b617811d96e51662c30000000000000000000000004b992f2fbf714c0fcbb23bac5130ace48cad00cd",
        "nonce": "0x4c0",
        "chainId": "0x515"
      },
      "additionalContracts": [],
      "isFixedGasLimit": false
    },
    {
      "hash": null,
      "transactionType": "CALL",
      "contractName": null,
      "contractAddress": "0xf969aee60879c54baaed9f3ed26147db216fd664",
      "function": "initializePool((address,address,uint24,int24,address),uint160)",
      "arguments": [
        "(0x8a39d15CA044AB6cD19A733a8eADdEF22375429B, 0xF80672134D30Fe40AC8f00B617811D96E51662c3, 3000, 60, 0xBF42f398561644Eb55A7269dA0F937D0512c40c0)",
        "79228162514264337593543950336"
      ],
      "transaction": {
        "from": "0x4b992f2fbf714c0fcbb23bac5130ace48cad00cd",
        "to": "0xf969aee60879c54baaed9f3ed26147db216fd664",
        "gas": "0x12fa4",
        "value": "0x0",
        "input": "0xf70204050000000000000000000000008a39d15ca044ab6cd19a733a8eaddef22375429b000000000000000000000000f80672134d30fe40ac8f00b617811d96e51662c30000000000000000000000000000000000000000000000000000000000000bb8000000000000000000000000000000000000000000000000000000000000003c000000000000000000000000bf42f398561644eb55a7269da0f937d0512c40c00000000000000000000000000000000000000001000000000000000000000000",
        "nonce": "0x4c1",
        "chainId": "0x515"
      },
      "additionalContracts": [],
      "isFixedGasLimit": false
    },
    {
      "hash": null,
      "transactionType": "CALL",
      "contractName": null,
      "contractAddress": "0xf969aee60879c54baaed9f3ed26147db216fd664",
      "function": "modifyLiquidities(bytes,uint256)",
      "arguments": [
        "0x000000000000000000000000000000000000000000000000000000000000004000000000000000000000000000000000000000000000000000000000000000800000000000000000000000000000000000000000000000000000000000000004020d14140000000000000000000000000000000000000000000000000000000000000000000000000000000000000000000000000000000000000000000000040000000000000000000000000000000000000000000000000000000000000080000000000000000000000000000000000000000000000000000000000000024000000000000000000000000000000000000000000000000000000000000002a0000000000000000000000000000000000000000000000000000000000000030000000000000000000000000000000000000000000000000000000000000001a00000000000000000000000008a39d15ca044ab6cd19a733a8eaddef22375429b000000000000000000000000f80672134d30fe40ac8f00b617811d96e51662c30000000000000000000000000000000000000000000000000000000000000bb8000000000000000000000000000000000000000000000000000000000000003c000000000000000000000000bf42f398561644eb55a7269da0f937d0512c40c0fffffffffffffffffffffffffffffffffffffffffffffffffffffffffff2764c00000000000000000000000000000000000000000000000000000000000d89b400000000000000000000000000000000000000000000d3c21bcecceda100000000000000000000000000000000000000000000000000d3c21bcecceda0ff2baf00000000000000000000000000000000000000000000d3c21bcecceda0ff2baf0000000000000000000000004b992f2fbf714c0fcbb23bac5130ace48cad00cd0000000000000000000000000000000000000000000000000000000000000180000000000000000000000000000000000000000000000000000000000000000000000000000000000000000000000000000000000000000000000000000000400000000000000000000000008a39d15ca044ab6cd19a733a8eaddef22375429b000000000000000000000000f80672134d30fe40ac8f00b617811d96e51662c300000000000000000000000000000000000000000000000000000000000000400000000000000000000000008a39d15ca044ab6cd19a733a8eaddef22375429b0000000000000000000000004b992f2fbf714c0fcbb23bac5130ace48cad00cd0000000000000000000000000000000000000000000000000000000000000040000000000000000000000000f80672134d30fe40ac8f00b617811d96e51662c30000000000000000000000004b992f2fbf714c0fcbb23bac5130ace48cad00cd",
        "1773586399"
      ],
      "transaction": {
        "from": "0x4b992f2fbf714c0fcbb23bac5130ace48cad00cd",
        "to": "0xf969aee60879c54baaed9f3ed26147db216fd664",
        "gas": "0x86a84",
        "value": "0x0",
        "input": "0xdd46508f00000000000000000000000000000000000000000000000000000000000000400000000000000000000000000000000000000000000000000000000069b6c7df0000000000000000000000000000000000000000000000000000000000000400000000000000000000000000000000000000000000000000000000000000004000000000000000000000000000000000000000000000000000000000000000800000000000000000000000000000000000000000000000000000000000000004020d14140000000000000000000000000000000000000000000000000000000000000000000000000000000000000000000000000000000000000000000000040000000000000000000000000000000000000000000000000000000000000080000000000000000000000000000000000000000000000000000000000000024000000000000000000000000000000000000000000000000000000000000002a0000000000000000000000000000000000000000000000000000000000000030000000000000000000000000000000000000000000000000000000000000001a00000000000000000000000008a39d15ca044ab6cd19a733a8eaddef22375429b000000000000000000000000f80672134d30fe40ac8f00b617811d96e51662c30000000000000000000000000000000000000000000000000000000000000bb8000000000000000000000000000000000000000000000000000000000000003c000000000000000000000000bf42f398561644eb55a7269da0f937d0512c40c0fffffffffffffffffffffffffffffffffffffffffffffffffffffffffff2764c00000000000000000000000000000000000000000000000000000000000d89b400000000000000000000000000000000000000000000d3c21bcecceda100000000000000000000000000000000000000000000000000d3c21bcecceda0ff2baf00000000000000000000000000000000000000000000d3c21bcecceda0ff2baf0000000000000000000000004b992f2fbf714c0fcbb23bac5130ace48cad00cd0000000000000000000000000000000000000000000000000000000000000180000000000000000000000000000000000000000000000000000000000000000000000000000000000000000000000000000000000000000000000000000000400000000000000000000000008a39d15ca044ab6cd19a733a8eaddef22375429b000000000000000000000000f80672134d30fe40ac8f00b617811d96e51662c300000000000000000000000000000000000000000000000000000000000000400000000000000000000000008a39d15ca044ab6cd19a733a8eaddef22375429b0000000000000000000000004b992f2fbf714c0fcbb23bac5130ace48cad00cd0000000000000000000000000000000000000000000000000000000000000040000000000000000000000000f80672134d30fe40ac8f00b617811d96e51662c30000000000000000000000004b992f2fbf714c0fcbb23bac5130ace48cad00cd",
        "nonce": "0x4c2",
        "chainId": "0x515"
      },
      "additionalContracts": [],
      "isFixedGasLimit": false
    },
    {
      "hash": null,
      "transactionType": "CALL",
      "contractName": null,
      "contractAddress": "0xf74dd7fe11bf5508c42ac3c021d6ab7f6652ac46",
      "function": "registerPoolKey((address,address,uint24,int24,address))",
      "arguments": [
        "(0x8a39d15CA044AB6cD19A733a8eADdEF22375429B, 0xF80672134D30Fe40AC8f00B617811D96E51662c3, 3000, 60, 0xBF42f398561644Eb55A7269dA0F937D0512c40c0)"
      ],
      "transaction": {
        "from": "0x4b992f2fbf714c0fcbb23bac5130ace48cad00cd",
        "to": "0xf74dd7fe11bf5508c42ac3c021d6ab7f6652ac46",
        "gas": "0x27d78",
        "value": "0x0",
        "input": "0x88b2723c0000000000000000000000008a39d15ca044ab6cd19a733a8eaddef22375429b000000000000000000000000f80672134d30fe40ac8f00b617811d96e51662c30000000000000000000000000000000000000000000000000000000000000bb8000000000000000000000000000000000000000000000000000000000000003c000000000000000000000000bf42f398561644eb55a7269da0f937d0512c40c0",
        "nonce": "0x4c3",
        "chainId": "0x515"
      },
      "additionalContracts": [],
      "isFixedGasLimit": false
    },
    {
      "hash": null,
      "transactionType": "CALL",
      "contractName": null,
      "contractAddress": "0xf74dd7fe11bf5508c42ac3c021d6ab7f6652ac46",
      "function": "setExpectedReactiveSender(address)",
      "arguments": [
        "0x4b992F2Fbf714C0fCBb23baC5130Ace48CaD00cd"
      ],
      "transaction": {
        "from": "0x4b992f2fbf714c0fcbb23bac5130ace48cad00cd",
        "to": "0xf74dd7fe11bf5508c42ac3c021d6ab7f6652ac46",
        "gas": "0x9598",
        "value": "0x0",
        "input": "0x32c6d4090000000000000000000000004b992f2fbf714c0fcbb23bac5130ace48cad00cd",
        "nonce": "0x4c4",
        "chainId": "0x515"
      },
      "additionalContracts": [],
      "isFixedGasLimit": false
    },
    {
      "hash": null,
      "transactionType": "CALL",
      "contractName": "MockERC20",
      "contractAddress": "0x8a39d15ca044ab6cd19a733a8eaddef22375429b",
      "function": "approve(address,uint256)",
      "arguments": [
        "0x9cD2b0a732dd5e023a5539921e0FD1c30E198Dba",
        "115792089237316195423570985008687907853269984665640564039457584007913129639935"
      ],
      "transaction": {
        "from": "0x4b992f2fbf714c0fcbb23bac5130ace48cad00cd",
        "to": "0x8a39d15ca044ab6cd19a733a8eaddef22375429b",
        "gas": "0xfad0",
        "value": "0x0",
        "input": "0x095ea7b30000000000000000000000009cd2b0a732dd5e023a5539921e0fd1c30e198dbaffffffffffffffffffffffffffffffffffffffffffffffffffffffffffffffff",
        "nonce": "0x4c5",
        "chainId": "0x515"
      },
      "additionalContracts": [],
      "isFixedGasLimit": false
    },
    {
      "hash": null,
      "transactionType": "CALL",
      "contractName": "MockERC20",
      "contractAddress": "0x8a39d15ca044ab6cd19a733a8eaddef22375429b",
      "function": "approve(address,uint256)",
      "arguments": [
        "0x493a90b1eA1bCbe2c6AB5af70928C82051B5e726",
        "115792089237316195423570985008687907853269984665640564039457584007913129639935"
      ],
      "transaction": {
        "from": "0x4b992f2fbf714c0fcbb23bac5130ace48cad00cd",
        "to": "0x8a39d15ca044ab6cd19a733a8eaddef22375429b",
        "gas": "0xfad0",
        "value": "0x0",
        "input": "0x095ea7b3000000000000000000000000493a90b1ea1bcbe2c6ab5af70928c82051b5e726ffffffffffffffffffffffffffffffffffffffffffffffffffffffffffffffff",
        "nonce": "0x4c6",
        "chainId": "0x515"
      },
      "additionalContracts": [],
      "isFixedGasLimit": false
    },
    {
      "hash": null,
      "transactionType": "CALL",
      "contractName": null,
      "contractAddress": "0x9cd2b0a732dd5e023a5539921e0fd1c30e198dba",
      "function": "swapExactTokensForTokens(uint256,uint256,bool,(address,address,uint24,int24,address),bytes,address,uint256)",
      "arguments": [
        "50000000000000000000",
        "1",
        "true",
        "(0x8a39d15CA044AB6cD19A733a8eADdEF22375429B, 0xF80672134D30Fe40AC8f00B617811D96E51662c3, 3000, 60, 0x0000000000000000000000000000000000000000)",
        "0x",
        "0x4b992F2Fbf714C0fCBb23baC5130Ace48CaD00cd",
        "1773586399"
      ],
      "transaction": {
        "from": "0x4b992f2fbf714c0fcbb23bac5130ace48cad00cd",
        "to": "0x9cd2b0a732dd5e023a5539921e0fd1c30e198dba",
        "gas": "0x2d5dc",
        "value": "0x0",
        "input": "0xb1a0d571000000000000000000000000000000000000000000000002b5e3af16b1880000000000000000000000000000000000000000000000000000000000000000000100000000000000000000000000000000000000000000000000000000000000010000000000000000000000008a39d15ca044ab6cd19a733a8eaddef22375429b000000000000000000000000f80672134d30fe40ac8f00b617811d96e51662c30000000000000000000000000000000000000000000000000000000000000bb8000000000000000000000000000000000000000000000000000000000000003c000000000000000000000000000000000000000000000000000000000000000000000000000000000000000000000000000000000000000000000000000001600000000000000000000000004b992f2fbf714c0fcbb23bac5130ace48cad00cd0000000000000000000000000000000000000000000000000000000069b6c7df0000000000000000000000000000000000000000000000000000000000000000",
        "nonce": "0x4c7",
        "chainId": "0x515"
      },
      "additionalContracts": [],
      "isFixedGasLimit": false
    },
    {
      "hash": null,
      "transactionType": "CALL",
      "contractName": null,
      "contractAddress": "0x493a90b1ea1bcbe2c6ab5af70928c82051b5e726",
      "function": "createOrder((bytes32,address,address,bool,uint128,uint8,uint40,uint40,uint32,uint32,uint128,uint128,uint24,uint128,address))",
      "arguments": [
        "(0x0b74d7d7b8f2ad4d839c219f097f5682984f26a083ad7b87f65ac422d51d0590, 0x8a39d15CA044AB6cD19A733a8eADdEF22375429B, 0xF80672134D30Fe40AC8f00B617811D96E51662c3, true, 50000000000000000000, 0, 1773585799, 1773592999, 0, 1, 10000000000000000000, 10000000000000000000, 500, 1, 0x0000000000000000000000000000000000000000)"
      ],
      "transaction": {
        "from": "0x4b992f2fbf714c0fcbb23bac5130ace48cad00cd",
        "to": "0x493a90b1ea1bcbe2c6ab5af70928c82051b5e726",
        "gas": "0x62a82",
        "value": "0x0",
        "input": "0xe72aff3f0b74d7d7b8f2ad4d839c219f097f5682984f26a083ad7b87f65ac422d51d05900000000000000000000000008a39d15ca044ab6cd19a733a8eaddef22375429b000000000000000000000000f80672134d30fe40ac8f00b617811d96e51662c30000000000000000000000000000000000000000000000000000000000000001000000000000000000000000000000000000000000000002b5e3af16b188000000000000000000000000000000000000000000000000000000000000000000000000000000000000000000000000000000000000000000000000000069b6c5870000000000000000000000000000000000000000000000000000000069b6e1a7000000000000000000000000000000000000000000000000000000000000000000000000000000000000000000000000000000000000000000000000000000010000000000000000000000000000000000000000000000008ac7230489e800000000000000000000000000000000000000000000000000008ac7230489e8000000000000000000000000000000000000000000000000000000000000000001f400000000000000000000000000000000000000000000000000000000000000010000000000000000000000000000000000000000000000000000000000000000",
        "nonce": "0x4c8",
        "chainId": "0x515"
      },
      "additionalContracts": [],
      "isFixedGasLimit": false
    },
    {
      "hash": null,
      "transactionType": "CALL",
      "contractName": null,
      "contractAddress": "0xe56a90ad0deab20ee9fcd780b14ca90fc71d3f5d",
      "function": "executeNextSlice((bytes32,(address,address,uint24,int24,address),uint24,uint160,uint40))",
      "arguments": [
        "(0xefd9cefc2a6839ddf08809a7b350f3c80072fecf6f613829e05e18624bec28d8, (0x8a39d15CA044AB6cD19A733a8eADdEF22375429B, 0xF80672134D30Fe40AC8f00B617811D96E51662c3, 3000, 60, 0xBF42f398561644Eb55A7269dA0F937D0512c40c0), 50, 4295128740, 1773586399)"
      ],
      "transaction": {
        "from": "0x4b992f2fbf714c0fcbb23bac5130ace48cad00cd",
        "to": "0xe56a90ad0deab20ee9fcd780b14ca90fc71d3f5d",
        "gas": "0x5ba8a",
        "value": "0x0",
        "input": "0xdee73244efd9cefc2a6839ddf08809a7b350f3c80072fecf6f613829e05e18624bec28d80000000000000000000000008a39d15ca044ab6cd19a733a8eaddef22375429b000000000000000000000000f80672134d30fe40ac8f00b617811d96e51662c30000000000000000000000000000000000000000000000000000000000000bb8000000000000000000000000000000000000000000000000000000000000003c000000000000000000000000bf42f398561644eb55a7269da0f937d0512c40c0000000000000000000000000000000000000000000000000000000000000003200000000000000000000000000000000000000000000000000000001000276a40000000000000000000000000000000000000000000000000000000069b6c7df",
        "nonce": "0x4c9",
        "chainId": "0x515"
      },
      "additionalContracts": [],
      "isFixedGasLimit": false
    },
    {
      "hash": null,
      "transactionType": "CALL",
      "contractName": null,
      "contractAddress": "0xe56a90ad0deab20ee9fcd780b14ca90fc71d3f5d",
      "function": "executeNextSlice((bytes32,(address,address,uint24,int24,address),uint24,uint160,uint40))",
      "arguments": [
        "(0xefd9cefc2a6839ddf08809a7b350f3c80072fecf6f613829e05e18624bec28d8, (0x8a39d15CA044AB6cD19A733a8eADdEF22375429B, 0xF80672134D30Fe40AC8f00B617811D96E51662c3, 3000, 60, 0xBF42f398561644Eb55A7269dA0F937D0512c40c0), 50, 4295128740, 1773586399)"
      ],
      "transaction": {
        "from": "0x4b992f2fbf714c0fcbb23bac5130ace48cad00cd",
        "to": "0xe56a90ad0deab20ee9fcd780b14ca90fc71d3f5d",
        "gas": "0x16d0a",
        "value": "0x0",
        "input": "0xdee73244efd9cefc2a6839ddf08809a7b350f3c80072fecf6f613829e05e18624bec28d80000000000000000000000008a39d15ca044ab6cd19a733a8eaddef22375429b000000000000000000000000f80672134d30fe40ac8f00b617811d96e51662c30000000000000000000000000000000000000000000000000000000000000bb8000000000000000000000000000000000000000000000000000000000000003c000000000000000000000000bf42f398561644eb55a7269da0f937d0512c40c0000000000000000000000000000000000000000000000000000000000000003200000000000000000000000000000000000000000000000000000001000276a40000000000000000000000000000000000000000000000000000000069b6c7df",
        "nonce": "0x4ca",
        "chainId": "0x515"
      },
      "additionalContracts": [],
      "isFixedGasLimit": false
    },
    {
      "hash": null,
      "transactionType": "CALL",
      "contractName": null,
      "contractAddress": "0xe56a90ad0deab20ee9fcd780b14ca90fc71d3f5d",
      "function": "executeNextSlice((bytes32,(address,address,uint24,int24,address),uint24,uint160,uint40))",
      "arguments": [
        "(0xefd9cefc2a6839ddf08809a7b350f3c80072fecf6f613829e05e18624bec28d8, (0x8a39d15CA044AB6cD19A733a8eADdEF22375429B, 0xF80672134D30Fe40AC8f00B617811D96E51662c3, 3000, 60, 0xBF42f398561644Eb55A7269dA0F937D0512c40c0), 50, 4295128740, 1773586399)"
      ],
      "transaction": {
        "from": "0x4b992f2fbf714c0fcbb23bac5130ace48cad00cd",
        "to": "0xe56a90ad0deab20ee9fcd780b14ca90fc71d3f5d",
        "gas": "0x16d0a",
        "value": "0x0",
        "input": "0xdee73244efd9cefc2a6839ddf08809a7b350f3c80072fecf6f613829e05e18624bec28d80000000000000000000000008a39d15ca044ab6cd19a733a8eaddef22375429b000000000000000000000000f80672134d30fe40ac8f00b617811d96e51662c30000000000000000000000000000000000000000000000000000000000000bb8000000000000000000000000000000000000000000000000000000000000003c000000000000000000000000bf42f398561644eb55a7269da0f937d0512c40c0000000000000000000000000000000000000000000000000000000000000003200000000000000000000000000000000000000000000000000000001000276a40000000000000000000000000000000000000000000000000000000069b6c7df",
        "nonce": "0x4cb",
        "chainId": "0x515"
      },
      "additionalContracts": [],
      "isFixedGasLimit": false
    },
    {
      "hash": null,
      "transactionType": "CALL",
      "contractName": null,
      "contractAddress": "0xe56a90ad0deab20ee9fcd780b14ca90fc71d3f5d",
      "function": "executeNextSlice((bytes32,(address,address,uint24,int24,address),uint24,uint160,uint40))",
      "arguments": [
        "(0xefd9cefc2a6839ddf08809a7b350f3c80072fecf6f613829e05e18624bec28d8, (0x8a39d15CA044AB6cD19A733a8eADdEF22375429B, 0xF80672134D30Fe40AC8f00B617811D96E51662c3, 3000, 60, 0xBF42f398561644Eb55A7269dA0F937D0512c40c0), 50, 4295128740, 1773586399)"
      ],
      "transaction": {
        "from": "0x4b992f2fbf714c0fcbb23bac5130ace48cad00cd",
        "to": "0xe56a90ad0deab20ee9fcd780b14ca90fc71d3f5d",
        "gas": "0x16d0a",
        "value": "0x0",
        "input": "0xdee73244efd9cefc2a6839ddf08809a7b350f3c80072fecf6f613829e05e18624bec28d80000000000000000000000008a39d15ca044ab6cd19a733a8eaddef22375429b000000000000000000000000f80672134d30fe40ac8f00b617811d96e51662c30000000000000000000000000000000000000000000000000000000000000bb8000000000000000000000000000000000000000000000000000000000000003c000000000000000000000000bf42f398561644eb55a7269da0f937d0512c40c0000000000000000000000000000000000000000000000000000000000000003200000000000000000000000000000000000000000000000000000001000276a40000000000000000000000000000000000000000000000000000000069b6c7df",
        "nonce": "0x4cc",
        "chainId": "0x515"
      },
      "additionalContracts": [],
      "isFixedGasLimit": false
    },
    {
      "hash": null,
      "transactionType": "CALL",
      "contractName": null,
      "contractAddress": "0xe56a90ad0deab20ee9fcd780b14ca90fc71d3f5d",
      "function": "executeNextSlice((bytes32,(address,address,uint24,int24,address),uint24,uint160,uint40))",
      "arguments": [
        "(0xefd9cefc2a6839ddf08809a7b350f3c80072fecf6f613829e05e18624bec28d8, (0x8a39d15CA044AB6cD19A733a8eADdEF22375429B, 0xF80672134D30Fe40AC8f00B617811D96E51662c3, 3000, 60, 0xBF42f398561644Eb55A7269dA0F937D0512c40c0), 50, 4295128740, 1773586399)"
      ],
      "transaction": {
        "from": "0x4b992f2fbf714c0fcbb23bac5130ace48cad00cd",
        "to": "0xe56a90ad0deab20ee9fcd780b14ca90fc71d3f5d",
        "gas": "0x16d0a",
        "value": "0x0",
        "input": "0xdee73244efd9cefc2a6839ddf08809a7b350f3c80072fecf6f613829e05e18624bec28d80000000000000000000000008a39d15ca044ab6cd19a733a8eaddef22375429b000000000000000000000000f80672134d30fe40ac8f00b617811d96e51662c30000000000000000000000000000000000000000000000000000000000000bb8000000000000000000000000000000000000000000000000000000000000003c000000000000000000000000bf42f398561644eb55a7269da0f937d0512c40c0000000000000000000000000000000000000000000000000000000000000003200000000000000000000000000000000000000000000000000000001000276a40000000000000000000000000000000000000000000000000000000069b6c7df",
        "nonce": "0x4cd",
        "chainId": "0x515"
      },
      "additionalContracts": [],
      "isFixedGasLimit": false
    },
    {
      "hash": null,
      "transactionType": "CALL",
      "contractName": null,
      "contractAddress": "0xe56a90ad0deab20ee9fcd780b14ca90fc71d3f5d",
      "function": "executeNextSlice((bytes32,(address,address,uint24,int24,address),uint24,uint160,uint40))",
      "arguments": [
        "(0xefd9cefc2a6839ddf08809a7b350f3c80072fecf6f613829e05e18624bec28d8, (0x8a39d15CA044AB6cD19A733a8eADdEF22375429B, 0xF80672134D30Fe40AC8f00B617811D96E51662c3, 3000, 60, 0xBF42f398561644Eb55A7269dA0F937D0512c40c0), 50, 4295128740, 1773586399)"
      ],
      "transaction": {
        "from": "0x4b992f2fbf714c0fcbb23bac5130ace48cad00cd",
        "to": "0xe56a90ad0deab20ee9fcd780b14ca90fc71d3f5d",
        "gas": "0x16d0a",
        "value": "0x0",
        "input": "0xdee73244efd9cefc2a6839ddf08809a7b350f3c80072fecf6f613829e05e18624bec28d80000000000000000000000008a39d15ca044ab6cd19a733a8eaddef22375429b000000000000000000000000f80672134d30fe40ac8f00b617811d96e51662c30000000000000000000000000000000000000000000000000000000000000bb8000000000000000000000000000000000000000000000000000000000000003c000000000000000000000000bf42f398561644eb55a7269da0f937d0512c40c0000000000000000000000000000000000000000000000000000000000000003200000000000000000000000000000000000000000000000000000001000276a40000000000000000000000000000000000000000000000000000000069b6c7df",
        "nonce": "0x4ce",
        "chainId": "0x515"
      },
      "additionalContracts": [],
      "isFixedGasLimit": false
    },
    {
      "hash": null,
      "transactionType": "CALL",
      "contractName": null,
      "contractAddress": "0xe56a90ad0deab20ee9fcd780b14ca90fc71d3f5d",
      "function": "executeNextSlice((bytes32,(address,address,uint24,int24,address),uint24,uint160,uint40))",
      "arguments": [
        "(0xefd9cefc2a6839ddf08809a7b350f3c80072fecf6f613829e05e18624bec28d8, (0x8a39d15CA044AB6cD19A733a8eADdEF22375429B, 0xF80672134D30Fe40AC8f00B617811D96E51662c3, 3000, 60, 0xBF42f398561644Eb55A7269dA0F937D0512c40c0), 50, 4295128740, 1773586399)"
      ],
      "transaction": {
        "from": "0x4b992f2fbf714c0fcbb23bac5130ace48cad00cd",
        "to": "0xe56a90ad0deab20ee9fcd780b14ca90fc71d3f5d",
        "gas": "0x16d0a",
        "value": "0x0",
        "input": "0xdee73244efd9cefc2a6839ddf08809a7b350f3c80072fecf6f613829e05e18624bec28d80000000000000000000000008a39d15ca044ab6cd19a733a8eaddef22375429b000000000000000000000000f80672134d30fe40ac8f00b617811d96e51662c30000000000000000000000000000000000000000000000000000000000000bb8000000000000000000000000000000000000000000000000000000000000003c000000000000000000000000bf42f398561644eb55a7269da0f937d0512c40c0000000000000000000000000000000000000000000000000000000000000003200000000000000000000000000000000000000000000000000000001000276a40000000000000000000000000000000000000000000000000000000069b6c7df",
        "nonce": "0x4cf",
        "chainId": "0x515"
      },
      "additionalContracts": [],
      "isFixedGasLimit": false
    },
    {
      "hash": null,
      "transactionType": "CALL",
      "contractName": null,
      "contractAddress": "0xe56a90ad0deab20ee9fcd780b14ca90fc71d3f5d",
      "function": "executeNextSlice((bytes32,(address,address,uint24,int24,address),uint24,uint160,uint40))",
      "arguments": [
        "(0xefd9cefc2a6839ddf08809a7b350f3c80072fecf6f613829e05e18624bec28d8, (0x8a39d15CA044AB6cD19A733a8eADdEF22375429B, 0xF80672134D30Fe40AC8f00B617811D96E51662c3, 3000, 60, 0xBF42f398561644Eb55A7269dA0F937D0512c40c0), 50, 4295128740, 1773586399)"
      ],
      "transaction": {
        "from": "0x4b992f2fbf714c0fcbb23bac5130ace48cad00cd",
        "to": "0xe56a90ad0deab20ee9fcd780b14ca90fc71d3f5d",
        "gas": "0x16d0a",
        "value": "0x0",
        "input": "0xdee73244efd9cefc2a6839ddf08809a7b350f3c80072fecf6f613829e05e18624bec28d80000000000000000000000008a39d15ca044ab6cd19a733a8eaddef22375429b000000000000000000000000f80672134d30fe40ac8f00b617811d96e51662c30000000000000000000000000000000000000000000000000000000000000bb8000000000000000000000000000000000000000000000000000000000000003c000000000000000000000000bf42f398561644eb55a7269da0f937d0512c40c0000000000000000000000000000000000000000000000000000000000000003200000000000000000000000000000000000000000000000000000001000276a40000000000000000000000000000000000000000000000000000000069b6c7df",
        "nonce": "0x4d0",
        "chainId": "0x515"
      },
      "additionalContracts": [],
      "isFixedGasLimit": false
    },
    {
      "hash": null,
      "transactionType": "CALL",
      "contractName": null,
      "contractAddress": "0xe56a90ad0deab20ee9fcd780b14ca90fc71d3f5d",
      "function": "executeNextSlice((bytes32,(address,address,uint24,int24,address),uint24,uint160,uint40))",
      "arguments": [
        "(0xefd9cefc2a6839ddf08809a7b350f3c80072fecf6f613829e05e18624bec28d8, (0x8a39d15CA044AB6cD19A733a8eADdEF22375429B, 0xF80672134D30Fe40AC8f00B617811D96E51662c3, 3000, 60, 0xBF42f398561644Eb55A7269dA0F937D0512c40c0), 50, 4295128740, 1773586399)"
      ],
      "transaction": {
        "from": "0x4b992f2fbf714c0fcbb23bac5130ace48cad00cd",
        "to": "0xe56a90ad0deab20ee9fcd780b14ca90fc71d3f5d",
        "gas": "0x16d0a",
        "value": "0x0",
        "input": "0xdee73244efd9cefc2a6839ddf08809a7b350f3c80072fecf6f613829e05e18624bec28d80000000000000000000000008a39d15ca044ab6cd19a733a8eaddef22375429b000000000000000000000000f80672134d30fe40ac8f00b617811d96e51662c30000000000000000000000000000000000000000000000000000000000000bb8000000000000000000000000000000000000000000000000000000000000003c000000000000000000000000bf42f398561644eb55a7269da0f937d0512c40c0000000000000000000000000000000000000000000000000000000000000003200000000000000000000000000000000000000000000000000000001000276a40000000000000000000000000000000000000000000000000000000069b6c7df",
        "nonce": "0x4d1",
        "chainId": "0x515"
      },
      "additionalContracts": [],
      "isFixedGasLimit": false
    },
    {
      "hash": null,
      "transactionType": "CALL",
      "contractName": null,
      "contractAddress": "0xe56a90ad0deab20ee9fcd780b14ca90fc71d3f5d",
      "function": "executeNextSlice((bytes32,(address,address,uint24,int24,address),uint24,uint160,uint40))",
      "arguments": [
        "(0xefd9cefc2a6839ddf08809a7b350f3c80072fecf6f613829e05e18624bec28d8, (0x8a39d15CA044AB6cD19A733a8eADdEF22375429B, 0xF80672134D30Fe40AC8f00B617811D96E51662c3, 3000, 60, 0xBF42f398561644Eb55A7269dA0F937D0512c40c0), 50, 4295128740, 1773586399)"
      ],
      "transaction": {
        "from": "0x4b992f2fbf714c0fcbb23bac5130ace48cad00cd",
        "to": "0xe56a90ad0deab20ee9fcd780b14ca90fc71d3f5d",
        "gas": "0x16d0a",
        "value": "0x0",
        "input": "0xdee73244efd9cefc2a6839ddf08809a7b350f3c80072fecf6f613829e05e18624bec28d80000000000000000000000008a39d15ca044ab6cd19a733a8eaddef22375429b000000000000000000000000f80672134d30fe40ac8f00b617811d96e51662c30000000000000000000000000000000000000000000000000000000000000bb8000000000000000000000000000000000000000000000000000000000000003c000000000000000000000000bf42f398561644eb55a7269da0f937d0512c40c0000000000000000000000000000000000000000000000000000000000000003200000000000000000000000000000000000000000000000000000001000276a40000000000000000000000000000000000000000000000000000000069b6c7df",
        "nonce": "0x4d2",
        "chainId": "0x515"
      },
      "additionalContracts": [],
      "isFixedGasLimit": false
    },
    {
      "hash": null,
      "transactionType": "CALL",
      "contractName": null,
      "contractAddress": "0xe56a90ad0deab20ee9fcd780b14ca90fc71d3f5d",
      "function": "executeNextSlice((bytes32,(address,address,uint24,int24,address),uint24,uint160,uint40))",
      "arguments": [
        "(0xefd9cefc2a6839ddf08809a7b350f3c80072fecf6f613829e05e18624bec28d8, (0x8a39d15CA044AB6cD19A733a8eADdEF22375429B, 0xF80672134D30Fe40AC8f00B617811D96E51662c3, 3000, 60, 0xBF42f398561644Eb55A7269dA0F937D0512c40c0), 50, 4295128740, 1773586399)"
      ],
      "transaction": {
        "from": "0x4b992f2fbf714c0fcbb23bac5130ace48cad00cd",
        "to": "0xe56a90ad0deab20ee9fcd780b14ca90fc71d3f5d",
        "gas": "0x16d0a",
        "value": "0x0",
        "input": "0xdee73244efd9cefc2a6839ddf08809a7b350f3c80072fecf6f613829e05e18624bec28d80000000000000000000000008a39d15ca044ab6cd19a733a8eaddef22375429b000000000000000000000000f80672134d30fe40ac8f00b617811d96e51662c30000000000000000000000000000000000000000000000000000000000000bb8000000000000000000000000000000000000000000000000000000000000003c000000000000000000000000bf42f398561644eb55a7269da0f937d0512c40c0000000000000000000000000000000000000000000000000000000000000003200000000000000000000000000000000000000000000000000000001000276a40000000000000000000000000000000000000000000000000000000069b6c7df",
        "nonce": "0x4d3",
        "chainId": "0x515"
      },
      "additionalContracts": [],
      "isFixedGasLimit": false
    },
    {
      "hash": null,
      "transactionType": "CALL",
      "contractName": null,
      "contractAddress": "0xe56a90ad0deab20ee9fcd780b14ca90fc71d3f5d",
      "function": "executeNextSlice((bytes32,(address,address,uint24,int24,address),uint24,uint160,uint40))",
      "arguments": [
        "(0xefd9cefc2a6839ddf08809a7b350f3c80072fecf6f613829e05e18624bec28d8, (0x8a39d15CA044AB6cD19A733a8eADdEF22375429B, 0xF80672134D30Fe40AC8f00B617811D96E51662c3, 3000, 60, 0xBF42f398561644Eb55A7269dA0F937D0512c40c0), 50, 4295128740, 1773586399)"
      ],
      "transaction": {
        "from": "0x4b992f2fbf714c0fcbb23bac5130ace48cad00cd",
        "to": "0xe56a90ad0deab20ee9fcd780b14ca90fc71d3f5d",
        "gas": "0x16d0a",
        "value": "0x0",
        "input": "0xdee73244efd9cefc2a6839ddf08809a7b350f3c80072fecf6f613829e05e18624bec28d80000000000000000000000008a39d15ca044ab6cd19a733a8eaddef22375429b000000000000000000000000f80672134d30fe40ac8f00b617811d96e51662c30000000000000000000000000000000000000000000000000000000000000bb8000000000000000000000000000000000000000000000000000000000000003c000000000000000000000000bf42f398561644eb55a7269da0f937d0512c40c0000000000000000000000000000000000000000000000000000000000000003200000000000000000000000000000000000000000000000000000001000276a40000000000000000000000000000000000000000000000000000000069b6c7df",
        "nonce": "0x4d4",
        "chainId": "0x515"
      },
      "additionalContracts": [],
      "isFixedGasLimit": false
    },
    {
      "hash": null,
      "transactionType": "CALL",
      "contractName": null,
      "contractAddress": "0xe56a90ad0deab20ee9fcd780b14ca90fc71d3f5d",
      "function": "executeNextSlice((bytes32,(address,address,uint24,int24,address),uint24,uint160,uint40))",
      "arguments": [
        "(0xefd9cefc2a6839ddf08809a7b350f3c80072fecf6f613829e05e18624bec28d8, (0x8a39d15CA044AB6cD19A733a8eADdEF22375429B, 0xF80672134D30Fe40AC8f00B617811D96E51662c3, 3000, 60, 0xBF42f398561644Eb55A7269dA0F937D0512c40c0), 50, 4295128740, 1773586399)"
      ],
      "transaction": {
        "from": "0x4b992f2fbf714c0fcbb23bac5130ace48cad00cd",
        "to": "0xe56a90ad0deab20ee9fcd780b14ca90fc71d3f5d",
        "gas": "0x16d0a",
        "value": "0x0",
        "input": "0xdee73244efd9cefc2a6839ddf08809a7b350f3c80072fecf6f613829e05e18624bec28d80000000000000000000000008a39d15ca044ab6cd19a733a8eaddef22375429b000000000000000000000000f80672134d30fe40ac8f00b617811d96e51662c30000000000000000000000000000000000000000000000000000000000000bb8000000000000000000000000000000000000000000000000000000000000003c000000000000000000000000bf42f398561644eb55a7269da0f937d0512c40c0000000000000000000000000000000000000000000000000000000000000003200000000000000000000000000000000000000000000000000000001000276a40000000000000000000000000000000000000000000000000000000069b6c7df",
        "nonce": "0x4d5",
        "chainId": "0x515"
      },
      "additionalContracts": [],
      "isFixedGasLimit": false
    },
    {
      "hash": null,
      "transactionType": "CALL",
      "contractName": null,
      "contractAddress": "0xe56a90ad0deab20ee9fcd780b14ca90fc71d3f5d",
      "function": "executeNextSlice((bytes32,(address,address,uint24,int24,address),uint24,uint160,uint40))",
      "arguments": [
        "(0xefd9cefc2a6839ddf08809a7b350f3c80072fecf6f613829e05e18624bec28d8, (0x8a39d15CA044AB6cD19A733a8eADdEF22375429B, 0xF80672134D30Fe40AC8f00B617811D96E51662c3, 3000, 60, 0xBF42f398561644Eb55A7269dA0F937D0512c40c0), 50, 4295128740, 1773586399)"
      ],
      "transaction": {
        "from": "0x4b992f2fbf714c0fcbb23bac5130ace48cad00cd",
        "to": "0xe56a90ad0deab20ee9fcd780b14ca90fc71d3f5d",
        "gas": "0x16d0a",
        "value": "0x0",
        "input": "0xdee73244efd9cefc2a6839ddf08809a7b350f3c80072fecf6f613829e05e18624bec28d80000000000000000000000008a39d15ca044ab6cd19a733a8eaddef22375429b000000000000000000000000f80672134d30fe40ac8f00b617811d96e51662c30000000000000000000000000000000000000000000000000000000000000bb8000000000000000000000000000000000000000000000000000000000000003c000000000000000000000000bf42f398561644eb55a7269da0f937d0512c40c0000000000000000000000000000000000000000000000000000000000000003200000000000000000000000000000000000000000000000000000001000276a40000000000000000000000000000000000000000000000000000000069b6c7df",
        "nonce": "0x4d6",
        "chainId": "0x515"
      },
      "additionalContracts": [],
      "isFixedGasLimit": false
    },
    {
      "hash": null,
      "transactionType": "CALL",
      "contractName": null,
      "contractAddress": "0xe56a90ad0deab20ee9fcd780b14ca90fc71d3f5d",
      "function": "executeNextSlice((bytes32,(address,address,uint24,int24,address),uint24,uint160,uint40))",
      "arguments": [
        "(0xefd9cefc2a6839ddf08809a7b350f3c80072fecf6f613829e05e18624bec28d8, (0x8a39d15CA044AB6cD19A733a8eADdEF22375429B, 0xF80672134D30Fe40AC8f00B617811D96E51662c3, 3000, 60, 0xBF42f398561644Eb55A7269dA0F937D0512c40c0), 50, 4295128740, 1773586399)"
      ],
      "transaction": {
        "from": "0x4b992f2fbf714c0fcbb23bac5130ace48cad00cd",
        "to": "0xe56a90ad0deab20ee9fcd780b14ca90fc71d3f5d",
        "gas": "0x16d0a",
        "value": "0x0",
        "input": "0xdee73244efd9cefc2a6839ddf08809a7b350f3c80072fecf6f613829e05e18624bec28d80000000000000000000000008a39d15ca044ab6cd19a733a8eaddef22375429b000000000000000000000000f80672134d30fe40ac8f00b617811d96e51662c30000000000000000000000000000000000000000000000000000000000000bb8000000000000000000000000000000000000000000000000000000000000003c000000000000000000000000bf42f398561644eb55a7269da0f937d0512c40c0000000000000000000000000000000000000000000000000000000000000003200000000000000000000000000000000000000000000000000000001000276a40000000000000000000000000000000000000000000000000000000069b6c7df",
        "nonce": "0x4d7",
        "chainId": "0x515"
      },
      "additionalContracts": [],
      "isFixedGasLimit": false
    },
    {
      "hash": null,
      "transactionType": "CALL",
      "contractName": null,
      "contractAddress": "0xe56a90ad0deab20ee9fcd780b14ca90fc71d3f5d",
      "function": "executeNextSlice((bytes32,(address,address,uint24,int24,address),uint24,uint160,uint40))",
      "arguments": [
        "(0xefd9cefc2a6839ddf08809a7b350f3c80072fecf6f613829e05e18624bec28d8, (0x8a39d15CA044AB6cD19A733a8eADdEF22375429B, 0xF80672134D30Fe40AC8f00B617811D96E51662c3, 3000, 60, 0xBF42f398561644Eb55A7269dA0F937D0512c40c0), 50, 4295128740, 1773586399)"
      ],
      "transaction": {
        "from": "0x4b992f2fbf714c0fcbb23bac5130ace48cad00cd",
        "to": "0xe56a90ad0deab20ee9fcd780b14ca90fc71d3f5d",
        "gas": "0x16d0a",
        "value": "0x0",
        "input": "0xdee73244efd9cefc2a6839ddf08809a7b350f3c80072fecf6f613829e05e18624bec28d80000000000000000000000008a39d15ca044ab6cd19a733a8eaddef22375429b000000000000000000000000f80672134d30fe40ac8f00b617811d96e51662c30000000000000000000000000000000000000000000000000000000000000bb8000000000000000000000000000000000000000000000000000000000000003c000000000000000000000000bf42f398561644eb55a7269da0f937d0512c40c0000000000000000000000000000000000000000000000000000000000000003200000000000000000000000000000000000000000000000000000001000276a40000000000000000000000000000000000000000000000000000000069b6c7df",
        "nonce": "0x4d8",
        "chainId": "0x515"
      },
      "additionalContracts": [],
      "isFixedGasLimit": false
    },
    {
      "hash": null,
      "transactionType": "CALL",
      "contractName": null,
      "contractAddress": "0xe56a90ad0deab20ee9fcd780b14ca90fc71d3f5d",
      "function": "executeNextSlice((bytes32,(address,address,uint24,int24,address),uint24,uint160,uint40))",
      "arguments": [
        "(0xefd9cefc2a6839ddf08809a7b350f3c80072fecf6f613829e05e18624bec28d8, (0x8a39d15CA044AB6cD19A733a8eADdEF22375429B, 0xF80672134D30Fe40AC8f00B617811D96E51662c3, 3000, 60, 0xBF42f398561644Eb55A7269dA0F937D0512c40c0), 50, 4295128740, 1773586399)"
      ],
      "transaction": {
        "from": "0x4b992f2fbf714c0fcbb23bac5130ace48cad00cd",
        "to": "0xe56a90ad0deab20ee9fcd780b14ca90fc71d3f5d",
        "gas": "0x16d0a",
        "value": "0x0",
        "input": "0xdee73244efd9cefc2a6839ddf08809a7b350f3c80072fecf6f613829e05e18624bec28d80000000000000000000000008a39d15ca044ab6cd19a733a8eaddef22375429b000000000000000000000000f80672134d30fe40ac8f00b617811d96e51662c30000000000000000000000000000000000000000000000000000000000000bb8000000000000000000000000000000000000000000000000000000000000003c000000000000000000000000bf42f398561644eb55a7269da0f937d0512c40c0000000000000000000000000000000000000000000000000000000000000003200000000000000000000000000000000000000000000000000000001000276a40000000000000000000000000000000000000000000000000000000069b6c7df",
        "nonce": "0x4d9",
        "chainId": "0x515"
      },
      "additionalContracts": [],
      "isFixedGasLimit": false
    },
    {
      "hash": null,
      "transactionType": "CALL",
      "contractName": null,
      "contractAddress": "0xe56a90ad0deab20ee9fcd780b14ca90fc71d3f5d",
      "function": "executeNextSlice((bytes32,(address,address,uint24,int24,address),uint24,uint160,uint40))",
      "arguments": [
        "(0xefd9cefc2a6839ddf08809a7b350f3c80072fecf6f613829e05e18624bec28d8, (0x8a39d15CA044AB6cD19A733a8eADdEF22375429B, 0xF80672134D30Fe40AC8f00B617811D96E51662c3, 3000, 60, 0xBF42f398561644Eb55A7269dA0F937D0512c40c0), 50, 4295128740, 1773586399)"
      ],
      "transaction": {
        "from": "0x4b992f2fbf714c0fcbb23bac5130ace48cad00cd",
        "to": "0xe56a90ad0deab20ee9fcd780b14ca90fc71d3f5d",
        "gas": "0x16d0a",
        "value": "0x0",
        "input": "0xdee73244efd9cefc2a6839ddf08809a7b350f3c80072fecf6f613829e05e18624bec28d80000000000000000000000008a39d15ca044ab6cd19a733a8eaddef22375429b000000000000000000000000f80672134d30fe40ac8f00b617811d96e51662c30000000000000000000000000000000000000000000000000000000000000bb8000000000000000000000000000000000000000000000000000000000000003c000000000000000000000000bf42f398561644eb55a7269da0f937d0512c40c0000000000000000000000000000000000000000000000000000000000000003200000000000000000000000000000000000000000000000000000001000276a40000000000000000000000000000000000000000000000000000000069b6c7df",
        "nonce": "0x4da",
        "chainId": "0x515"
      },
      "additionalContracts": [],
      "isFixedGasLimit": false
    },
    {
      "hash": null,
      "transactionType": "CALL",
      "contractName": null,
      "contractAddress": "0xe56a90ad0deab20ee9fcd780b14ca90fc71d3f5d",
      "function": "executeNextSlice((bytes32,(address,address,uint24,int24,address),uint24,uint160,uint40))",
      "arguments": [
        "(0xefd9cefc2a6839ddf08809a7b350f3c80072fecf6f613829e05e18624bec28d8, (0x8a39d15CA044AB6cD19A733a8eADdEF22375429B, 0xF80672134D30Fe40AC8f00B617811D96E51662c3, 3000, 60, 0xBF42f398561644Eb55A7269dA0F937D0512c40c0), 50, 4295128740, 1773586399)"
      ],
      "transaction": {
        "from": "0x4b992f2fbf714c0fcbb23bac5130ace48cad00cd",
        "to": "0xe56a90ad0deab20ee9fcd780b14ca90fc71d3f5d",
        "gas": "0x16d0a",
        "value": "0x0",
        "input": "0xdee73244efd9cefc2a6839ddf08809a7b350f3c80072fecf6f613829e05e18624bec28d80000000000000000000000008a39d15ca044ab6cd19a733a8eaddef22375429b000000000000000000000000f80672134d30fe40ac8f00b617811d96e51662c30000000000000000000000000000000000000000000000000000000000000bb8000000000000000000000000000000000000000000000000000000000000003c000000000000000000000000bf42f398561644eb55a7269da0f937d0512c40c0000000000000000000000000000000000000000000000000000000000000003200000000000000000000000000000000000000000000000000000001000276a40000000000000000000000000000000000000000000000000000000069b6c7df",
        "nonce": "0x4db",
        "chainId": "0x515"
      },
      "additionalContracts": [],
      "isFixedGasLimit": false
    },
    {
      "hash": null,
      "transactionType": "CALL",
      "contractName": null,
      "contractAddress": "0xe56a90ad0deab20ee9fcd780b14ca90fc71d3f5d",
      "function": "executeNextSlice((bytes32,(address,address,uint24,int24,address),uint24,uint160,uint40))",
      "arguments": [
        "(0xefd9cefc2a6839ddf08809a7b350f3c80072fecf6f613829e05e18624bec28d8, (0x8a39d15CA044AB6cD19A733a8eADdEF22375429B, 0xF80672134D30Fe40AC8f00B617811D96E51662c3, 3000, 60, 0xBF42f398561644Eb55A7269dA0F937D0512c40c0), 50, 4295128740, 1773586399)"
      ],
      "transaction": {
        "from": "0x4b992f2fbf714c0fcbb23bac5130ace48cad00cd",
        "to": "0xe56a90ad0deab20ee9fcd780b14ca90fc71d3f5d",
        "gas": "0x16d0a",
        "value": "0x0",
        "input": "0xdee73244efd9cefc2a6839ddf08809a7b350f3c80072fecf6f613829e05e18624bec28d80000000000000000000000008a39d15ca044ab6cd19a733a8eaddef22375429b000000000000000000000000f80672134d30fe40ac8f00b617811d96e51662c30000000000000000000000000000000000000000000000000000000000000bb8000000000000000000000000000000000000000000000000000000000000003c000000000000000000000000bf42f398561644eb55a7269da0f937d0512c40c0000000000000000000000000000000000000000000000000000000000000003200000000000000000000000000000000000000000000000000000001000276a40000000000000000000000000000000000000000000000000000000069b6c7df",
        "nonce": "0x4dc",
        "chainId": "0x515"
      },
      "additionalContracts": [],
      "isFixedGasLimit": false
    },
    {
      "hash": null,
      "transactionType": "CALL",
      "contractName": null,
      "contractAddress": "0xe56a90ad0deab20ee9fcd780b14ca90fc71d3f5d",
      "function": "executeNextSlice((bytes32,(address,address,uint24,int24,address),uint24,uint160,uint40))",
      "arguments": [
        "(0xefd9cefc2a6839ddf08809a7b350f3c80072fecf6f613829e05e18624bec28d8, (0x8a39d15CA044AB6cD19A733a8eADdEF22375429B, 0xF80672134D30Fe40AC8f00B617811D96E51662c3, 3000, 60, 0xBF42f398561644Eb55A7269dA0F937D0512c40c0), 50, 4295128740, 1773586399)"
      ],
      "transaction": {
        "from": "0x4b992f2fbf714c0fcbb23bac5130ace48cad00cd",
        "to": "0xe56a90ad0deab20ee9fcd780b14ca90fc71d3f5d",
        "gas": "0x16d0a",
        "value": "0x0",
        "input": "0xdee73244efd9cefc2a6839ddf08809a7b350f3c80072fecf6f613829e05e18624bec28d80000000000000000000000008a39d15ca044ab6cd19a733a8eaddef22375429b000000000000000000000000f80672134d30fe40ac8f00b617811d96e51662c30000000000000000000000000000000000000000000000000000000000000bb8000000000000000000000000000000000000000000000000000000000000003c000000000000000000000000bf42f398561644eb55a7269da0f937d0512c40c0000000000000000000000000000000000000000000000000000000000000003200000000000000000000000000000000000000000000000000000001000276a40000000000000000000000000000000000000000000000000000000069b6c7df",
        "nonce": "0x4dd",
        "chainId": "0x515"
      },
      "additionalContracts": [],
      "isFixedGasLimit": false
    },
    {
      "hash": null,
      "transactionType": "CALL",
      "contractName": null,
      "contractAddress": "0xe56a90ad0deab20ee9fcd780b14ca90fc71d3f5d",
      "function": "executeNextSlice((bytes32,(address,address,uint24,int24,address),uint24,uint160,uint40))",
      "arguments": [
        "(0xefd9cefc2a6839ddf08809a7b350f3c80072fecf6f613829e05e18624bec28d8, (0x8a39d15CA044AB6cD19A733a8eADdEF22375429B, 0xF80672134D30Fe40AC8f00B617811D96E51662c3, 3000, 60, 0xBF42f398561644Eb55A7269dA0F937D0512c40c0), 50, 4295128740, 1773586399)"
      ],
      "transaction": {
        "from": "0x4b992f2fbf714c0fcbb23bac5130ace48cad00cd",
        "to": "0xe56a90ad0deab20ee9fcd780b14ca90fc71d3f5d",
        "gas": "0x16d0a",
        "value": "0x0",
        "input": "0xdee73244efd9cefc2a6839ddf08809a7b350f3c80072fecf6f613829e05e18624bec28d80000000000000000000000008a39d15ca044ab6cd19a733a8eaddef22375429b000000000000000000000000f80672134d30fe40ac8f00b617811d96e51662c30000000000000000000000000000000000000000000000000000000000000bb8000000000000000000000000000000000000000000000000000000000000003c000000000000000000000000bf42f398561644eb55a7269da0f937d0512c40c0000000000000000000000000000000000000000000000000000000000000003200000000000000000000000000000000000000000000000000000001000276a40000000000000000000000000000000000000000000000000000000069b6c7df",
        "nonce": "0x4de",
        "chainId": "0x515"
      },
      "additionalContracts": [],
      "isFixedGasLimit": false
    },
    {
      "hash": null,
      "transactionType": "CALL",
      "contractName": null,
      "contractAddress": "0xe56a90ad0deab20ee9fcd780b14ca90fc71d3f5d",
      "function": "executeNextSlice((bytes32,(address,address,uint24,int24,address),uint24,uint160,uint40))",
      "arguments": [
        "(0xefd9cefc2a6839ddf08809a7b350f3c80072fecf6f613829e05e18624bec28d8, (0x8a39d15CA044AB6cD19A733a8eADdEF22375429B, 0xF80672134D30Fe40AC8f00B617811D96E51662c3, 3000, 60, 0xBF42f398561644Eb55A7269dA0F937D0512c40c0), 50, 4295128740, 1773586399)"
      ],
      "transaction": {
        "from": "0x4b992f2fbf714c0fcbb23bac5130ace48cad00cd",
        "to": "0xe56a90ad0deab20ee9fcd780b14ca90fc71d3f5d",
        "gas": "0x16d0a",
        "value": "0x0",
        "input": "0xdee73244efd9cefc2a6839ddf08809a7b350f3c80072fecf6f613829e05e18624bec28d80000000000000000000000008a39d15ca044ab6cd19a733a8eaddef22375429b000000000000000000000000f80672134d30fe40ac8f00b617811d96e51662c30000000000000000000000000000000000000000000000000000000000000bb8000000000000000000000000000000000000000000000000000000000000003c000000000000000000000000bf42f398561644eb55a7269da0f937d0512c40c0000000000000000000000000000000000000000000000000000000000000003200000000000000000000000000000000000000000000000000000001000276a40000000000000000000000000000000000000000000000000000000069b6c7df",
        "nonce": "0x4df",
        "chainId": "0x515"
      },
      "additionalContracts": [],
      "isFixedGasLimit": false
    },
    {
      "hash": null,
      "transactionType": "CALL",
      "contractName": null,
      "contractAddress": "0xe56a90ad0deab20ee9fcd780b14ca90fc71d3f5d",
      "function": "executeNextSlice((bytes32,(address,address,uint24,int24,address),uint24,uint160,uint40))",
      "arguments": [
        "(0xefd9cefc2a6839ddf08809a7b350f3c80072fecf6f613829e05e18624bec28d8, (0x8a39d15CA044AB6cD19A733a8eADdEF22375429B, 0xF80672134D30Fe40AC8f00B617811D96E51662c3, 3000, 60, 0xBF42f398561644Eb55A7269dA0F937D0512c40c0), 50, 4295128740, 1773586399)"
      ],
      "transaction": {
        "from": "0x4b992f2fbf714c0fcbb23bac5130ace48cad00cd",
        "to": "0xe56a90ad0deab20ee9fcd780b14ca90fc71d3f5d",
        "gas": "0x16d0a",
        "value": "0x0",
        "input": "0xdee73244efd9cefc2a6839ddf08809a7b350f3c80072fecf6f613829e05e18624bec28d80000000000000000000000008a39d15ca044ab6cd19a733a8eaddef22375429b000000000000000000000000f80672134d30fe40ac8f00b617811d96e51662c30000000000000000000000000000000000000000000000000000000000000bb8000000000000000000000000000000000000000000000000000000000000003c000000000000000000000000bf42f398561644eb55a7269da0f937d0512c40c0000000000000000000000000000000000000000000000000000000000000003200000000000000000000000000000000000000000000000000000001000276a40000000000000000000000000000000000000000000000000000000069b6c7df",
        "nonce": "0x4e0",
        "chainId": "0x515"
      },
      "additionalContracts": [],
      "isFixedGasLimit": false
    },
    {
      "hash": null,
      "transactionType": "CALL",
      "contractName": null,
      "contractAddress": "0xe56a90ad0deab20ee9fcd780b14ca90fc71d3f5d",
      "function": "executeNextSlice((bytes32,(address,address,uint24,int24,address),uint24,uint160,uint40))",
      "arguments": [
        "(0xefd9cefc2a6839ddf08809a7b350f3c80072fecf6f613829e05e18624bec28d8, (0x8a39d15CA044AB6cD19A733a8eADdEF22375429B, 0xF80672134D30Fe40AC8f00B617811D96E51662c3, 3000, 60, 0xBF42f398561644Eb55A7269dA0F937D0512c40c0), 50, 4295128740, 1773586399)"
      ],
      "transaction": {
        "from": "0x4b992f2fbf714c0fcbb23bac5130ace48cad00cd",
        "to": "0xe56a90ad0deab20ee9fcd780b14ca90fc71d3f5d",
        "gas": "0x16d0a",
        "value": "0x0",
        "input": "0xdee73244efd9cefc2a6839ddf08809a7b350f3c80072fecf6f613829e05e18624bec28d80000000000000000000000008a39d15ca044ab6cd19a733a8eaddef22375429b000000000000000000000000f80672134d30fe40ac8f00b617811d96e51662c30000000000000000000000000000000000000000000000000000000000000bb8000000000000000000000000000000000000000000000000000000000000003c000000000000000000000000bf42f398561644eb55a7269da0f937d0512c40c0000000000000000000000000000000000000000000000000000000000000003200000000000000000000000000000000000000000000000000000001000276a40000000000000000000000000000000000000000000000000000000069b6c7df",
        "nonce": "0x4e1",
        "chainId": "0x515"
      },
      "additionalContracts": [],
      "isFixedGasLimit": false
    },
    {
      "hash": null,
      "transactionType": "CALL",
      "contractName": null,
      "contractAddress": "0xe56a90ad0deab20ee9fcd780b14ca90fc71d3f5d",
      "function": "executeNextSlice((bytes32,(address,address,uint24,int24,address),uint24,uint160,uint40))",
      "arguments": [
        "(0xefd9cefc2a6839ddf08809a7b350f3c80072fecf6f613829e05e18624bec28d8, (0x8a39d15CA044AB6cD19A733a8eADdEF22375429B, 0xF80672134D30Fe40AC8f00B617811D96E51662c3, 3000, 60, 0xBF42f398561644Eb55A7269dA0F937D0512c40c0), 50, 4295128740, 1773586399)"
      ],
      "transaction": {
        "from": "0x4b992f2fbf714c0fcbb23bac5130ace48cad00cd",
        "to": "0xe56a90ad0deab20ee9fcd780b14ca90fc71d3f5d",
        "gas": "0x16d0a",
        "value": "0x0",
        "input": "0xdee73244efd9cefc2a6839ddf08809a7b350f3c80072fecf6f613829e05e18624bec28d80000000000000000000000008a39d15ca044ab6cd19a733a8eaddef22375429b000000000000000000000000f80672134d30fe40ac8f00b617811d96e51662c30000000000000000000000000000000000000000000000000000000000000bb8000000000000000000000000000000000000000000000000000000000000003c000000000000000000000000bf42f398561644eb55a7269da0f937d0512c40c0000000000000000000000000000000000000000000000000000000000000003200000000000000000000000000000000000000000000000000000001000276a40000000000000000000000000000000000000000000000000000000069b6c7df",
        "nonce": "0x4e2",
        "chainId": "0x515"
      },
      "additionalContracts": [],
      "isFixedGasLimit": false
    },
    {
      "hash": null,
      "transactionType": "CALL",
      "contractName": null,
      "contractAddress": "0xe56a90ad0deab20ee9fcd780b14ca90fc71d3f5d",
      "function": "executeNextSlice((bytes32,(address,address,uint24,int24,address),uint24,uint160,uint40))",
      "arguments": [
        "(0xefd9cefc2a6839ddf08809a7b350f3c80072fecf6f613829e05e18624bec28d8, (0x8a39d15CA044AB6cD19A733a8eADdEF22375429B, 0xF80672134D30Fe40AC8f00B617811D96E51662c3, 3000, 60, 0xBF42f398561644Eb55A7269dA0F937D0512c40c0), 50, 4295128740, 1773586399)"
      ],
      "transaction": {
        "from": "0x4b992f2fbf714c0fcbb23bac5130ace48cad00cd",
        "to": "0xe56a90ad0deab20ee9fcd780b14ca90fc71d3f5d",
        "gas": "0x16d0a",
        "value": "0x0",
        "input": "0xdee73244efd9cefc2a6839ddf08809a7b350f3c80072fecf6f613829e05e18624bec28d80000000000000000000000008a39d15ca044ab6cd19a733a8eaddef22375429b000000000000000000000000f80672134d30fe40ac8f00b617811d96e51662c30000000000000000000000000000000000000000000000000000000000000bb8000000000000000000000000000000000000000000000000000000000000003c000000000000000000000000bf42f398561644eb55a7269da0f937d0512c40c0000000000000000000000000000000000000000000000000000000000000003200000000000000000000000000000000000000000000000000000001000276a40000000000000000000000000000000000000000000000000000000069b6c7df",
        "nonce": "0x4e3",
        "chainId": "0x515"
      },
      "additionalContracts": [],
      "isFixedGasLimit": false
    },
    {
      "hash": null,
      "transactionType": "CALL",
      "contractName": null,
      "contractAddress": "0xe56a90ad0deab20ee9fcd780b14ca90fc71d3f5d",
      "function": "executeNextSlice((bytes32,(address,address,uint24,int24,address),uint24,uint160,uint40))",
      "arguments": [
        "(0xefd9cefc2a6839ddf08809a7b350f3c80072fecf6f613829e05e18624bec28d8, (0x8a39d15CA044AB6cD19A733a8eADdEF22375429B, 0xF80672134D30Fe40AC8f00B617811D96E51662c3, 3000, 60, 0xBF42f398561644Eb55A7269dA0F937D0512c40c0), 50, 4295128740, 1773586399)"
      ],
      "transaction": {
        "from": "0x4b992f2fbf714c0fcbb23bac5130ace48cad00cd",
        "to": "0xe56a90ad0deab20ee9fcd780b14ca90fc71d3f5d",
        "gas": "0x16d0a",
        "value": "0x0",
        "input": "0xdee73244efd9cefc2a6839ddf08809a7b350f3c80072fecf6f613829e05e18624bec28d80000000000000000000000008a39d15ca044ab6cd19a733a8eaddef22375429b000000000000000000000000f80672134d30fe40ac8f00b617811d96e51662c30000000000000000000000000000000000000000000000000000000000000bb8000000000000000000000000000000000000000000000000000000000000003c000000000000000000000000bf42f398561644eb55a7269da0f937d0512c40c0000000000000000000000000000000000000000000000000000000000000003200000000000000000000000000000000000000000000000000000001000276a40000000000000000000000000000000000000000000000000000000069b6c7df",
        "nonce": "0x4e4",
        "chainId": "0x515"
      },
      "additionalContracts": [],
      "isFixedGasLimit": false
    },
    {
      "hash": null,
      "transactionType": "CALL",
      "contractName": null,
      "contractAddress": "0xe56a90ad0deab20ee9fcd780b14ca90fc71d3f5d",
      "function": "executeNextSlice((bytes32,(address,address,uint24,int24,address),uint24,uint160,uint40))",
      "arguments": [
        "(0xefd9cefc2a6839ddf08809a7b350f3c80072fecf6f613829e05e18624bec28d8, (0x8a39d15CA044AB6cD19A733a8eADdEF22375429B, 0xF80672134D30Fe40AC8f00B617811D96E51662c3, 3000, 60, 0xBF42f398561644Eb55A7269dA0F937D0512c40c0), 50, 4295128740, 1773586399)"
      ],
      "transaction": {
        "from": "0x4b992f2fbf714c0fcbb23bac5130ace48cad00cd",
        "to": "0xe56a90ad0deab20ee9fcd780b14ca90fc71d3f5d",
        "gas": "0x16d0a",
        "value": "0x0",
        "input": "0xdee73244efd9cefc2a6839ddf08809a7b350f3c80072fecf6f613829e05e18624bec28d80000000000000000000000008a39d15ca044ab6cd19a733a8eaddef22375429b000000000000000000000000f80672134d30fe40ac8f00b617811d96e51662c30000000000000000000000000000000000000000000000000000000000000bb8000000000000000000000000000000000000000000000000000000000000003c000000000000000000000000bf42f398561644eb55a7269da0f937d0512c40c0000000000000000000000000000000000000000000000000000000000000003200000000000000000000000000000000000000000000000000000001000276a40000000000000000000000000000000000000000000000000000000069b6c7df",
        "nonce": "0x4e5",
        "chainId": "0x515"
      },
      "additionalContracts": [],
      "isFixedGasLimit": false
    },
    {
      "hash": null,
      "transactionType": "CALL",
      "contractName": null,
      "contractAddress": "0xe56a90ad0deab20ee9fcd780b14ca90fc71d3f5d",
      "function": "executeNextSlice((bytes32,(address,address,uint24,int24,address),uint24,uint160,uint40))",
      "arguments": [
        "(0xefd9cefc2a6839ddf08809a7b350f3c80072fecf6f613829e05e18624bec28d8, (0x8a39d15CA044AB6cD19A733a8eADdEF22375429B, 0xF80672134D30Fe40AC8f00B617811D96E51662c3, 3000, 60, 0xBF42f398561644Eb55A7269dA0F937D0512c40c0), 50, 4295128740, 1773586399)"
      ],
      "transaction": {
        "from": "0x4b992f2fbf714c0fcbb23bac5130ace48cad00cd",
        "to": "0xe56a90ad0deab20ee9fcd780b14ca90fc71d3f5d",
        "gas": "0x16d0a",
        "value": "0x0",
        "input": "0xdee73244efd9cefc2a6839ddf08809a7b350f3c80072fecf6f613829e05e18624bec28d80000000000000000000000008a39d15ca044ab6cd19a733a8eaddef22375429b000000000000000000000000f80672134d30fe40ac8f00b617811d96e51662c30000000000000000000000000000000000000000000000000000000000000bb8000000000000000000000000000000000000000000000000000000000000003c000000000000000000000000bf42f398561644eb55a7269da0f937d0512c40c0000000000000000000000000000000000000000000000000000000000000003200000000000000000000000000000000000000000000000000000001000276a40000000000000000000000000000000000000000000000000000000069b6c7df",
        "nonce": "0x4e6",
        "chainId": "0x515"
      },
      "additionalContracts": [],
      "isFixedGasLimit": false
    },
    {
      "hash": null,
      "transactionType": "CALL",
      "contractName": null,
      "contractAddress": "0xe56a90ad0deab20ee9fcd780b14ca90fc71d3f5d",
      "function": "executeNextSlice((bytes32,(address,address,uint24,int24,address),uint24,uint160,uint40))",
      "arguments": [
        "(0xefd9cefc2a6839ddf08809a7b350f3c80072fecf6f613829e05e18624bec28d8, (0x8a39d15CA044AB6cD19A733a8eADdEF22375429B, 0xF80672134D30Fe40AC8f00B617811D96E51662c3, 3000, 60, 0xBF42f398561644Eb55A7269dA0F937D0512c40c0), 50, 4295128740, 1773586399)"
      ],
      "transaction": {
        "from": "0x4b992f2fbf714c0fcbb23bac5130ace48cad00cd",
        "to": "0xe56a90ad0deab20ee9fcd780b14ca90fc71d3f5d",
        "gas": "0x16d0a",
        "value": "0x0",
        "input": "0xdee73244efd9cefc2a6839ddf08809a7b350f3c80072fecf6f613829e05e18624bec28d80000000000000000000000008a39d15ca044ab6cd19a733a8eaddef22375429b000000000000000000000000f80672134d30fe40ac8f00b617811d96e51662c30000000000000000000000000000000000000000000000000000000000000bb8000000000000000000000000000000000000000000000000000000000000003c000000000000000000000000bf42f398561644eb55a7269da0f937d0512c40c0000000000000000000000000000000000000000000000000000000000000003200000000000000000000000000000000000000000000000000000001000276a40000000000000000000000000000000000000000000000000000000069b6c7df",
        "nonce": "0x4e7",
        "chainId": "0x515"
      },
      "additionalContracts": [],
      "isFixedGasLimit": false
    },
    {
      "hash": null,
      "transactionType": "CALL",
      "contractName": null,
      "contractAddress": "0xe56a90ad0deab20ee9fcd780b14ca90fc71d3f5d",
      "function": "executeNextSlice((bytes32,(address,address,uint24,int24,address),uint24,uint160,uint40))",
      "arguments": [
        "(0xefd9cefc2a6839ddf08809a7b350f3c80072fecf6f613829e05e18624bec28d8, (0x8a39d15CA044AB6cD19A733a8eADdEF22375429B, 0xF80672134D30Fe40AC8f00B617811D96E51662c3, 3000, 60, 0xBF42f398561644Eb55A7269dA0F937D0512c40c0), 50, 4295128740, 1773586399)"
      ],
      "transaction": {
        "from": "0x4b992f2fbf714c0fcbb23bac5130ace48cad00cd",
        "to": "0xe56a90ad0deab20ee9fcd780b14ca90fc71d3f5d",
        "gas": "0x16d0a",
        "value": "0x0",
        "input": "0xdee73244efd9cefc2a6839ddf08809a7b350f3c80072fecf6f613829e05e18624bec28d80000000000000000000000008a39d15ca044ab6cd19a733a8eaddef22375429b000000000000000000000000f80672134d30fe40ac8f00b617811d96e51662c30000000000000000000000000000000000000000000000000000000000000bb8000000000000000000000000000000000000000000000000000000000000003c000000000000000000000000bf42f398561644eb55a7269da0f937d0512c40c0000000000000000000000000000000000000000000000000000000000000003200000000000000000000000000000000000000000000000000000001000276a40000000000000000000000000000000000000000000000000000000069b6c7df",
        "nonce": "0x4e8",
        "chainId": "0x515"
      },
      "additionalContracts": [],
      "isFixedGasLimit": false
    },
    {
      "hash": null,
      "transactionType": "CALL",
      "contractName": null,
      "contractAddress": "0xe56a90ad0deab20ee9fcd780b14ca90fc71d3f5d",
      "function": "executeNextSlice((bytes32,(address,address,uint24,int24,address),uint24,uint160,uint40))",
      "arguments": [
        "(0xefd9cefc2a6839ddf08809a7b350f3c80072fecf6f613829e05e18624bec28d8, (0x8a39d15CA044AB6cD19A733a8eADdEF22375429B, 0xF80672134D30Fe40AC8f00B617811D96E51662c3, 3000, 60, 0xBF42f398561644Eb55A7269dA0F937D0512c40c0), 50, 4295128740, 1773586399)"
      ],
      "transaction": {
        "from": "0x4b992f2fbf714c0fcbb23bac5130ace48cad00cd",
        "to": "0xe56a90ad0deab20ee9fcd780b14ca90fc71d3f5d",
        "gas": "0x16d0a",
        "value": "0x0",
        "input": "0xdee73244efd9cefc2a6839ddf08809a7b350f3c80072fecf6f613829e05e18624bec28d80000000000000000000000008a39d15ca044ab6cd19a733a8eaddef22375429b000000000000000000000000f80672134d30fe40ac8f00b617811d96e51662c30000000000000000000000000000000000000000000000000000000000000bb8000000000000000000000000000000000000000000000000000000000000003c000000000000000000000000bf42f398561644eb55a7269da0f937d0512c40c0000000000000000000000000000000000000000000000000000000000000003200000000000000000000000000000000000000000000000000000001000276a40000000000000000000000000000000000000000000000000000000069b6c7df",
        "nonce": "0x4e9",
        "chainId": "0x515"
      },
      "additionalContracts": [],
      "isFixedGasLimit": false
    },
    {
      "hash": null,
      "transactionType": "CALL",
      "contractName": null,
      "contractAddress": "0xe56a90ad0deab20ee9fcd780b14ca90fc71d3f5d",
      "function": "executeNextSlice((bytes32,(address,address,uint24,int24,address),uint24,uint160,uint40))",
      "arguments": [
        "(0xefd9cefc2a6839ddf08809a7b350f3c80072fecf6f613829e05e18624bec28d8, (0x8a39d15CA044AB6cD19A733a8eADdEF22375429B, 0xF80672134D30Fe40AC8f00B617811D96E51662c3, 3000, 60, 0xBF42f398561644Eb55A7269dA0F937D0512c40c0), 50, 4295128740, 1773586399)"
      ],
      "transaction": {
        "from": "0x4b992f2fbf714c0fcbb23bac5130ace48cad00cd",
        "to": "0xe56a90ad0deab20ee9fcd780b14ca90fc71d3f5d",
        "gas": "0x16d0a",
        "value": "0x0",
        "input": "0xdee73244efd9cefc2a6839ddf08809a7b350f3c80072fecf6f613829e05e18624bec28d80000000000000000000000008a39d15ca044ab6cd19a733a8eaddef22375429b000000000000000000000000f80672134d30fe40ac8f00b617811d96e51662c30000000000000000000000000000000000000000000000000000000000000bb8000000000000000000000000000000000000000000000000000000000000003c000000000000000000000000bf42f398561644eb55a7269da0f937d0512c40c0000000000000000000000000000000000000000000000000000000000000003200000000000000000000000000000000000000000000000000000001000276a40000000000000000000000000000000000000000000000000000000069b6c7df",
        "nonce": "0x4ea",
        "chainId": "0x515"
      },
      "additionalContracts": [],
      "isFixedGasLimit": false
    },
    {
      "hash": null,
      "transactionType": "CALL",
      "contractName": null,
      "contractAddress": "0xe56a90ad0deab20ee9fcd780b14ca90fc71d3f5d",
      "function": "executeNextSlice((bytes32,(address,address,uint24,int24,address),uint24,uint160,uint40))",
      "arguments": [
        "(0xefd9cefc2a6839ddf08809a7b350f3c80072fecf6f613829e05e18624bec28d8, (0x8a39d15CA044AB6cD19A733a8eADdEF22375429B, 0xF80672134D30Fe40AC8f00B617811D96E51662c3, 3000, 60, 0xBF42f398561644Eb55A7269dA0F937D0512c40c0), 50, 4295128740, 1773586399)"
      ],
      "transaction": {
        "from": "0x4b992f2fbf714c0fcbb23bac5130ace48cad00cd",
        "to": "0xe56a90ad0deab20ee9fcd780b14ca90fc71d3f5d",
        "gas": "0x16d0a",
        "value": "0x0",
        "input": "0xdee73244efd9cefc2a6839ddf08809a7b350f3c80072fecf6f613829e05e18624bec28d80000000000000000000000008a39d15ca044ab6cd19a733a8eaddef22375429b000000000000000000000000f80672134d30fe40ac8f00b617811d96e51662c30000000000000000000000000000000000000000000000000000000000000bb8000000000000000000000000000000000000000000000000000000000000003c000000000000000000000000bf42f398561644eb55a7269da0f937d0512c40c0000000000000000000000000000000000000000000000000000000000000003200000000000000000000000000000000000000000000000000000001000276a40000000000000000000000000000000000000000000000000000000069b6c7df",
        "nonce": "0x4eb",
        "chainId": "0x515"
      },
      "additionalContracts": [],
      "isFixedGasLimit": false
    },
    {
      "hash": null,
      "transactionType": "CALL",
      "contractName": null,
      "contractAddress": "0xe56a90ad0deab20ee9fcd780b14ca90fc71d3f5d",
      "function": "executeNextSlice((bytes32,(address,address,uint24,int24,address),uint24,uint160,uint40))",
      "arguments": [
        "(0xefd9cefc2a6839ddf08809a7b350f3c80072fecf6f613829e05e18624bec28d8, (0x8a39d15CA044AB6cD19A733a8eADdEF22375429B, 0xF80672134D30Fe40AC8f00B617811D96E51662c3, 3000, 60, 0xBF42f398561644Eb55A7269dA0F937D0512c40c0), 50, 4295128740, 1773586399)"
      ],
      "transaction": {
        "from": "0x4b992f2fbf714c0fcbb23bac5130ace48cad00cd",
        "to": "0xe56a90ad0deab20ee9fcd780b14ca90fc71d3f5d",
        "gas": "0x16d0a",
        "value": "0x0",
        "input": "0xdee73244efd9cefc2a6839ddf08809a7b350f3c80072fecf6f613829e05e18624bec28d80000000000000000000000008a39d15ca044ab6cd19a733a8eaddef22375429b000000000000000000000000f80672134d30fe40ac8f00b617811d96e51662c30000000000000000000000000000000000000000000000000000000000000bb8000000000000000000000000000000000000000000000000000000000000003c000000000000000000000000bf42f398561644eb55a7269da0f937d0512c40c0000000000000000000000000000000000000000000000000000000000000003200000000000000000000000000000000000000000000000000000001000276a40000000000000000000000000000000000000000000000000000000069b6c7df",
        "nonce": "0x4ec",
        "chainId": "0x515"
      },
      "additionalContracts": [],
      "isFixedGasLimit": false
    },
    {
      "hash": null,
      "transactionType": "CALL",
      "contractName": null,
      "contractAddress": "0xe56a90ad0deab20ee9fcd780b14ca90fc71d3f5d",
      "function": "executeNextSlice((bytes32,(address,address,uint24,int24,address),uint24,uint160,uint40))",
      "arguments": [
        "(0xefd9cefc2a6839ddf08809a7b350f3c80072fecf6f613829e05e18624bec28d8, (0x8a39d15CA044AB6cD19A733a8eADdEF22375429B, 0xF80672134D30Fe40AC8f00B617811D96E51662c3, 3000, 60, 0xBF42f398561644Eb55A7269dA0F937D0512c40c0), 50, 4295128740, 1773586399)"
      ],
      "transaction": {
        "from": "0x4b992f2fbf714c0fcbb23bac5130ace48cad00cd",
        "to": "0xe56a90ad0deab20ee9fcd780b14ca90fc71d3f5d",
        "gas": "0x16d0a",
        "value": "0x0",
        "input": "0xdee73244efd9cefc2a6839ddf08809a7b350f3c80072fecf6f613829e05e18624bec28d80000000000000000000000008a39d15ca044ab6cd19a733a8eaddef22375429b000000000000000000000000f80672134d30fe40ac8f00b617811d96e51662c30000000000000000000000000000000000000000000000000000000000000bb8000000000000000000000000000000000000000000000000000000000000003c000000000000000000000000bf42f398561644eb55a7269da0f937d0512c40c0000000000000000000000000000000000000000000000000000000000000003200000000000000000000000000000000000000000000000000000001000276a40000000000000000000000000000000000000000000000000000000069b6c7df",
        "nonce": "0x4ed",
        "chainId": "0x515"
      },
      "additionalContracts": [],
      "isFixedGasLimit": false
    },
    {
      "hash": null,
      "transactionType": "CALL",
      "contractName": null,
      "contractAddress": "0xe56a90ad0deab20ee9fcd780b14ca90fc71d3f5d",
      "function": "executeNextSlice((bytes32,(address,address,uint24,int24,address),uint24,uint160,uint40))",
      "arguments": [
        "(0xefd9cefc2a6839ddf08809a7b350f3c80072fecf6f613829e05e18624bec28d8, (0x8a39d15CA044AB6cD19A733a8eADdEF22375429B, 0xF80672134D30Fe40AC8f00B617811D96E51662c3, 3000, 60, 0xBF42f398561644Eb55A7269dA0F937D0512c40c0), 50, 4295128740, 1773586399)"
      ],
      "transaction": {
        "from": "0x4b992f2fbf714c0fcbb23bac5130ace48cad00cd",
        "to": "0xe56a90ad0deab20ee9fcd780b14ca90fc71d3f5d",
        "gas": "0x16d0a",
        "value": "0x0",
        "input": "0xdee73244efd9cefc2a6839ddf08809a7b350f3c80072fecf6f613829e05e18624bec28d80000000000000000000000008a39d15ca044ab6cd19a733a8eaddef22375429b000000000000000000000000f80672134d30fe40ac8f00b617811d96e51662c30000000000000000000000000000000000000000000000000000000000000bb8000000000000000000000000000000000000000000000000000000000000003c000000000000000000000000bf42f398561644eb55a7269da0f937d0512c40c0000000000000000000000000000000000000000000000000000000000000003200000000000000000000000000000000000000000000000000000001000276a40000000000000000000000000000000000000000000000000000000069b6c7df",
        "nonce": "0x4ee",
        "chainId": "0x515"
      },
      "additionalContracts": [],
      "isFixedGasLimit": false
    },
    {
      "hash": null,
      "transactionType": "CALL",
      "contractName": null,
      "contractAddress": "0xe56a90ad0deab20ee9fcd780b14ca90fc71d3f5d",
      "function": "executeNextSlice((bytes32,(address,address,uint24,int24,address),uint24,uint160,uint40))",
      "arguments": [
        "(0xefd9cefc2a6839ddf08809a7b350f3c80072fecf6f613829e05e18624bec28d8, (0x8a39d15CA044AB6cD19A733a8eADdEF22375429B, 0xF80672134D30Fe40AC8f00B617811D96E51662c3, 3000, 60, 0xBF42f398561644Eb55A7269dA0F937D0512c40c0), 50, 4295128740, 1773586399)"
      ],
      "transaction": {
        "from": "0x4b992f2fbf714c0fcbb23bac5130ace48cad00cd",
        "to": "0xe56a90ad0deab20ee9fcd780b14ca90fc71d3f5d",
        "gas": "0x16d0a",
        "value": "0x0",
        "input": "0xdee73244efd9cefc2a6839ddf08809a7b350f3c80072fecf6f613829e05e18624bec28d80000000000000000000000008a39d15ca044ab6cd19a733a8eaddef22375429b000000000000000000000000f80672134d30fe40ac8f00b617811d96e51662c30000000000000000000000000000000000000000000000000000000000000bb8000000000000000000000000000000000000000000000000000000000000003c000000000000000000000000bf42f398561644eb55a7269da0f937d0512c40c0000000000000000000000000000000000000000000000000000000000000003200000000000000000000000000000000000000000000000000000001000276a40000000000000000000000000000000000000000000000000000000069b6c7df",
        "nonce": "0x4ef",
        "chainId": "0x515"
      },
      "additionalContracts": [],
      "isFixedGasLimit": false
    },
    {
      "hash": null,
      "transactionType": "CALL",
      "contractName": null,
      "contractAddress": "0xe56a90ad0deab20ee9fcd780b14ca90fc71d3f5d",
      "function": "executeNextSlice((bytes32,(address,address,uint24,int24,address),uint24,uint160,uint40))",
      "arguments": [
        "(0xefd9cefc2a6839ddf08809a7b350f3c80072fecf6f613829e05e18624bec28d8, (0x8a39d15CA044AB6cD19A733a8eADdEF22375429B, 0xF80672134D30Fe40AC8f00B617811D96E51662c3, 3000, 60, 0xBF42f398561644Eb55A7269dA0F937D0512c40c0), 50, 4295128740, 1773586399)"
      ],
      "transaction": {
        "from": "0x4b992f2fbf714c0fcbb23bac5130ace48cad00cd",
        "to": "0xe56a90ad0deab20ee9fcd780b14ca90fc71d3f5d",
        "gas": "0x16d0a",
        "value": "0x0",
        "input": "0xdee73244efd9cefc2a6839ddf08809a7b350f3c80072fecf6f613829e05e18624bec28d80000000000000000000000008a39d15ca044ab6cd19a733a8eaddef22375429b000000000000000000000000f80672134d30fe40ac8f00b617811d96e51662c30000000000000000000000000000000000000000000000000000000000000bb8000000000000000000000000000000000000000000000000000000000000003c000000000000000000000000bf42f398561644eb55a7269da0f937d0512c40c0000000000000000000000000000000000000000000000000000000000000003200000000000000000000000000000000000000000000000000000001000276a40000000000000000000000000000000000000000000000000000000069b6c7df",
        "nonce": "0x4f0",
        "chainId": "0x515"
      },
      "additionalContracts": [],
      "isFixedGasLimit": false
    }
  ],
  "receipts": [],
  "libraries": [],
  "pending": [],
  "returns": {},
  "timestamp": 1773585977868,
  "chain": 1301,
  "commit": "2745fea"
}