{
  "transactions": [
    {
      "hash": "0x45fecae1647c06fe3d419aa11eacc5b1bcb76843681f0c52f6f5ce58f6aacbf9",
      "transactionType": "CREATE",
      "contractName": "MockERC20",
      "contractAddress": "0x472b75a8c71d981197c1cdc7e5e2a0037e8bd95f",
      "function": null,
      "arguments": [
        "Mock WETH",
        "mWETH",
        "18"
      ],
      "transaction": {
        "from": "0x4b992f2fbf714c0fcbb23bac5130ace48cad00cd",
        "gas": "0xea855",
        "value": "0x0",
        "input": "0x60e060405234801561000f575f5ffd5b50604051610f39380380610f3983398101604081905261002e916101a1565b8282825f61003c84826102a2565b50600161004983826102a2565b5060ff81166080524660a05261005d61006c565b60c052506103cd945050505050565b5f7f8b73c3c69bb8fe3d512ecc4cf759cc79239f7b179b0ffacaa9a75d522b39400f5f60405161009c919061035c565b6040805191829003822060208301939093528101919091527fc89efdaa54c0f20c7adf612882df0950f5a951637e0307cdcb4c672f298b8bc660608201524660808201523060a082015260c00160405160208183030381529060405280519060200120905090565b634e487b7160e01b5f52604160045260245ffd5b5f82601f830112610127575f5ffd5b81516001600160401b0381111561014057610140610104565b604051601f8201601f19908116603f011681016001600160401b038111828210171561016e5761016e610104565b604052818152838201602001851015610185575f5ffd5b8160208501602083015e5f918101602001919091529392505050565b5f5f5f606084860312156101b3575f5ffd5b83516001600160401b038111156101c8575f5ffd5b6101d486828701610118565b602086015190945090506001600160401b038111156101f1575f5ffd5b6101fd86828701610118565b925050604084015160ff81168114610213575f5ffd5b809150509250925092565b600181811c9082168061023257607f821691505b60208210810361025057634e487b7160e01b5f52602260045260245ffd5b50919050565b601f82111561029d57805f5260205f20601f840160051c8101602085101561027b5750805b601f840160051c820191505b8181101561029a575f8155600101610287565b50505b505050565b81516001600160401b038111156102bb576102bb610104565b6102cf816102c9845461021e565b84610256565b6020601f821160018114610301575f83156102ea5750848201515b5f19600385901b1c1916600184901b17845561029a565b5f84815260208120601f198516915b828110156103305787850151825560209485019460019092019101610310565b508482101561034d57868401515f19600387901b60f8161c191681555b50505050600190811b01905550565b5f5f83546103698161021e565b6001821680156103805760018114610395576103c2565b60ff19831686528115158202860193506103c2565b865f5260205f205f5b838110156103ba5781548882015260019091019060200161039e565b505081860193505b509195945050505050565b60805160a05160c051610b426103f75f395f61045c01525f61042701525f6101590152610b425ff3fe608060405234801561000f575f5ffd5b50600436106100e5575f3560e01c806370a08231116100885780639dc29fac116100635780639dc29fac146101f0578063a9059cbb14610203578063d505accf14610216578063dd62ed3e14610229575f5ffd5b806370a08231146101aa5780637ecebe00146101c957806395d89b41146101e8575f5ffd5b806323b872dd116100c357806323b872dd14610141578063313ce567146101545780633644e5151461018d57806340c10f1914610195575f5ffd5b806306fdde03146100e9578063095ea7b31461010757806318160ddd1461012a575b5f5ffd5b6100f1610253565b6040516100fe9190610897565b60405180910390f35b61011a6101153660046108e7565b6102de565b60405190151581526020016100fe565b61013360025481565b6040519081526020016100fe565b61011a61014f36600461090f565b61034a565b61017b7f000000000000000000000000000000000000000000000000000000000000000081565b60405160ff90911681526020016100fe565b610133610424565b6101a86101a33660046108e7565b61047e565b005b6101336101b8366004610949565b60036020525f908152604090205481565b6101336101d7366004610949565b60056020525f908152604090205481565b6100f161048c565b6101a86101fe3660046108e7565b610499565b61011a6102113660046108e7565b6104a3565b6101a8610224366004610969565b610506565b6101336102373660046109d6565b600460209081525f928352604080842090915290825290205481565b5f805461025f90610a07565b80601f016020809104026020016040519081016040528092919081815260200182805461028b90610a07565b80156102d65780601f106102ad576101008083540402835291602001916102d6565b820191905f5260205f20905b8154815290600101906020018083116102b957829003601f168201915b505050505081565b335f8181526004602090815260408083206001600160a01b038716808552925280832085905551919290917f8c5be1e5ebec7d5bd14f71427d1e84f3dd0314c0f7b2291e5b200ac8c7c3b925906103389086815260200190565b60405180910390a35060015b92915050565b6001600160a01b0383165f9081526004602090815260408083203384529091528120545f1981146103a35761037f8382610a53565b6001600160a01b0386165f9081526004602090815260408083203384529091529020555b6001600160a01b0385165f90815260036020526040812080548592906103ca908490610a53565b90915550506001600160a01b038085165f81815260036020526040908190208054870190555190918716905f516020610b165f395f51905f52906104119087815260200190565b60405180910390a3506001949350505050565b5f7f0000000000000000000000000000000000000000000000000000000000000000461461045957610454610749565b905090565b507f000000000000000000000000000000000000000000000000000000000000000090565b61048882826107e1565b5050565b6001805461025f90610a07565b6104888282610838565b335f908152600360205260408120805483919083906104c3908490610a53565b90915550506001600160a01b0383165f81815260036020526040908190208054850190555133905f516020610b165f395f51905f52906103389086815260200190565b4284101561055b5760405162461bcd60e51b815260206004820152601760248201527f5045524d49545f444541444c494e455f4558504952454400000000000000000060448201526064015b60405180910390fd5b5f6001610566610424565b6001600160a01b038a81165f8181526005602090815260409182902080546001810190915582517f6e71edae12b1b97f4d1f60370fef10105fa2faae0126114a169c64845d6126c98184015280840194909452938d166060840152608083018c905260a083019390935260c08083018b90528151808403909101815260e08301909152805192019190912061190160f01b6101008301526101028201929092526101228101919091526101420160408051601f1981840301815282825280516020918201205f84529083018083525260ff871690820152606081018590526080810184905260a0016020604051602081039080840390855afa15801561066e573d5f5f3e3d5ffd5b5050604051601f1901519150506001600160a01b038116158015906106a45750876001600160a01b0316816001600160a01b0316145b6106e15760405162461bcd60e51b815260206004820152600e60248201526d24a72b20a624a22fa9a4a3a722a960911b6044820152606401610552565b6001600160a01b039081165f9081526004602090815260408083208a8516808552908352928190208990555188815291928a16917f8c5be1e5ebec7d5bd14f71427d1e84f3dd0314c0f7b2291e5b200ac8c7c3b925910160405180910390a350505050505050565b5f7f8b73c3c69bb8fe3d512ecc4cf759cc79239f7b179b0ffacaa9a75d522b39400f5f6040516107799190610a66565b6040805191829003822060208301939093528101919091527fc89efdaa54c0f20c7adf612882df0950f5a951637e0307cdcb4c672f298b8bc660608201524660808201523060a082015260c00160405160208183030381529060405280519060200120905090565b8060025f8282546107f29190610b02565b90915550506001600160a01b0382165f818152600360209081526040808320805486019055518481525f516020610b165f395f51905f5291015b60405180910390a35050565b6001600160a01b0382165f908152600360205260408120805483929061085f908490610a53565b90915550506002805482900390556040518181525f906001600160a01b038416905f516020610b165f395f51905f529060200161082c565b602081525f82518060208401528060208501604085015e5f604082850101526040601f19601f83011684010191505092915050565b80356001600160a01b03811681146108e2575f5ffd5b919050565b5f5f604083850312156108f8575f5ffd5b610901836108cc565b946020939093013593505050565b5f5f5f60608486031215610921575f5ffd5b61092a846108cc565b9250610938602085016108cc565b929592945050506040919091013590565b5f60208284031215610959575f5ffd5b610962826108cc565b9392505050565b5f5f5f5f5f5f5f60e0888a03121561097f575f5ffd5b610988886108cc565b9650610996602089016108cc565b95506040880135945060608801359350608088013560ff811681146109b9575f5ffd5b9699959850939692959460a0840135945060c09093013592915050565b5f5f604083850312156109e7575f5ffd5b6109f0836108cc565b91506109fe602084016108cc565b90509250929050565b600181811c90821680610a1b57607f821691505b602082108103610a3957634e487b7160e01b5f52602260045260245ffd5b50919050565b634e487b7160e01b5f52601160045260245ffd5b8181038181111561034457610344610a3f565b5f5f83545f8160011c90506001821680610a8157607f821691505b602082108103610a9f57634e487b7160e01b5f52602260045260245ffd5b808015610ab35760018114610ac857610af6565b60ff1984168752821515830287019450610af6565b5f888152602090205f5b84811015610aee57815489820152600190910190602001610ad2565b505082870194505b50929695505050505050565b8082018082111561034457610344610a3f56feddf252ad1be2c89b69c2b068fc378daa952ba7f163c4a11628f55a4df523b3efa164736f6c634300081e000a000000000000000000000000000000000000000000000000000000000000006000000000000000000000000000000000000000000000000000000000000000a0000000000000000000000000000000000000000000000000000000000000001200000000000000000000000000000000000000000000000000000000000000094d6f636b2057455448000000000000000000000000000000000000000000000000000000000000000000000000000000000000000000000000000000000000056d57455448000000000000000000000000000000000000000000000000000000",
        "nonce": "0x3b7",
        "chainId": "0x515"
      },
      "additionalContracts": [],
      "isFixedGasLimit": false
    },
    {
      "hash": "0xebcfb35f8b6ae3b73497bb0a7a15788404c514af07ffe7d26fa178667217432a",
      "transactionType": "CREATE",
      "contractName": "MockERC20",
      "contractAddress": "0x0a42e3ce7a6c4b504937b4377a6f9afbe84b1653",
      "function": null,
      "arguments": [
        "Mock USDC",
        "mUSDC",
        "6"
      ],
      "transaction": {
        "from": "0x4b992f2fbf714c0fcbb23bac5130ace48cad00cd",
        "gas": "0xea855",
        "value": "0x0",
        "input": "0x60e060405234801561000f575f5ffd5b50604051610f39380380610f3983398101604081905261002e916101a1565b8282825f61003c84826102a2565b50600161004983826102a2565b5060ff81166080524660a05261005d61006c565b60c052506103cd945050505050565b5f7f8b73c3c69bb8fe3d512ecc4cf759cc79239f7b179b0ffacaa9a75d522b39400f5f60405161009c919061035c565b6040805191829003822060208301939093528101919091527fc89efdaa54c0f20c7adf612882df0950f5a951637e0307cdcb4c672f298b8bc660608201524660808201523060a082015260c00160405160208183030381529060405280519060200120905090565b634e487b7160e01b5f52604160045260245ffd5b5f82601f830112610127575f5ffd5b81516001600160401b0381111561014057610140610104565b604051601f8201601f19908116603f011681016001600160401b038111828210171561016e5761016e610104565b604052818152838201602001851015610185575f5ffd5b8160208501602083015e5f918101602001919091529392505050565b5f5f5f606084860312156101b3575f5ffd5b83516001600160401b038111156101c8575f5ffd5b6101d486828701610118565b602086015190945090506001600160401b038111156101f1575f5ffd5b6101fd86828701610118565b925050604084015160ff81168114610213575f5ffd5b809150509250925092565b600181811c9082168061023257607f821691505b60208210810361025057634e487b7160e01b5f52602260045260245ffd5b50919050565b601f82111561029d57805f5260205f20601f840160051c8101602085101561027b5750805b601f840160051c820191505b8181101561029a575f8155600101610287565b50505b505050565b81516001600160401b038111156102bb576102bb610104565b6102cf816102c9845461021e565b84610256565b6020601f821160018114610301575f83156102ea5750848201515b5f19600385901b1c1916600184901b17845561029a565b5f84815260208120601f198516915b828110156103305787850151825560209485019460019092019101610310565b508482101561034d57868401515f19600387901b60f8161c191681555b50505050600190811b01905550565b5f5f83546103698161021e565b6001821680156103805760018114610395576103c2565b60ff19831686528115158202860193506103c2565b865f5260205f205f5b838110156103ba5781548882015260019091019060200161039e565b505081860193505b509195945050505050565b60805160a05160c051610b426103f75f395f61045c01525f61042701525f6101590152610b425ff3fe608060405234801561000f575f5ffd5b50600436106100e5575f3560e01c806370a08231116100885780639dc29fac116100635780639dc29fac146101f0578063a9059cbb14610203578063d505accf14610216578063dd62ed3e14610229575f5ffd5b806370a08231146101aa5780637ecebe00146101c957806395d89b41146101e8575f5ffd5b806323b872dd116100c357806323b872dd14610141578063313ce567146101545780633644e5151461018d57806340c10f1914610195575f5ffd5b806306fdde03146100e9578063095ea7b31461010757806318160ddd1461012a575b5f5ffd5b6100f1610253565b6040516100fe9190610897565b60405180910390f35b61011a6101153660046108e7565b6102de565b60405190151581526020016100fe565b61013360025481565b6040519081526020016100fe565b61011a61014f36600461090f565b61034a565b61017b7f000000000000000000000000000000000000000000000000000000000000000081565b60405160ff90911681526020016100fe565b610133610424565b6101a86101a33660046108e7565b61047e565b005b6101336101b8366004610949565b60036020525f908152604090205481565b6101336101d7366004610949565b60056020525f908152604090205481565b6100f161048c565b6101a86101fe3660046108e7565b610499565b61011a6102113660046108e7565b6104a3565b6101a8610224366004610969565b610506565b6101336102373660046109d6565b600460209081525f928352604080842090915290825290205481565b5f805461025f90610a07565b80601f016020809104026020016040519081016040528092919081815260200182805461028b90610a07565b80156102d65780601f106102ad576101008083540402835291602001916102d6565b820191905f5260205f20905b8154815290600101906020018083116102b957829003601f168201915b505050505081565b335f8181526004602090815260408083206001600160a01b038716808552925280832085905551919290917f8c5be1e5ebec7d5bd14f71427d1e84f3dd0314c0f7b2291e5b200ac8c7c3b925906103389086815260200190565b60405180910390a35060015b92915050565b6001600160a01b0383165f9081526004602090815260408083203384529091528120545f1981146103a35761037f8382610a53565b6001600160a01b0386165f9081526004602090815260408083203384529091529020555b6001600160a01b0385165f90815260036020526040812080548592906103ca908490610a53565b90915550506001600160a01b038085165f81815260036020526040908190208054870190555190918716905f516020610b165f395f51905f52906104119087815260200190565b60405180910390a3506001949350505050565b5f7f0000000000000000000000000000000000000000000000000000000000000000461461045957610454610749565b905090565b507f000000000000000000000000000000000000000000000000000000000000000090565b61048882826107e1565b5050565b6001805461025f90610a07565b6104888282610838565b335f908152600360205260408120805483919083906104c3908490610a53565b90915550506001600160a01b0383165f81815260036020526040908190208054850190555133905f516020610b165f395f51905f52906103389086815260200190565b4284101561055b5760405162461bcd60e51b815260206004820152601760248201527f5045524d49545f444541444c494e455f4558504952454400000000000000000060448201526064015b60405180910390fd5b5f6001610566610424565b6001600160a01b038a81165f8181526005602090815260409182902080546001810190915582517f6e71edae12b1b97f4d1f60370fef10105fa2faae0126114a169c64845d6126c98184015280840194909452938d166060840152608083018c905260a083019390935260c08083018b90528151808403909101815260e08301909152805192019190912061190160f01b6101008301526101028201929092526101228101919091526101420160408051601f1981840301815282825280516020918201205f84529083018083525260ff871690820152606081018590526080810184905260a0016020604051602081039080840390855afa15801561066e573d5f5f3e3d5ffd5b5050604051601f1901519150506001600160a01b038116158015906106a45750876001600160a01b0316816001600160a01b0316145b6106e15760405162461bcd60e51b815260206004820152600e60248201526d24a72b20a624a22fa9a4a3a722a960911b6044820152606401610552565b6001600160a01b039081165f9081526004602090815260408083208a8516808552908352928190208990555188815291928a16917f8c5be1e5ebec7d5bd14f71427d1e84f3dd0314c0f7b2291e5b200ac8c7c3b925910160405180910390a350505050505050565b5f7f8b73c3c69bb8fe3d512ecc4cf759cc79239f7b179b0ffacaa9a75d522b39400f5f6040516107799190610a66565b6040805191829003822060208301939093528101919091527fc89efdaa54c0f20c7adf612882df0950f5a951637e0307cdcb4c672f298b8bc660608201524660808201523060a082015260c00160405160208183030381529060405280519060200120905090565b8060025f8282546107f29190610b02565b90915550506001600160a01b0382165f818152600360209081526040808320805486019055518481525f516020610b165f395f51905f5291015b60405180910390a35050565b6001600160a01b0382165f908152600360205260408120805483929061085f908490610a53565b90915550506002805482900390556040518181525f906001600160a01b038416905f516020610b165f395f51905f529060200161082c565b602081525f82518060208401528060208501604085015e5f604082850101526040601f19601f83011684010191505092915050565b80356001600160a01b03811681146108e2575f5ffd5b919050565b5f5f604083850312156108f8575f5ffd5b610901836108cc565b946020939093013593505050565b5f5f5f60608486031215610921575f5ffd5b61092a846108cc565b9250610938602085016108cc565b929592945050506040919091013590565b5f60208284031215610959575f5ffd5b610962826108cc565b9392505050565b5f5f5f5f5f5f5f60e0888a03121561097f575f5ffd5b610988886108cc565b9650610996602089016108cc565b95506040880135945060608801359350608088013560ff811681146109b9575f5ffd5b9699959850939692959460a0840135945060c09093013592915050565b5f5f604083850312156109e7575f5ffd5b6109f0836108cc565b91506109fe602084016108cc565b90509250929050565b600181811c90821680610a1b57607f821691505b602082108103610a3957634e487b7160e01b5f52602260045260245ffd5b50919050565b634e487b7160e01b5f52601160045260245ffd5b8181038181111561034457610344610a3f565b5f5f83545f8160011c90506001821680610a8157607f821691505b602082108103610a9f57634e487b7160e01b5f52602260045260245ffd5b808015610ab35760018114610ac857610af6565b60ff1984168752821515830287019450610af6565b5f888152602090205f5b84811015610aee57815489820152600190910190602001610ad2565b505082870194505b50929695505050505050565b8082018082111561034457610344610a3f56feddf252ad1be2c89b69c2b068fc378daa952ba7f163c4a11628f55a4df523b3efa164736f6c634300081e000a000000000000000000000000000000000000000000000000000000000000006000000000000000000000000000000000000000000000000000000000000000a0000000000000000000000000000000000000000000000000000000000000000600000000000000000000000000000000000000000000000000000000000000094d6f636b2055534443000000000000000000000000000000000000000000000000000000000000000000000000000000000000000000000000000000000000056d55534443000000000000000000000000000000000000000000000000000000",
        "nonce": "0x3b8",
        "chainId": "0x515"
      },
      "additionalContracts": [],
      "isFixedGasLimit": false
    },
    {
      "hash": "0x9c7b5b334a10dbe5bb745572ce130cc40042adad932cc900e6c91e6aca3561cd",
      "transactionType": "CALL",
      "contractName": "MockERC20",
      "contractAddress": "0x0a42e3ce7a6c4b504937b4377a6f9afbe84b1653",
      "function": "mint(address,uint256)",
      "arguments": [
        "0x4b992F2Fbf714C0fCBb23baC5130Ace48CaD00cd",
        "10000000000000000000000000000000"
      ],
      "transaction": {
        "from": "0x4b992f2fbf714c0fcbb23bac5130ace48cad00cd",
        "to": "0x0a42e3ce7a6c4b504937b4377a6f9afbe84b1653",
        "gas": "0x18680",
        "value": "0x0",
        "input": "0x40c10f190000000000000000000000004b992f2fbf714c0fcbb23bac5130ace48cad00cd000000000000000000000000000000000000007e37be2022c0914b2680000000",
        "nonce": "0x3b9",
        "chainId": "0x515"
      },
      "additionalContracts": [],
      "isFixedGasLimit": false
    },
    {
      "hash": "0x38d6d4a360e8196d38c49eb6fbad2186f3d0d2a418f311e0bb5cbfcd19f2db2c",
      "transactionType": "CALL",
      "contractName": "MockERC20",
      "contractAddress": "0x472b75a8c71d981197c1cdc7e5e2a0037e8bd95f",
      "function": "mint(address,uint256)",
      "arguments": [
        "0x4b992F2Fbf714C0fCBb23baC5130Ace48CaD00cd",
        "10000000000000000000000000000000"
      ],
      "transaction": {
        "from": "0x4b992f2fbf714c0fcbb23bac5130ace48cad00cd",
        "to": "0x472b75a8c71d981197c1cdc7e5e2a0037e8bd95f",
        "gas": "0x18680",
        "value": "0x0",
        "input": "0x40c10f190000000000000000000000004b992f2fbf714c0fcbb23bac5130ace48cad00cd000000000000000000000000000000000000007e37be2022c0914b2680000000",
        "nonce": "0x3ba",
        "chainId": "0x515"
      },
      "additionalContracts": [],
      "isFixedGasLimit": false
    },
    {
      "hash": "0xe30058124b3d8b815c48b89b6e72ac632e6c86a90f0f58741448270d776bb3d3",
      "transactionType": "CALL",
      "contractName": "MockERC20",
      "contractAddress": "0x0a42e3ce7a6c4b504937b4377a6f9afbe84b1653",
      "function": "approve(address,uint256)",
      "arguments": [
        "0x000000000022D473030F116dDEE9F6B43aC78BA3",
        "115792089237316195423570985008687907853269984665640564039457584007913129639935"
      ],
      "transaction": {
        "from": "0x4b992f2fbf714c0fcbb23bac5130ace48cad00cd",
        "to": "0x0a42e3ce7a6c4b504937b4377a6f9afbe84b1653",
        "gas": "0x10939",
        "value": "0x0",
        "input": "0x095ea7b3000000000000000000000000000000000022d473030f116ddee9f6b43ac78ba3ffffffffffffffffffffffffffffffffffffffffffffffffffffffffffffffff",
        "nonce": "0x3bb",
        "chainId": "0x515"
      },
      "additionalContracts": [],
      "isFixedGasLimit": false
    },
    {
      "hash": "0x4211c6c0bea9c6a6a9bc389f668e2ffb65dca625fbd9fe3ac0d1c912406d2180",
      "transactionType": "CALL",
      "contractName": "MockERC20",
      "contractAddress": "0x472b75a8c71d981197c1cdc7e5e2a0037e8bd95f",
      "function": "approve(address,uint256)",
      "arguments": [
        "0x000000000022D473030F116dDEE9F6B43aC78BA3",
        "115792089237316195423570985008687907853269984665640564039457584007913129639935"
      ],
      "transaction": {
        "from": "0x4b992f2fbf714c0fcbb23bac5130ace48cad00cd",
        "to": "0x472b75a8c71d981197c1cdc7e5e2a0037e8bd95f",
        "gas": "0x10939",
        "value": "0x0",
        "input": "0x095ea7b3000000000000000000000000000000000022d473030f116ddee9f6b43ac78ba3ffffffffffffffffffffffffffffffffffffffffffffffffffffffffffffffff",
        "nonce": "0x3bc",
        "chainId": "0x515"
      },
      "additionalContracts": [],
      "isFixedGasLimit": false
    },
    {
      "hash": "0x330f8a925d62249bb830a9b4986a6fc530959698b96ff497506e079bd20acaf5",
      "transactionType": "CALL",
      "contractName": "MockERC20",
      "contractAddress": "0x0a42e3ce7a6c4b504937b4377a6f9afbe84b1653",
      "function": "approve(address,uint256)",
      "arguments": [
        "0xf969Aee60879C54bAAed9F3eD26147Db216Fd664",
        "115792089237316195423570985008687907853269984665640564039457584007913129639935"
      ],
      "transaction": {
        "from": "0x4b992f2fbf714c0fcbb23bac5130ace48cad00cd",
        "to": "0x0a42e3ce7a6c4b504937b4377a6f9afbe84b1653",
        "gas": "0xfad0",
        "value": "0x0",
        "input": "0x095ea7b3000000000000000000000000f969aee60879c54baaed9f3ed26147db216fd664ffffffffffffffffffffffffffffffffffffffffffffffffffffffffffffffff",
        "nonce": "0x3bd",
        "chainId": "0x515"
      },
      "additionalContracts": [],
      "isFixedGasLimit": false
    },
    {
      "hash": "0xb92d03cf6b21555f7573107cd056fd529e10f968422f23ae9ff184ea1a11a442",
      "transactionType": "CALL",
      "contractName": "MockERC20",
      "contractAddress": "0x472b75a8c71d981197c1cdc7e5e2a0037e8bd95f",
      "function": "approve(address,uint256)",
      "arguments": [
        "0xf969Aee60879C54bAAed9F3eD26147Db216Fd664",
        "115792089237316195423570985008687907853269984665640564039457584007913129639935"
      ],
      "transaction": {
        "from": "0x4b992f2fbf714c0fcbb23bac5130ace48cad00cd",
        "to": "0x472b75a8c71d981197c1cdc7e5e2a0037e8bd95f",
        "gas": "0xfad0",
        "value": "0x0",
        "input": "0x095ea7b3000000000000000000000000f969aee60879c54baaed9f3ed26147db216fd664ffffffffffffffffffffffffffffffffffffffffffffffffffffffffffffffff",
        "nonce": "0x3be",
        "chainId": "0x515"
      },
      "additionalContracts": [],
      "isFixedGasLimit": false
    },
    {
      "hash": "0x2b420d61566c243f1e4c2e7a30d624ee5e40dc39435d0e5e1cb4dac85ae9c9f5",
      "transactionType": "CALL",
      "contractName": null,
      "contractAddress": "0x000000000022d473030f116ddee9f6b43ac78ba3",
      "function": "approve(address,address,uint160,uint48)",
      "arguments": [
        "0x0a42E3ce7a6C4b504937b4377a6F9aFbE84B1653",
        "0xf969Aee60879C54bAAed9F3eD26147Db216Fd664",
        "1461501637330902918203684832716283019655932542975",
        "281474976710655"
      ],
      "transaction": {
        "from": "0x4b992f2fbf714c0fcbb23bac5130ace48cad00cd",
        "to": "0x000000000022d473030f116ddee9f6b43ac78ba3",
        "gas": "0x1112d",
        "value": "0x0",
        "input": "0x87517c450000000000000000000000000a42e3ce7a6c4b504937b4377a6f9afbe84b1653000000000000000000000000f969aee60879c54baaed9f3ed26147db216fd664000000000000000000000000ffffffffffffffffffffffffffffffffffffffff0000000000000000000000000000000000000000000000000000ffffffffffff",
        "nonce": "0x3bf",
        "chainId": "0x515"
      },
      "additionalContracts": [],
      "isFixedGasLimit": false
    },
    {
      "hash": "0x650632f0a2a23fc5bc911005d68a9952a44d5665e2d46c62b436ce79794dcb3b",
      "transactionType": "CALL",
      "contractName": null,
      "contractAddress": "0x000000000022d473030f116ddee9f6b43ac78ba3",
      "function": "approve(address,address,uint160,uint48)",
      "arguments": [
        "0x472B75a8C71D981197c1CdC7e5E2a0037e8Bd95F",
        "0xf969Aee60879C54bAAed9F3eD26147Db216Fd664",
        "1461501637330902918203684832716283019655932542975",
        "281474976710655"
      ],
      "transaction": {
        "from": "0x4b992f2fbf714c0fcbb23bac5130ace48cad00cd",
        "to": "0x000000000022d473030f116ddee9f6b43ac78ba3",
        "gas": "0x1112d",
        "value": "0x0",
        "input": "0x87517c45000000000000000000000000472b75a8c71d981197c1cdc7e5e2a0037e8bd95f000000000000000000000000f969aee60879c54baaed9f3ed26147db216fd664000000000000000000000000ffffffffffffffffffffffffffffffffffffffff0000000000000000000000000000000000000000000000000000ffffffffffff",
        "nonce": "0x3c0",
        "chainId": "0x515"
      },
      "additionalContracts": [],
      "isFixedGasLimit": false
    },
    {
      "hash": "0x9ae3ab236fb415089377673bfea47ac1b92ab1db0adef7007f3633cb8197bc96",
      "transactionType": "CALL",
      "contractName": null,
      "contractAddress": "0xf969aee60879c54baaed9f3ed26147db216fd664",
      "function": "initializePool((address,address,uint24,int24,address),uint160)",
      "arguments": [
        "(0x0a42E3ce7a6C4b504937b4377a6F9aFbE84B1653, 0x472B75a8C71D981197c1CdC7e5E2a0037e8Bd95F, 3000, 60, 0x0000000000000000000000000000000000000000)",
        "79228162514264337593543950336"
      ],
      "transaction": {
        "from": "0x4b992f2fbf714c0fcbb23bac5130ace48cad00cd",
        "to": "0xf969aee60879c54baaed9f3ed26147db216fd664",
        "gas": "0x12e9d",
        "value": "0x0",
        "input": "0xf70204050000000000000000000000000a42e3ce7a6c4b504937b4377a6f9afbe84b1653000000000000000000000000472b75a8c71d981197c1cdc7e5e2a0037e8bd95f0000000000000000000000000000000000000000000000000000000000000bb8000000000000000000000000000000000000000000000000000000000000003c00000000000000000000000000000000000000000000000000000000000000000000000000000000000000000000000000000001000000000000000000000000",
        "nonce": "0x3c1",
        "chainId": "0x515"
      },
      "additionalContracts": [],
      "isFixedGasLimit": false
    },
    {
      "hash": "0xd45c76f649da44ddafcba89f68744c58af1074ee2ad09e2f0101b10f55a34e80",
      "transactionType": "CALL",
      "contractName": null,
      "contractAddress": "0xf969aee60879c54baaed9f3ed26147db216fd664",
      "function": "modifyLiquidities(bytes,uint256)",
      "arguments": [
        "0x000000000000000000000000000000000000000000000000000000000000004000000000000000000000000000000000000000000000000000000000000000800000000000000000000000000000000000000000000000000000000000000004020d14140000000000000000000000000000000000000000000000000000000000000000000000000000000000000000000000000000000000000000000000040000000000000000000000000000000000000000000000000000000000000080000000000000000000000000000000000000000000000000000000000000024000000000000000000000000000000000000000000000000000000000000002a0000000000000000000000000000000000000000000000000000000000000030000000000000000000000000000000000000000000000000000000000000001a00000000000000000000000000a42e3ce7a6c4b504937b4377a6f9afbe84b1653000000000000000000000000472b75a8c71d981197c1cdc7e5e2a0037e8bd95f0000000000000000000000000000000000000000000000000000000000000bb8000000000000000000000000000000000000000000000000000000000000003c0000000000000000000000000000000000000000000000000000000000000000fffffffffffffffffffffffffffffffffffffffffffffffffffffffffff2764c00000000000000000000000000000000000000000000000000000000000d89b400000000000000000000000000000000000000000000d3c21bcecceda100000000000000000000000000000000000000000000000000d3c21bcecceda0ff2baf00000000000000000000000000000000000000000000d3c21bcecceda0ff2baf0000000000000000000000004b992f2fbf714c0fcbb23bac5130ace48cad00cd0000000000000000000000000000000000000000000000000000000000000180000000000000000000000000000000000000000000000000000000000000000000000000000000000000000000000000000000000000000000000000000000400000000000000000000000000a42e3ce7a6c4b504937b4377a6f9afbe84b1653000000000000000000000000472b75a8c71d981197c1cdc7e5e2a0037e8bd95f00000000000000000000000000000000000000000000000000000000000000400000000000000000000000000a42e3ce7a6c4b504937b4377a6f9afbe84b16530000000000000000000000004b992f2fbf714c0fcbb23bac5130ace48cad00cd0000000000000000000000000000000000000000000000000000000000000040000000000000000000000000472b75a8c71d981197c1cdc7e5e2a0037e8bd95f0000000000000000000000004b992f2fbf714c0fcbb23bac5130ace48cad00cd",
        "1773564773"
      ],
      "transaction": {
        "from": "0x4b992f2fbf714c0fcbb23bac5130ace48cad00cd",
        "to": "0xf969aee60879c54baaed9f3ed26147db216fd664",
        "gas": "0x8b692",
        "value": "0x0",
        "input": "0xdd46508f00000000000000000000000000000000000000000000000000000000000000400000000000000000000000000000000000000000000000000000000069b673650000000000000000000000000000000000000000000000000000000000000400000000000000000000000000000000000000000000000000000000000000004000000000000000000000000000000000000000000000000000000000000000800000000000000000000000000000000000000000000000000000000000000004020d14140000000000000000000000000000000000000000000000000000000000000000000000000000000000000000000000000000000000000000000000040000000000000000000000000000000000000000000000000000000000000080000000000000000000000000000000000000000000000000000000000000024000000000000000000000000000000000000000000000000000000000000002a0000000000000000000000000000000000000000000000000000000000000030000000000000000000000000000000000000000000000000000000000000001a00000000000000000000000000a42e3ce7a6c4b504937b4377a6f9afbe84b1653000000000000000000000000472b75a8c71d981197c1cdc7e5e2a0037e8bd95f0000000000000000000000000000000000000000000000000000000000000bb8000000000000000000000000000000000000000000000000000000000000003c0000000000000000000000000000000000000000000000000000000000000000fffffffffffffffffffffffffffffffffffffffffffffffffffffffffff2764c00000000000000000000000000000000000000000000000000000000000d89b400000000000000000000000000000000000000000000d3c21bcecceda100000000000000000000000000000000000000000000000000d3c21bcecceda0ff2baf00000000000000000000000000000000000000000000d3c21bcecceda0ff2baf0000000000000000000000004b992f2fbf714c0fcbb23bac5130ace48cad00cd0000000000000000000000000000000000000000000000000000000000000180000000000000000000000000000000000000000000000000000000000000000000000000000000000000000000000000000000000000000000000000000000400000000000000000000000000a42e3ce7a6c4b504937b4377a6f9afbe84b1653000000000000000000000000472b75a8c71d981197c1cdc7e5e2a0037e8bd95f00000000000000000000000000000000000000000000000000000000000000400000000000000000000000000a42e3ce7a6c4b504937b4377a6f9afbe84b16530000000000000000000000004b992f2fbf714c0fcbb23bac5130ace48cad00cd0000000000000000000000000000000000000000000000000000000000000040000000000000000000000000472b75a8c71d981197c1cdc7e5e2a0037e8bd95f0000000000000000000000004b992f2fbf714c0fcbb23bac5130ace48cad00cd",
        "nonce": "0x3c2",
        "chainId": "0x515"
      },
      "additionalContracts": [],
      "isFixedGasLimit": false
    },
    {
      "hash": "0xcf747e829cee09ab997a68dd7802def529e4450f71ab95abc6f5511e55b89986",
      "transactionType": "CALL",
      "contractName": null,
      "contractAddress": "0xf969aee60879c54baaed9f3ed26147db216fd664",
      "function": "initializePool((address,address,uint24,int24,address),uint160)",
      "arguments": [
        "(0x0a42E3ce7a6C4b504937b4377a6F9aFbE84B1653, 0x472B75a8C71D981197c1CdC7e5E2a0037e8Bd95F, 3000, 60, 0xBF42f398561644Eb55A7269dA0F937D0512c40c0)",
        "79228162514264337593543950336"
      ],
      "transaction": {
        "from": "0x4b992f2fbf714c0fcbb23bac5130ace48cad00cd",
        "to": "0xf969aee60879c54baaed9f3ed26147db216fd664",
        "gas": "0x14192",
        "value": "0x0",
        "input": "0xf70204050000000000000000000000000a42e3ce7a6c4b504937b4377a6f9afbe84b1653000000000000000000000000472b75a8c71d981197c1cdc7e5e2a0037e8bd95f0000000000000000000000000000000000000000000000000000000000000bb8000000000000000000000000000000000000000000000000000000000000003c000000000000000000000000bf42f398561644eb55a7269da0f937d0512c40c00000000000000000000000000000000000000001000000000000000000000000",
        "nonce": "0x3c3",
        "chainId": "0x515"
      },
      "additionalContracts": [],
      "isFixedGasLimit": false
    },
    {
      "hash": "0x1ae9092e7cfd7c1c14d66ff3482d56b27ec3d516f2911c85be2a10e6d521de1b",
      "transactionType": "CALL",
      "contractName": null,
      "contractAddress": "0xf969aee60879c54baaed9f3ed26147db216fd664",
      "function": "modifyLiquidities(bytes,uint256)",
      "arguments": [
        "0x000000000000000000000000000000000000000000000000000000000000004000000000000000000000000000000000000000000000000000000000000000800000000000000000000000000000000000000000000000000000000000000004020d14140000000000000000000000000000000000000000000000000000000000000000000000000000000000000000000000000000000000000000000000040000000000000000000000000000000000000000000000000000000000000080000000000000000000000000000000000000000000000000000000000000024000000000000000000000000000000000000000000000000000000000000002a0000000000000000000000000000000000000000000000000000000000000030000000000000000000000000000000000000000000000000000000000000001a00000000000000000000000000a42e3ce7a6c4b504937b4377a6f9afbe84b1653000000000000000000000000472b75a8c71d981197c1cdc7e5e2a0037e8bd95f0000000000000000000000000000000000000000000000000000000000000bb8000000000000000000000000000000000000000000000000000000000000003c000000000000000000000000bf42f398561644eb55a7269da0f937d0512c40c0fffffffffffffffffffffffffffffffffffffffffffffffffffffffffff2764c00000000000000000000000000000000000000000000000000000000000d89b400000000000000000000000000000000000000000000d3c21bcecceda100000000000000000000000000000000000000000000000000d3c21bcecceda0ff2baf00000000000000000000000000000000000000000000d3c21bcecceda0ff2baf0000000000000000000000004b992f2fbf714c0fcbb23bac5130ace48cad00cd0000000000000000000000000000000000000000000000000000000000000180000000000000000000000000000000000000000000000000000000000000000000000000000000000000000000000000000000000000000000000000000000400000000000000000000000000a42e3ce7a6c4b504937b4377a6f9afbe84b1653000000000000000000000000472b75a8c71d981197c1cdc7e5e2a0037e8bd95f00000000000000000000000000000000000000000000000000000000000000400000000000000000000000000a42e3ce7a6c4b504937b4377a6f9afbe84b16530000000000000000000000004b992f2fbf714c0fcbb23bac5130ace48cad00cd0000000000000000000000000000000000000000000000000000000000000040000000000000000000000000472b75a8c71d981197c1cdc7e5e2a0037e8bd95f0000000000000000000000004b992f2fbf714c0fcbb23bac5130ace48cad00cd",
        "1773564773"
      ],
      "transaction": {
        "from": "0x4b992f2fbf714c0fcbb23bac5130ace48cad00cd",
        "to": "0xf969aee60879c54baaed9f3ed26147db216fd664",
        "gas": "0x8e975",
        "value": "0x0",
        "input": "0xdd46508f00000000000000000000000000000000000000000000000000000000000000400000000000000000000000000000000000000000000000000000000069b673650000000000000000000000000000000000000000000000000000000000000400000000000000000000000000000000000000000000000000000000000000004000000000000000000000000000000000000000000000000000000000000000800000000000000000000000000000000000000000000000000000000000000004020d14140000000000000000000000000000000000000000000000000000000000000000000000000000000000000000000000000000000000000000000000040000000000000000000000000000000000000000000000000000000000000080000000000000000000000000000000000000000000000000000000000000024000000000000000000000000000000000000000000000000000000000000002a0000000000000000000000000000000000000000000000000000000000000030000000000000000000000000000000000000000000000000000000000000001a00000000000000000000000000a42e3ce7a6c4b504937b4377a6f9afbe84b1653000000000000000000000000472b75a8c71d981197c1cdc7e5e2a0037e8bd95f0000000000000000000000000000000000000000000000000000000000000bb8000000000000000000000000000000000000000000000000000000000000003c000000000000000000000000bf42f398561644eb55a7269da0f937d0512c40c0fffffffffffffffffffffffffffffffffffffffffffffffffffffffffff2764c00000000000000000000000000000000000000000000000000000000000d89b400000000000000000000000000000000000000000000d3c21bcecceda100000000000000000000000000000000000000000000000000d3c21bcecceda0ff2baf00000000000000000000000000000000000000000000d3c21bcecceda0ff2baf0000000000000000000000004b992f2fbf714c0fcbb23bac5130ace48cad00cd0000000000000000000000000000000000000000000000000000000000000180000000000000000000000000000000000000000000000000000000000000000000000000000000000000000000000000000000000000000000000000000000400000000000000000000000000a42e3ce7a6c4b504937b4377a6f9afbe84b1653000000000000000000000000472b75a8c71d981197c1cdc7e5e2a0037e8bd95f00000000000000000000000000000000000000000000000000000000000000400000000000000000000000000a42e3ce7a6c4b504937b4377a6f9afbe84b16530000000000000000000000004b992f2fbf714c0fcbb23bac5130ace48cad00cd0000000000000000000000000000000000000000000000000000000000000040000000000000000000000000472b75a8c71d981197c1cdc7e5e2a0037e8bd95f0000000000000000000000004b992f2fbf714c0fcbb23bac5130ace48cad00cd",
        "nonce": "0x3c4",
        "chainId": "0x515"
      },
      "additionalContracts": [],
      "isFixedGasLimit": false
    },
    {
      "hash": "0x0e1025ff853b5f5571ef54b202a78951730c83af82c53b9a231916d47fd86308",
      "transactionType": "CALL",
      "contractName": "MockERC20",
      "contractAddress": "0x0a42e3ce7a6c4b504937b4377a6f9afbe84b1653",
      "function": "approve(address,uint256)",
      "arguments": [
        "0x9cD2b0a732dd5e023a5539921e0FD1c30E198Dba",
        "115792089237316195423570985008687907853269984665640564039457584007913129639935"
      ],
      "transaction": {
        "from": "0x4b992f2fbf714c0fcbb23bac5130ace48cad00cd",
        "to": "0x0a42e3ce7a6c4b504937b4377a6f9afbe84b1653",
        "gas": "0xfad0",
        "value": "0x0",
        "input": "0x095ea7b30000000000000000000000009cd2b0a732dd5e023a5539921e0fd1c30e198dbaffffffffffffffffffffffffffffffffffffffffffffffffffffffffffffffff",
        "nonce": "0x3c5",
        "chainId": "0x515"
      },
      "additionalContracts": [],
      "isFixedGasLimit": false
    },
    {
      "hash": "0xa5e9b62f1f4aae498a992ab599fc57cc92a61c3d49b11f89fc0770327fa0e7a7",
      "transactionType": "CALL",
      "contractName": "MockERC20",
      "contractAddress": "0x0a42e3ce7a6c4b504937b4377a6f9afbe84b1653",
      "function": "approve(address,uint256)",
      "arguments": [
        "0x493a90b1eA1bCbe2c6AB5af70928C82051B5e726",
        "115792089237316195423570985008687907853269984665640564039457584007913129639935"
      ],
      "transaction": {
        "from": "0x4b992f2fbf714c0fcbb23bac5130ace48cad00cd",
        "to": "0x0a42e3ce7a6c4b504937b4377a6f9afbe84b1653",
        "gas": "0xfad0",
        "value": "0x0",
        "input": "0x095ea7b3000000000000000000000000493a90b1ea1bcbe2c6ab5af70928c82051b5e726ffffffffffffffffffffffffffffffffffffffffffffffffffffffffffffffff",
        "nonce": "0x3c6",
        "chainId": "0x515"
      },
      "additionalContracts": [],
      "isFixedGasLimit": false
    },
    {
      "hash": "0xe77f550e22e29dfea62a56ad79239dee774a617fb27590c2af94f82e65348083",
      "transactionType": "CALL",
      "contractName": null,
      "contractAddress": "0x9cd2b0a732dd5e023a5539921e0fd1c30e198dba",
      "function": "swapExactTokensForTokens(uint256,uint256,bool,(address,address,uint24,int24,address),bytes,address,uint256)",
      "arguments": [
        "50000000000000000000",
        "1",
        "true",
        "(0x0a42E3ce7a6C4b504937b4377a6F9aFbE84B1653, 0x472B75a8C71D981197c1CdC7e5E2a0037e8Bd95F, 3000, 60, 0x0000000000000000000000000000000000000000)",
        "0x",
        "0x4b992F2Fbf714C0fCBb23baC5130Ace48CaD00cd",
        "1773564773"
      ],
      "transaction": {
        "from": "0x4b992f2fbf714c0fcbb23bac5130ace48cad00cd",
        "to": "0x9cd2b0a732dd5e023a5539921e0fd1c30e198dba",
        "gas": "0x2ad99",
        "value": "0x0",
        "input": "0xb1a0d571000000000000000000000000000000000000000000000002b5e3af16b1880000000000000000000000000000000000000000000000000000000000000000000100000000000000000000000000000000000000000000000000000000000000010000000000000000000000000a42e3ce7a6c4b504937b4377a6f9afbe84b1653000000000000000000000000472b75a8c71d981197c1cdc7e5e2a0037e8bd95f0000000000000000000000000000000000000000000000000000000000000bb8000000000000000000000000000000000000000000000000000000000000003c000000000000000000000000000000000000000000000000000000000000000000000000000000000000000000000000000000000000000000000000000001600000000000000000000000004b992f2fbf714c0fcbb23bac5130ace48cad00cd0000000000000000000000000000000000000000000000000000000069b673650000000000000000000000000000000000000000000000000000000000000000",
        "nonce": "0x3c7",
        "chainId": "0x515"
      },
      "additionalContracts": [],
      "isFixedGasLimit": false
    },
    {
      "hash": "0xaa8730fbced79836653d2feb9bbf2d0a8da08106da00de9ca55d63bc1eaef9e9",
      "transactionType": "CALL",
      "contractName": null,
      "contractAddress": "0x493a90b1ea1bcbe2c6ab5af70928c82051b5e726",
      "function": "createOrder((bytes32,address,address,bool,uint128,uint8,uint40,uint40,uint32,uint32,uint128,uint128,uint24,uint128,address))",
      "arguments": [
        "(0x9989c9c6eaafff0e2642a1824118c3d60086981050dd964e817de3b658fb7d7d, 0x0a42E3ce7a6C4b504937b4377a6F9aFbE84B1653, 0x472B75a8C71D981197c1CdC7e5E2a0037e8Bd95F, true, 50000000000000000000, 0, 1773564173, 1773571373, 0, 1, 10000000000000000000, 10000000000000000000, 500, 1, 0x0000000000000000000000000000000000000000)"
      ],
      "transaction": {
        "from": "0x4b992f2fbf714c0fcbb23bac5130ace48cad00cd",
        "to": "0x493a90b1ea1bcbe2c6ab5af70928c82051b5e726",
        "gas": "0x62a82",
        "value": "0x0",
        "input": "0xe72aff3f9989c9c6eaafff0e2642a1824118c3d60086981050dd964e817de3b658fb7d7d0000000000000000000000000a42e3ce7a6c4b504937b4377a6f9afbe84b1653000000000000000000000000472b75a8c71d981197c1cdc7e5e2a0037e8bd95f0000000000000000000000000000000000000000000000000000000000000001000000000000000000000000000000000000000000000002b5e3af16b188000000000000000000000000000000000000000000000000000000000000000000000000000000000000000000000000000000000000000000000000000069b6710d0000000000000000000000000000000000000000000000000000000069b68d2d000000000000000000000000000000000000000000000000000000000000000000000000000000000000000000000000000000000000000000000000000000010000000000000000000000000000000000000000000000008ac7230489e800000000000000000000000000000000000000000000000000008ac7230489e8000000000000000000000000000000000000000000000000000000000000000001f400000000000000000000000000000000000000000000000000000000000000010000000000000000000000000000000000000000000000000000000000000000",
        "nonce": "0x3c8",
        "chainId": "0x515"
      },
      "additionalContracts": [],
      "isFixedGasLimit": false
    },
    {
      "hash": "0xe152d7a6cb7e1092009d680e7a908408309d6df85ec2e5fb6e25a616de7b8487",
      "transactionType": "CALL",
      "contractName": null,
      "contractAddress": "0xe56a90ad0deab20ee9fcd780b14ca90fc71d3f5d",
      "function": "executeNextSlice((bytes32,(address,address,uint24,int24,address),uint24,uint160,uint40))",
      "arguments": [
        "(0xc367f0c131d919f7bbb9d871f4df1ffe66429945153845ca67ffb2e37729053a, (0x0a42E3ce7a6C4b504937b4377a6F9aFbE84B1653, 0x472B75a8C71D981197c1CdC7e5E2a0037e8Bd95F, 3000, 60, 0xBF42f398561644Eb55A7269dA0F937D0512c40c0), 50, 4295128740, 1773564773)"
      ],
      "transaction": {
        "from": "0x4b992f2fbf714c0fcbb23bac5130ace48cad00cd",
        "to": "0xe56a90ad0deab20ee9fcd780b14ca90fc71d3f5d",
        "gas": "0x610ea",
        "value": "0x0",
        "input": "0xdee73244c367f0c131d919f7bbb9d871f4df1ffe66429945153845ca67ffb2e37729053a0000000000000000000000000a42e3ce7a6c4b504937b4377a6f9afbe84b1653000000000000000000000000472b75a8c71d981197c1cdc7e5e2a0037e8bd95f0000000000000000000000000000000000000000000000000000000000000bb8000000000000000000000000000000000000000000000000000000000000003c000000000000000000000000bf42f398561644eb55a7269da0f937d0512c40c0000000000000000000000000000000000000000000000000000000000000003200000000000000000000000000000000000000000000000000000001000276a40000000000000000000000000000000000000000000000000000000069b67365",
        "nonce": "0x3c9",
        "chainId": "0x515"
      },
      "additionalContracts": [],
      "isFixedGasLimit": false
    },
    {
      "hash": "0x85a6552d0d389595268e0eb650f8098059e1c5f933310c40456629a54a3d42fe",
      "transactionType": "CALL",
      "contractName": null,
      "contractAddress": "0xe56a90ad0deab20ee9fcd780b14ca90fc71d3f5d",
      "function": "executeNextSlice((bytes32,(address,address,uint24,int24,address),uint24,uint160,uint40))",
      "arguments": [
        "(0xc367f0c131d919f7bbb9d871f4df1ffe66429945153845ca67ffb2e37729053a, (0x0a42E3ce7a6C4b504937b4377a6F9aFbE84B1653, 0x472B75a8C71D981197c1CdC7e5E2a0037e8Bd95F, 3000, 60, 0xBF42f398561644Eb55A7269dA0F937D0512c40c0), 50, 4295128740, 1773564773)"
      ],
      "transaction": {
        "from": "0x4b992f2fbf714c0fcbb23bac5130ace48cad00cd",
        "to": "0xe56a90ad0deab20ee9fcd780b14ca90fc71d3f5d",
        "gas": "0x16d2d",
        "value": "0x0",
        "input": "0xdee73244c367f0c131d919f7bbb9d871f4df1ffe66429945153845ca67ffb2e37729053a0000000000000000000000000a42e3ce7a6c4b504937b4377a6f9afbe84b1653000000000000000000000000472b75a8c71d981197c1cdc7e5e2a0037e8bd95f0000000000000000000000000000000000000000000000000000000000000bb8000000000000000000000000000000000000000000000000000000000000003c000000000000000000000000bf42f398561644eb55a7269da0f937d0512c40c0000000000000000000000000000000000000000000000000000000000000003200000000000000000000000000000000000000000000000000000001000276a40000000000000000000000000000000000000000000000000000000069b67365",
        "nonce": "0x3ca",
        "chainId": "0x515"
      },
      "additionalContracts": [],
      "isFixedGasLimit": false
    },
    {
      "hash": "0xba244398300c07381449a33adb9bcf9e17258b28efb8141fc7c63dd3194c81f8",
      "transactionType": "CALL",
      "contractName": null,
      "contractAddress": "0xe56a90ad0deab20ee9fcd780b14ca90fc71d3f5d",
      "function": "executeNextSlice((bytes32,(address,address,uint24,int24,address),uint24,uint160,uint40))",
      "arguments": [
        "(0xc367f0c131d919f7bbb9d871f4df1ffe66429945153845ca67ffb2e37729053a, (0x0a42E3ce7a6C4b504937b4377a6F9aFbE84B1653, 0x472B75a8C71D981197c1CdC7e5E2a0037e8Bd95F, 3000, 60, 0xBF42f398561644Eb55A7269dA0F937D0512c40c0), 50, 4295128740, 1773564773)"
      ],
      "transaction": {
        "from": "0x4b992f2fbf714c0fcbb23bac5130ace48cad00cd",
        "to": "0xe56a90ad0deab20ee9fcd780b14ca90fc71d3f5d",
        "gas": "0x16d2d",
        "value": "0x0",
        "input": "0xdee73244c367f0c131d919f7bbb9d871f4df1ffe66429945153845ca67ffb2e37729053a0000000000000000000000000a42e3ce7a6c4b504937b4377a6f9afbe84b1653000000000000000000000000472b75a8c71d981197c1cdc7e5e2a0037e8bd95f0000000000000000000000000000000000000000000000000000000000000bb8000000000000000000000000000000000000000000000000000000000000003c000000000000000000000000bf42f398561644eb55a7269da0f937d0512c40c0000000000000000000000000000000000000000000000000000000000000003200000000000000000000000000000000000000000000000000000001000276a40000000000000000000000000000000000000000000000000000000069b67365",
        "nonce": "0x3cb",
        "chainId": "0x515"
      },
      "additionalContracts": [],
      "isFixedGasLimit": false
    },
    {
      "hash": "0x2e180897b98b3bd562ab043b34a6b84f3ef24467fc6b9bcaabab6ed992b1b7b9",
      "transactionType": "CALL",
      "contractName": null,
      "contractAddress": "0xe56a90ad0deab20ee9fcd780b14ca90fc71d3f5d",
      "function": "executeNextSlice((bytes32,(address,address,uint24,int24,address),uint24,uint160,uint40))",
      "arguments": [
        "(0xc367f0c131d919f7bbb9d871f4df1ffe66429945153845ca67ffb2e37729053a, (0x0a42E3ce7a6C4b504937b4377a6F9aFbE84B1653, 0x472B75a8C71D981197c1CdC7e5E2a0037e8Bd95F, 3000, 60, 0xBF42f398561644Eb55A7269dA0F937D0512c40c0), 50, 4295128740, 1773564773)"
      ],
      "transaction": {
        "from": "0x4b992f2fbf714c0fcbb23bac5130ace48cad00cd",
        "to": "0xe56a90ad0deab20ee9fcd780b14ca90fc71d3f5d",
        "gas": "0x16d2d",
        "value": "0x0",
        "input": "0xdee73244c367f0c131d919f7bbb9d871f4df1ffe66429945153845ca67ffb2e37729053a0000000000000000000000000a42e3ce7a6c4b504937b4377a6f9afbe84b1653000000000000000000000000472b75a8c71d981197c1cdc7e5e2a0037e8bd95f0000000000000000000000000000000000000000000000000000000000000bb8000000000000000000000000000000000000000000000000000000000000003c000000000000000000000000bf42f398561644eb55a7269da0f937d0512c40c0000000000000000000000000000000000000000000000000000000000000003200000000000000000000000000000000000000000000000000000001000276a40000000000000000000000000000000000000000000000000000000069b67365",
        "nonce": "0x3cc",
        "chainId": "0x515"
      },
      "additionalContracts": [],
      "isFixedGasLimit": false
    },
    {
      "hash": "0xd285238e8a448045804ddb60e960196f9852dc7c646eb2fa8d727a2bcdcb2c77",
      "transactionType": "CALL",
      "contractName": null,
      "contractAddress": "0xe56a90ad0deab20ee9fcd780b14ca90fc71d3f5d",
      "function": "executeNextSlice((bytes32,(address,address,uint24,int24,address),uint24,uint160,uint40))",
      "arguments": [
        "(0xc367f0c131d919f7bbb9d871f4df1ffe66429945153845ca67ffb2e37729053a, (0x0a42E3ce7a6C4b504937b4377a6F9aFbE84B1653, 0x472B75a8C71D981197c1CdC7e5E2a0037e8Bd95F, 3000, 60, 0xBF42f398561644Eb55A7269dA0F937D0512c40c0), 50, 4295128740, 1773564773)"
      ],
      "transaction": {
        "from": "0x4b992f2fbf714c0fcbb23bac5130ace48cad00cd",
        "to": "0xe56a90ad0deab20ee9fcd780b14ca90fc71d3f5d",
        "gas": "0x16d2d",
        "value": "0x0",
        "input": "0xdee73244c367f0c131d919f7bbb9d871f4df1ffe66429945153845ca67ffb2e37729053a0000000000000000000000000a42e3ce7a6c4b504937b4377a6f9afbe84b1653000000000000000000000000472b75a8c71d981197c1cdc7e5e2a0037e8bd95f0000000000000000000000000000000000000000000000000000000000000bb8000000000000000000000000000000000000000000000000000000000000003c000000000000000000000000bf42f398561644eb55a7269da0f937d0512c40c0000000000000000000000000000000000000000000000000000000000000003200000000000000000000000000000000000000000000000000000001000276a40000000000000000000000000000000000000000000000000000000069b67365",
        "nonce": "0x3cd",
        "chainId": "0x515"
      },
      "additionalContracts": [],
      "isFixedGasLimit": false
    },
    {
      "hash": "0xa46b42c74497839bf5464924310e0faf65d2bd68f474db46806249637de6ca29",
      "transactionType": "CALL",
      "contractName": null,
      "contractAddress": "0xe56a90ad0deab20ee9fcd780b14ca90fc71d3f5d",
      "function": "executeNextSlice((bytes32,(address,address,uint24,int24,address),uint24,uint160,uint40))",
      "arguments": [
        "(0xc367f0c131d919f7bbb9d871f4df1ffe66429945153845ca67ffb2e37729053a, (0x0a42E3ce7a6C4b504937b4377a6F9aFbE84B1653, 0x472B75a8C71D981197c1CdC7e5E2a0037e8Bd95F, 3000, 60, 0xBF42f398561644Eb55A7269dA0F937D0512c40c0), 50, 4295128740, 1773564773)"
      ],
      "transaction": {
        "from": "0x4b992f2fbf714c0fcbb23bac5130ace48cad00cd",
        "to": "0xe56a90ad0deab20ee9fcd780b14ca90fc71d3f5d",
        "gas": "0x16d2d",
        "value": "0x0",
        "input": "0xdee73244c367f0c131d919f7bbb9d871f4df1ffe66429945153845ca67ffb2e37729053a0000000000000000000000000a42e3ce7a6c4b504937b4377a6f9afbe84b1653000000000000000000000000472b75a8c71d981197c1cdc7e5e2a0037e8bd95f0000000000000000000000000000000000000000000000000000000000000bb8000000000000000000000000000000000000000000000000000000000000003c000000000000000000000000bf42f398561644eb55a7269da0f937d0512c40c0000000000000000000000000000000000000000000000000000000000000003200000000000000000000000000000000000000000000000000000001000276a40000000000000000000000000000000000000000000000000000000069b67365",
        "nonce": "0x3ce",
        "chainId": "0x515"
      },
      "additionalContracts": [],
      "isFixedGasLimit": false
    },
    {
      "hash": "0xc34a3237acdf099bb40dd185557308a2802857edd6f6a1dda57d9a10a78587d4",
      "transactionType": "CALL",
      "contractName": null,
      "contractAddress": "0xe56a90ad0deab20ee9fcd780b14ca90fc71d3f5d",
      "function": "executeNextSlice((bytes32,(address,address,uint24,int24,address),uint24,uint160,uint40))",
      "arguments": [
        "(0xc367f0c131d919f7bbb9d871f4df1ffe66429945153845ca67ffb2e37729053a, (0x0a42E3ce7a6C4b504937b4377a6F9aFbE84B1653, 0x472B75a8C71D981197c1CdC7e5E2a0037e8Bd95F, 3000, 60, 0xBF42f398561644Eb55A7269dA0F937D0512c40c0), 50, 4295128740, 1773564773)"
      ],
      "transaction": {
        "from": "0x4b992f2fbf714c0fcbb23bac5130ace48cad00cd",
        "to": "0xe56a90ad0deab20ee9fcd780b14ca90fc71d3f5d",
        "gas": "0x16d2d",
        "value": "0x0",
        "input": "0xdee73244c367f0c131d919f7bbb9d871f4df1ffe66429945153845ca67ffb2e37729053a0000000000000000000000000a42e3ce7a6c4b504937b4377a6f9afbe84b1653000000000000000000000000472b75a8c71d981197c1cdc7e5e2a0037e8bd95f0000000000000000000000000000000000000000000000000000000000000bb8000000000000000000000000000000000000000000000000000000000000003c000000000000000000000000bf42f398561644eb55a7269da0f937d0512c40c0000000000000000000000000000000000000000000000000000000000000003200000000000000000000000000000000000000000000000000000001000276a40000000000000000000000000000000000000000000000000000000069b67365",
        "nonce": "0x3cf",
        "chainId": "0x515"
      },
      "additionalContracts": [],
      "isFixedGasLimit": false
    },
    {
      "hash": "0x6b421cc37ff4e5a9d3944f30fc410f615017164303b24d3c80f94ac39479b894",
      "transactionType": "CALL",
      "contractName": null,
      "contractAddress": "0xe56a90ad0deab20ee9fcd780b14ca90fc71d3f5d",
      "function": "executeNextSlice((bytes32,(address,address,uint24,int24,address),uint24,uint160,uint40))",
      "arguments": [
        "(0xc367f0c131d919f7bbb9d871f4df1ffe66429945153845ca67ffb2e37729053a, (0x0a42E3ce7a6C4b504937b4377a6F9aFbE84B1653, 0x472B75a8C71D981197c1CdC7e5E2a0037e8Bd95F, 3000, 60, 0xBF42f398561644Eb55A7269dA0F937D0512c40c0), 50, 4295128740, 1773564773)"
      ],
      "transaction": {
        "from": "0x4b992f2fbf714c0fcbb23bac5130ace48cad00cd",
        "to": "0xe56a90ad0deab20ee9fcd780b14ca90fc71d3f5d",
        "gas": "0x16d2d",
        "value": "0x0",
        "input": "0xdee73244c367f0c131d919f7bbb9d871f4df1ffe66429945153845ca67ffb2e37729053a0000000000000000000000000a42e3ce7a6c4b504937b4377a6f9afbe84b1653000000000000000000000000472b75a8c71d981197c1cdc7e5e2a0037e8bd95f0000000000000000000000000000000000000000000000000000000000000bb8000000000000000000000000000000000000000000000000000000000000003c000000000000000000000000bf42f398561644eb55a7269da0f937d0512c40c0000000000000000000000000000000000000000000000000000000000000003200000000000000000000000000000000000000000000000000000001000276a40000000000000000000000000000000000000000000000000000000069b67365",
        "nonce": "0x3d0",
        "chainId": "0x515"
      },
      "additionalContracts": [],
      "isFixedGasLimit": false
    },
    {
      "hash": "0x46d9d6a476c68dfb1179dadb9b1b477684ed59367808999766dcbc0482522c60",
      "transactionType": "CALL",
      "contractName": null,
      "contractAddress": "0xe56a90ad0deab20ee9fcd780b14ca90fc71d3f5d",
      "function": "executeNextSlice((bytes32,(address,address,uint24,int24,address),uint24,uint160,uint40))",
      "arguments": [
        "(0xc367f0c131d919f7bbb9d871f4df1ffe66429945153845ca67ffb2e37729053a, (0x0a42E3ce7a6C4b504937b4377a6F9aFbE84B1653, 0x472B75a8C71D981197c1CdC7e5E2a0037e8Bd95F, 3000, 60, 0xBF42f398561644Eb55A7269dA0F937D0512c40c0), 50, 4295128740, 1773564773)"
      ],
      "transaction": {
        "from": "0x4b992f2fbf714c0fcbb23bac5130ace48cad00cd",
        "to": "0xe56a90ad0deab20ee9fcd780b14ca90fc71d3f5d",
        "gas": "0x16d2d",
        "value": "0x0",
        "input": "0xdee73244c367f0c131d919f7bbb9d871f4df1ffe66429945153845ca67ffb2e37729053a0000000000000000000000000a42e3ce7a6c4b504937b4377a6f9afbe84b1653000000000000000000000000472b75a8c71d981197c1cdc7e5e2a0037e8bd95f0000000000000000000000000000000000000000000000000000000000000bb8000000000000000000000000000000000000000000000000000000000000003c000000000000000000000000bf42f398561644eb55a7269da0f937d0512c40c0000000000000000000000000000000000000000000000000000000000000003200000000000000000000000000000000000000000000000000000001000276a40000000000000000000000000000000000000000000000000000000069b67365",
        "nonce": "0x3d1",
        "chainId": "0x515"
      },
      "additionalContracts": [],
      "isFixedGasLimit": false
    },
    {
      "hash": "0x2cfea9def92ad3a93240e6533e7a13602c97ebef7abd3884716fcf0ccac7ca8d",
      "transactionType": "CALL",
      "contractName": null,
      "contractAddress": "0xe56a90ad0deab20ee9fcd780b14ca90fc71d3f5d",
      "function": "executeNextSlice((bytes32,(address,address,uint24,int24,address),uint24,uint160,uint40))",
      "arguments": [
        "(0xc367f0c131d919f7bbb9d871f4df1ffe66429945153845ca67ffb2e37729053a, (0x0a42E3ce7a6C4b504937b4377a6F9aFbE84B1653, 0x472B75a8C71D981197c1CdC7e5E2a0037e8Bd95F, 3000, 60, 0xBF42f398561644Eb55A7269dA0F937D0512c40c0), 50, 4295128740, 1773564773)"
      ],
      "transaction": {
        "from": "0x4b992f2fbf714c0fcbb23bac5130ace48cad00cd",
        "to": "0xe56a90ad0deab20ee9fcd780b14ca90fc71d3f5d",
        "gas": "0x16d2d",
        "value": "0x0",
        "input": "0xdee73244c367f0c131d919f7bbb9d871f4df1ffe66429945153845ca67ffb2e37729053a0000000000000000000000000a42e3ce7a6c4b504937b4377a6f9afbe84b1653000000000000000000000000472b75a8c71d981197c1cdc7e5e2a0037e8bd95f0000000000000000000000000000000000000000000000000000000000000bb8000000000000000000000000000000000000000000000000000000000000003c000000000000000000000000bf42f398561644eb55a7269da0f937d0512c40c0000000000000000000000000000000000000000000000000000000000000003200000000000000000000000000000000000000000000000000000001000276a40000000000000000000000000000000000000000000000000000000069b67365",
        "nonce": "0x3d2",
        "chainId": "0x515"
      },
      "additionalContracts": [],
      "isFixedGasLimit": false
    },
    {
      "hash": "0xdb98a8b821d0ab705812035c5a973e987aacc334b568cd94ec93a8a28a9c0567",
      "transactionType": "CALL",
      "contractName": null,
      "contractAddress": "0xe56a90ad0deab20ee9fcd780b14ca90fc71d3f5d",
      "function": "executeNextSlice((bytes32,(address,address,uint24,int24,address),uint24,uint160,uint40))",
      "arguments": [
        "(0xc367f0c131d919f7bbb9d871f4df1ffe66429945153845ca67ffb2e37729053a, (0x0a42E3ce7a6C4b504937b4377a6F9aFbE84B1653, 0x472B75a8C71D981197c1CdC7e5E2a0037e8Bd95F, 3000, 60, 0xBF42f398561644Eb55A7269dA0F937D0512c40c0), 50, 4295128740, 1773564773)"
      ],
      "transaction": {
        "from": "0x4b992f2fbf714c0fcbb23bac5130ace48cad00cd",
        "to": "0xe56a90ad0deab20ee9fcd780b14ca90fc71d3f5d",
        "gas": "0x16d2d",
        "value": "0x0",
        "input": "0xdee73244c367f0c131d919f7bbb9d871f4df1ffe66429945153845ca67ffb2e37729053a0000000000000000000000000a42e3ce7a6c4b504937b4377a6f9afbe84b1653000000000000000000000000472b75a8c71d981197c1cdc7e5e2a0037e8bd95f0000000000000000000000000000000000000000000000000000000000000bb8000000000000000000000000000000000000000000000000000000000000003c000000000000000000000000bf42f398561644eb55a7269da0f937d0512c40c0000000000000000000000000000000000000000000000000000000000000003200000000000000000000000000000000000000000000000000000001000276a40000000000000000000000000000000000000000000000000000000069b67365",
        "nonce": "0x3d3",
        "chainId": "0x515"
      },
      "additionalContracts": [],
      "isFixedGasLimit": false
    },
    {
      "hash": "0x78a1de3dd8cdd525624766fd9927f0897afb24c4fff40d211821ef7b5ae99718",
      "transactionType": "CALL",
      "contractName": null,
      "contractAddress": "0xe56a90ad0deab20ee9fcd780b14ca90fc71d3f5d",
      "function": "executeNextSlice((bytes32,(address,address,uint24,int24,address),uint24,uint160,uint40))",
      "arguments": [
        "(0xc367f0c131d919f7bbb9d871f4df1ffe66429945153845ca67ffb2e37729053a, (0x0a42E3ce7a6C4b504937b4377a6F9aFbE84B1653, 0x472B75a8C71D981197c1CdC7e5E2a0037e8Bd95F, 3000, 60, 0xBF42f398561644Eb55A7269dA0F937D0512c40c0), 50, 4295128740, 1773564773)"
      ],
      "transaction": {
        "from": "0x4b992f2fbf714c0fcbb23bac5130ace48cad00cd",
        "to": "0xe56a90ad0deab20ee9fcd780b14ca90fc71d3f5d",
        "gas": "0x16d2d",
        "value": "0x0",
        "input": "0xdee73244c367f0c131d919f7bbb9d871f4df1ffe66429945153845ca67ffb2e37729053a0000000000000000000000000a42e3ce7a6c4b504937b4377a6f9afbe84b1653000000000000000000000000472b75a8c71d981197c1cdc7e5e2a0037e8bd95f0000000000000000000000000000000000000000000000000000000000000bb8000000000000000000000000000000000000000000000000000000000000003c000000000000000000000000bf42f398561644eb55a7269da0f937d0512c40c0000000000000000000000000000000000000000000000000000000000000003200000000000000000000000000000000000000000000000000000001000276a40000000000000000000000000000000000000000000000000000000069b67365",
        "nonce": "0x3d4",
        "chainId": "0x515"
      },
      "additionalContracts": [],
      "isFixedGasLimit": false
    },
    {
      "hash": "0x63a7f4044e14f8c47ca338c9c03d2de5651a6b348c747e9872bc0889894b9d33",
      "transactionType": "CALL",
      "contractName": null,
      "contractAddress": "0xe56a90ad0deab20ee9fcd780b14ca90fc71d3f5d",
      "function": "executeNextSlice((bytes32,(address,address,uint24,int24,address),uint24,uint160,uint40))",
      "arguments": [
        "(0xc367f0c131d919f7bbb9d871f4df1ffe66429945153845ca67ffb2e37729053a, (0x0a42E3ce7a6C4b504937b4377a6F9aFbE84B1653, 0x472B75a8C71D981197c1CdC7e5E2a0037e8Bd95F, 3000, 60, 0xBF42f398561644Eb55A7269dA0F937D0512c40c0), 50, 4295128740, 1773564773)"
      ],
      "transaction": {
        "from": "0x4b992f2fbf714c0fcbb23bac5130ace48cad00cd",
        "to": "0xe56a90ad0deab20ee9fcd780b14ca90fc71d3f5d",
        "gas": "0x16d2d",
        "value": "0x0",
        "input": "0xdee73244c367f0c131d919f7bbb9d871f4df1ffe66429945153845ca67ffb2e37729053a0000000000000000000000000a42e3ce7a6c4b504937b4377a6f9afbe84b1653000000000000000000000000472b75a8c71d981197c1cdc7e5e2a0037e8bd95f0000000000000000000000000000000000000000000000000000000000000bb8000000000000000000000000000000000000000000000000000000000000003c000000000000000000000000bf42f398561644eb55a7269da0f937d0512c40c0000000000000000000000000000000000000000000000000000000000000003200000000000000000000000000000000000000000000000000000001000276a40000000000000000000000000000000000000000000000000000000069b67365",
        "nonce": "0x3d5",
        "chainId": "0x515"
      },
      "additionalContracts": [],
      "isFixedGasLimit": false
    },
    {
      "hash": "0xf888522eb171b6f5b091aaa8ee2f293d93a69e54d9992a4f8c9882530e68a53c",
      "transactionType": "CALL",
      "contractName": null,
      "contractAddress": "0xe56a90ad0deab20ee9fcd780b14ca90fc71d3f5d",
      "function": "executeNextSlice((bytes32,(address,address,uint24,int24,address),uint24,uint160,uint40))",
      "arguments": [
        "(0xc367f0c131d919f7bbb9d871f4df1ffe66429945153845ca67ffb2e37729053a, (0x0a42E3ce7a6C4b504937b4377a6F9aFbE84B1653, 0x472B75a8C71D981197c1CdC7e5E2a0037e8Bd95F, 3000, 60, 0xBF42f398561644Eb55A7269dA0F937D0512c40c0), 50, 4295128740, 1773564773)"
      ],
      "transaction": {
        "from": "0x4b992f2fbf714c0fcbb23bac5130ace48cad00cd",
        "to": "0xe56a90ad0deab20ee9fcd780b14ca90fc71d3f5d",
        "gas": "0x16d2d",
        "value": "0x0",
        "input": "0xdee73244c367f0c131d919f7bbb9d871f4df1ffe66429945153845ca67ffb2e37729053a0000000000000000000000000a42e3ce7a6c4b504937b4377a6f9afbe84b1653000000000000000000000000472b75a8c71d981197c1cdc7e5e2a0037e8bd95f0000000000000000000000000000000000000000000000000000000000000bb8000000000000000000000000000000000000000000000000000000000000003c000000000000000000000000bf42f398561644eb55a7269da0f937d0512c40c0000000000000000000000000000000000000000000000000000000000000003200000000000000000000000000000000000000000000000000000001000276a40000000000000000000000000000000000000000000000000000000069b67365",
        "nonce": "0x3d6",
        "chainId": "0x515"
      },
      "additionalContracts": [],
      "isFixedGasLimit": false
    },
    {
      "hash": "0xe6e65a99e3f7b6f1303a1eff1e2c0760c6d1c27c42f3bcf44dfee6ea0ca9ba51",
      "transactionType": "CALL",
      "contractName": null,
      "contractAddress": "0xe56a90ad0deab20ee9fcd780b14ca90fc71d3f5d",
      "function": "executeNextSlice((bytes32,(address,address,uint24,int24,address),uint24,uint160,uint40))",
      "arguments": [
        "(0xc367f0c131d919f7bbb9d871f4df1ffe66429945153845ca67ffb2e37729053a, (0x0a42E3ce7a6C4b504937b4377a6F9aFbE84B1653, 0x472B75a8C71D981197c1CdC7e5E2a0037e8Bd95F, 3000, 60, 0xBF42f398561644Eb55A7269dA0F937D0512c40c0), 50, 4295128740, 1773564773)"
      ],
      "transaction": {
        "from": "0x4b992f2fbf714c0fcbb23bac5130ace48cad00cd",
        "to": "0xe56a90ad0deab20ee9fcd780b14ca90fc71d3f5d",
        "gas": "0x16d2d",
        "value": "0x0",
        "input": "0xdee73244c367f0c131d919f7bbb9d871f4df1ffe66429945153845ca67ffb2e37729053a0000000000000000000000000a42e3ce7a6c4b504937b4377a6f9afbe84b1653000000000000000000000000472b75a8c71d981197c1cdc7e5e2a0037e8bd95f0000000000000000000000000000000000000000000000000000000000000bb8000000000000000000000000000000000000000000000000000000000000003c000000000000000000000000bf42f398561644eb55a7269da0f937d0512c40c0000000000000000000000000000000000000000000000000000000000000003200000000000000000000000000000000000000000000000000000001000276a40000000000000000000000000000000000000000000000000000000069b67365",
        "nonce": "0x3d7",
        "chainId": "0x515"
      },
      "additionalContracts": [],
      "isFixedGasLimit": false
    },
    {
      "hash": "0xcab4b72742f10f7cc923c76a32c8d3c9af0a055498bde695ef4e65f0138824d2",
      "transactionType": "CALL",
      "contractName": null,
      "contractAddress": "0xe56a90ad0deab20ee9fcd780b14ca90fc71d3f5d",
      "function": "executeNextSlice((bytes32,(address,address,uint24,int24,address),uint24,uint160,uint40))",
      "arguments": [
        "(0xc367f0c131d919f7bbb9d871f4df1ffe66429945153845ca67ffb2e37729053a, (0x0a42E3ce7a6C4b504937b4377a6F9aFbE84B1653, 0x472B75a8C71D981197c1CdC7e5E2a0037e8Bd95F, 3000, 60, 0xBF42f398561644Eb55A7269dA0F937D0512c40c0), 50, 4295128740, 1773564773)"
      ],
      "transaction": {
        "from": "0x4b992f2fbf714c0fcbb23bac5130ace48cad00cd",
        "to": "0xe56a90ad0deab20ee9fcd780b14ca90fc71d3f5d",
        "gas": "0x16d2d",
        "value": "0x0",
        "input": "0xdee73244c367f0c131d919f7bbb9d871f4df1ffe66429945153845ca67ffb2e37729053a0000000000000000000000000a42e3ce7a6c4b504937b4377a6f9afbe84b1653000000000000000000000000472b75a8c71d981197c1cdc7e5e2a0037e8bd95f0000000000000000000000000000000000000000000000000000000000000bb8000000000000000000000000000000000000000000000000000000000000003c000000000000000000000000bf42f398561644eb55a7269da0f937d0512c40c0000000000000000000000000000000000000000000000000000000000000003200000000000000000000000000000000000000000000000000000001000276a40000000000000000000000000000000000000000000000000000000069b67365",
        "nonce": "0x3d8",
        "chainId": "0x515"
      },
      "additionalContracts": [],
      "isFixedGasLimit": false
    },
    {
      "hash": "0x4a08917fe3dbbd520bb131bfe994f2db35d49267d5e88a3c1e22280eece16c55",
      "transactionType": "CALL",
      "contractName": null,
      "contractAddress": "0xe56a90ad0deab20ee9fcd780b14ca90fc71d3f5d",
      "function": "executeNextSlice((bytes32,(address,address,uint24,int24,address),uint24,uint160,uint40))",
      "arguments": [
        "(0xc367f0c131d919f7bbb9d871f4df1ffe66429945153845ca67ffb2e37729053a, (0x0a42E3ce7a6C4b504937b4377a6F9aFbE84B1653, 0x472B75a8C71D981197c1CdC7e5E2a0037e8Bd95F, 3000, 60, 0xBF42f398561644Eb55A7269dA0F937D0512c40c0), 50, 4295128740, 1773564773)"
      ],
      "transaction": {
        "from": "0x4b992f2fbf714c0fcbb23bac5130ace48cad00cd",
        "to": "0xe56a90ad0deab20ee9fcd780b14ca90fc71d3f5d",
        "gas": "0x16d2d",
        "value": "0x0",
        "input": "0xdee73244c367f0c131d919f7bbb9d871f4df1ffe66429945153845ca67ffb2e37729053a0000000000000000000000000a42e3ce7a6c4b504937b4377a6f9afbe84b1653000000000000000000000000472b75a8c71d981197c1cdc7e5e2a0037e8bd95f0000000000000000000000000000000000000000000000000000000000000bb8000000000000000000000000000000000000000000000000000000000000003c000000000000000000000000bf42f398561644eb55a7269da0f937d0512c40c0000000000000000000000000000000000000000000000000000000000000003200000000000000000000000000000000000000000000000000000001000276a40000000000000000000000000000000000000000000000000000000069b67365",
        "nonce": "0x3d9",
        "chainId": "0x515"
      },
      "additionalContracts": [],
      "isFixedGasLimit": false
    },
    {
      "hash": "0xbed7964e6dc68fc9cdd7501675c1b83d7def9eb9a2578be8273f849c678966ce",
      "transactionType": "CALL",
      "contractName": null,
      "contractAddress": "0xe56a90ad0deab20ee9fcd780b14ca90fc71d3f5d",
      "function": "executeNextSlice((bytes32,(address,address,uint24,int24,address),uint24,uint160,uint40))",
      "arguments": [
        "(0xc367f0c131d919f7bbb9d871f4df1ffe66429945153845ca67ffb2e37729053a, (0x0a42E3ce7a6C4b504937b4377a6F9aFbE84B1653, 0x472B75a8C71D981197c1CdC7e5E2a0037e8Bd95F, 3000, 60, 0xBF42f398561644Eb55A7269dA0F937D0512c40c0), 50, 4295128740, 1773564773)"
      ],
      "transaction": {
        "from": "0x4b992f2fbf714c0fcbb23bac5130ace48cad00cd",
        "to": "0xe56a90ad0deab20ee9fcd780b14ca90fc71d3f5d",
        "gas": "0x16d2d",
        "value": "0x0",
        "input": "0xdee73244c367f0c131d919f7bbb9d871f4df1ffe66429945153845ca67ffb2e37729053a0000000000000000000000000a42e3ce7a6c4b504937b4377a6f9afbe84b1653000000000000000000000000472b75a8c71d981197c1cdc7e5e2a0037e8bd95f0000000000000000000000000000000000000000000000000000000000000bb8000000000000000000000000000000000000000000000000000000000000003c000000000000000000000000bf42f398561644eb55a7269da0f937d0512c40c0000000000000000000000000000000000000000000000000000000000000003200000000000000000000000000000000000000000000000000000001000276a40000000000000000000000000000000000000000000000000000000069b67365",
        "nonce": "0x3da",
        "chainId": "0x515"
      },
      "additionalContracts": [],
      "isFixedGasLimit": false
    },
    {
      "hash": "0x0839f15dccfbb5121b0bda13a83294c4d3126cc37d4f9e706e663482f9bb7487",
      "transactionType": "CALL",
      "contractName": null,
      "contractAddress": "0xe56a90ad0deab20ee9fcd780b14ca90fc71d3f5d",
      "function": "executeNextSlice((bytes32,(address,address,uint24,int24,address),uint24,uint160,uint40))",
      "arguments": [
        "(0xc367f0c131d919f7bbb9d871f4df1ffe66429945153845ca67ffb2e37729053a, (0x0a42E3ce7a6C4b504937b4377a6F9aFbE84B1653, 0x472B75a8C71D981197c1CdC7e5E2a0037e8Bd95F, 3000, 60, 0xBF42f398561644Eb55A7269dA0F937D0512c40c0), 50, 4295128740, 1773564773)"
      ],
      "transaction": {
        "from": "0x4b992f2fbf714c0fcbb23bac5130ace48cad00cd",
        "to": "0xe56a90ad0deab20ee9fcd780b14ca90fc71d3f5d",
        "gas": "0x16d2d",
        "value": "0x0",
        "input": "0xdee73244c367f0c131d919f7bbb9d871f4df1ffe66429945153845ca67ffb2e37729053a0000000000000000000000000a42e3ce7a6c4b504937b4377a6f9afbe84b1653000000000000000000000000472b75a8c71d981197c1cdc7e5e2a0037e8bd95f0000000000000000000000000000000000000000000000000000000000000bb8000000000000000000000000000000000000000000000000000000000000003c000000000000000000000000bf42f398561644eb55a7269da0f937d0512c40c0000000000000000000000000000000000000000000000000000000000000003200000000000000000000000000000000000000000000000000000001000276a40000000000000000000000000000000000000000000000000000000069b67365",
        "nonce": "0x3db",
        "chainId": "0x515"
      },
      "additionalContracts": [],
      "isFixedGasLimit": false
    },
    {
      "hash": "0x98e166734ac63d0785bf04ba59aaf23431d121ceffa73bc65923c69633ff674a",
      "transactionType": "CALL",
      "contractName": null,
      "contractAddress": "0xe56a90ad0deab20ee9fcd780b14ca90fc71d3f5d",
      "function": "executeNextSlice((bytes32,(address,address,uint24,int24,address),uint24,uint160,uint40))",
      "arguments": [
        "(0xc367f0c131d919f7bbb9d871f4df1ffe66429945153845ca67ffb2e37729053a, (0x0a42E3ce7a6C4b504937b4377a6F9aFbE84B1653, 0x472B75a8C71D981197c1CdC7e5E2a0037e8Bd95F, 3000, 60, 0xBF42f398561644Eb55A7269dA0F937D0512c40c0), 50, 4295128740, 1773564773)"
      ],
      "transaction": {
        "from": "0x4b992f2fbf714c0fcbb23bac5130ace48cad00cd",
        "to": "0xe56a90ad0deab20ee9fcd780b14ca90fc71d3f5d",
        "gas": "0x16d2d",
        "value": "0x0",
        "input": "0xdee73244c367f0c131d919f7bbb9d871f4df1ffe66429945153845ca67ffb2e37729053a0000000000000000000000000a42e3ce7a6c4b504937b4377a6f9afbe84b1653000000000000000000000000472b75a8c71d981197c1cdc7e5e2a0037e8bd95f0000000000000000000000000000000000000000000000000000000000000bb8000000000000000000000000000000000000000000000000000000000000003c000000000000000000000000bf42f398561644eb55a7269da0f937d0512c40c0000000000000000000000000000000000000000000000000000000000000003200000000000000000000000000000000000000000000000000000001000276a40000000000000000000000000000000000000000000000000000000069b67365",
        "nonce": "0x3dc",
        "chainId": "0x515"
      },
      "additionalContracts": [],
      "isFixedGasLimit": false
    },
    {
      "hash": "0xb4b5df724275147680b9e4c09eb1554a0a9f3d26e5b3ad72ceac93f85f52403e",
      "transactionType": "CALL",
      "contractName": null,
      "contractAddress": "0xe56a90ad0deab20ee9fcd780b14ca90fc71d3f5d",
      "function": "executeNextSlice((bytes32,(address,address,uint24,int24,address),uint24,uint160,uint40))",
      "arguments": [
        "(0xc367f0c131d919f7bbb9d871f4df1ffe66429945153845ca67ffb2e37729053a, (0x0a42E3ce7a6C4b504937b4377a6F9aFbE84B1653, 0x472B75a8C71D981197c1CdC7e5E2a0037e8Bd95F, 3000, 60, 0xBF42f398561644Eb55A7269dA0F937D0512c40c0), 50, 4295128740, 1773564773)"
      ],
      "transaction": {
        "from": "0x4b992f2fbf714c0fcbb23bac5130ace48cad00cd",
        "to": "0xe56a90ad0deab20ee9fcd780b14ca90fc71d3f5d",
        "gas": "0x16d2d",
        "value": "0x0",
        "input": "0xdee73244c367f0c131d919f7bbb9d871f4df1ffe66429945153845ca67ffb2e37729053a0000000000000000000000000a42e3ce7a6c4b504937b4377a6f9afbe84b1653000000000000000000000000472b75a8c71d981197c1cdc7e5e2a0037e8bd95f0000000000000000000000000000000000000000000000000000000000000bb8000000000000000000000000000000000000000000000000000000000000003c000000000000000000000000bf42f398561644eb55a7269da0f937d0512c40c0000000000000000000000000000000000000000000000000000000000000003200000000000000000000000000000000000000000000000000000001000276a40000000000000000000000000000000000000000000000000000000069b67365",
        "nonce": "0x3dd",
        "chainId": "0x515"
      },
      "additionalContracts": [],
      "isFixedGasLimit": false
    },
    {
      "hash": "0xb30898d58319212a3622ff173bdd0f01dfa5ed9d879bfb742aa40c151d9b8969",
      "transactionType": "CALL",
      "contractName": null,
      "contractAddress": "0xe56a90ad0deab20ee9fcd780b14ca90fc71d3f5d",
      "function": "executeNextSlice((bytes32,(address,address,uint24,int24,address),uint24,uint160,uint40))",
      "arguments": [
        "(0xc367f0c131d919f7bbb9d871f4df1ffe66429945153845ca67ffb2e37729053a, (0x0a42E3ce7a6C4b504937b4377a6F9aFbE84B1653, 0x472B75a8C71D981197c1CdC7e5E2a0037e8Bd95F, 3000, 60, 0xBF42f398561644Eb55A7269dA0F937D0512c40c0), 50, 4295128740, 1773564773)"
      ],
      "transaction": {
        "from": "0x4b992f2fbf714c0fcbb23bac5130ace48cad00cd",
        "to": "0xe56a90ad0deab20ee9fcd780b14ca90fc71d3f5d",
        "gas": "0x16d2d",
        "value": "0x0",
        "input": "0xdee73244c367f0c131d919f7bbb9d871f4df1ffe66429945153845ca67ffb2e37729053a0000000000000000000000000a42e3ce7a6c4b504937b4377a6f9afbe84b1653000000000000000000000000472b75a8c71d981197c1cdc7e5e2a0037e8bd95f0000000000000000000000000000000000000000000000000000000000000bb8000000000000000000000000000000000000000000000000000000000000003c000000000000000000000000bf42f398561644eb55a7269da0f937d0512c40c0000000000000000000000000000000000000000000000000000000000000003200000000000000000000000000000000000000000000000000000001000276a40000000000000000000000000000000000000000000000000000000069b67365",
        "nonce": "0x3de",
        "chainId": "0x515"
      },
      "additionalContracts": [],
      "isFixedGasLimit": false
    },
    {
      "hash": "0x5d11077971eb71f5b6c2f2481bc92a43661f8bd980b49a6d0e6c8920fa1af077",
      "transactionType": "CALL",
      "contractName": null,
      "contractAddress": "0xe56a90ad0deab20ee9fcd780b14ca90fc71d3f5d",
      "function": "executeNextSlice((bytes32,(address,address,uint24,int24,address),uint24,uint160,uint40))",
      "arguments": [
        "(0xc367f0c131d919f7bbb9d871f4df1ffe66429945153845ca67ffb2e37729053a, (0x0a42E3ce7a6C4b504937b4377a6F9aFbE84B1653, 0x472B75a8C71D981197c1CdC7e5E2a0037e8Bd95F, 3000, 60, 0xBF42f398561644Eb55A7269dA0F937D0512c40c0), 50, 4295128740, 1773564773)"
      ],
      "transaction": {
        "from": "0x4b992f2fbf714c0fcbb23bac5130ace48cad00cd",
        "to": "0xe56a90ad0deab20ee9fcd780b14ca90fc71d3f5d",
        "gas": "0x16d2d",
        "value": "0x0",
        "input": "0xdee73244c367f0c131d919f7bbb9d871f4df1ffe66429945153845ca67ffb2e37729053a0000000000000000000000000a42e3ce7a6c4b504937b4377a6f9afbe84b1653000000000000000000000000472b75a8c71d981197c1cdc7e5e2a0037e8bd95f0000000000000000000000000000000000000000000000000000000000000bb8000000000000000000000000000000000000000000000000000000000000003c000000000000000000000000bf42f398561644eb55a7269da0f937d0512c40c0000000000000000000000000000000000000000000000000000000000000003200000000000000000000000000000000000000000000000000000001000276a40000000000000000000000000000000000000000000000000000000069b67365",
        "nonce": "0x3df",
        "chainId": "0x515"
      },
      "additionalContracts": [],
      "isFixedGasLimit": false
    },
    {
      "hash": "0x7287e1ec73369a95001c2116793eec78135816afd3d09d68c94af9622871cb26",
      "transactionType": "CALL",
      "contractName": null,
      "contractAddress": "0xe56a90ad0deab20ee9fcd780b14ca90fc71d3f5d",
      "function": "executeNextSlice((bytes32,(address,address,uint24,int24,address),uint24,uint160,uint40))",
      "arguments": [
        "(0xc367f0c131d919f7bbb9d871f4df1ffe66429945153845ca67ffb2e37729053a, (0x0a42E3ce7a6C4b504937b4377a6F9aFbE84B1653, 0x472B75a8C71D981197c1CdC7e5E2a0037e8Bd95F, 3000, 60, 0xBF42f398561644Eb55A7269dA0F937D0512c40c0), 50, 4295128740, 1773564773)"
      ],
      "transaction": {
        "from": "0x4b992f2fbf714c0fcbb23bac5130ace48cad00cd",
        "to": "0xe56a90ad0deab20ee9fcd780b14ca90fc71d3f5d",
        "gas": "0x16d2d",
        "value": "0x0",
        "input": "0xdee73244c367f0c131d919f7bbb9d871f4df1ffe66429945153845ca67ffb2e37729053a0000000000000000000000000a42e3ce7a6c4b504937b4377a6f9afbe84b1653000000000000000000000000472b75a8c71d981197c1cdc7e5e2a0037e8bd95f0000000000000000000000000000000000000000000000000000000000000bb8000000000000000000000000000000000000000000000000000000000000003c000000000000000000000000bf42f398561644eb55a7269da0f937d0512c40c0000000000000000000000000000000000000000000000000000000000000003200000000000000000000000000000000000000000000000000000001000276a40000000000000000000000000000000000000000000000000000000069b67365",
        "nonce": "0x3e0",
        "chainId": "0x515"
      },
      "additionalContracts": [],
      "isFixedGasLimit": false
    }
  ],
  "receipts": [
    {
      "status": "0x1",
      "cumulativeGasUsed": "0xdc061",
      "logs": [],
      "logsBloom": "0x00000000000000000000000000000000000000000000000000000000000000000000000000000000000000000000000000000000000000000000000000000000000000000000000000000000000000000000000000000000000000000000000000000000000000000000000000000000000000000000000000000000000000000000000000000000000000000000000000000000000000000000000000000000000000000000000000000000000000000000000000000000000000000000000000000000000000000000000000000000000000000000000000000000000000000000000000000000000000000000000000000000000000000000000000000000",
      "type": "0x2",
      "transactionHash": "0x45fecae1647c06fe3d419aa11eacc5b1bcb76843681f0c52f6f5ce58f6aacbf9",
      "transactionIndex": "0x3",
      "blockHash": "0x37b3233be62271a79184e19f7b8177c36bfb50754fdf633730599fb118c371f9",
      "blockNumber": "0x2c8c3f5",
      "gasUsed": "0xb4669",
      "effectiveGasPrice": "0x7a121",
      "blobGasUsed": "0xeff10",
      "from": "0x4b992f2fbf714c0fcbb23bac5130ace48cad00cd",
      "to": null,
      "contractAddress": "0x472b75a8c71d981197c1cdc7e5e2a0037e8bd95f",
      "daFootprintGasScalar": "0x190",
      "l1BaseFeeScalar": "0x7d0",
      "l1BlobBaseFee": "0x1",
      "l1BlobBaseFeeScalar": "0xdbba0",
      "l1Fee": "0xb67",
      "l1GasPrice": "0x9",
      "l1GasUsed": "0x999b"
    },
    {
      "status": "0x1",
      "cumulativeGasUsed": "0x1906ca",
      "logs": [],
      "logsBloom": "0x00000000000000000000000000000000000000000000000000000000000000000000000000000000000000000000000000000000000000000000000000000000000000000000000000000000000000000000000000000000000000000000000000000000000000000000000000000000000000000000000000000000000000000000000000000000000000000000000000000000000000000000000000000000000000000000000000000000000000000000000000000000000000000000000000000000000000000000000000000000000000000000000000000000000000000000000000000000000000000000000000000000000000000000000000000000",
      "type": "0x2",
      "transactionHash": "0xebcfb35f8b6ae3b73497bb0a7a15788404c514af07ffe7d26fa178667217432a",
      "transactionIndex": "0x4",
      "blockHash": "0x37b3233be62271a79184e19f7b8177c36bfb50754fdf633730599fb118c371f9",
      "blockNumber": "0x2c8c3f5",
      "gasUsed": "0xb4669",
      "effectiveGasPrice": "0x7a121",
      "blobGasUsed": "0xeff10",
      "from": "0x4b992f2fbf714c0fcbb23bac5130ace48cad00cd",
      "to": null,
      "contractAddress": "0x0a42e3ce7a6c4b504937b4377a6f9afbe84b1653",
      "daFootprintGasScalar": "0x190",
      "l1BaseFeeScalar": "0x7d0",
      "l1BlobBaseFee": "0x1",
      "l1BlobBaseFeeScalar": "0xdbba0",
      "l1Fee": "0xb67",
      "l1GasPrice": "0x9",
      "l1GasUsed": "0x999b"
    },
    {
      "status": "0x1",
      "cumulativeGasUsed": "0x1a11cd",
      "logs": [
        {
          "address": "0x0a42e3ce7a6c4b504937b4377a6f9afbe84b1653",
          "topics": [
            "0xddf252ad1be2c89b69c2b068fc378daa952ba7f163c4a11628f55a4df523b3ef",
            "0x0000000000000000000000000000000000000000000000000000000000000000",
            "0x0000000000000000000000004b992f2fbf714c0fcbb23bac5130ace48cad00cd"
          ],
          "data": "0x000000000000000000000000000000000000007e37be2022c0914b2680000000",
          "blockHash": "0x37b3233be62271a79184e19f7b8177c36bfb50754fdf633730599fb118c371f9",
          "blockNumber": "0x2c8c3f5",
          "blockTimestamp": "0x69b67141",
          "transactionHash": "0x9c7b5b334a10dbe5bb745572ce130cc40042adad932cc900e6c91e6aca3561cd",
          "transactionIndex": "0x5",
          "logIndex": "0x1",
          "removed": false
        }
      ],
      "logsBloom": "0x00000000000000000000002000000000000000000000000000000000000000000000000000000000000000000000000000000002000000000000000000000000000000000000000000000008000000000000000000000000000104000000000000000000020000000000000000020800010000000000000000000010000000000000000000000000000000000000000000000000000000000000000000000000000000000000000000000000000000000000000000000000000000000000000000000002000000000000000000000000000000000000000000000000000020000000000000000000000000000000000000000000000000000000000000000000",
      "type": "0x2",
      "transactionHash": "0x9c7b5b334a10dbe5bb745572ce130cc40042adad932cc900e6c91e6aca3561cd",
      "transactionIndex": "0x5",
      "blockHash": "0x37b3233be62271a79184e19f7b8177c36bfb50754fdf633730599fb118c371f9",
      "blockNumber": "0x2c8c3f5",
      "gasUsed": "0x10b03",
      "effectiveGasPrice": "0x7a121",
      "blobGasUsed": "0x9c40",
      "from": "0x4b992f2fbf714c0fcbb23bac5130ace48cad00cd",
      "to": "0x0a42e3ce7a6c4b504937b4377a6f9afbe84b1653",
      "contractAddress": null,
      "daFootprintGasScalar": "0x190",
      "l1BaseFeeScalar": "0x7d0",
      "l1BlobBaseFee": "0x1",
      "l1BlobBaseFeeScalar": "0xdbba0",
      "l1Fee": "0x76",
      "l1GasPrice": "0x9",
      "l1GasUsed": "0x640"
    },
    {
      "status": "0x1",
      "cumulativeGasUsed": "0x1b1cd0",
      "logs": [
        {
          "address": "0x472b75a8c71d981197c1cdc7e5e2a0037e8bd95f",
          "topics": [
            "0xddf252ad1be2c89b69c2b068fc378daa952ba7f163c4a11628f55a4df523b3ef",
            "0x0000000000000000000000000000000000000000000000000000000000000000",
            "0x0000000000000000000000004b992f2fbf714c0fcbb23bac5130ace48cad00cd"
          ],
          "data": "0x000000000000000000000000000000000000007e37be2022c0914b2680000000",
          "blockHash": "0x37b3233be62271a79184e19f7b8177c36bfb50754fdf633730599fb118c371f9",
          "blockNumber": "0x2c8c3f5",
          "blockTimestamp": "0x69b67141",
          "transactionHash": "0x38d6d4a360e8196d38c49eb6fbad2186f3d0d2a418f311e0bb5cbfcd19f2db2c",
          "transactionIndex": "0x6",
          "logIndex": "0x2",
          "removed": false
        }
      ],
      "logsBloom": "0x00000000000000000000000000000000000000000000000000000000000000000000000000000000000000000000000000000002000000000000000000000000000000000000020000000008000000000000000000000000000100000000000000000000020000000000000000020820000000000000000000000010000000000000000000000000000000000000000000000000000000000000000000000000000000000000000000000000000000000000000000000000000000000000000000000002000000000002000000000000000000000000000000000000000020000000000000000000000000000000000000000000000000000000000000000000",
      "type": "0x2",
      "transactionHash": "0x38d6d4a360e8196d38c49eb6fbad2186f3d0d2a418f311e0bb5cbfcd19f2db2c",
      "transactionIndex": "0x6",
      "blockHash": "0x37b3233be62271a79184e19f7b8177c36bfb50754fdf633730599fb118c371f9",
      "blockNumber": "0x2c8c3f5",
      "gasUsed": "0x10b03",
      "effectiveGasPrice": "0x7a121",
      "blobGasUsed": "0x9c40",
      "from": "0x4b992f2fbf714c0fcbb23bac5130ace48cad00cd",
      "to": "0x472b75a8c71d981197c1cdc7e5e2a0037e8bd95f",
      "contractAddress": null,
      "daFootprintGasScalar": "0x190",
      "l1BaseFeeScalar": "0x7d0",
      "l1BlobBaseFee": "0x1",
      "l1BlobBaseFeeScalar": "0xdbba0",
      "l1Fee": "0x76",
      "l1GasPrice": "0x9",
      "l1GasUsed": "0x640"
    },
    {
      "status": "0x1",
      "cumulativeGasUsed": "0x1bd22a",
      "logs": [
        {
          "address": "0x0a42e3ce7a6c4b504937b4377a6f9afbe84b1653",
          "topics": [
            "0x8c5be1e5ebec7d5bd14f71427d1e84f3dd0314c0f7b2291e5b200ac8c7c3b925",
            "0x0000000000000000000000004b992f2fbf714c0fcbb23bac5130ace48cad00cd",
            "0x000000000000000000000000000000000022d473030f116ddee9f6b43ac78ba3"
          ],
          "data": "0xffffffffffffffffffffffffffffffffffffffffffffffffffffffffffffffff",
          "blockHash": "0x37b3233be62271a79184e19f7b8177c36bfb50754fdf633730599fb118c371f9",
          "blockNumber": "0x2c8c3f5",
          "blockTimestamp": "0x69b67141",
          "transactionHash": "0xe30058124b3d8b815c48b89b6e72ac632e6c86a90f0f58741448270d776bb3d3",
          "transactionIndex": "0x7",
          "logIndex": "0x3",
          "removed": false
        }
      ],
      "logsBloom": "0x00000000000000000000002000000000000000000000000000000000000000000000000000000000000000000000000000000002800000000000000000200000000000000000000000004000000000000000000000000800000104000000000000000000000000000000000000020000010000000000000000000000000000000000000000000000000000000000000000000000000000000000000000000000020000000000000000000000000000000000000000000000000000000000000000000000000000000000000000000000000000000000000000000000000000000010000000000000000000000000000000000000000000000000000000000000",
      "type": "0x2",
      "transactionHash": "0xe30058124b3d8b815c48b89b6e72ac632e6c86a90f0f58741448270d776bb3d3",
      "transactionIndex": "0x7",
      "blockHash": "0x37b3233be62271a79184e19f7b8177c36bfb50754fdf633730599fb118c371f9",
      "blockNumber": "0x2c8c3f5",
      "gasUsed": "0xb55a",
      "effectiveGasPrice": "0x7a121",
      "blobGasUsed": "0x9c40",
      "from": "0x4b992f2fbf714c0fcbb23bac5130ace48cad00cd",
      "to": "0x0a42e3ce7a6c4b504937b4377a6f9afbe84b1653",
      "contractAddress": null,
      "daFootprintGasScalar": "0x190",
      "l1BaseFeeScalar": "0x7d0",
      "l1BlobBaseFee": "0x1",
      "l1BlobBaseFeeScalar": "0xdbba0",
      "l1Fee": "0x76",
      "l1GasPrice": "0x9",
      "l1GasUsed": "0x640"
    },
    {
      "status": "0x1",
      "cumulativeGasUsed": "0x1c8784",
      "logs": [
        {
          "address": "0x472b75a8c71d981197c1cdc7e5e2a0037e8bd95f",
          "topics": [
            "0x8c5be1e5ebec7d5bd14f71427d1e84f3dd0314c0f7b2291e5b200ac8c7c3b925",
            "0x0000000000000000000000004b992f2fbf714c0fcbb23bac5130ace48cad00cd",
            "0x000000000000000000000000000000000022d473030f116ddee9f6b43ac78ba3"
          ],
          "data": "0xffffffffffffffffffffffffffffffffffffffffffffffffffffffffffffffff",
          "blockHash": "0x37b3233be62271a79184e19f7b8177c36bfb50754fdf633730599fb118c371f9",
          "blockNumber": "0x2c8c3f5",
          "blockTimestamp": "0x69b67141",
          "transactionHash": "0x4211c6c0bea9c6a6a9bc389f668e2ffb65dca625fbd9fe3ac0d1c912406d2180",
          "transactionIndex": "0x8",
          "logIndex": "0x4",
          "removed": false
        }
      ],
      "logsBloom": "0x00000000000000000000000000000000000000000000000000000000000000000000000000000000000000000000000000000002800000000000000000200000000000000000020000004000000000000000000000000800000100000000000000000000000000000000000000020020000000000000000000000000000000000000000000000000000000000000000000000000000000000000000000000000020000000000000000000000000000000000000000000000000000000000000000000000000000000002000000000000000000000000000000000000000000000010000000000000000000000000000000000000000000000000000000000000",
      "type": "0x2",
      "transactionHash": "0x4211c6c0bea9c6a6a9bc389f668e2ffb65dca625fbd9fe3ac0d1c912406d2180",
      "transactionIndex": "0x8",
      "blockHash": "0x37b3233be62271a79184e19f7b8177c36bfb50754fdf633730599fb118c371f9",
      "blockNumber": "0x2c8c3f5",
      "gasUsed": "0xb55a",
      "effectiveGasPrice": "0x7a121",
      "blobGasUsed": "0x9c40",
      "from": "0x4b992f2fbf714c0fcbb23bac5130ace48cad00cd",
      "to": "0x472b75a8c71d981197c1cdc7e5e2a0037e8bd95f",
      "contractAddress": null,
      "daFootprintGasScalar": "0x190",
      "l1BaseFeeScalar": "0x7d0",
      "l1BlobBaseFee": "0x1",
      "l1BlobBaseFeeScalar": "0xdbba0",
      "l1Fee": "0x76",
      "l1GasPrice": "0x9",
      "l1GasUsed": "0x640"
    },
    {
      "status": "0x1",
      "cumulativeGasUsed": "0x1d3d1a",
      "logs": [
        {
          "address": "0x0a42e3ce7a6c4b504937b4377a6f9afbe84b1653",
          "topics": [
            "0x8c5be1e5ebec7d5bd14f71427d1e84f3dd0314c0f7b2291e5b200ac8c7c3b925",
            "0x0000000000000000000000004b992f2fbf714c0fcbb23bac5130ace48cad00cd",
            "0x000000000000000000000000f969aee60879c54baaed9f3ed26147db216fd664"
          ],
          "data": "0xffffffffffffffffffffffffffffffffffffffffffffffffffffffffffffffff",
          "blockHash": "0x37b3233be62271a79184e19f7b8177c36bfb50754fdf633730599fb118c371f9",
          "blockNumber": "0x2c8c3f5",
          "blockTimestamp": "0x69b67141",
          "transactionHash": "0x330f8a925d62249bb830a9b4986a6fc530959698b96ff497506e079bd20acaf5",
          "transactionIndex": "0x9",
          "logIndex": "0x5",
          "removed": false
        }
      ],
      "logsBloom": "0x00000000000000000000002000000000000000000000000000000000000000000000000000000000000000000000000000000002000000000000000000200000000000000000000000000000000000000000000000000000000104001000000000000000000000000000000000020000010000000040000000000000000000000000000000000000000000000000000000000000000000000000000000000000020000000000000000000000000000000000000000000000000000000000000000000000000000000000000000000000000000000000000000000000000000000010000000000000000000000000000000000000000000000000000000002000",
      "type": "0x2",
      "transactionHash": "0x330f8a925d62249bb830a9b4986a6fc530959698b96ff497506e079bd20acaf5",
      "transactionIndex": "0x9",
      "blockHash": "0x37b3233be62271a79184e19f7b8177c36bfb50754fdf633730599fb118c371f9",
      "blockNumber": "0x2c8c3f5",
      "gasUsed": "0xb596",
      "effectiveGasPrice": "0x7a121",
      "blobGasUsed": "0x9c40",
      "from": "0x4b992f2fbf714c0fcbb23bac5130ace48cad00cd",
      "to": "0x0a42e3ce7a6c4b504937b4377a6f9afbe84b1653",
      "contractAddress": null,
      "daFootprintGasScalar": "0x190",
      "l1BaseFeeScalar": "0x7d0",
      "l1BlobBaseFee": "0x1",
      "l1BlobBaseFeeScalar": "0xdbba0",
      "l1Fee": "0x76",
      "l1GasPrice": "0x9",
      "l1GasUsed": "0x640"
    },
    {
      "status": "0x1",
      "cumulativeGasUsed": "0x1f62d6",
      "logs": [
        {
          "address": "0x472b75a8c71d981197c1cdc7e5e2a0037e8bd95f",
          "topics": [
            "0x8c5be1e5ebec7d5bd14f71427d1e84f3dd0314c0f7b2291e5b200ac8c7c3b925",
            "0x0000000000000000000000004b992f2fbf714c0fcbb23bac5130ace48cad00cd",
            "0x000000000000000000000000f969aee60879c54baaed9f3ed26147db216fd664"
          ],
          "data": "0xffffffffffffffffffffffffffffffffffffffffffffffffffffffffffffffff",
          "blockHash": "0x37b3233be62271a79184e19f7b8177c36bfb50754fdf633730599fb118c371f9",
          "blockNumber": "0x2c8c3f5",
          "blockTimestamp": "0x69b67141",
          "transactionHash": "0xb92d03cf6b21555f7573107cd056fd529e10f968422f23ae9ff184ea1a11a442",
          "transactionIndex": "0xb",
          "logIndex": "0x7",
          "removed": false
        }
      ],
      "logsBloom": "0x00000000000000000000000000000000000000000000000000000000000000000000000000000000000000000000000000000002000000000000000000200000000000000000020000000000000000000000000000000000000100001000000000000000000000000000000000020020000000000040000000000000000000000000000000000000000000000000000000000000000000000000000000000000020000000000000000000000000000000000000000000000000000000000000000000000000000000002000000000000000000000000000000000000000000000010000000000000000000000000000000000000000000000000000000002000",
      "type": "0x2",
      "transactionHash": "0xb92d03cf6b21555f7573107cd056fd529e10f968422f23ae9ff184ea1a11a442",
      "transactionIndex": "0xb",
      "blockHash": "0x37b3233be62271a79184e19f7b8177c36bfb50754fdf633730599fb118c371f9",
      "blockNumber": "0x2c8c3f5",
      "gasUsed": "0xb596",
      "effectiveGasPrice": "0x7a121",
      "blobGasUsed": "0x9c40",
      "from": "0x4b992f2fbf714c0fcbb23bac5130ace48cad00cd",
      "to": "0x472b75a8c71d981197c1cdc7e5e2a0037e8bd95f",
      "contractAddress": null,
      "daFootprintGasScalar": "0x190",
      "l1BaseFeeScalar": "0x7d0",
      "l1BlobBaseFee": "0x1",
      "l1BlobBaseFeeScalar": "0xdbba0",
      "l1Fee": "0x76",
      "l1GasPrice": "0x9",
      "l1GasUsed": "0x640"
    },
    {
      "status": "0x1",
      "cumulativeGasUsed": "0x218dc6",
      "logs": [
        {
          "address": "0x000000000022d473030f116ddee9f6b43ac78ba3",
          "topics": [
            "0xda9fa7c1b00402c17d0161b249b1ab8bbec047c5a52207b9c112deffd817036b",
            "0x0000000000000000000000004b992f2fbf714c0fcbb23bac5130ace48cad00cd",
            "0x0000000000000000000000000a42e3ce7a6c4b504937b4377a6f9afbe84b1653",
            "0x000000000000000000000000f969aee60879c54baaed9f3ed26147db216fd664"
          ],
          "data": "0x000000000000000000000000ffffffffffffffffffffffffffffffffffffffff0000000000000000000000000000000000000000000000000000ffffffffffff",
          "blockHash": "0x37b3233be62271a79184e19f7b8177c36bfb50754fdf633730599fb118c371f9",
          "blockNumber": "0x2c8c3f5",
          "blockTimestamp": "0x69b67141",
          "transactionHash": "0x2b420d61566c243f1e4c2e7a30d624ee5e40dc39435d0e5e1cb4dac85ae9c9f5",
          "transactionIndex": "0xd",
          "logIndex": "0x9",
          "removed": false
        }
      ],
      "logsBloom": "0x00010000000000000000000000000000000000000000000000000000000000000000000000000000000000000000000000000002000000000000000000080000000000000000000100000000000000000000000000000000000100001000000000000000000000000000000001020000000000000040000000000000000000000020000000000000000000000000010000000000000000000000000000000000000000000000000000000000000000000000000000000000000000080000000000000000000000000000000000000000000000000000000040000000000000000000000000000000000000000000000000000000000000000000000000002400",
      "type": "0x2",
      "transactionHash": "0x2b420d61566c243f1e4c2e7a30d624ee5e40dc39435d0e5e1cb4dac85ae9c9f5",
      "transactionIndex": "0xd",
      "blockHash": "0x37b3233be62271a79184e19f7b8177c36bfb50754fdf633730599fb118c371f9",
      "blockNumber": "0x2c8c3f5",
      "gasUsed": "0xbaca",
      "effectiveGasPrice": "0x7a121",
      "blobGasUsed": "0xabe0",
      "from": "0x4b992f2fbf714c0fcbb23bac5130ace48cad00cd",
      "to": "0x000000000022d473030f116ddee9f6b43ac78ba3",
      "contractAddress": null,
      "daFootprintGasScalar": "0x190",
      "l1BaseFeeScalar": "0x7d0",
      "l1BlobBaseFee": "0x1",
      "l1BlobBaseFeeScalar": "0xdbba0",
      "l1Fee": "0x83",
      "l1GasPrice": "0x9",
      "l1GasUsed": "0x6e7"
    },
    {
      "status": "0x1",
      "cumulativeGasUsed": "0x2528f4",
      "logs": [
        {
          "address": "0x000000000022d473030f116ddee9f6b43ac78ba3",
          "topics": [
            "0xda9fa7c1b00402c17d0161b249b1ab8bbec047c5a52207b9c112deffd817036b",
            "0x0000000000000000000000004b992f2fbf714c0fcbb23bac5130ace48cad00cd",
            "0x000000000000000000000000472b75a8c71d981197c1cdc7e5e2a0037e8bd95f",
            "0x000000000000000000000000f969aee60879c54baaed9f3ed26147db216fd664"
          ],
          "data": "0x000000000000000000000000ffffffffffffffffffffffffffffffffffffffff0000000000000000000000000000000000000000000000000000ffffffffffff",
          "blockHash": "0x37b3233be62271a79184e19f7b8177c36bfb50754fdf633730599fb118c371f9",
          "blockNumber": "0x2c8c3f5",
          "blockTimestamp": "0x69b67141",
          "transactionHash": "0x650632f0a2a23fc5bc911005d68a9952a44d5665e2d46c62b436ce79794dcb3b",
          "transactionIndex": "0x10",
          "logIndex": "0xc",
          "removed": false
        }
      ],
      "logsBloom": "0x00010000000000000000000000000000000000000000000000000000000000000000000000000000000000000000000000000002000000000000400000080000000000000000000000000000000000000000000000000000000100001000000000000000000000000000000000020000000000000040000000000000000000000020000000020000000000000000002000000000000000000000000000000000000000000000000000000000000000000000000000000000000000080000000000000000000000000000000000000000000000000000000040000000000000000000000000000000000000000000000000000000000000000000000000002400",
      "type": "0x2",
      "transactionHash": "0x650632f0a2a23fc5bc911005d68a9952a44d5665e2d46c62b436ce79794dcb3b",
      "transactionIndex": "0x10",
      "blockHash": "0x37b3233be62271a79184e19f7b8177c36bfb50754fdf633730599fb118c371f9",
      "blockNumber": "0x2c8c3f5",
      "gasUsed": "0xbaca",
      "effectiveGasPrice": "0x7a121",
      "blobGasUsed": "0xabe0",
      "from": "0x4b992f2fbf714c0fcbb23bac5130ace48cad00cd",
      "to": "0x000000000022d473030f116ddee9f6b43ac78ba3",
      "contractAddress": null,
      "daFootprintGasScalar": "0x190",
      "l1BaseFeeScalar": "0x7d0",
      "l1BlobBaseFee": "0x1",
      "l1BlobBaseFeeScalar": "0xdbba0",
      "l1Fee": "0x83",
      "l1GasPrice": "0x9",
      "l1GasUsed": "0x6e7"
    },
    {
      "status": "0x1",
      "cumulativeGasUsed": "0x26040b",
      "logs": [
        {
          "address": "0x00b036b58a818b1bc34d502d3fe730db729e62ac",
          "topics": [
            "0xdd466e674ea557f56295e2d0218a125ea4b4f0f6f3307b95f85e6110838d6438",
            "0x6e9a22aeccc13b15858ef358c6bc6a2328c0032323f3ae18792d4012767f47a8",
            "0x0000000000000000000000000a42e3ce7a6c4b504937b4377a6f9afbe84b1653",
            "0x000000000000000000000000472b75a8c71d981197c1cdc7e5e2a0037e8bd95f"
          ],
          "data": "0x0000000000000000000000000000000000000000000000000000000000000bb8000000000000000000000000000000000000000000000000000000000000003c000000000000000000000000000000000000000000000000000000000000000000000000000000000000000000000000000000010000000000000000000000000000000000000000000000000000000000000000000000000000000000000000",
          "blockHash": "0x37b3233be62271a79184e19f7b8177c36bfb50754fdf633730599fb118c371f9",
          "blockNumber": "0x2c8c3f5",
          "blockTimestamp": "0x69b67141",
          "transactionHash": "0x9ae3ab236fb415089377673bfea47ac1b92ab1db0adef7007f3633cb8197bc96",
          "transactionIndex": "0x11",
          "logIndex": "0xd",
          "removed": false
        }
      ],
      "logsBloom": "0x00000000000000000000000000000000000000000000000000000000000000000000000000000000000000000000000000000000000000000000400000000000000000000000000100000000000000000000000000000000000000000000000000000000000000000000000001000000000000000000000000000000000000000000000000020008000000000008012000000001000000000000000000200000000000000000000000000000000000000000000000000000000000000000000000000000000000000000000000000000000000000000000000000000000000000000000000300000000000000002000000000000000002000000000000000010",
      "type": "0x2",
      "transactionHash": "0x9ae3ab236fb415089377673bfea47ac1b92ab1db0adef7007f3633cb8197bc96",
      "transactionIndex": "0x11",
      "blockHash": "0x37b3233be62271a79184e19f7b8177c36bfb50754fdf633730599fb118c371f9",
      "blockNumber": "0x2c8c3f5",
      "gasUsed": "0xdb17",
      "effectiveGasPrice": "0x7a121",
      "blobGasUsed": "0xbb80",
      "from": "0x4b992f2fbf714c0fcbb23bac5130ace48cad00cd",
      "to": "0xf969aee60879c54baaed9f3ed26147db216fd664",
      "contractAddress": null,
      "daFootprintGasScalar": "0x190",
      "l1BaseFeeScalar": "0x7d0",
      "l1BlobBaseFee": "0x1",
      "l1BlobBaseFeeScalar": "0xdbba0",
      "l1Fee": "0x8f",
      "l1GasPrice": "0x9",
      "l1GasUsed": "0x788"
    },
    {
      "status": "0x1",
      "cumulativeGasUsed": "0x2c52f0",
      "logs": [
        {
          "address": "0xf969aee60879c54baaed9f3ed26147db216fd664",
          "topics": [
            "0xddf252ad1be2c89b69c2b068fc378daa952ba7f163c4a11628f55a4df523b3ef",
            "0x0000000000000000000000000000000000000000000000000000000000000000",
            "0x0000000000000000000000004b992f2fbf714c0fcbb23bac5130ace48cad00cd",
            "0x0000000000000000000000000000000000000000000000000000000000001c0f"
          ],
          "data": "0x",
          "blockHash": "0x37b3233be62271a79184e19f7b8177c36bfb50754fdf633730599fb118c371f9",
          "blockNumber": "0x2c8c3f5",
          "blockTimestamp": "0x69b67141",
          "transactionHash": "0xd45c76f649da44ddafcba89f68744c58af1074ee2ad09e2f0101b10f55a34e80",
          "transactionIndex": "0x12",
          "logIndex": "0xe",
          "removed": false
        },
        {
          "address": "0x00b036b58a818b1bc34d502d3fe730db729e62ac",
          "topics": [
            "0xf208f4912782fd25c7f114ca3723a2d5dd6f3bcc3ac8db5af63baa85f711d5ec",
            "0x6e9a22aeccc13b15858ef358c6bc6a2328c0032323f3ae18792d4012767f47a8",
            "0x000000000000000000000000f969aee60879c54baaed9f3ed26147db216fd664"
          ],
          "data": "0xfffffffffffffffffffffffffffffffffffffffffffffffffffffffffff2764c00000000000000000000000000000000000000000000000000000000000d89b400000000000000000000000000000000000000000000d3c21bcecceda10000000000000000000000000000000000000000000000000000000000000000001c0f",
          "blockHash": "0x37b3233be62271a79184e19f7b8177c36bfb50754fdf633730599fb118c371f9",
          "blockNumber": "0x2c8c3f5",
          "blockTimestamp": "0x69b67141",
          "transactionHash": "0xd45c76f649da44ddafcba89f68744c58af1074ee2ad09e2f0101b10f55a34e80",
          "transactionIndex": "0x12",
          "logIndex": "0xf",
          "removed": false
        },
        {
          "address": "0x0a42e3ce7a6c4b504937b4377a6f9afbe84b1653",
          "topics": [
            "0xddf252ad1be2c89b69c2b068fc378daa952ba7f163c4a11628f55a4df523b3ef",
            "0x0000000000000000000000004b992f2fbf714c0fcbb23bac5130ace48cad00cd",
            "0x00000000000000000000000000b036b58a818b1bc34d502d3fe730db729e62ac"
          ],
          "data": "0x00000000000000000000000000000000000000000000d3c21bcecceda0ff2baf",
          "blockHash": "0x37b3233be62271a79184e19f7b8177c36bfb50754fdf633730599fb118c371f9",
          "blockNumber": "0x2c8c3f5",
          "blockTimestamp": "0x69b67141",
          "transactionHash": "0xd45c76f649da44ddafcba89f68744c58af1074ee2ad09e2f0101b10f55a34e80",
          "transactionIndex": "0x12",
          "logIndex": "0x10",
          "removed": false
        },
        {
          "address": "0x472b75a8c71d981197c1cdc7e5e2a0037e8bd95f",
          "topics": [
            "0xddf252ad1be2c89b69c2b068fc378daa952ba7f163c4a11628f55a4df523b3ef",
            "0x0000000000000000000000004b992f2fbf714c0fcbb23bac5130ace48cad00cd",
            "0x00000000000000000000000000b036b58a818b1bc34d502d3fe730db729e62ac"
          ],
          "data": "0x00000000000000000000000000000000000000000000d3c21bcecceda0ff2baf",
          "blockHash": "0x37b3233be62271a79184e19f7b8177c36bfb50754fdf633730599fb118c371f9",
          "blockNumber": "0x2c8c3f5",
          "blockTimestamp": "0x69b67141",
          "transactionHash": "0xd45c76f649da44ddafcba89f68744c58af1074ee2ad09e2f0101b10f55a34e80",
          "transactionIndex": "0x12",
          "logIndex": "0x11",
          "removed": false
        }
      ],
      "logsBloom": "0x00000000000000000000002000000002000000000000020000000000000000000000000000000000000000000000000000000002001000000000000000000000000000000000020000000008000000000000000000000000000104001000000000000000020000000000000000024820010000000040000000000010000000000000000001000000000000000008000000000000000000000000000000000000000004000000000000000000000000000800000000000020000000000000000000000002080000000002000000000000000000000000000000000100000020004000000000300000000000000002000004000000000002000000000000002010",
      "type": "0x2",
      "transactionHash": "0xd45c76f649da44ddafcba89f68744c58af1074ee2ad09e2f0101b10f55a34e80",
      "transactionIndex": "0x12",
      "blockHash": "0x37b3233be62271a79184e19f7b8177c36bfb50754fdf633730599fb118c371f9",
      "blockNumber": "0x2c8c3f5",
      "gasUsed": "0x64ee5",
      "effectiveGasPrice": "0x7a121",
      "blobGasUsed": "0x1aa90",
      "from": "0x4b992f2fbf714c0fcbb23bac5130ace48cad00cd",
      "to": "0xf969aee60879c54baaed9f3ed26147db216fd664",
      "contractAddress": null,
      "daFootprintGasScalar": "0x190",
      "l1BaseFeeScalar": "0x7d0",
      "l1BlobBaseFee": "0x1",
      "l1BlobBaseFeeScalar": "0xdbba0",
      "l1Fee": "0x145",
      "l1GasPrice": "0x9",
      "l1GasUsed": "0x1119"
    },
    {
      "status": "0x1",
      "cumulativeGasUsed": "0x2d2ed1",
      "logs": [
        {
          "address": "0x00b036b58a818b1bc34d502d3fe730db729e62ac",
          "topics": [
            "0xdd466e674ea557f56295e2d0218a125ea4b4f0f6f3307b95f85e6110838d6438",
            "0x9989c9c6eaafff0e2642a1824118c3d60086981050dd964e817de3b658fb7d7d",
            "0x0000000000000000000000000a42e3ce7a6c4b504937b4377a6f9afbe84b1653",
            "0x000000000000000000000000472b75a8c71d981197c1cdc7e5e2a0037e8bd95f"
          ],
          "data": "0x0000000000000000000000000000000000000000000000000000000000000bb8000000000000000000000000000000000000000000000000000000000000003c000000000000000000000000bf42f398561644eb55a7269da0f937d0512c40c000000000000000000000000000000000000000010000000000000000000000000000000000000000000000000000000000000000000000000000000000000000",
          "blockHash": "0x37b3233be62271a79184e19f7b8177c36bfb50754fdf633730599fb118c371f9",
          "blockNumber": "0x2c8c3f5",
          "blockTimestamp": "0x69b67141",
          "transactionHash": "0xcf747e829cee09ab997a68dd7802def529e4450f71ab95abc6f5511e55b89986",
          "transactionIndex": "0x13",
          "logIndex": "0x12",
          "removed": false
        }
      ],
      "logsBloom": "0x00000000000000000000000000000000000080000000000000000000000000000000000000000000000000000000000000000000000000000000400000000000000000000000000100000000000000000000000000000000000000000000000000000000000000000000000001000000000000004000000000000000000000000000000000020008000000000008012000000001000000000000000000200000000000000000000000000000000000000000000000000000000000000000000000000000000000000000000000000000000000000000000000000000000000000000000000000000000000000000000000400000000002000000000000000010",
      "type": "0x2",
      "transactionHash": "0xcf747e829cee09ab997a68dd7802def529e4450f71ab95abc6f5511e55b89986",
      "transactionIndex": "0x13",
      "blockHash": "0x37b3233be62271a79184e19f7b8177c36bfb50754fdf633730599fb118c371f9",
      "blockNumber": "0x2c8c3f5",
      "gasUsed": "0xdbe1",
      "effectiveGasPrice": "0x7a121",
      "blobGasUsed": "0xdde0",
      "from": "0x4b992f2fbf714c0fcbb23bac5130ace48cad00cd",
      "to": "0xf969aee60879c54baaed9f3ed26147db216fd664",
      "contractAddress": null,
      "daFootprintGasScalar": "0x190",
      "l1BaseFeeScalar": "0x7d0",
      "l1BlobBaseFee": "0x1",
      "l1BlobBaseFeeScalar": "0xdbba0",
      "l1Fee": "0xa9",
      "l1GasPrice": "0x9",
      "l1GasUsed": "0x8e4"
    },
    {
      "status": "0x1",
      "cumulativeGasUsed": "0x3346ca",
      "logs": [
        {
          "address": "0xf969aee60879c54baaed9f3ed26147db216fd664",
          "topics": [
            "0xddf252ad1be2c89b69c2b068fc378daa952ba7f163c4a11628f55a4df523b3ef",
            "0x0000000000000000000000000000000000000000000000000000000000000000",
            "0x0000000000000000000000004b992f2fbf714c0fcbb23bac5130ace48cad00cd",
            "0x0000000000000000000000000000000000000000000000000000000000001c10"
          ],
          "data": "0x",
          "blockHash": "0x37b3233be62271a79184e19f7b8177c36bfb50754fdf633730599fb118c371f9",
          "blockNumber": "0x2c8c3f5",
          "blockTimestamp": "0x69b67141",
          "transactionHash": "0x1ae9092e7cfd7c1c14d66ff3482d56b27ec3d516f2911c85be2a10e6d521de1b",
          "transactionIndex": "0x14",
          "logIndex": "0x13",
          "removed": false
        },
        {
          "address": "0x00b036b58a818b1bc34d502d3fe730db729e62ac",
          "topics": [
            "0xf208f4912782fd25c7f114ca3723a2d5dd6f3bcc3ac8db5af63baa85f711d5ec",
            "0x9989c9c6eaafff0e2642a1824118c3d60086981050dd964e817de3b658fb7d7d",
            "0x000000000000000000000000f969aee60879c54baaed9f3ed26147db216fd664"
          ],
          "data": "0xfffffffffffffffffffffffffffffffffffffffffffffffffffffffffff2764c00000000000000000000000000000000000000000000000000000000000d89b400000000000000000000000000000000000000000000d3c21bcecceda10000000000000000000000000000000000000000000000000000000000000000001c10",
          "blockHash": "0x37b3233be62271a79184e19f7b8177c36bfb50754fdf633730599fb118c371f9",
          "blockNumber": "0x2c8c3f5",
          "blockTimestamp": "0x69b67141",
          "transactionHash": "0x1ae9092e7cfd7c1c14d66ff3482d56b27ec3d516f2911c85be2a10e6d521de1b",
          "transactionIndex": "0x14",
          "logIndex": "0x14",
          "removed": false
        },
        {
          "address": "0x0a42e3ce7a6c4b504937b4377a6f9afbe84b1653",
          "topics": [
            "0xddf252ad1be2c89b69c2b068fc378daa952ba7f163c4a11628f55a4df523b3ef",
            "0x0000000000000000000000004b992f2fbf714c0fcbb23bac5130ace48cad00cd",
            "0x00000000000000000000000000b036b58a818b1bc34d502d3fe730db729e62ac"
          ],
          "data": "0x00000000000000000000000000000000000000000000d3c21bcecceda0ff2baf",
          "blockHash": "0x37b3233be62271a79184e19f7b8177c36bfb50754fdf633730599fb118c371f9",
          "blockNumber": "0x2c8c3f5",
          "blockTimestamp": "0x69b67141",
          "transactionHash": "0x1ae9092e7cfd7c1c14d66ff3482d56b27ec3d516f2911c85be2a10e6d521de1b",
          "transactionIndex": "0x14",
          "logIndex": "0x15",
          "removed": false
        },
        {
          "address": "0x472b75a8c71d981197c1cdc7e5e2a0037e8bd95f",
          "topics": [
            "0xddf252ad1be2c89b69c2b068fc378daa952ba7f163c4a11628f55a4df523b3ef",
            "0x0000000000000000000000004b992f2fbf714c0fcbb23bac5130ace48cad00cd",
            "0x00000000000000000000000000b036b58a818b1bc34d502d3fe730db729e62ac"
          ],
          "data": "0x00000000000000000000000000000000000000000000d3c21bcecceda0ff2baf",
          "blockHash": "0x37b3233be62271a79184e19f7b8177c36bfb50754fdf633730599fb118c371f9",
          "blockNumber": "0x2c8c3f5",
          "blockTimestamp": "0x69b67141",
          "transactionHash": "0x1ae9092e7cfd7c1c14d66ff3482d56b27ec3d516f2911c85be2a10e6d521de1b",
          "transactionIndex": "0x14",
          "logIndex": "0x16",
          "removed": false
        }
      ],
      "logsBloom": "0x00000000000000000080002000000000000080000000000000000000000000000000000000000000000000000000000000000002001000000000000000000000000000000000020000000008000000000000000000000000000104001000000000000000020000000000000000024820010000004040000000000010000000000000000001000000000000000008000000000000000000000000000000000008000004000000000000000000000000000800000000000020000000000000000000000002080000000002000000000000000000000000000000000000000020004000000000000000000000000000000004400010000002000000000000002010",
      "type": "0x2",
      "transactionHash": "0x1ae9092e7cfd7c1c14d66ff3482d56b27ec3d516f2911c85be2a10e6d521de1b",
      "transactionIndex": "0x14",
      "blockHash": "0x37b3233be62271a79184e19f7b8177c36bfb50754fdf633730599fb118c371f9",
      "blockNumber": "0x2c8c3f5",
      "gasUsed": "0x617f9",
      "effectiveGasPrice": "0x7a121",
      "blobGasUsed": "0x1bee0",
      "from": "0x4b992f2fbf714c0fcbb23bac5130ace48cad00cd",
      "to": "0xf969aee60879c54baaed9f3ed26147db216fd664",
      "contractAddress": null,
      "daFootprintGasScalar": "0x190",
      "l1BaseFeeScalar": "0x7d0",
      "l1BlobBaseFee": "0x1",
      "l1BlobBaseFeeScalar": "0xdbba0",
      "l1Fee": "0x153",
      "l1GasPrice": "0x9",
      "l1GasUsed": "0x11e2"
    },
    {
      "status": "0x1",
      "cumulativeGasUsed": "0x33fc60",
      "logs": [
        {
          "address": "0x0a42e3ce7a6c4b504937b4377a6f9afbe84b1653",
          "topics": [
            "0x8c5be1e5ebec7d5bd14f71427d1e84f3dd0314c0f7b2291e5b200ac8c7c3b925",
            "0x0000000000000000000000004b992f2fbf714c0fcbb23bac5130ace48cad00cd",
            "0x0000000000000000000000009cd2b0a732dd5e023a5539921e0fd1c30e198dba"
          ],
          "data": "0xffffffffffffffffffffffffffffffffffffffffffffffffffffffffffffffff",
          "blockHash": "0x37b3233be62271a79184e19f7b8177c36bfb50754fdf633730599fb118c371f9",
          "blockNumber": "0x2c8c3f5",
          "blockTimestamp": "0x69b67141",
          "transactionHash": "0x0e1025ff853b5f5571ef54b202a78951730c83af82c53b9a231916d47fd86308",
          "transactionIndex": "0x15",
          "logIndex": "0x17",
          "removed": false
        }
      ],
      "logsBloom": "0x00000000000000000000002000000000000000004000000000000000000000000080000000000000000000000000000000000002000000000000000000200000000000000000000000000000000000000000000000000000000104000000000000000000000000000000000000020000010000000000000000000000000000000000000000000000000000000000000000000000000000000000000000000000020000000000000000000000000000000000080000000000000000000000000000000000000000000000000000000000000000000000000000000000000000000010000000000000000000000000000000000000000000000000000000000000",
      "type": "0x2",
      "transactionHash": "0x0e1025ff853b5f5571ef54b202a78951730c83af82c53b9a231916d47fd86308",
      "transactionIndex": "0x15",
      "blockHash": "0x37b3233be62271a79184e19f7b8177c36bfb50754fdf633730599fb118c371f9",
      "blockNumber": "0x2c8c3f5",
      "gasUsed": "0xb596",
      "effectiveGasPrice": "0x7a121",
      "blobGasUsed": "0x9c40",
      "from": "0x4b992f2fbf714c0fcbb23bac5130ace48cad00cd",
      "to": "0x0a42e3ce7a6c4b504937b4377a6f9afbe84b1653",
      "contractAddress": null,
      "daFootprintGasScalar": "0x190",
      "l1BaseFeeScalar": "0x7d0",
      "l1BlobBaseFee": "0x1",
      "l1BlobBaseFeeScalar": "0xdbba0",
      "l1Fee": "0x76",
      "l1GasPrice": "0x9",
      "l1GasUsed": "0x640"
    },
    {
      "status": "0x1",
      "cumulativeGasUsed": "0x34b1f6",
      "logs": [
        {
          "address": "0x0a42e3ce7a6c4b504937b4377a6f9afbe84b1653",
          "topics": [
            "0x8c5be1e5ebec7d5bd14f71427d1e84f3dd0314c0f7b2291e5b200ac8c7c3b925",
            "0x0000000000000000000000004b992f2fbf714c0fcbb23bac5130ace48cad00cd",
            "0x000000000000000000000000493a90b1ea1bcbe2c6ab5af70928c82051b5e726"
          ],
          "data": "0xffffffffffffffffffffffffffffffffffffffffffffffffffffffffffffffff",
          "blockHash": "0x37b3233be62271a79184e19f7b8177c36bfb50754fdf633730599fb118c371f9",
          "blockNumber": "0x2c8c3f5",
          "blockTimestamp": "0x69b67141",
          "transactionHash": "0xa5e9b62f1f4aae498a992ab599fc57cc92a61c3d49b11f89fc0770327fa0e7a7",
          "transactionIndex": "0x16",
          "logIndex": "0x18",
          "removed": false
        }
      ],
      "logsBloom": "0x00000000000000000000002200000000000000000000000000000000000000000000000000000000000000000000000000000002000000000000000000200000000000000000000000000000000000000000000000000000000104000000000000200000000000000000000000020000010000000000000000000000000000000000000000100000000000000000000000000000000000000000000000000000020000000000000000000000000000000000000000000000000000000000000000000000000000000000000000000000000000000000000000000000000000000010000000000000000000000000000000000000000000000000000000000000",
      "type": "0x2",
      "transactionHash": "0xa5e9b62f1f4aae498a992ab599fc57cc92a61c3d49b11f89fc0770327fa0e7a7",
      "transactionIndex": "0x16",
      "blockHash": "0x37b3233be62271a79184e19f7b8177c36bfb50754fdf633730599fb118c371f9",
      "blockNumber": "0x2c8c3f5",
      "gasUsed": "0xb596",
      "effectiveGasPrice": "0x7a121",
      "blobGasUsed": "0x9c40",
      "from": "0x4b992f2fbf714c0fcbb23bac5130ace48cad00cd",
      "to": "0x0a42e3ce7a6c4b504937b4377a6f9afbe84b1653",
      "contractAddress": null,
      "daFootprintGasScalar": "0x190",
      "l1BaseFeeScalar": "0x7d0",
      "l1BlobBaseFee": "0x1",
      "l1BlobBaseFeeScalar": "0xdbba0",
      "l1Fee": "0x76",
      "l1GasPrice": "0x9",
      "l1GasUsed": "0x640"
    },
    {
      "status": "0x1",
      "cumulativeGasUsed": "0x48011",
      "logs": [
        {
          "address": "0x00b036b58a818b1bc34d502d3fe730db729e62ac",
          "topics": [
            "0x40e9cecb9f5f1f1c5b9c97dec2917b7ee92e57ba5563708daca94dd84ad7112f",
            "0x6e9a22aeccc13b15858ef358c6bc6a2328c0032323f3ae18792d4012767f47a8",
            "0x0000000000000000000000009cd2b0a732dd5e023a5539921e0fd1c30e198dba"
          ],
          "data": "0xfffffffffffffffffffffffffffffffffffffffffffffffd4a1c50e94e780000000000000000000000000000000000000000000000000002b3c5f2e19935a6f30000000000000000000000000000000000000000fffcbbb28d87c1d70daa712900000000000000000000000000000000000000000000d3c21bcecceda1000000ffffffffffffffffffffffffffffffffffffffffffffffffffffffffffffffff0000000000000000000000000000000000000000000000000000000000000bb8",
          "blockHash": "0x634f388a2c07584c09bde95badecc1169b1c8654e327cfb6e060748d08222d0a",
          "blockNumber": "0x2c8c3f6",
          "blockTimestamp": "0x69b67142",
          "transactionHash": "0xe77f550e22e29dfea62a56ad79239dee774a617fb27590c2af94f82e65348083",
          "transactionIndex": "0x3",
          "logIndex": "0x1",
          "removed": false
        },
        {
          "address": "0x0a42e3ce7a6c4b504937b4377a6f9afbe84b1653",
          "topics": [
            "0xddf252ad1be2c89b69c2b068fc378daa952ba7f163c4a11628f55a4df523b3ef",
            "0x0000000000000000000000004b992f2fbf714c0fcbb23bac5130ace48cad00cd",
            "0x00000000000000000000000000b036b58a818b1bc34d502d3fe730db729e62ac"
          ],
          "data": "0x000000000000000000000000000000000000000000000002b5e3af16b1880000",
          "blockHash": "0x634f388a2c07584c09bde95badecc1169b1c8654e327cfb6e060748d08222d0a",
          "blockNumber": "0x2c8c3f6",
          "blockTimestamp": "0x69b67142",
          "transactionHash": "0xe77f550e22e29dfea62a56ad79239dee774a617fb27590c2af94f82e65348083",
          "transactionIndex": "0x3",
          "logIndex": "0x2",
          "removed": false
        },
        {
          "address": "0x472b75a8c71d981197c1cdc7e5e2a0037e8bd95f",
          "topics": [
            "0xddf252ad1be2c89b69c2b068fc378daa952ba7f163c4a11628f55a4df523b3ef",
            "0x00000000000000000000000000b036b58a818b1bc34d502d3fe730db729e62ac",
            "0x0000000000000000000000004b992f2fbf714c0fcbb23bac5130ace48cad00cd"
          ],
          "data": "0x000000000000000000000000000000000000000000000002b3c5f2e19935a6f3",
          "blockHash": "0x634f388a2c07584c09bde95badecc1169b1c8654e327cfb6e060748d08222d0a",
          "blockNumber": "0x2c8c3f6",
          "blockTimestamp": "0x69b67142",
          "transactionHash": "0xe77f550e22e29dfea62a56ad79239dee774a617fb27590c2af94f82e65348083",
          "transactionIndex": "0x3",
          "logIndex": "0x3",
          "removed": false
        }
      ],
      "logsBloom": "0x00000000000000000000002000000000000000004000000000000000000000000080000000000000000000000000000000000002041000000000000000000000000000000000020000000008000000000000000000000020000104000000000000000000000000000000000000024020010000000000000000000010000000000000000000000000000000000008000000000000000000000000000000000000000000000000000000000000000000000000080000000020000000000000000000000002000000000002000000000000000000000000000000000000000000000000000000300000004000000002000000000000000002000000000000000010",
      "type": "0x2",
      "transactionHash": "0xe77f550e22e29dfea62a56ad79239dee774a617fb27590c2af94f82e65348083",
      "transactionIndex": "0x3",
      "blockHash": "0x634f388a2c07584c09bde95badecc1169b1c8654e327cfb6e060748d08222d0a",
      "blockNumber": "0x2c8c3f6",
      "gasUsed": "0x1f05d",
      "effectiveGasPrice": "0x7a121",
      "blobGasUsed": "0x11300",
      "from": "0x4b992f2fbf714c0fcbb23bac5130ace48cad00cd",
      "to": "0x9cd2b0a732dd5e023a5539921e0fd1c30e198dba",
      "contractAddress": null,
      "daFootprintGasScalar": "0x190",
      "l1BaseFeeScalar": "0x7d0",
      "l1BlobBaseFee": "0x1",
      "l1BlobBaseFeeScalar": "0xdbba0",
      "l1Fee": "0xd1",
      "l1GasPrice": "0x9",
      "l1GasUsed": "0xb09"
    },
    {
      "status": "0x1",
      "cumulativeGasUsed": "0xa6713",
      "logs": [
        {
          "address": "0x0a42e3ce7a6c4b504937b4377a6f9afbe84b1653",
          "topics": [
            "0xddf252ad1be2c89b69c2b068fc378daa952ba7f163c4a11628f55a4df523b3ef",
            "0x0000000000000000000000004b992f2fbf714c0fcbb23bac5130ace48cad00cd",
            "0x000000000000000000000000493a90b1ea1bcbe2c6ab5af70928c82051b5e726"
          ],
          "data": "0x000000000000000000000000000000000000000000000002b5e3af16b1880000",
          "blockHash": "0x634f388a2c07584c09bde95badecc1169b1c8654e327cfb6e060748d08222d0a",
          "blockNumber": "0x2c8c3f6",
          "blockTimestamp": "0x69b67142",
          "transactionHash": "0xaa8730fbced79836653d2feb9bbf2d0a8da08106da00de9ca55d63bc1eaef9e9",
          "transactionIndex": "0x5",
          "logIndex": "0x5",
          "removed": false
        },
        {
          "address": "0x493a90b1ea1bcbe2c6ab5af70928c82051b5e726",
          "topics": [
            "0x81bed46f3394c5b72a6081e944d2f16fd3d5d9ae08034008ce1fe8929114111c",
            "0xc367f0c131d919f7bbb9d871f4df1ffe66429945153845ca67ffb2e37729053a",
            "0x0000000000000000000000004b992f2fbf714c0fcbb23bac5130ace48cad00cd",
            "0x9989c9c6eaafff0e2642a1824118c3d60086981050dd964e817de3b658fb7d7d"
          ],
          "data": "0x0000000000000000000000000000000000000000000000000000000000000000",
          "blockHash": "0x634f388a2c07584c09bde95badecc1169b1c8654e327cfb6e060748d08222d0a",
          "blockNumber": "0x2c8c3f6",
          "blockTimestamp": "0x69b67142",
          "transactionHash": "0xaa8730fbced79836653d2feb9bbf2d0a8da08106da00de9ca55d63bc1eaef9e9",
          "transactionIndex": "0x5",
          "logIndex": "0x6",
          "removed": false
        },
        {
          "address": "0xbf42f398561644eb55a7269da0f937d0512c40c0",
          "topics": [
            "0x81bed46f3394c5b72a6081e944d2f16fd3d5d9ae08034008ce1fe8929114111c",
            "0xc367f0c131d919f7bbb9d871f4df1ffe66429945153845ca67ffb2e37729053a",
            "0x0000000000000000000000004b992f2fbf714c0fcbb23bac5130ace48cad00cd",
            "0x9989c9c6eaafff0e2642a1824118c3d60086981050dd964e817de3b658fb7d7d"
          ],
          "data": "0x0000000000000000000000000000000000000000000000000000000000000000",
          "blockHash": "0x634f388a2c07584c09bde95badecc1169b1c8654e327cfb6e060748d08222d0a",
          "blockNumber": "0x2c8c3f6",
          "blockTimestamp": "0x69b67142",
          "transactionHash": "0xaa8730fbced79836653d2feb9bbf2d0a8da08106da00de9ca55d63bc1eaef9e9",
          "transactionIndex": "0x5",
          "logIndex": "0x7",
          "removed": false
        }
      ],
      "logsBloom": "0x00000000000000000000002200000000000080000000000000000000000000000004000000000000000000200000000000000002000000040000000000000010000000000000000000000008000000000000000000200000000104000000000000200000000000000000000000020000010000004000000000000010000000200000000000100000000000000000000000000400000000000000000000000000000000000000000000000000000000000000000000000000000000000000000000000002800000000000000000100000000000000000800000000000000000000000000000000000001000000000000000400000000000020000000000000000",
      "type": "0x2",
      "transactionHash": "0xaa8730fbced79836653d2feb9bbf2d0a8da08106da00de9ca55d63bc1eaef9e9",
      "transactionIndex": "0x5",
      "blockHash": "0x634f388a2c07584c09bde95badecc1169b1c8654e327cfb6e060748d08222d0a",
      "blockNumber": "0x2c8c3f6",
      "gasUsed": "0x476d0",
      "effectiveGasPrice": "0x7a121",
      "blobGasUsed": "0x12a70",
      "from": "0x4b992f2fbf714c0fcbb23bac5130ace48cad00cd",
      "to": "0x493a90b1ea1bcbe2c6ab5af70928c82051b5e726",
      "contractAddress": null,
      "daFootprintGasScalar": "0x190",
      "l1BaseFeeScalar": "0x7d0",
      "l1BlobBaseFee": "0x1",
      "l1BlobBaseFeeScalar": "0xdbba0",
      "l1Fee": "0xe3",
      "l1GasPrice": "0x9",
      "l1GasUsed": "0xbfa"
    },
    {
      "status": "0x1",
      "cumulativeGasUsed": "0xe8ce6",
      "logs": [
        {
          "address": "0x0a42e3ce7a6c4b504937b4377a6f9afbe84b1653",
          "topics": [
            "0xddf252ad1be2c89b69c2b068fc378daa952ba7f163c4a11628f55a4df523b3ef",
            "0x000000000000000000000000493a90b1ea1bcbe2c6ab5af70928c82051b5e726",
            "0x000000000000000000000000e56a90ad0deab20ee9fcd780b14ca90fc71d3f5d"
          ],
          "data": "0x0000000000000000000000000000000000000000000000008ac7230489e80000",
          "blockHash": "0x634f388a2c07584c09bde95badecc1169b1c8654e327cfb6e060748d08222d0a",
          "blockNumber": "0x2c8c3f6",
          "blockTimestamp": "0x69b67142",
          "transactionHash": "0xe152d7a6cb7e1092009d680e7a908408309d6df85ec2e5fb6e25a616de7b8487",
          "transactionIndex": "0x6",
          "logIndex": "0x8",
          "removed": false
        },
        {
          "address": "0xe56a90ad0deab20ee9fcd780b14ca90fc71d3f5d",
          "topics": [
            "0xfcd08d12d91ceb5bb6b09945d5df91da31280e1afc21692235e4df3d350ea1b4",
            "0xc367f0c131d919f7bbb9d871f4df1ffe66429945153845ca67ffb2e37729053a",
            "0x0000000000000000000000000000000000000000000000000000000000000000"
          ],
          "data": "0x0000000000000000000000000000000000000000000000008ac7230489e80000",
          "blockHash": "0x634f388a2c07584c09bde95badecc1169b1c8654e327cfb6e060748d08222d0a",
          "blockNumber": "0x2c8c3f6",
          "blockTimestamp": "0x69b67142",
          "transactionHash": "0xe152d7a6cb7e1092009d680e7a908408309d6df85ec2e5fb6e25a616de7b8487",
          "transactionIndex": "0x6",
          "logIndex": "0x9",
          "removed": false
        },
        {
          "address": "0x00b036b58a818b1bc34d502d3fe730db729e62ac",
          "topics": [
            "0x40e9cecb9f5f1f1c5b9c97dec2917b7ee92e57ba5563708daca94dd84ad7112f",
            "0x9989c9c6eaafff0e2642a1824118c3d60086981050dd964e817de3b658fb7d7d",
            "0x000000000000000000000000e56a90ad0deab20ee9fcd780b14ca90fc71d3f5d"
          ],
          "data": "0xffffffffffffffffffffffffffffffffffffffffffffffff7538dcfb761800000000000000000000000000000000000000000000000000008a5c33c5e260ff840000000000000000000000000000000000000000ffff58bb9a5cc825ba65190d00000000000000000000000000000000000000000000d3c21bcecceda1000000ffffffffffffffffffffffffffffffffffffffffffffffffffffffffffffffff0000000000000000000000000000000000000000000000000000000000000bb8",
          "blockHash": "0x634f388a2c07584c09bde95badecc1169b1c8654e327cfb6e060748d08222d0a",
          "blockNumber": "0x2c8c3f6",
          "blockTimestamp": "0x69b67142",
          "transactionHash": "0xe152d7a6cb7e1092009d680e7a908408309d6df85ec2e5fb6e25a616de7b8487",
          "transactionIndex": "0x6",
          "logIndex": "0xa",
          "removed": false
        },
        {
          "address": "0xbf42f398561644eb55a7269da0f937d0512c40c0",
          "topics": [
            "0xdc9ae19539af70419eb3901d67566a3324d783eeeb4423ce03cfe0fca1e59871",
            "0xc367f0c131d919f7bbb9d871f4df1ffe66429945153845ca67ffb2e37729053a"
          ],
          "data": "0x00000000000000000000000000000000000000000000000000000000000000000000000000000000000000000000000000000000000000008ac7230489e800000000000000000000000000000000000000000000000000008a5c33c5e260ff840000000000000000000000000000000000000000000000000000000002c8c3f6",
          "blockHash": "0x634f388a2c07584c09bde95badecc1169b1c8654e327cfb6e060748d08222d0a",
          "blockNumber": "0x2c8c3f6",
          "blockTimestamp": "0x69b67142",
          "transactionHash": "0xe152d7a6cb7e1092009d680e7a908408309d6df85ec2e5fb6e25a616de7b8487",
          "transactionIndex": "0x6",
          "logIndex": "0xb",
          "removed": false
        },
        {
          "address": "0x0a42e3ce7a6c4b504937b4377a6f9afbe84b1653",
          "topics": [
            "0xddf252ad1be2c89b69c2b068fc378daa952ba7f163c4a11628f55a4df523b3ef",
            "0x000000000000000000000000e56a90ad0deab20ee9fcd780b14ca90fc71d3f5d",
            "0x00000000000000000000000000b036b58a818b1bc34d502d3fe730db729e62ac"
          ],
          "data": "0x0000000000000000000000000000000000000000000000008ac7230489e80000",
          "blockHash": "0x634f388a2c07584c09bde95badecc1169b1c8654e327cfb6e060748d08222d0a",
          "blockNumber": "0x2c8c3f6",
          "blockTimestamp": "0x69b67142",
          "transactionHash": "0xe152d7a6cb7e1092009d680e7a908408309d6df85ec2e5fb6e25a616de7b8487",
          "transactionIndex": "0x6",
          "logIndex": "0xc",
          "removed": false
        },
        {
          "address": "0x472b75a8c71d981197c1cdc7e5e2a0037e8bd95f",
          "topics": [
            "0xddf252ad1be2c89b69c2b068fc378daa952ba7f163c4a11628f55a4df523b3ef",
            "0x00000000000000000000000000b036b58a818b1bc34d502d3fe730db729e62ac",
            "0x000000000000000000000000493a90b1ea1bcbe2c6ab5af70928c82051b5e726"
          ],
          "data": "0x0000000000000000000000000000000000000000000000008a5c33c5e260ff84",
          "blockHash": "0x634f388a2c07584c09bde95badecc1169b1c8654e327cfb6e060748d08222d0a",
          "blockNumber": "0x2c8c3f6",
          "blockTimestamp": "0x69b67142",
          "transactionHash": "0xe152d7a6cb7e1092009d680e7a908408309d6df85ec2e5fb6e25a616de7b8487",
          "transactionIndex": "0x6",
          "logIndex": "0xd",
          "removed": false
        },
        {
          "address": "0xe56a90ad0deab20ee9fcd780b14ca90fc71d3f5d",
          "topics": [
            "0xdf7df68fddb55e38a4b636bbd972bdf7820a2a1b99e9531fe805a52f90a7e99d",
            "0xc367f0c131d919f7bbb9d871f4df1ffe66429945153845ca67ffb2e37729053a",
            "0x0000000000000000000000000000000000000000000000000000000000000000"
          ],
          "data": "0x000000000000000000000000000000000000000000000000000000000000000100000000000000000000000000000000000000000000000000000000000000000000000000000000000000000000000000000000000000008a5c33c5e260ff84",
          "blockHash": "0x634f388a2c07584c09bde95badecc1169b1c8654e327cfb6e060748d08222d0a",
          "blockNumber": "0x2c8c3f6",
          "blockTimestamp": "0x69b67142",
          "transactionHash": "0xe152d7a6cb7e1092009d680e7a908408309d6df85ec2e5fb6e25a616de7b8487",
          "transactionIndex": "0x6",
          "logIndex": "0xe",
          "removed": false
        }
      ],
      "logsBloom": "0x00000000000000000000002200000000000080000000000000000000000000000000000000000000000000200000000000200000041000000000001000000000000000000000020000000008000000000000000000000020000004440000000000200000020020000000000001004820010000004001000000000010000000200000000000100000000000000008000000000400000000000000000000000000000000020400000000000000040000000000000000000020000800000000000000000002000000000002000000100000000400000000000000000000000020000000000000000000005800000000000000400000000002021000000000000010",
      "type": "0x2",
      "transactionHash": "0xe152d7a6cb7e1092009d680e7a908408309d6df85ec2e5fb6e25a616de7b8487",
      "transactionIndex": "0x6",
      "blockHash": "0x634f388a2c07584c09bde95badecc1169b1c8654e327cfb6e060748d08222d0a",
      "blockNumber": "0x2c8c3f6",
      "gasUsed": "0x425d3",
      "effectiveGasPrice": "0x7a121",
      "blobGasUsed": "0x11f80",
      "from": "0x4b992f2fbf714c0fcbb23bac5130ace48cad00cd",
      "to": "0xe56a90ad0deab20ee9fcd780b14ca90fc71d3f5d",
      "contractAddress": null,
      "daFootprintGasScalar": "0x190",
      "l1BaseFeeScalar": "0x7d0",
      "l1BlobBaseFee": "0x1",
      "l1BlobBaseFeeScalar": "0xdbba0",
      "l1Fee": "0xda",
      "l1GasPrice": "0x9",
      "l1GasUsed": "0xb81"
    },
    {
      "status": "0x1",
      "cumulativeGasUsed": "0xf8698",
      "logs": [
        {
          "address": "0x493a90b1ea1bcbe2c6ab5af70928c82051b5e726",
          "topics": [
            "0xb3dde0287222b49b4bbdfbd414c2ffd0c3624d21a3f2803e40d0b130ae277d76",
            "0xc367f0c131d919f7bbb9d871f4df1ffe66429945153845ca67ffb2e37729053a"
          ],
          "data": "0x00000000000000000000000000000000000000000000000000000000000000010000000000000000000000000000000000000000000000000000000000000003",
          "blockHash": "0x634f388a2c07584c09bde95badecc1169b1c8654e327cfb6e060748d08222d0a",
          "blockNumber": "0x2c8c3f6",
          "blockTimestamp": "0x69b67142",
          "transactionHash": "0x85a6552d0d389595268e0eb650f8098059e1c5f933310c40456629a54a3d42fe",
          "transactionIndex": "0x7",
          "logIndex": "0xf",
          "removed": false
        },
        {
          "address": "0xbf42f398561644eb55a7269da0f937d0512c40c0",
          "topics": [
            "0x82efaee5b14d8017020d8b71e6fc399e18b833bca549be299b7db2752d4df935",
            "0xc367f0c131d919f7bbb9d871f4df1ffe66429945153845ca67ffb2e37729053a"
          ],
          "data": "0x00000000000000000000000000000000000000000000000000000000000000000000000000000000000000000000000000000000000000000000000000000003",
          "blockHash": "0x634f388a2c07584c09bde95badecc1169b1c8654e327cfb6e060748d08222d0a",
          "blockNumber": "0x2c8c3f6",
          "blockTimestamp": "0x69b67142",
          "transactionHash": "0x85a6552d0d389595268e0eb650f8098059e1c5f933310c40456629a54a3d42fe",
          "transactionIndex": "0x7",
          "logIndex": "0x10",
          "removed": false
        },
        {
          "address": "0xe56a90ad0deab20ee9fcd780b14ca90fc71d3f5d",
          "topics": [
            "0xdf7df68fddb55e38a4b636bbd972bdf7820a2a1b99e9531fe805a52f90a7e99d",
            "0xc367f0c131d919f7bbb9d871f4df1ffe66429945153845ca67ffb2e37729053a",
            "0x0000000000000000000000000000000000000000000000000000000000000000"
          ],
          "data": "0x000000000000000000000000000000000000000000000000000000000000000000000000000000000000000000000000000000000000000000000000000000030000000000000000000000000000000000000000000000000000000000000000",
          "blockHash": "0x634f388a2c07584c09bde95badecc1169b1c8654e327cfb6e060748d08222d0a",
          "blockNumber": "0x2c8c3f6",
          "blockTimestamp": "0x69b67142",
          "transactionHash": "0x85a6552d0d389595268e0eb650f8098059e1c5f933310c40456629a54a3d42fe",
          "transactionIndex": "0x7",
          "logIndex": "0x11",
          "removed": false
        }
      ],
      "logsBloom": "0x00000000000000000000002000000000000000000000000000000000000000000000000000000000000000200000000080000000000000040000001000000000000000000000000000000000000000000000000000200000000000040000000040000000020000000000000000000800000000000001000000000000000000200000000000000200000000000000000000000400000000000000000000000000000000000000000000000000040000000400000000000010000000000000000000000000800000000000000000100000000000000000000000000000000020000000000000000000001000000000000000000000000000023000000000000000",
      "type": "0x2",
      "transactionHash": "0x85a6552d0d389595268e0eb650f8098059e1c5f933310c40456629a54a3d42fe",
      "transactionIndex": "0x7",
      "blockHash": "0x634f388a2c07584c09bde95badecc1169b1c8654e327cfb6e060748d08222d0a",
      "blockNumber": "0x2c8c3f6",
      "gasUsed": "0xf9b2",
      "effectiveGasPrice": "0x7a121",
      "blobGasUsed": "0x11f80",
      "from": "0x4b992f2fbf714c0fcbb23bac5130ace48cad00cd",
      "to": "0xe56a90ad0deab20ee9fcd780b14ca90fc71d3f5d",
      "contractAddress": null,
      "daFootprintGasScalar": "0x190",
      "l1BaseFeeScalar": "0x7d0",
      "l1BlobBaseFee": "0x1",
      "l1BlobBaseFeeScalar": "0xdbba0",
      "l1Fee": "0xda",
      "l1GasPrice": "0x9",
      "l1GasUsed": "0xb81"
    },
    {
      "status": "0x1",
      "cumulativeGasUsed": "0x10804a",
      "logs": [
        {
          "address": "0x493a90b1ea1bcbe2c6ab5af70928c82051b5e726",
          "topics": [
            "0xb3dde0287222b49b4bbdfbd414c2ffd0c3624d21a3f2803e40d0b130ae277d76",
            "0xc367f0c131d919f7bbb9d871f4df1ffe66429945153845ca67ffb2e37729053a"
          ],
          "data": "0x00000000000000000000000000000000000000000000000000000000000000010000000000000000000000000000000000000000000000000000000000000003",
          "blockHash": "0x634f388a2c07584c09bde95badecc1169b1c8654e327cfb6e060748d08222d0a",
          "blockNumber": "0x2c8c3f6",
          "blockTimestamp": "0x69b67142",
          "transactionHash": "0xba244398300c07381449a33adb9bcf9e17258b28efb8141fc7c63dd3194c81f8",
          "transactionIndex": "0x8",
          "logIndex": "0x12",
          "removed": false
        },
        {
          "address": "0xbf42f398561644eb55a7269da0f937d0512c40c0",
          "topics": [
            "0x82efaee5b14d8017020d8b71e6fc399e18b833bca549be299b7db2752d4df935",
            "0xc367f0c131d919f7bbb9d871f4df1ffe66429945153845ca67ffb2e37729053a"
          ],
          "data": "0x00000000000000000000000000000000000000000000000000000000000000000000000000000000000000000000000000000000000000000000000000000003",
          "blockHash": "0x634f388a2c07584c09bde95badecc1169b1c8654e327cfb6e060748d08222d0a",
          "blockNumber": "0x2c8c3f6",
          "blockTimestamp": "0x69b67142",
          "transactionHash": "0xba244398300c07381449a33adb9bcf9e17258b28efb8141fc7c63dd3194c81f8",
          "transactionIndex": "0x8",
          "logIndex": "0x13",
          "removed": false
        },
        {
          "address": "0xe56a90ad0deab20ee9fcd780b14ca90fc71d3f5d",
          "topics": [
            "0xdf7df68fddb55e38a4b636bbd972bdf7820a2a1b99e9531fe805a52f90a7e99d",
            "0xc367f0c131d919f7bbb9d871f4df1ffe66429945153845ca67ffb2e37729053a",
            "0x0000000000000000000000000000000000000000000000000000000000000000"
          ],
          "data": "0x000000000000000000000000000000000000000000000000000000000000000000000000000000000000000000000000000000000000000000000000000000030000000000000000000000000000000000000000000000000000000000000000",
          "blockHash": "0x634f388a2c07584c09bde95badecc1169b1c8654e327cfb6e060748d08222d0a",
          "blockNumber": "0x2c8c3f6",
          "blockTimestamp": "0x69b67142",
          "transactionHash": "0xba244398300c07381449a33adb9bcf9e17258b28efb8141fc7c63dd3194c81f8",
          "transactionIndex": "0x8",
          "logIndex": "0x14",
          "removed": false
        }
      ],
      "logsBloom": "0x00000000000000000000002000000000000000000000000000000000000000000000000000000000000000200000000080000000000000040000001000000000000000000000000000000000000000000000000000200000000000040000000040000000020000000000000000000800000000000001000000000000000000200000000000000200000000000000000000000400000000000000000000000000000000000000000000000000040000000400000000000010000000000000000000000000800000000000000000100000000000000000000000000000000020000000000000000000001000000000000000000000000000023000000000000000",
      "type": "0x2",
      "transactionHash": "0xba244398300c07381449a33adb9bcf9e17258b28efb8141fc7c63dd3194c81f8",
      "transactionIndex": "0x8",
      "blockHash": "0x634f388a2c07584c09bde95badecc1169b1c8654e327cfb6e060748d08222d0a",
      "blockNumber": "0x2c8c3f6",
      "gasUsed": "0xf9b2",
      "effectiveGasPrice": "0x7a121",
      "blobGasUsed": "0x11f80",
      "from": "0x4b992f2fbf714c0fcbb23bac5130ace48cad00cd",
      "to": "0xe56a90ad0deab20ee9fcd780b14ca90fc71d3f5d",
      "contractAddress": null,
      "daFootprintGasScalar": "0x190",
      "l1BaseFeeScalar": "0x7d0",
      "l1BlobBaseFee": "0x1",
      "l1BlobBaseFeeScalar": "0xdbba0",
      "l1Fee": "0xda",
      "l1GasPrice": "0x9",
      "l1GasUsed": "0xb81"
    },
    {
      "status": "0x1",
      "cumulativeGasUsed": "0x1179fc",
      "logs": [
        {
          "address": "0x493a90b1ea1bcbe2c6ab5af70928c82051b5e726",
          "topics": [
            "0xb3dde0287222b49b4bbdfbd414c2ffd0c3624d21a3f2803e40d0b130ae277d76",
            "0xc367f0c131d919f7bbb9d871f4df1ffe66429945153845ca67ffb2e37729053a"
          ],
          "data": "0x00000000000000000000000000000000000000000000000000000000000000010000000000000000000000000000000000000000000000000000000000000003",
          "blockHash": "0x634f388a2c07584c09bde95badecc1169b1c8654e327cfb6e060748d08222d0a",
          "blockNumber": "0x2c8c3f6",
          "blockTimestamp": "0x69b67142",
          "transactionHash": "0x2e180897b98b3bd562ab043b34a6b84f3ef24467fc6b9bcaabab6ed992b1b7b9",
          "transactionIndex": "0x9",
          "logIndex": "0x15",
          "removed": false
        },
        {
          "address": "0xbf42f398561644eb55a7269da0f937d0512c40c0",
          "topics": [
            "0x82efaee5b14d8017020d8b71e6fc399e18b833bca549be299b7db2752d4df935",
            "0xc367f0c131d919f7bbb9d871f4df1ffe66429945153845ca67ffb2e37729053a"
          ],
          "data": "0x00000000000000000000000000000000000000000000000000000000000000000000000000000000000000000000000000000000000000000000000000000003",
          "blockHash": "0x634f388a2c07584c09bde95badecc1169b1c8654e327cfb6e060748d08222d0a",
          "blockNumber": "0x2c8c3f6",
          "blockTimestamp": "0x69b67142",
          "transactionHash": "0x2e180897b98b3bd562ab043b34a6b84f3ef24467fc6b9bcaabab6ed992b1b7b9",
          "transactionIndex": "0x9",
          "logIndex": "0x16",
          "removed": false
        },
        {
          "address": "0xe56a90ad0deab20ee9fcd780b14ca90fc71d3f5d",
          "topics": [
            "0xdf7df68fddb55e38a4b636bbd972bdf7820a2a1b99e9531fe805a52f90a7e99d",
            "0xc367f0c131d919f7bbb9d871f4df1ffe66429945153845ca67ffb2e37729053a",
            "0x0000000000000000000000000000000000000000000000000000000000000000"
          ],
          "data": "0x000000000000000000000000000000000000000000000000000000000000000000000000000000000000000000000000000000000000000000000000000000030000000000000000000000000000000000000000000000000000000000000000",
          "blockHash": "0x634f388a2c07584c09bde95badecc1169b1c8654e327cfb6e060748d08222d0a",
          "blockNumber": "0x2c8c3f6",
          "blockTimestamp": "0x69b67142",
          "transactionHash": "0x2e180897b98b3bd562ab043b34a6b84f3ef24467fc6b9bcaabab6ed992b1b7b9",
          "transactionIndex": "0x9",
          "logIndex": "0x17",
          "removed": false
        }
      ],
      "logsBloom": "0x00000000000000000000002000000000000000000000000000000000000000000000000000000000000000200000000080000000000000040000001000000000000000000000000000000000000000000000000000200000000000040000000040000000020000000000000000000800000000000001000000000000000000200000000000000200000000000000000000000400000000000000000000000000000000000000000000000000040000000400000000000010000000000000000000000000800000000000000000100000000000000000000000000000000020000000000000000000001000000000000000000000000000023000000000000000",
      "type": "0x2",
      "transactionHash": "0x2e180897b98b3bd562ab043b34a6b84f3ef24467fc6b9bcaabab6ed992b1b7b9",
      "transactionIndex": "0x9",
      "blockHash": "0x634f388a2c07584c09bde95badecc1169b1c8654e327cfb6e060748d08222d0a",
      "blockNumber": "0x2c8c3f6",
      "gasUsed": "0xf9b2",
      "effectiveGasPrice": "0x7a121",
      "blobGasUsed": "0x11f80",
      "from": "0x4b992f2fbf714c0fcbb23bac5130ace48cad00cd",
      "to": "0xe56a90ad0deab20ee9fcd780b14ca90fc71d3f5d",
      "contractAddress": null,
      "daFootprintGasScalar": "0x190",
      "l1BaseFeeScalar": "0x7d0",
      "l1BlobBaseFee": "0x1",
      "l1BlobBaseFeeScalar": "0xdbba0",
      "l1Fee": "0xda",
      "l1GasPrice": "0x9",
      "l1GasUsed": "0xb81"
    },
    {
      "status": "0x1",
      "cumulativeGasUsed": "0x1273ae",
      "logs": [
        {
          "address": "0x493a90b1ea1bcbe2c6ab5af70928c82051b5e726",
          "topics": [
            "0xb3dde0287222b49b4bbdfbd414c2ffd0c3624d21a3f2803e40d0b130ae277d76",
            "0xc367f0c131d919f7bbb9d871f4df1ffe66429945153845ca67ffb2e37729053a"
          ],
          "data": "0x00000000000000000000000000000000000000000000000000000000000000010000000000000000000000000000000000000000000000000000000000000003",
          "blockHash": "0x634f388a2c07584c09bde95badecc1169b1c8654e327cfb6e060748d08222d0a",
          "blockNumber": "0x2c8c3f6",
          "blockTimestamp": "0x69b67142",
          "transactionHash": "0xd285238e8a448045804ddb60e960196f9852dc7c646eb2fa8d727a2bcdcb2c77",
          "transactionIndex": "0xa",
          "logIndex": "0x18",
          "removed": false
        },
        {
          "address": "0xbf42f398561644eb55a7269da0f937d0512c40c0",
          "topics": [
            "0x82efaee5b14d8017020d8b71e6fc399e18b833bca549be299b7db2752d4df935",
            "0xc367f0c131d919f7bbb9d871f4df1ffe66429945153845ca67ffb2e37729053a"
          ],
          "data": "0x00000000000000000000000000000000000000000000000000000000000000000000000000000000000000000000000000000000000000000000000000000003",
          "blockHash": "0x634f388a2c07584c09bde95badecc1169b1c8654e327cfb6e060748d08222d0a",
          "blockNumber": "0x2c8c3f6",
          "blockTimestamp": "0x69b67142",
          "transactionHash": "0xd285238e8a448045804ddb60e960196f9852dc7c646eb2fa8d727a2bcdcb2c77",
          "transactionIndex": "0xa",
          "logIndex": "0x19",
          "removed": false
        },
        {
          "address": "0xe56a90ad0deab20ee9fcd780b14ca90fc71d3f5d",
          "topics": [
            "0xdf7df68fddb55e38a4b636bbd972bdf7820a2a1b99e9531fe805a52f90a7e99d",
            "0xc367f0c131d919f7bbb9d871f4df1ffe66429945153845ca67ffb2e37729053a",
            "0x0000000000000000000000000000000000000000000000000000000000000000"
          ],
          "data": "0x000000000000000000000000000000000000000000000000000000000000000000000000000000000000000000000000000000000000000000000000000000030000000000000000000000000000000000000000000000000000000000000000",
          "blockHash": "0x634f388a2c07584c09bde95badecc1169b1c8654e327cfb6e060748d08222d0a",
          "blockNumber": "0x2c8c3f6",
          "blockTimestamp": "0x69b67142",
          "transactionHash": "0xd285238e8a448045804ddb60e960196f9852dc7c646eb2fa8d727a2bcdcb2c77",
          "transactionIndex": "0xa",
          "logIndex": "0x1a",
          "removed": false
        }
      ],
      "logsBloom": "0x00000000000000000000002000000000000000000000000000000000000000000000000000000000000000200000000080000000000000040000001000000000000000000000000000000000000000000000000000200000000000040000000040000000020000000000000000000800000000000001000000000000000000200000000000000200000000000000000000000400000000000000000000000000000000000000000000000000040000000400000000000010000000000000000000000000800000000000000000100000000000000000000000000000000020000000000000000000001000000000000000000000000000023000000000000000",
      "type": "0x2",
      "transactionHash": "0xd285238e8a448045804ddb60e960196f9852dc7c646eb2fa8d727a2bcdcb2c77",
      "transactionIndex": "0xa",
      "blockHash": "0x634f388a2c07584c09bde95badecc1169b1c8654e327cfb6e060748d08222d0a",
      "blockNumber": "0x2c8c3f6",
      "gasUsed": "0xf9b2",
      "effectiveGasPrice": "0x7a121",
      "blobGasUsed": "0x11f80",
      "from": "0x4b992f2fbf714c0fcbb23bac5130ace48cad00cd",
      "to": "0xe56a90ad0deab20ee9fcd780b14ca90fc71d3f5d",
      "contractAddress": null,
      "daFootprintGasScalar": "0x190",
      "l1BaseFeeScalar": "0x7d0",
      "l1BlobBaseFee": "0x1",
      "l1BlobBaseFeeScalar": "0xdbba0",
      "l1Fee": "0xda",
      "l1GasPrice": "0x9",
      "l1GasUsed": "0xb81"
    },
    {
      "status": "0x1",
      "cumulativeGasUsed": "0x17453b",
      "logs": [
        {
          "address": "0x493a90b1ea1bcbe2c6ab5af70928c82051b5e726",
          "topics": [
            "0xb3dde0287222b49b4bbdfbd414c2ffd0c3624d21a3f2803e40d0b130ae277d76",
            "0xc367f0c131d919f7bbb9d871f4df1ffe66429945153845ca67ffb2e37729053a"
          ],
          "data": "0x00000000000000000000000000000000000000000000000000000000000000010000000000000000000000000000000000000000000000000000000000000003",
          "blockHash": "0x634f388a2c07584c09bde95badecc1169b1c8654e327cfb6e060748d08222d0a",
          "blockNumber": "0x2c8c3f6",
          "blockTimestamp": "0x69b67142",
          "transactionHash": "0xa46b42c74497839bf5464924310e0faf65d2bd68f474db46806249637de6ca29",
          "transactionIndex": "0xd",
          "logIndex": "0x20",
          "removed": false
        },
        {
          "address": "0xbf42f398561644eb55a7269da0f937d0512c40c0",
          "topics": [
            "0x82efaee5b14d8017020d8b71e6fc399e18b833bca549be299b7db2752d4df935",
            "0xc367f0c131d919f7bbb9d871f4df1ffe66429945153845ca67ffb2e37729053a"
          ],
          "data": "0x00000000000000000000000000000000000000000000000000000000000000000000000000000000000000000000000000000000000000000000000000000003",
          "blockHash": "0x634f388a2c07584c09bde95badecc1169b1c8654e327cfb6e060748d08222d0a",
          "blockNumber": "0x2c8c3f6",
          "blockTimestamp": "0x69b67142",
          "transactionHash": "0xa46b42c74497839bf5464924310e0faf65d2bd68f474db46806249637de6ca29",
          "transactionIndex": "0xd",
          "logIndex": "0x21",
          "removed": false
        },
        {
          "address": "0xe56a90ad0deab20ee9fcd780b14ca90fc71d3f5d",
          "topics": [
            "0xdf7df68fddb55e38a4b636bbd972bdf7820a2a1b99e9531fe805a52f90a7e99d",
            "0xc367f0c131d919f7bbb9d871f4df1ffe66429945153845ca67ffb2e37729053a",
            "0x0000000000000000000000000000000000000000000000000000000000000000"
          ],
          "data": "0x000000000000000000000000000000000000000000000000000000000000000000000000000000000000000000000000000000000000000000000000000000030000000000000000000000000000000000000000000000000000000000000000",
          "blockHash": "0x634f388a2c07584c09bde95badecc1169b1c8654e327cfb6e060748d08222d0a",
          "blockNumber": "0x2c8c3f6",
          "blockTimestamp": "0x69b67142",
          "transactionHash": "0xa46b42c74497839bf5464924310e0faf65d2bd68f474db46806249637de6ca29",
          "transactionIndex": "0xd",
          "logIndex": "0x22",
          "removed": false
        }
      ],
      "logsBloom": "0x00000000000000000000002000000000000000000000000000000000000000000000000000000000000000200000000080000000000000040000001000000000000000000000000000000000000000000000000000200000000000040000000040000000020000000000000000000800000000000001000000000000000000200000000000000200000000000000000000000400000000000000000000000000000000000000000000000000040000000400000000000010000000000000000000000000800000000000000000100000000000000000000000000000000020000000000000000000001000000000000000000000000000023000000000000000",
      "type": "0x2",
      "transactionHash": "0xa46b42c74497839bf5464924310e0faf65d2bd68f474db46806249637de6ca29",
      "transactionIndex": "0xd",
      "blockHash": "0x634f388a2c07584c09bde95badecc1169b1c8654e327cfb6e060748d08222d0a",
      "blockNumber": "0x2c8c3f6",
      "gasUsed": "0xf9b2",
      "effectiveGasPrice": "0x7a121",
      "blobGasUsed": "0x11f80",
      "from": "0x4b992f2fbf714c0fcbb23bac5130ace48cad00cd",
      "to": "0xe56a90ad0deab20ee9fcd780b14ca90fc71d3f5d",
      "contractAddress": null,
      "daFootprintGasScalar": "0x190",
      "l1BaseFeeScalar": "0x7d0",
      "l1BlobBaseFee": "0x1",
      "l1BlobBaseFeeScalar": "0xdbba0",
      "l1Fee": "0xda",
      "l1GasPrice": "0x9",
      "l1GasUsed": "0xb81"
    },
    {
      "status": "0x1",
      "cumulativeGasUsed": "0x183eed",
      "logs": [
        {
          "address": "0x493a90b1ea1bcbe2c6ab5af70928c82051b5e726",
          "topics": [
            "0xb3dde0287222b49b4bbdfbd414c2ffd0c3624d21a3f2803e40d0b130ae277d76",
            "0xc367f0c131d919f7bbb9d871f4df1ffe66429945153845ca67ffb2e37729053a"
          ],
          "data": "0x00000000000000000000000000000000000000000000000000000000000000010000000000000000000000000000000000000000000000000000000000000003",
          "blockHash": "0x634f388a2c07584c09bde95badecc1169b1c8654e327cfb6e060748d08222d0a",
          "blockNumber": "0x2c8c3f6",
          "blockTimestamp": "0x69b67142",
          "transactionHash": "0xc34a3237acdf099bb40dd185557308a2802857edd6f6a1dda57d9a10a78587d4",
          "transactionIndex": "0xe",
          "logIndex": "0x23",
          "removed": false
        },
        {
          "address": "0xbf42f398561644eb55a7269da0f937d0512c40c0",
          "topics": [
            "0x82efaee5b14d8017020d8b71e6fc399e18b833bca549be299b7db2752d4df935",
            "0xc367f0c131d919f7bbb9d871f4df1ffe66429945153845ca67ffb2e37729053a"
          ],
          "data": "0x00000000000000000000000000000000000000000000000000000000000000000000000000000000000000000000000000000000000000000000000000000003",
          "blockHash": "0x634f388a2c07584c09bde95badecc1169b1c8654e327cfb6e060748d08222d0a",
          "blockNumber": "0x2c8c3f6",
          "blockTimestamp": "0x69b67142",
          "transactionHash": "0xc34a3237acdf099bb40dd185557308a2802857edd6f6a1dda57d9a10a78587d4",
          "transactionIndex": "0xe",
          "logIndex": "0x24",
          "removed": false
        },
        {
          "address": "0xe56a90ad0deab20ee9fcd780b14ca90fc71d3f5d",
          "topics": [
            "0xdf7df68fddb55e38a4b636bbd972bdf7820a2a1b99e9531fe805a52f90a7e99d",
            "0xc367f0c131d919f7bbb9d871f4df1ffe66429945153845ca67ffb2e37729053a",
            "0x0000000000000000000000000000000000000000000000000000000000000000"
          ],
          "data": "0x000000000000000000000000000000000000000000000000000000000000000000000000000000000000000000000000000000000000000000000000000000030000000000000000000000000000000000000000000000000000000000000000",
          "blockHash": "0x634f388a2c07584c09bde95badecc1169b1c8654e327cfb6e060748d08222d0a",
          "blockNumber": "0x2c8c3f6",
          "blockTimestamp": "0x69b67142",
          "transactionHash": "0xc34a3237acdf099bb40dd185557308a2802857edd6f6a1dda57d9a10a78587d4",
          "transactionIndex": "0xe",
          "logIndex": "0x25",
          "removed": false
        }
      ],
      "logsBloom": "0x00000000000000000000002000000000000000000000000000000000000000000000000000000000000000200000000080000000000000040000001000000000000000000000000000000000000000000000000000200000000000040000000040000000020000000000000000000800000000000001000000000000000000200000000000000200000000000000000000000400000000000000000000000000000000000000000000000000040000000400000000000010000000000000000000000000800000000000000000100000000000000000000000000000000020000000000000000000001000000000000000000000000000023000000000000000",
      "type": "0x2",
      "transactionHash": "0xc34a3237acdf099bb40dd185557308a2802857edd6f6a1dda57d9a10a78587d4",
      "transactionIndex": "0xe",
      "blockHash": "0x634f388a2c07584c09bde95badecc1169b1c8654e327cfb6e060748d08222d0a",
      "blockNumber": "0x2c8c3f6",
      "gasUsed": "0xf9b2",
      "effectiveGasPrice": "0x7a121",
      "blobGasUsed": "0x11f80",
      "from": "0x4b992f2fbf714c0fcbb23bac5130ace48cad00cd",
      "to": "0xe56a90ad0deab20ee9fcd780b14ca90fc71d3f5d",
      "contractAddress": null,
      "daFootprintGasScalar": "0x190",
      "l1BaseFeeScalar": "0x7d0",
      "l1BlobBaseFee": "0x1",
      "l1BlobBaseFeeScalar": "0xdbba0",
      "l1Fee": "0xda",
      "l1GasPrice": "0x9",
      "l1GasUsed": "0xb81"
    },
    {
      "status": "0x1",
      "cumulativeGasUsed": "0x19389f",
      "logs": [
        {
          "address": "0x493a90b1ea1bcbe2c6ab5af70928c82051b5e726",
          "topics": [
            "0xb3dde0287222b49b4bbdfbd414c2ffd0c3624d21a3f2803e40d0b130ae277d76",
            "0xc367f0c131d919f7bbb9d871f4df1ffe66429945153845ca67ffb2e37729053a"
          ],
          "data": "0x00000000000000000000000000000000000000000000000000000000000000010000000000000000000000000000000000000000000000000000000000000003",
          "blockHash": "0x634f388a2c07584c09bde95badecc1169b1c8654e327cfb6e060748d08222d0a",
          "blockNumber": "0x2c8c3f6",
          "blockTimestamp": "0x69b67142",
          "transactionHash": "0x6b421cc37ff4e5a9d3944f30fc410f615017164303b24d3c80f94ac39479b894",
          "transactionIndex": "0xf",
          "logIndex": "0x26",
          "removed": false
        },
        {
          "address": "0xbf42f398561644eb55a7269da0f937d0512c40c0",
          "topics": [
            "0x82efaee5b14d8017020d8b71e6fc399e18b833bca549be299b7db2752d4df935",
            "0xc367f0c131d919f7bbb9d871f4df1ffe66429945153845ca67ffb2e37729053a"
          ],
          "data": "0x00000000000000000000000000000000000000000000000000000000000000000000000000000000000000000000000000000000000000000000000000000003",
          "blockHash": "0x634f388a2c07584c09bde95badecc1169b1c8654e327cfb6e060748d08222d0a",
          "blockNumber": "0x2c8c3f6",
          "blockTimestamp": "0x69b67142",
          "transactionHash": "0x6b421cc37ff4e5a9d3944f30fc410f615017164303b24d3c80f94ac39479b894",
          "transactionIndex": "0xf",
          "logIndex": "0x27",
          "removed": false
        },
        {
          "address": "0xe56a90ad0deab20ee9fcd780b14ca90fc71d3f5d",
          "topics": [
            "0xdf7df68fddb55e38a4b636bbd972bdf7820a2a1b99e9531fe805a52f90a7e99d",
            "0xc367f0c131d919f7bbb9d871f4df1ffe66429945153845ca67ffb2e37729053a",
            "0x0000000000000000000000000000000000000000000000000000000000000000"
          ],
          "data": "0x000000000000000000000000000000000000000000000000000000000000000000000000000000000000000000000000000000000000000000000000000000030000000000000000000000000000000000000000000000000000000000000000",
          "blockHash": "0x634f388a2c07584c09bde95badecc1169b1c8654e327cfb6e060748d08222d0a",
          "blockNumber": "0x2c8c3f6",
          "blockTimestamp": "0x69b67142",
          "transactionHash": "0x6b421cc37ff4e5a9d3944f30fc410f615017164303b24d3c80f94ac39479b894",
          "transactionIndex": "0xf",
          "logIndex": "0x28",
          "removed": false
        }
      ],
      "logsBloom": "0x00000000000000000000002000000000000000000000000000000000000000000000000000000000000000200000000080000000000000040000001000000000000000000000000000000000000000000000000000200000000000040000000040000000020000000000000000000800000000000001000000000000000000200000000000000200000000000000000000000400000000000000000000000000000000000000000000000000040000000400000000000010000000000000000000000000800000000000000000100000000000000000000000000000000020000000000000000000001000000000000000000000000000023000000000000000",
      "type": "0x2",
      "transactionHash": "0x6b421cc37ff4e5a9d3944f30fc410f615017164303b24d3c80f94ac39479b894",
      "transactionIndex": "0xf",
      "blockHash": "0x634f388a2c07584c09bde95badecc1169b1c8654e327cfb6e060748d08222d0a",
      "blockNumber": "0x2c8c3f6",
      "gasUsed": "0xf9b2",
      "effectiveGasPrice": "0x7a121",
      "blobGasUsed": "0x11f80",
      "from": "0x4b992f2fbf714c0fcbb23bac5130ace48cad00cd",
      "to": "0xe56a90ad0deab20ee9fcd780b14ca90fc71d3f5d",
      "contractAddress": null,
      "daFootprintGasScalar": "0x190",
      "l1BaseFeeScalar": "0x7d0",
      "l1BlobBaseFee": "0x1",
      "l1BlobBaseFeeScalar": "0xdbba0",
      "l1Fee": "0xda",
      "l1GasPrice": "0x9",
      "l1GasUsed": "0xb81"
    },
    {
      "status": "0x1",
      "cumulativeGasUsed": "0x1a3251",
      "logs": [
        {
          "address": "0x493a90b1ea1bcbe2c6ab5af70928c82051b5e726",
          "topics": [
            "0xb3dde0287222b49b4bbdfbd414c2ffd0c3624d21a3f2803e40d0b130ae277d76",
            "0xc367f0c131d919f7bbb9d871f4df1ffe66429945153845ca67ffb2e37729053a"
          ],
          "data": "0x00000000000000000000000000000000000000000000000000000000000000010000000000000000000000000000000000000000000000000000000000000003",
          "blockHash": "0x634f388a2c07584c09bde95badecc1169b1c8654e327cfb6e060748d08222d0a",
          "blockNumber": "0x2c8c3f6",
          "blockTimestamp": "0x69b67142",
          "transactionHash": "0x46d9d6a476c68dfb1179dadb9b1b477684ed59367808999766dcbc0482522c60",
          "transactionIndex": "0x10",
          "logIndex": "0x29",
          "removed": false
        },
        {
          "address": "0xbf42f398561644eb55a7269da0f937d0512c40c0",
          "topics": [
            "0x82efaee5b14d8017020d8b71e6fc399e18b833bca549be299b7db2752d4df935",
            "0xc367f0c131d919f7bbb9d871f4df1ffe66429945153845ca67ffb2e37729053a"
          ],
          "data": "0x00000000000000000000000000000000000000000000000000000000000000000000000000000000000000000000000000000000000000000000000000000003",
          "blockHash": "0x634f388a2c07584c09bde95badecc1169b1c8654e327cfb6e060748d08222d0a",
          "blockNumber": "0x2c8c3f6",
          "blockTimestamp": "0x69b67142",
          "transactionHash": "0x46d9d6a476c68dfb1179dadb9b1b477684ed59367808999766dcbc0482522c60",
          "transactionIndex": "0x10",
          "logIndex": "0x2a",
          "removed": false
        },
        {
          "address": "0xe56a90ad0deab20ee9fcd780b14ca90fc71d3f5d",
          "topics": [
            "0xdf7df68fddb55e38a4b636bbd972bdf7820a2a1b99e9531fe805a52f90a7e99d",
            "0xc367f0c131d919f7bbb9d871f4df1ffe66429945153845ca67ffb2e37729053a",
            "0x0000000000000000000000000000000000000000000000000000000000000000"
          ],
          "data": "0x000000000000000000000000000000000000000000000000000000000000000000000000000000000000000000000000000000000000000000000000000000030000000000000000000000000000000000000000000000000000000000000000",
          "blockHash": "0x634f388a2c07584c09bde95badecc1169b1c8654e327cfb6e060748d08222d0a",
          "blockNumber": "0x2c8c3f6",
          "blockTimestamp": "0x69b67142",
          "transactionHash": "0x46d9d6a476c68dfb1179dadb9b1b477684ed59367808999766dcbc0482522c60",
          "transactionIndex": "0x10",
          "logIndex": "0x2b",
          "removed": false
        }
      ],
      "logsBloom": "0x00000000000000000000002000000000000000000000000000000000000000000000000000000000000000200000000080000000000000040000001000000000000000000000000000000000000000000000000000200000000000040000000040000000020000000000000000000800000000000001000000000000000000200000000000000200000000000000000000000400000000000000000000000000000000000000000000000000040000000400000000000010000000000000000000000000800000000000000000100000000000000000000000000000000020000000000000000000001000000000000000000000000000023000000000000000",
      "type": "0x2",
      "transactionHash": "0x46d9d6a476c68dfb1179dadb9b1b477684ed59367808999766dcbc0482522c60",
      "transactionIndex": "0x10",
      "blockHash": "0x634f388a2c07584c09bde95badecc1169b1c8654e327cfb6e060748d08222d0a",
      "blockNumber": "0x2c8c3f6",
      "gasUsed": "0xf9b2",
      "effectiveGasPrice": "0x7a121",
      "blobGasUsed": "0x11f80",
      "from": "0x4b992f2fbf714c0fcbb23bac5130ace48cad00cd",
      "to": "0xe56a90ad0deab20ee9fcd780b14ca90fc71d3f5d",
      "contractAddress": null,
      "daFootprintGasScalar": "0x190",
      "l1BaseFeeScalar": "0x7d0",
      "l1BlobBaseFee": "0x1",
      "l1BlobBaseFeeScalar": "0xdbba0",
      "l1Fee": "0xda",
      "l1GasPrice": "0x9",
      "l1GasUsed": "0xb81"
    },
    {
      "status": "0x1",
      "cumulativeGasUsed": "0x1b2c03",
      "logs": [
        {
          "address": "0x493a90b1ea1bcbe2c6ab5af70928c82051b5e726",
          "topics": [
            "0xb3dde0287222b49b4bbdfbd414c2ffd0c3624d21a3f2803e40d0b130ae277d76",
            "0xc367f0c131d919f7bbb9d871f4df1ffe66429945153845ca67ffb2e37729053a"
          ],
          "data": "0x00000000000000000000000000000000000000000000000000000000000000010000000000000000000000000000000000000000000000000000000000000003",
          "blockHash": "0x634f388a2c07584c09bde95badecc1169b1c8654e327cfb6e060748d08222d0a",
          "blockNumber": "0x2c8c3f6",
          "blockTimestamp": "0x69b67142",
          "transactionHash": "0x2cfea9def92ad3a93240e6533e7a13602c97ebef7abd3884716fcf0ccac7ca8d",
          "transactionIndex": "0x11",
          "logIndex": "0x2c",
          "removed": false
        },
        {
          "address": "0xbf42f398561644eb55a7269da0f937d0512c40c0",
          "topics": [
            "0x82efaee5b14d8017020d8b71e6fc399e18b833bca549be299b7db2752d4df935",
            "0xc367f0c131d919f7bbb9d871f4df1ffe66429945153845ca67ffb2e37729053a"
          ],
          "data": "0x00000000000000000000000000000000000000000000000000000000000000000000000000000000000000000000000000000000000000000000000000000003",
          "blockHash": "0x634f388a2c07584c09bde95badecc1169b1c8654e327cfb6e060748d08222d0a",
          "blockNumber": "0x2c8c3f6",
          "blockTimestamp": "0x69b67142",
          "transactionHash": "0x2cfea9def92ad3a93240e6533e7a13602c97ebef7abd3884716fcf0ccac7ca8d",
          "transactionIndex": "0x11",
          "logIndex": "0x2d",
          "removed": false
        },
        {
          "address": "0xe56a90ad0deab20ee9fcd780b14ca90fc71d3f5d",
          "topics": [
            "0xdf7df68fddb55e38a4b636bbd972bdf7820a2a1b99e9531fe805a52f90a7e99d",
            "0xc367f0c131d919f7bbb9d871f4df1ffe66429945153845ca67ffb2e37729053a",
            "0x0000000000000000000000000000000000000000000000000000000000000000"
          ],
          "data": "0x000000000000000000000000000000000000000000000000000000000000000000000000000000000000000000000000000000000000000000000000000000030000000000000000000000000000000000000000000000000000000000000000",
          "blockHash": "0x634f388a2c07584c09bde95badecc1169b1c8654e327cfb6e060748d08222d0a",
          "blockNumber": "0x2c8c3f6",
          "blockTimestamp": "0x69b67142",
          "transactionHash": "0x2cfea9def92ad3a93240e6533e7a13602c97ebef7abd3884716fcf0ccac7ca8d",
          "transactionIndex": "0x11",
          "logIndex": "0x2e",
          "removed": false
        }
      ],
      "logsBloom": "0x00000000000000000000002000000000000000000000000000000000000000000000000000000000000000200000000080000000000000040000001000000000000000000000000000000000000000000000000000200000000000040000000040000000020000000000000000000800000000000001000000000000000000200000000000000200000000000000000000000400000000000000000000000000000000000000000000000000040000000400000000000010000000000000000000000000800000000000000000100000000000000000000000000000000020000000000000000000001000000000000000000000000000023000000000000000",
      "type": "0x2",
      "transactionHash": "0x2cfea9def92ad3a93240e6533e7a13602c97ebef7abd3884716fcf0ccac7ca8d",
      "transactionIndex": "0x11",
      "blockHash": "0x634f388a2c07584c09bde95badecc1169b1c8654e327cfb6e060748d08222d0a",
      "blockNumber": "0x2c8c3f6",
      "gasUsed": "0xf9b2",
      "effectiveGasPrice": "0x7a121",
      "blobGasUsed": "0x11f80",
      "from": "0x4b992f2fbf714c0fcbb23bac5130ace48cad00cd",
      "to": "0xe56a90ad0deab20ee9fcd780b14ca90fc71d3f5d",
      "contractAddress": null,
      "daFootprintGasScalar": "0x190",
      "l1BaseFeeScalar": "0x7d0",
      "l1BlobBaseFee": "0x1",
      "l1BlobBaseFeeScalar": "0xdbba0",
      "l1Fee": "0xda",
      "l1GasPrice": "0x9",
      "l1GasUsed": "0xb81"
    },
    {
      "status": "0x1",
      "cumulativeGasUsed": "0x1c25b5",
      "logs": [
        {
          "address": "0x493a90b1ea1bcbe2c6ab5af70928c82051b5e726",
          "topics": [
            "0xb3dde0287222b49b4bbdfbd414c2ffd0c3624d21a3f2803e40d0b130ae277d76",
            "0xc367f0c131d919f7bbb9d871f4df1ffe66429945153845ca67ffb2e37729053a"
          ],
          "data": "0x00000000000000000000000000000000000000000000000000000000000000010000000000000000000000000000000000000000000000000000000000000003",
          "blockHash": "0x634f388a2c07584c09bde95badecc1169b1c8654e327cfb6e060748d08222d0a",
          "blockNumber": "0x2c8c3f6",
          "blockTimestamp": "0x69b67142",
          "transactionHash": "0xdb98a8b821d0ab705812035c5a973e987aacc334b568cd94ec93a8a28a9c0567",
          "transactionIndex": "0x12",
          "logIndex": "0x2f",
          "removed": false
        },
        {
          "address": "0xbf42f398561644eb55a7269da0f937d0512c40c0",
          "topics": [
            "0x82efaee5b14d8017020d8b71e6fc399e18b833bca549be299b7db2752d4df935",
            "0xc367f0c131d919f7bbb9d871f4df1ffe66429945153845ca67ffb2e37729053a"
          ],
          "data": "0x00000000000000000000000000000000000000000000000000000000000000000000000000000000000000000000000000000000000000000000000000000003",
          "blockHash": "0x634f388a2c07584c09bde95badecc1169b1c8654e327cfb6e060748d08222d0a",
          "blockNumber": "0x2c8c3f6",
          "blockTimestamp": "0x69b67142",
          "transactionHash": "0xdb98a8b821d0ab705812035c5a973e987aacc334b568cd94ec93a8a28a9c0567",
          "transactionIndex": "0x12",
          "logIndex": "0x30",
          "removed": false
        },
        {
          "address": "0xe56a90ad0deab20ee9fcd780b14ca90fc71d3f5d",
          "topics": [
            "0xdf7df68fddb55e38a4b636bbd972bdf7820a2a1b99e9531fe805a52f90a7e99d",
            "0xc367f0c131d919f7bbb9d871f4df1ffe66429945153845ca67ffb2e37729053a",
            "0x0000000000000000000000000000000000000000000000000000000000000000"
          ],
          "data": "0x000000000000000000000000000000000000000000000000000000000000000000000000000000000000000000000000000000000000000000000000000000030000000000000000000000000000000000000000000000000000000000000000",
          "blockHash": "0x634f388a2c07584c09bde95badecc1169b1c8654e327cfb6e060748d08222d0a",
          "blockNumber": "0x2c8c3f6",
          "blockTimestamp": "0x69b67142",
          "transactionHash": "0xdb98a8b821d0ab705812035c5a973e987aacc334b568cd94ec93a8a28a9c0567",
          "transactionIndex": "0x12",
          "logIndex": "0x31",
          "removed": false
        }
      ],
      "logsBloom": "0x00000000000000000000002000000000000000000000000000000000000000000000000000000000000000200000000080000000000000040000001000000000000000000000000000000000000000000000000000200000000000040000000040000000020000000000000000000800000000000001000000000000000000200000000000000200000000000000000000000400000000000000000000000000000000000000000000000000040000000400000000000010000000000000000000000000800000000000000000100000000000000000000000000000000020000000000000000000001000000000000000000000000000023000000000000000",
      "type": "0x2",
      "transactionHash": "0xdb98a8b821d0ab705812035c5a973e987aacc334b568cd94ec93a8a28a9c0567",
      "transactionIndex": "0x12",
      "blockHash": "0x634f388a2c07584c09bde95badecc1169b1c8654e327cfb6e060748d08222d0a",
      "blockNumber": "0x2c8c3f6",
      "gasUsed": "0xf9b2",
      "effectiveGasPrice": "0x7a121",
      "blobGasUsed": "0x11f80",
      "from": "0x4b992f2fbf714c0fcbb23bac5130ace48cad00cd",
      "to": "0xe56a90ad0deab20ee9fcd780b14ca90fc71d3f5d",
      "contractAddress": null,
      "daFootprintGasScalar": "0x190",
      "l1BaseFeeScalar": "0x7d0",
      "l1BlobBaseFee": "0x1",
      "l1BlobBaseFeeScalar": "0xdbba0",
      "l1Fee": "0xda",
      "l1GasPrice": "0x9",
      "l1GasUsed": "0xb81"
    },
    {
      "status": "0x1",
      "cumulativeGasUsed": "0x1e8f99",
      "logs": [
        {
          "address": "0x493a90b1ea1bcbe2c6ab5af70928c82051b5e726",
          "topics": [
            "0xb3dde0287222b49b4bbdfbd414c2ffd0c3624d21a3f2803e40d0b130ae277d76",
            "0xc367f0c131d919f7bbb9d871f4df1ffe66429945153845ca67ffb2e37729053a"
          ],
          "data": "0x00000000000000000000000000000000000000000000000000000000000000010000000000000000000000000000000000000000000000000000000000000003",
          "blockHash": "0x634f388a2c07584c09bde95badecc1169b1c8654e327cfb6e060748d08222d0a",
          "blockNumber": "0x2c8c3f6",
          "blockTimestamp": "0x69b67142",
          "transactionHash": "0x78a1de3dd8cdd525624766fd9927f0897afb24c4fff40d211821ef7b5ae99718",
          "transactionIndex": "0x14",
          "logIndex": "0x33",
          "removed": false
        },
        {
          "address": "0xbf42f398561644eb55a7269da0f937d0512c40c0",
          "topics": [
            "0x82efaee5b14d8017020d8b71e6fc399e18b833bca549be299b7db2752d4df935",
            "0xc367f0c131d919f7bbb9d871f4df1ffe66429945153845ca67ffb2e37729053a"
          ],
          "data": "0x00000000000000000000000000000000000000000000000000000000000000000000000000000000000000000000000000000000000000000000000000000003",
          "blockHash": "0x634f388a2c07584c09bde95badecc1169b1c8654e327cfb6e060748d08222d0a",
          "blockNumber": "0x2c8c3f6",
          "blockTimestamp": "0x69b67142",
          "transactionHash": "0x78a1de3dd8cdd525624766fd9927f0897afb24c4fff40d211821ef7b5ae99718",
          "transactionIndex": "0x14",
          "logIndex": "0x34",
          "removed": false
        },
        {
          "address": "0xe56a90ad0deab20ee9fcd780b14ca90fc71d3f5d",
          "topics": [
            "0xdf7df68fddb55e38a4b636bbd972bdf7820a2a1b99e9531fe805a52f90a7e99d",
            "0xc367f0c131d919f7bbb9d871f4df1ffe66429945153845ca67ffb2e37729053a",
            "0x0000000000000000000000000000000000000000000000000000000000000000"
          ],
          "data": "0x000000000000000000000000000000000000000000000000000000000000000000000000000000000000000000000000000000000000000000000000000000030000000000000000000000000000000000000000000000000000000000000000",
          "blockHash": "0x634f388a2c07584c09bde95badecc1169b1c8654e327cfb6e060748d08222d0a",
          "blockNumber": "0x2c8c3f6",
          "blockTimestamp": "0x69b67142",
          "transactionHash": "0x78a1de3dd8cdd525624766fd9927f0897afb24c4fff40d211821ef7b5ae99718",
          "transactionIndex": "0x14",
          "logIndex": "0x35",
          "removed": false
        }
      ],
      "logsBloom": "0x00000000000000000000002000000000000000000000000000000000000000000000000000000000000000200000000080000000000000040000001000000000000000000000000000000000000000000000000000200000000000040000000040000000020000000000000000000800000000000001000000000000000000200000000000000200000000000000000000000400000000000000000000000000000000000000000000000000040000000400000000000010000000000000000000000000800000000000000000100000000000000000000000000000000020000000000000000000001000000000000000000000000000023000000000000000",
      "type": "0x2",
      "transactionHash": "0x78a1de3dd8cdd525624766fd9927f0897afb24c4fff40d211821ef7b5ae99718",
      "transactionIndex": "0x14",
      "blockHash": "0x634f388a2c07584c09bde95badecc1169b1c8654e327cfb6e060748d08222d0a",
      "blockNumber": "0x2c8c3f6",
      "gasUsed": "0xf9b2",
      "effectiveGasPrice": "0x7a121",
      "blobGasUsed": "0x11f80",
      "from": "0x4b992f2fbf714c0fcbb23bac5130ace48cad00cd",
      "to": "0xe56a90ad0deab20ee9fcd780b14ca90fc71d3f5d",
      "contractAddress": null,
      "daFootprintGasScalar": "0x190",
      "l1BaseFeeScalar": "0x7d0",
      "l1BlobBaseFee": "0x1",
      "l1BlobBaseFeeScalar": "0xdbba0",
      "l1Fee": "0xda",
      "l1GasPrice": "0x9",
      "l1GasUsed": "0xb81"
    },
    {
      "status": "0x1",
      "cumulativeGasUsed": "0x20f97d",
      "logs": [
        {
          "address": "0x493a90b1ea1bcbe2c6ab5af70928c82051b5e726",
          "topics": [
            "0xb3dde0287222b49b4bbdfbd414c2ffd0c3624d21a3f2803e40d0b130ae277d76",
            "0xc367f0c131d919f7bbb9d871f4df1ffe66429945153845ca67ffb2e37729053a"
          ],
          "data": "0x00000000000000000000000000000000000000000000000000000000000000010000000000000000000000000000000000000000000000000000000000000003",
          "blockHash": "0x634f388a2c07584c09bde95badecc1169b1c8654e327cfb6e060748d08222d0a",
          "blockNumber": "0x2c8c3f6",
          "blockTimestamp": "0x69b67142",
          "transactionHash": "0x63a7f4044e14f8c47ca338c9c03d2de5651a6b348c747e9872bc0889894b9d33",
          "transactionIndex": "0x16",
          "logIndex": "0x37",
          "removed": false
        },
        {
          "address": "0xbf42f398561644eb55a7269da0f937d0512c40c0",
          "topics": [
            "0x82efaee5b14d8017020d8b71e6fc399e18b833bca549be299b7db2752d4df935",
            "0xc367f0c131d919f7bbb9d871f4df1ffe66429945153845ca67ffb2e37729053a"
          ],
          "data": "0x00000000000000000000000000000000000000000000000000000000000000000000000000000000000000000000000000000000000000000000000000000003",
          "blockHash": "0x634f388a2c07584c09bde95badecc1169b1c8654e327cfb6e060748d08222d0a",
          "blockNumber": "0x2c8c3f6",
          "blockTimestamp": "0x69b67142",
          "transactionHash": "0x63a7f4044e14f8c47ca338c9c03d2de5651a6b348c747e9872bc0889894b9d33",
          "transactionIndex": "0x16",
          "logIndex": "0x38",
          "removed": false
        },
        {
          "address": "0xe56a90ad0deab20ee9fcd780b14ca90fc71d3f5d",
          "topics": [
            "0xdf7df68fddb55e38a4b636bbd972bdf7820a2a1b99e9531fe805a52f90a7e99d",
            "0xc367f0c131d919f7bbb9d871f4df1ffe66429945153845ca67ffb2e37729053a",
            "0x0000000000000000000000000000000000000000000000000000000000000000"
          ],
          "data": "0x000000000000000000000000000000000000000000000000000000000000000000000000000000000000000000000000000000000000000000000000000000030000000000000000000000000000000000000000000000000000000000000000",
          "blockHash": "0x634f388a2c07584c09bde95badecc1169b1c8654e327cfb6e060748d08222d0a",
          "blockNumber": "0x2c8c3f6",
          "blockTimestamp": "0x69b67142",
          "transactionHash": "0x63a7f4044e14f8c47ca338c9c03d2de5651a6b348c747e9872bc0889894b9d33",
          "transactionIndex": "0x16",
          "logIndex": "0x39",
          "removed": false
        }
      ],
      "logsBloom": "0x00000000000000000000002000000000000000000000000000000000000000000000000000000000000000200000000080000000000000040000001000000000000000000000000000000000000000000000000000200000000000040000000040000000020000000000000000000800000000000001000000000000000000200000000000000200000000000000000000000400000000000000000000000000000000000000000000000000040000000400000000000010000000000000000000000000800000000000000000100000000000000000000000000000000020000000000000000000001000000000000000000000000000023000000000000000",
      "type": "0x2",
      "transactionHash": "0x63a7f4044e14f8c47ca338c9c03d2de5651a6b348c747e9872bc0889894b9d33",
      "transactionIndex": "0x16",
      "blockHash": "0x634f388a2c07584c09bde95badecc1169b1c8654e327cfb6e060748d08222d0a",
      "blockNumber": "0x2c8c3f6",
      "gasUsed": "0xf9b2",
      "effectiveGasPrice": "0x7a121",
      "blobGasUsed": "0x11f80",
      "from": "0x4b992f2fbf714c0fcbb23bac5130ace48cad00cd",
      "to": "0xe56a90ad0deab20ee9fcd780b14ca90fc71d3f5d",
      "contractAddress": null,
      "daFootprintGasScalar": "0x190",
      "l1BaseFeeScalar": "0x7d0",
      "l1BlobBaseFee": "0x1",
      "l1BlobBaseFeeScalar": "0xdbba0",
      "l1Fee": "0xda",
      "l1GasPrice": "0x9",
      "l1GasUsed": "0xb81"
    }
  ],
  "libraries": [],
  "pending": [],
  "returns": {},
  "timestamp": 1773564382608,
  "chain": 1301,
  "commit": "2745fea"
}